:020000040800F2
:100000000809002079020008132600087B25000853
:1000100011260008850F000865290008000000006F
:10002000000000000000000000000000172600088B
:10003000F910000800000000152600081926000825
:100040009D0200089D0200089D0200089D02000814
:100050009D0200089D0200089D0200089D02000804
:10006000FD1000080D1100089D0200089D02000807
:100070009D0200089D0200089D0200089D020008E4
:100080009D0200089D0200089D0200089D020008D4
:10009000890F00089D0200089D0200089D020008CB
:1000A0009D0200089D0200089D0200089D020008B4
:1000B0009D0200089D0200082D2600089D020008F0
:1000C0009D0200089D0200089D0200089D02000894
:1000D0009D020008292900089D0200089D020008D1
:1000E0009D0200089D0200089D0200089D02000874
:1000F0009D0200089D0200089D0200089D02000864
:100100009D0200089D0200089D0200089D02000853
:100110009D0200089D0200089D0200089D02000843
:100120009D0200089D0200089D0200089D02000833
:100130009D0200089D0200089D0200089D02000823
:100140009D0200089D0200089D0200089D02000813
:100150009D0200089D0200089D0200089D02000803
:100160009D0200089D0200089D0200089D020008F3
:100170009D0200089D0200089D020008000000008A
:100180009D0200089D02000800F002F800F065F8EA
:100190000AA090E8000C82448344AAF10107DA45E2
:1001A00001D100F05AF8AFF2090EBAE80F0013F0CF
:1001B000010F18BFFB1A43F001031847608C0000C1
:1001C000808C00000A4410F8014B14F00F0508BFA2
:1001D00010F8015B240908BF10F8014B6D1E05D013
:1001E00010F8013B6D1E01F8013BF9D1641E03D0EC
:1001F000641E01F8015BFBD19142E4D3704700001B
:100200000023002400250026103A28BF78C1FBD81F
:10021000520728BF30C148BF0B607047662905F000
:10022000E681642900F02481752900F02181782974
:1002300000F05A81732900F01F85002070471FB518
:1002400005F0C8F900F02EFD04000020002104F0A4
:100250007FFCE0601FBD10B510BD00F027FE114609
:10026000FFF7EDFF03F098F800F045FE03B4FFF749
:10027000F2FF03BC02F08AFB0C48016841F47001F4
:1002800001600B4880470B480047FEE7FEE7FEE7AA
:10029000FEE7FEE7FEE7FEE7FEE7FEE7FEE700001B
:1002A00005480649044A064B7047000088ED00E007
:1002B0001D26000889010008080500200809002003
:1002C00008050020704753EA020C00F069802DE910
:1002D000F04B4FF00006002B1FBFB3FA83F503FA73
:1002E00005F424FA05F65E4012BF1643B2FA82F511
:1002F00002FA05F4C5F120051EBF22FA05FC44EA06
:100300000C04203556EA044C4FEA144418BF641C10
:100310004FF000084FF00009904271EB030C39D305
:10032000002919BFB1FA81F701FA07F6B0FA80F790
:1003300000FA07F6C7F120071EBF20FA07FC46EABD
:100340000C062037B6FBF4FCA7EB0507103F07F0BF
:100350001F0BCBF120062CFA06F60CFA0BFB44BF60
:10036000B3460026202FA4BF5E464FF0000B5BEA89
:10037000060C08BF4FF0010B19EB0B0948EB060800
:10038000ABFB027C06FB02CC0BFB03CCC01B71EB6E
:100390000C01C1E70B46024641464846BDE8F08BDA
:1003A00013B5084318BF4FF0FF300146AFF300808C
:1003B000BDE81C40704700000FB4044910B503AA03
:1003C000029800F05DFC10BC5DF814FB4C030020AB
:1003D00070B5044685690068C10601D5302600E085
:1003E0002026C00707D070BDD4E9012130469047D0
:1003F000206A401C20626D1EF6D570BD70B50446A3
:1004000085690078C00707D170BDD4E9012120209B
:100410009047206A401C20626D1EF6D570BD70B5F5
:100420000C460546012A05D02878800600D5EA69E1
:10043000002302E0012305E05B1C934202D2E05C52
:100440000028F9D1A869E618C01AA861286A1844DA
:1004500028622846FFF7BCFF04E0D5E9012114F823
:10046000010B9047B442F8D32846FFF7C7FF70BD91
:100470002DE9F0410646002410687529314616A57D
:1004800010D0AFF30080002802DA404213A507E045
:1004900031688A0701D512A502E0490704D511A5E4
:1004A000012401E0AFF3008000210A2206F12407B5
:1004B00009E0B0FBF2FCB0FBF2F302FB1C003030B1
:1004C00078541846491C0028F3D123462A46304662
:1004D000BDE8F04100F03FB9000000002D00000031
:1004E0002B0000002000000070B504460D46214698
:1004F0001068AFF300802188090502D50F4A7A44BD
:1005000002E00E4A7A440E32002104F1240305E091
:1005100000F00F060009965D5E54491C0028F7D1D3
:1005200020780023000704D5702D02D009B10223E2
:1005300011322046BDE8704000F00DB9F0500000C7
:100540002DE9F05F894604464FF0000ADFF874B1E8
:10055000FB44C0F820A02046E1688847002874D0FA
:10056000252806D0D4E901219047206A401C20624A
:10057000F1E700265F462046E168884720280546C7
:1005800007DB312D05D2781910F8200C08B106438D
:10059000F1E7B00701D526F00406C4F81CA0002737
:1005A000C4F818A02A2D09D0284604F0C9FA38B397
:1005B00004EB8708303DC8F8185019E059F8041BBF
:1005C000204604EB87029161E1688847012F0546C8
:1005D00018D1E069002820DA26F020061DE0D8F8BE
:1005E000180000EB800005EB40003038C8F8180018
:1005F0002046E1688847054604F0A2FA0028EED1BB
:10060000012F0AD02E2D08D12046E16888477F1C93
:100610000546022F46F02006C4DBA069002803DA55
:10062000404246F00106A061F00701D026F0100616
:100630006C2D0BD0682D09D04C2D39D06A2D35D0BA
:10064000742D35D07A2D33D016E038E0E1682F468E
:1006500020468847B842054609D16C2F26D04FF472
:100660008060E168064320468847054604E06C2F19
:100670001AD04FF4807006430DB3A5F1410019283C
:1006800002D8203546F400664A46294620462660B0
:100690004E46FFF7C3FD80B101280BD0F61D26F0B2
:1006A000070000F1080956E74020E4E78020D8E77A
:1006B0000020D6E706F104094DE7284652E7206AF4
:1006C000BDE8F09FC6500000014902F005BA0000E5
:1006D0004C03002010B5044603E002F0FDF9401C75
:1006E00009D014F8010B05490028F6D1BDE81040E7
:1006F0000A2002F0F1B94FF0FF3010BD4C0300208A
:100700004FF0000200B5134694469646203922BFAA
:10071000A0E80C50A0E80C50B1F12001BFF4F7AFF5
:10072000090728BFA0E80C5048BF0CC05DF804EBD7
:10073000890028BF40F8042B08BF704748BF20F845
:10074000022B11F0804F18BF00F8012B7047704743
:100750007047704770472DE9F0470D46994692461D
:10076000044600F124080168880604D5E06921F0F8
:100770001001216000E00120A84201DD471B00E0DC
:100780000027A1697A1902EB0900081AA0612078F4
:10079000C00602D42046FFF71BFE002608E0D4E97D
:1007A00001211AF806009047206A401C761C20623E
:1007B0004E45F4DB2078C0060AD52046FFF708FE38
:1007C00006E0D4E9012130209047206A401C2062D5
:1007D000381EA7F10107F4DC07E0D4E9012118F87D
:1007E00005009047206A401C2062281EA5F10105E3
:1007F000F3DC2046FFF702FE2078000602D5022037
:10080000BDE8F0870120FBE72DE9FF4F0C461E46AF
:100810004FF0FF378BB0D2E90001DDF860800A901D
:100820008A46C1F30A5505B93D46002108464FF0F6
:100830000000BAF1000F00F4400005DA00EB800080
:100840004FF4400101EA50004FEA9059B9F1010F0D
:1008500000DDB9460A9850EA4A000ED044F610501E
:10086000A5F2FF3545432F14B8F1000F1ED0754295
:10087000291E1EDDC9F100021CE0B8F1010F4FF086
:10088000000001D0302103E0F24305E02154401C78
:10089000B042FBDB30460022002121540B99C1F805
:1008A0000880C1E900200FB0BDE8F08FBD1B6D1CB2
:1008B000DEE74A4600DA694206A800F07DFA06AB98
:1008C00093E8070003AB83E8070050460A9903F05A
:1008D00057FD8DE80700A0F500501F3800900398E1
:1008E000002D0ADD42F21F014A460844002303A9F5
:1008F0000390684603F0C0FF09E0A0F500504A46A7
:100900001F38002303A90390684603F0CAFF8DE84F
:1009100007000004000C03D04FF0FF30410800E056
:100920001046B8F1000F03D00022009215461EE0D9
:10093000751E05D400F0BAF9303262556D1EF9D536
:10094000B3460122084302D000227F1C04E0207835
:10095000302801D100227F1E002A099784D01DE093
:10096000112D07DA00F0A2F9303262556D1C50EA01
:100970000102F5D1084302D00098C8B10EE0002171
:10098000681E05E0235C625C63542254401E491CCF
:100990008142F7DBAB46A81B401E0990002004F8FB
:1009A0000B000B98099AC0F80880C0E9002B7AE781
:1009B00011264FF0000857E72DE9F04F884604460E
:1009C000D21D22F0070191B0D1E90001CDE90A0161
:1009D00004F09EF802460B98C00F01D02D2007E0CE
:1009E0002068810701D52B2002E0202101EAC00008
:1009F000032A099001D0072A05DB03464146204619
:100A000000F09AF90BE12078800601D5E06900E05A
:100A10000620B8F1650F814606D0B8F1660F18D0F0
:100A2000B8F1670F70D131E00020B9F1110F0090DB
:100A300001DB112301E009F101030AAA01A90CA8B5
:100A4000FFF7E2FEDDE90C70002609F1010583469F
:100A500047E001204B4600904FF000470AAA01A949
:100A60000CA8FFF7D1FEDDE90DB00C995D4600261C
:100A700010B909F101000D18B9EB050003D4C0F15C
:100A8000FF3609F10105A5EB09002BE0B9F1010FD3
:100A900001DA4FF001090020B9F1110F009048462A
:100AA00001DD112300E003460AAA01A90CA8FFF703
:100AB000ABFEDDE90C704D4600268346207800072A
:100AC0000AD4AB4500DA5D4601A8012D04DD4119C9
:100AD00011F8011C302907D04F4502DA17F1040F35
:100AE00004DA012082460FE06D1EEEE7002F02DCE3
:100AF000ED1B3E4403E0781CA84200DD7D1CB81BC2
:100B000000F1010A4FF000472078000703D4AA45FE
:100B100001DB4FF0FF3A0021B7F1004F0DF1430820
:100B20008DF8431024D002202B23002F01DA7F42BE
:100B30002D230A21021EA0F1010000DC5FB197FB0A
:100B4000F1FC97FBF1F201FB1C7C17460CF1300C19
:100B500008F801CDEEE7A8F101000370218809052E
:100B600001D5452100E06521A0F1010800F8011C34
:100B700009980FA9A1EB0807FF1D00B10120411939
:100B800001EBEA70A1693844081A401EA061207880
:100B9000C00602D42046FFF71BFC099828B1D4E90F
:100BA00001219047206A401C20622078C00622D58F
:100BB0002046FFF70DFC1EE0002E04DBB34502DDEE
:100BC00001A8805D00E03020D4E901219047206A2F
:100BD000401C2062761CAAF101005FEA000A0AD1DB
:100BE00000F060F8C0680168405CD4E901219047DA
:100BF000206A401C2062281EA5F10105DCDC07E00C
:100C0000D4E9012118F8010B9047206A401C2062AA
:100C1000381EA7F10107F3DC2046FFF7EFFB0320A6
:100C200011B041E601694A1C02610878704700B5BD
:100C30008FB0CDE901310021059105497944CDE915
:100C4000031011466846FFF77BFC0FB000BD0000A3
:100C5000E5FFFFFF10B5436913B1AFF3008001E07A
:100C6000FFF7DDFB012010BD127800F124010A70AE
:100C700000224A700122EDE711684FF0FF32E9E7E8
:100C8000074B70B50D467B44FFF7D1FF044628465D
:100C900000F004F910B14FF0FF3070BD204670BD78
:100CA0004F1E000000487047C801002030B5B0F169
:100CB0000A0271F100034FEA900E4EEA817EB0EB1A
:100CC0000E0061EB91014FEA101E4EEA017E10EB1F
:100CD0000E0041EB11114FEA102E4EEA016E10EB9F
:100CE0000E0041EB11214FEA104E4EEA014E10EB7F
:100CF0000E0041EB1141401841F100014FEAD000D4
:100D000040EA41704FEAD1014FEA810444EA90740D
:100D100010EB800544EB01046D1944EB0404521BF5
:100D2000A3414FF0000348BF0A3200D530BD401C3C
:100D300041F1000130BD00002DE9F0411F4604469D
:100D400003260168072A01F4006004DB08B116A538
:100D500005E016A503E008B115A500E015A521F0F2
:100D600010002060A069C01EA0610FB1401EA061EC
:100D70002046FFF72DFB4FB1D4E9012138469047BB
:100D8000206A401C2062C01C206206E0206AFAE74C
:100D9000D4E9012115F8010B9047761EF8D22046C0
:100DA000FFF72CFBBDE8F0814E414E006E616E00F6
:100DB000494E4600696E66002DE9F04781461646A9
:100DC0008AB0354878440DC88DE80D003248784423
:100DD000801C03AC0DC884E80D0041F69B3008442C
:100DE000372190FBF1F290FBF1F5A5F1800501FBB5
:100DF00012041B3C02D56442012000E00020DFF811
:100E000098A080460027FA44AAF1BE0A0EE0E00747
:100E10000AD03246684607EB470101230AEB8101FD
:100E200003F03FFD8DE8070064107F1C002CEED11D
:100E3000194F7F44AE3F19E0E80715D007EB0410C7
:100E40000DF1180A90E80E008AE80E00C068F04222
:100E500001D1981908903246012306A903A803F08E
:100E600020FD03AB83E807006D10641C002DE3D167
:100E70004FF0010332466946B8F1000F03A802D0D3
:100E800003F0FAFC01E003F00CFDC9E90001C9F828
:100E900008200AB0BDE8F087E0480000007B00F0C1
:100EA0008000704700487047A80100207546FFF792
:100EB000F9FFAE4605006946534620F00700854617
:100EC00018B020B5FFF7ECF9BDE820404FF0000660
:100ED0004FF000074FF000084FF0000BAC46ACE8B5
:100EE000C009ACE8C009ACE8C009ACE8C00921F011
:100EF00007018D46704710B50446AFF300802046C9
:100F0000BDE81040FFF7B2B930B44FF0013C50F8E3
:100F1000042B51F8043BCCFA52F4D51A20D1FCB979
:100F200050F8042B51F8043BCCFA52F4D51A17D1DF
:100F3000B4B950F8042B51F8043BCCFA52F4D51A4A
:100F40000ED16CB950F8042B51F8043BCCFA52F492
:100F5000D51A05D1002CDAD030BC4FF00000704714
:100F600029BAB1FA81F111F01801D1F120008440C1
:100F7000F2D1CA40CB4012F0FF0213F0FF0330BCA5
:100F8000D01A7047FEE70000BCB5694601F000FDCD
:100F90009DF800009C2827D19DF802009DF80310C1
:100FA0004FF6FF7440EA012181EA04004EF6602505
:100FB000A94288BF41420D4801600DA0FFF7FCF92E
:100FC0002C20FFF781FB9DF804009DF8051040EAF6
:100FD000012181EA0400A94288BF414208A0FFF72D
:100FE000EBF90A20FFF770FBBCBD00BF48030020EF
:100FF0007B6D6F746F72546E666F7D2564000000A8
:101000002564000010B501F0B9FA00F043F80A4871
:1010100000F14004204600F0B3FA10B107A0FFF73A
:1010200059FB2046022100F07FF820B10EA0BDE858
:101030001040FFF74FBB10BDE00200200D0A205406
:1010400068652043414E2070657269706865726101
:101050006C20686173206E6F7420737461727465A4
:101060006421200D000000000D0A2043414E205253
:101070005830206E6F74696669636174696F6E20A1
:10108000686173206E6F74206F70656E65642120D7
:101090000D00000080B58AB0012000210E220790CB
:1010A000CDE90511CDE9080206480491CDE9021108
:1010B0004030694600F098F810B103A0FFF70AFB32
:1010C0000AB080BDE00200200D0A2054686520436C
:1010D000414E2066696C74657220636F6E66696745
:1010E00020686173206E6F742066696E697368652D
:1010F0006421200D000000007047000010B504209E
:10110000042400F0F5FA0548046010BD10B508206D
:10111000082400F0EDFA0148046010BD143C0140C1
:10112000EFF3108072B6FEE790F82020013A012A12
:1011300004D8006800F11402002004E000F1240249
:1011400001204FF48021136819431160704770B576
:1011500090F820600468013EA568012E0CD815F0B7
:10116000E05F0FD0C5F30165032D11D100F124011B
:1011700001204FF4000232E000F1240101204FF47D
:1011800080222CE000F1240101204FF4001226E01F
:101190000120A8401860886818B14B6840EAC30372
:1011A00001E00868430504EB0510D1E9034523433A
:1011B000C0F88031C0F88451097D012905D100F5BE
:1011C000C2710B6843F480730B605168C0F88C11D6
:1011D00011680122C0F8881100F5C07100200B6869
:1011E0001A430A6070BD0000F0B590F82020013A63
:1011F000012A2AD83048026842F0010202600268DF
:1012000022F47C5202604C69CD694A6A0368012D60
:1012100043EA0222026004F01F024FF0010303FAC6
:1012200002F2C36923EA0203C3616FEA020312D028
:1012300025BBC5681D40C560CE688F8800EBC4051E
:1012400047EA06462E640D4611E0416A41F48021CA
:1012500041620120F0BDC5681543C5600E688F88E6
:1012600000EBC40547EA06462E6401F10C058E68C2
:101270002D8800EBC40445EA0645656444688F691F
:1012800044EA02050E69096A002F08BF04EA030553
:1012900045604469002E44EA020508BF04EA0305DC
:1012A0000129456102D1C1691143C161016821F081
:1012B000010101600020F0BD0066004090F8202090
:1012C000013A012A84BF002070471022002908BF7C
:1012D0000C220068805800F00300704770B590F849
:1012E0002040013C012C6CD8046800290CBFE56843
:1012F0002569AD076BD004EB0114D4F8B05115F09B
:1013000004059560D4F8B06104F5D87519BFF608E6
:101310005660760D16602D68002905F00205D5602F
:10132000D4F8B45105F00F051561D4F8B451C5F3E4
:1013300007259561D4F8B4514FEA15455561D4F8A5
:10134000B8211A70026802EB0112D2F8B8214FEAF4
:1013500012225A70026802EB0112D2F8B8214FEA49
:1013600012429A70026802EB0112D2F8B8214FEAD9
:101370001262DA70026802EB0112D2F8BC211A7113
:10138000026802EB0112D2F8BC214FEA12225A7114
:10139000026802EB0112D2F8BC214FEA12429A71A4
:1013A000026802EB0112D2F8BC214FEA1262DA7134
:1013B00000680CBF00F10C0100F110010020202298
:1013C0000AE000F1240101204FF4802204E000F142
:1013D000240101204FF400120B681A430A6070BD0B
:1013E00090F820100139012984BF0020704700685F
:1013F0008168C1F380618268C2F3C0628068114471
:10140000C0F300700844704770B5C0B1044690F84E
:10141000200010B9204600F06FF82068016821F024
:101420000201016000F050FA054620684168890712
:1014300007D500F049FA401B0B28F6D311E0012034
:1014400070BD016841F00101016000F03DFA054600
:1014500020684168C9070BD100F036FA401B0B2801
:10146000F6D3606A052140F400306062012040E05C
:10147000217E0268012922F0800308BF42F0800328
:101480000360617E0268012922F0400308BF42F038
:1014900040030360A17E0268012922F0200308BFF7
:1014A00042F020030360E17E0268012942F010034C
:1014B00008BF22F010030360217F0268012922F097
:1014C000080308BF42F008030360617F0268012936
:1014D00022F0040308BF42F004030360261D6ECE11
:1014E0001A432A43324301391143C16100200121CB
:1014F000606284F8201070BDFEB501681E4881420C
:1015000038D100221D4901920B6800F5CE3043F01E
:1015100001030B600B6803F001030193019B01922F
:101520000B6843F001030B600B6803F001030193A8
:10153000019B01920B6943F000730B610B6903F08F
:1015400000730193019B01920A6842F001020A6054
:101550000968012201F00101019101990921059118
:1015600002210491CDE902124FF4C051019101A969
:1015700000F0C8F806B080BD00640040303802407A
:10158000B0B5044690F8200001281BD1022084F851
:1015900020002068016821F00101016000F094F949
:1015A000054620684068C00712D000F08DF9401B46
:1015B0000B28F6D3606A40F400306062052084F89E
:1015C000200003E0606A40F4002060620120B0BDAA
:1015D00000206062B0BD70B5866D044600F074F9FD
:1015E000054694F8350002281ED12068216C026857
:1015F00022F016020260426922F08002426109B9BB
:10160000A16C19B1016821F008010160016821F0A5
:10161000010101600068C0070DD000F055F9401BC2
:10162000052814D82068F5E7002084F834008020CD
:101630006065012070BDE06D3F2101FA00F0B060EF
:101640000020012184F8340084F8351070BD20207A
:101650006065002084F83400032084F8350070BDF4
:1016600090F83510022909D1052180F8351000685D
:10167000016821F00101016000207047802141656F
:101680000120704780B201F0D5B9000080B5042870
:101690000ED10B48082100F00BF90A490A6810B175
:1016A000501E086004E0501C086007A0FFF712F805
:1016B000044801680AA0BDE88040FEF77DBE00BF77
:1016C00000100240A00300200D0A206465746563C9
:1016D0007420686967682070696E200D0000000042
:1016E0000D0A20636F756E743A202564200D0A0080
:1016F00003490A68024214BF08607047FFF7C6BF7B
:10170000143C01402DE9FC4F634A08249042634A8F
:1017100008BF072402444FEAB223072B4FF0010B06
:101720004FF000094FF000034FF0000A38BF4FEAB6
:10173000B2240094202B08BFBDE8FC8F0F680BFA81
:101740000AF6374200F0A1804F6807F00308A8F1BD
:101750000104012C18D80322856802FA03F425EA53
:10176000040CCD684FEA4A0E9D4045EA0C058560A1
:10177000C7F3001505FA0AFC4568B54345EA0C05B0
:101780006FEA040C45600BE003249C406FEA040CF4
:10179000B8F1030F9E4603D19E464FF0030820E0A8
:1017A000C4688D6804EA0C0405FA0EF52C43B8F100
:1017B000020FC46015D109F01C040F2202FA04F8CC
:1017C0006FF0030202EA5A0707443D6A25EA080857
:1017D0000D6905FA04F444EA08043C624F6807F016
:1017E0000308056808FA0EF405EA0C052C430460AA
:1017F000FC004AD5002201922B4A2AF00307146804
:1018000044F48044146014680F2204F4804401946A
:1018100009F00C0402FA04FC214A019D9646174483
:10182000224A9046BD58009A25EA0C0502FA04F4B3
:101830002C4347F80840DEF800404F6844EA0605AC
:10184000FA0358BF24EA0605CEF80050DEF804205B
:10185000BD0342EA060458BF22EA0604CEF804405B
:10186000DEF80820FD0242EA060458BF22EA060418
:101870000C4ACEF8084094461268BD0242EA0604BB
:1018800058BF22EA0604CCF8004009F104090233EB
:101890000AF1010A4EE700BF001C02400000FEBF33
:1018A000003C01400C3C01404438024008FCFFFF72
:1018B0000069084018BF0120704700000148006817
:1018C000000C7047002004E005480068704700BF26
:1018D0001D48034900780A6810440860704700BF3B
:1018E0000005002080B50948016841F400710160DD
:1018F000016841F480610160032000F053F80F207B
:1019000000F006F800F022F8002080BD003C024004
:1019100070B50D4E044630784FF47A71B1FBF0F09B
:101920007C490968B1FBF0F000F0C4FA01250F2CE6
:1019300008D838B94FF0FF3021460022002500F0CA
:1019400015F87460284670BD040000207047000040
:10195000002808D400F01F01012202FA01F1024A16
:10196000400942F82010704700E100E0B0B5134B89
:101970004FF0FF351B68C3F30223DC1E83F007031F
:1019800038BF0024042B28BF042305FA03F399432E
:1019900005FA04F3A1409A431143BDE8B04000F0BA
:1019A000E3BF00BF05494FF6FF030A681A4060F322
:1019B0000A22034810430860704700BF0CED00E0A6
:1019C0000000FA052DE9F041002800F08680444B24
:1019D0000446D3F80004884600F00700884207D286
:1019E00083F80084D3F8000400F00700404574D168
:1019F0002068810711D5410703D5996841F4E0516A
:101A00009960010703D5996841F460419960A16824
:101A10009A6822F0F00211439960C0072BD06068E9
:101A2000811E022903D21968890109D455E00128D1
:101A300003D11968890303D44FE0196889074CD58D
:101A400099681D4621F0030108439860FFF73CFFA9
:101A5000064641F288376068A9682B4601F00C0100
:101A6000B1EB800F07D0FFF72FFF801BB842F2D9F0
:101A70000320BDE8F081D3F8000400F007004045E2
:101A800007D983F80084D3F8000400F0070040452C
:101A900023D12068410705D5E1689A6822F4E05215
:101AA00011439960000706D52069996821F46041C7
:101AB00041EAC00098601C4600F032F8A168094A6B
:101AC000C1F30311515CC840124908600648006820
:101AD000FFF71EFF0020BDE8F0810120BDE8F08186
:101AE00000380240C05600080800002009480A4992
:101AF00000680968094AC1F38221515CC8407047F7
:101B00000448054900680968044AC1F34231515C40
:101B1000C84070470C00002008380240D05600082A
:101B200010B5134C606800F00C011248082903D06E
:101B300004291CD1104810BD2168236801F03F0220
:101B400021685B02C1F3881105D4A1FB00010023C9
:101B5000FEF7B9FB03E008484843B0FBF2F0216808
:101B60000222C1F3014102EB4101B0FBF1F010BDD3
:101B7000043802400024F40000127A002DE9FC41F0
:101B8000002800F0D08004460078C24EC00744D040
:101B9000B06800F00C00042805D1306880033CD503
:101BA0006068D0BBBFE0B06800F00C00082802D12C
:101BB00070684002F1D46768B7F5803F06D030689E
:101BC000B7F5A02F12D140F480203060306840F487
:101BD00080303060FFF778FE0546306880031CD403
:101BE000FFF772FE401B6428F7D9DFE020F4803055
:101BF0003060306820F480203060FFF765FE0546D5
:101C0000002FEAD106E0FFF75FFE411B03206429A5
:101C100000F23E8130688003F5D4207880072CD50F
:101C2000B06810F00C0F07D0B06800F00C00082866
:101C300009D17068400206D43068800716D5E06884
:101C4000012813D06FE0E068002800F0D0809248AF
:101C500001210160FFF738FE05463068800705D492
:101C6000FFF732FE401B0228F7D99FE02069316858
:101C700021F0F80141EAC00030602078000720D54B
:101C80006169854871B10121C0F8801EFFF71CFE13
:101C90000546706F800714D4FFF716FE401B02281C
:101CA000F7D983E00021C0F8801EFFF70DFE05463E
:101CB000706F800705D5FFF707FE401B0228F7D994
:101CC00074E02078400731D4A769002F00F0DF804E
:101CD000B06800F00C0008286BD1012F23D0E16917
:101CE000706800F480028A421DD1216A00F03F0230
:101CF0008A4218D147F6C071626A0140B1EB821F77
:101D000011D1A16A4FF6FF72C9039143A1F5803149
:101D100000F440328A4206D1E16A00F07060B0EB14
:101D2000016F00F0B4800120BDE8FC81306C4FF001
:101D30000008C0000CD4CDF80480306C4FF00108CE
:101D400040F080503064306C00F080500190019879
:101D5000524F3868C0050FD4386840F4807038603E
:101D6000FFF7B2FD05463868C00505D4FFF7ACFDA6
:101D7000401B0228F7D919E0A768012F05D0306F62
:101D8000052F45D140F004003067306F40F001006E
:101D90003067FFF799FD054641F28837306F8007BD
:101DA0004ED4FFF791FD401BB842F7D90320BDE8A0
:101DB000FC813949002088460866FFF785FD054605
:101DC000022F0AD147463068800142D5FFF77CFDDB
:101DD000411B03200229F6D95AE03068800156D50C
:101DE000FFF772FD411B03200229F6D950E02A4873
:101DF00000210160FFF768FD0546306880077FF528
:101E00003CAFFFF761FD411B03200229F5D93FE0FC
:101E100020F001003067306F20F004003067FFF7DA
:101E200053FD0546002FB7D141F28837306F800748
:101E300006D5FFF749FD411B0320B942F6D927E03B
:101E4000B8F1000F3FF440AF306C20F080503064A8
:101E50003AE71C341FCC084340EA8210D9034FF6FE
:101E6000FF72914340EA0460A1F58031084370603D
:101E700001203866FFF728FD04463068800106D44B
:101E8000FFF722FD011B03200229F6D900E0002004
:101E9000BDE8FC810038024000004742007000406D
:101EA0000C4904280A6822F0040308BF42F0040326
:101EB0000B607047411E0020B0EB116F1CBF01206A
:101EC0007047044AF023516003490B70072190606A
:101ED0001160704710E000E023ED00E010B590F8CD
:101EE0003C300222012B30D080F83D20012280F8C6
:101EF0003C2002680B685468B2F1804F24F07004F3
:101F000044EA03049368546014D0414CA24211D0B7
:101F1000404CA2420ED0864CA2420BD03E4CA24274
:101F200008D03E4CA24205D03D4CA24202D03D4CCE
:101F3000A24204D1496823F0800319439160002232
:101F4000012180F83C2080F83D10104610BD00BFF4
:101F500040B310B5044690F83D0028B9002084F83D
:101F60003C00204600F020F8022084F83D00206864
:101F7000211D00F073FB012084F8460084F83E0028
:101F800084F83F0084F8400084F8410084F842005F
:101F900084F8430084F8440084F8450084F83D0048
:101FA000002010BD012070477047000090F83D10E0
:101FB00001291CBF01207047022180F83D100068F4
:101FC000C168B0F1804F41F00101C16014D01049E7
:101FD000884211D00F4988420ED0554988420BD013
:101FE0000D49884208D00D49884205D00C498842E5
:101FF00002D00C49884204D1816801F0070106290A
:1020000003D0016841F0010101600020704700BF6A
:10201000000400400008004000180040000001409B
:10202000004001400004014000284ED0F8B50446AD
:1020300090F83D000D4628B9002084F83C00204669
:1020400000F046F8022084F83D00206844F20702C0
:10205000816891438160211D00F000FB2668D5E96D
:10206000000CD5E90223B7683843B769316AB0601C
:10207000A86942EA00204FF6FC4290434FF6FF72F7
:1020800027EA02021A431043EA6940EA02202A6959
:1020900040EA02102A6A40EA0230B06121F0AA0048
:1020A000696940EA0C0040EA01103062012084F8BE
:1020B000460084F83E0084F83F0084F8420084F82B
:1020C000430084F83D000020F8BD01207047000067
:1020D00010B586B0044601A81421FEF711FB216853
:1020E0001348814221D10021124A0091136900F561
:1020F000FA3043F008031361136903F008030093F7
:10210000009B0091136843F001031360126802F012
:10211000010200920222CDE90412CDE9022103213D
:102120000191009901A9FFF7EDFA06B010BD00BFBB
:10213000000C00403038024070B590F83E6090F8D6
:102140003F5090F8423090F8432004460120042983
:102150000AD099B9012E08BF012B33D1022084F88F
:102160003E0084F8420022E0012D08BF012A29D157
:10217000022084F83F0084F8430016E0012E08BFD7
:10218000012D1FD1012B1DD1012A1BD1022084F862
:102190003E0084F83F0084F8420084F8430031B1E7
:1021A00020680021012200F0C3FA042100E0002190
:1021B0002068012200F0BCFA2068016841F00101AA
:1021C0000160002070BD7047704790F83D1090F896
:1021D0003E000843C0B27047F8B50168044608687D
:1021E000CA684E6900F02F0502F02003202D05D1AA
:1021F00023B12046BDE8F84000F0C5BA5FEA007E92
:1022000007D006F0010686F0010712F4907F3FD157
:10221000F7B31040C206226B28D5012A26D1002030
:10222000009008680090486800900098486940064F
:1022300000F18380E08DA28DE38D002B00F0D28031
:10224000101A020400F0CE80CA6822F49072CA60AC
:102250004A6922F001024A61202284F83E200022CD
:102260002263CA6822F01002CA608EE0020600F102
:102270009280400640F1B680C86820F04000C860F7
:10228000202084F83D002046BDE8F84000F074B9F5
:10229000C50718BF12F4807503D0256C45F0010501
:1022A000256400F004054FF0010C8CEA95053D43D0
:1022B00003D1256C45F00205256400F002058CEA87
:1022C00055053D4303D1256C45F004052564334392
:1022D00018BF0123BEF1000F04D51BB1236C43F0DE
:1022E00008032364236C002B7CD01040800603D5A8
:1022F000204600F048FA21684869216C00F040004F
:1023000001F0080140185BD0204600F026FA206852
:10231000416949064FD5416921F040014161A06BF7
:10232000002848D034490165FFF79AF9002859D0B0
:10233000A06B016DBDE8F8400847A06B02685368C8
:102340009DB2002D4ED0A28D95424BD2E385C3693C
:10235000B3F5807F17D0CA6822F48072CA604A69D8
:1023600022F001024A614A6922F040024A612022B9
:1023700084F83E2000222263CA6822F01002CA605C
:10238000FFF729F9A28DE08D101A81B22046BDE831
:10239000F840FFF718BF94F83D00212822D1A0682B
:1023A000B0F5805F01D1206980B1206A421C2262B1
:1023B0000078486011E02046BDE8F840FFF704BF10
:1023C0002046FFF701FF00202064F8BD206A30F8A6
:1023D000022B6FF35F2220624A60E08C0138E084B8
:1023E000000400D0F8BDC86820F08000C860C8684C
:1023F00040F04000C860F8BD4F27000850B310B54A
:10240000044690F83D0028B9002084F83C0020469E
:1024100000F022F8242084F83D002068C16821F4EF
:102420000051C160204600F001FA2068016921F4E2
:1024300090410161416921F02A014161C16841F483
:102440000051C16000202021206484F83D1084F8F0
:102450003E1010BD0120704770B586B0234C006857
:10246000A4F5704188423ED1002121480191426982
:10247000072642F010024261426901AD02F01002EB
:102480000192019A0191026842F001020260026821
:1024900002F001020192019A0191016841F00101EB
:1024A00001600068012100F0010001900198022004
:1024B00005960490CDE902014FF40070019020468A
:1024C0002946FFF71FF94FF48060059601902046DA
:1024D0002946FFF717F92520FFF73AFA25200321AF
:1024E0000322FFF743FA06B070BD00BF00000240B0
:1024F0003038024010B590F83E30202B06D1012430
:1025000029B122B190F83C30012B02D1022420469F
:1025100010BD00240123046380F83C3000F0EAF988
:10252000F5E7000010B50068104988421CD110483A
:1025300041880A0418D402784B0404D40D2A09D126
:1025400041F4804104E00A2A14BF002141F4004113
:10255000418010BD074C4B1C6FF39F31625499B200
:10256000C72988BF0023438010BD00BF0010014071
:1025700038020020F00300207047FEE7B0B50B489A
:102580000B494FF0807240F8401F00214FF4A00328
:102590004FF4C02403258183C0E90151C0E903142D
:1025A000C0E90532BDE8B040FEF72EBFE0020020D2
:1025B0000064004010B58CB01448544B00244FF414
:1025C000806103228461C0E90032C0E90241012137
:1025D000CDE90A440991CDE90744CDE9051403A9E1
:1025E0000461CDE90324CDE90044FFF71DFD08B1E6
:1025F000FEF796FD05486946CDE90044FFF76EFCFD
:1026000008B1FEF78DFD0CB010BD00BFB80400206E
:10261000FEE7704770477047FFF75AB902480168F4
:1026200041F470010160704788ED00E010B5094C7D
:102630002068C168C90708D007480069804720683A
:10264000002141626421E160C1626FF0010101611A
:1026500010BD00BFA803002030000020B0B5026804
:10266000B0F1804F0ED0274B98420BD0264B9842AA
:1026700008D0264B984205D0254B984202D0254BD6
:10268000984203D14B6822F070021A43B0F1804F98
:1026900020D01C4B98421DD01B4B98421AD01B4B8C
:1026A000984217D01C4B984214D01C4B984211D022
:1026B0001B4B98420ED0174B98420BD0144B9842AC
:1026C00008D0184B984205D0174B984202D0174BB0
:1026D000984203D1CB6822F440721A434D690B68CB
:1026E0008C6822F080022A430260C4628362084B35
:1026F00040F480629A4204BF09690163012141618B
:10270000B0BD00BF0004004000080040000C0040C5
:10271000000401400000014000180040001C00407F
:1027200000200040004001400048014000440140BA
:1027300010B501F01F010123046A8B4024EA030352
:10274000036202FA01F1026A1143016210BD806B5B
:102750000021C185C184FFF737BD0168CA6822F432
:102760009072CA604A6922F001024A61026B012A32
:1027700003D1CA6822F01002CA60202180F83E10FE
:1027800000210163704710B5044690F83E002228EE
:1027900028D1A268B2F5805F05D12069A8B104F103
:1027A000280001680AE0204650F8281F0AB922696B
:1027B00022B12268526802F07F0201E0226852686A
:1027C0000A7001680131016007E02068A16A406871
:1027D0006FF35F2021F8020BA162E08D0138E085E4
:1027E000000400D010BD2068C16821F02001C16044
:1027F000C16821F48071C160416921F0010141612A
:10280000202184F83E10216B012908D1C16821F0F4
:102810001001C160A18D2046FFF7D5FC02E02046E3
:10282000FFF780FE0020206310BD0000B0B5044615
:10283000006804F108030ECB0569194325F44055DF
:102840002A430261C268636949F20C651943E3696E
:10285000AA4319431143C1604169A26921F440713F
:1028600011434161224940F48060884202D1FFF760
:1028700047F901E0FFF73AF9E26919216368A0FB23
:102880000101B2F5004F18D15A00DB0FFDF71BFD17
:102890006421B0FBF1F26FF0630302FB030032230B
:1028A00003EBC000B0FBF1F14FF4F87000EA410017
:1028B00000EB021001F0070115E09A009B0FFDF7F5
:1028C00002FD6421B0FBF1F26FF0630302FB030031
:1028D000322303EB0010B0FBF1F101F0F00000EB4C
:1028E000021001F00F01084321688860B0BD00BFED
:1028F00000140140B0B500232224C285036480F88F
:102900003E400468E56845F48075E560656945F01A
:10291000010565618285816280F83C30E06840F0A5
:102920002000E0600020B0BD70B50D4C251D28468C
:10293000FFF752FC4FF400362846FFF746FC2028EC
:1029400018BFB6F10106F7D14FF4003628462146EC
:102950000122FFF7CFFD08B1013EF7D170BD00BFE6
:1029600038020020FEE7000010B5074C00F00F030E
:102970002344044AB0F1FF3FC8BF83180801187010
:1029800010BD00BF00E400E014ED00E0704700005F
:102990002DE9F041224D04460820002705F14006AC
:1029A0008846C5E90947C5E90B77686330460021C9
:1029B000FEF784FC88B105F124023046002143462D
:1029C0000027FEF78BFC40B9686A0027A04202BFCF
:1029D000D5E90B0150EA01006F6BF8B2BDE8F08158
:1029E0007CB50F4E0D4600F5A070314641F80C0F36
:1029F0000020C1E90100C1E90302012401F1340012
:102A000001AB2A460194FEF7A2FB38B906F1400457
:102A10002046FEF7E5FC0328FAD1002420467CBDC1
:102A2000E002002010B504460420FFF739FA1B48E5
:102A3000046010BD70B54FF40771B0FBF1F60A4C9D
:102A400006FB110526B1204600F010F8013EF9E71B
:102A5000280408BF70BDA8B24FF47A714843BDE89E
:102A6000704000F003B800BF603D0800B0B50A49EF
:102A70000A4B0A681B684C68584300234D68AC42F7
:102A8000FCD023445B1BAC4298BF134483422C46CA
:102A900028BFB0BDF2E700BF14E000E0A4030020AF
:102AA00082B000200B4901900A6842F080020A605F
:102AB0000A6802F080020192019A0090086840F0D2
:102AC00001000860086800F001000090009802B062
:102AD000704700BF3038024003490A685206FCD5EF
:102AE000C2B24A60704700BF00100140F8B5DB4D2C
:102AF00004466E882F880020002100F065FA29899D
:102B0000B548018006FB07F111B144800139FBE7AC
:102B1000F8BD00BFD149887160B1204845F210521C
:102B200008608888904212D14FF42C5088811F4849
:102B3000886018E01E4845F210520860888890426C
:102B400013D14FF42C5088811848886016E02B224E
:102B50008A81134A8A6045F21032904210D041F6C1
:102B60006312904217D1104814E02C220A8141F6DA
:102B70006312904206D11148C1F80A00104809E0DA
:102B8000084807E00B4AC1F80A2045F2103290428B
:102B900001D109480860002000F064B94001F0004C
:102BA0002C002A00E00140012003E001002C002A53
:102BB000F00040012A002B004001E0012B002A0018
:102BC000E00120032DE9F04F89B00193CDE9020126
:102BD0000320DDF80CA0DDE9018B9146A0EB420457
:102BE00000250A224D454EDC05EB0B0086B2AAEB10
:102BF000090008942C46254D049281B23046424685
:102C00000791A84709EB0B0087B2AAEB040081B239
:102C1000384642460691A84704EB0A0081B238467E
:102C200042460591A84709EB0A0087B2304639466B
:102C30004246A847ABEB040086B2304639464246CE
:102C4000A847ABEB090087B2059938464246A8472A
:102C5000079930464246A847069938464246A84753
:102C60002546089C0135002C08D4A5EB09000A2252
:102C700002EB8000049AA9F1010901E0049A1046D0
:102C800004440432AEE709B0BDE8F08F352D0008EA
:102C90002DE9FE4FA2EB00080C4605465B1AB8F181
:102CA000000F02DD0120019007E0C8F1000018BF0D
:102CB0004FF0FF38CDF804808046002B02DD012064
:102CC000009006E0C3F1000018BF4FF0FF330093FF
:102CD00003461E469845C8BF4646701C4FF0000983
:102CE0004FF0000A4FF0000B029002991FFA89F092
:102CF0008142B8BFBDE8FE8F0C9AA8B2A1B21F46B0
:102D000000F018F80BEB07000099B042C8BF0C4464
:102D10000AEB0801B1423B46019FC8BF3D44B0EBFE
:102D2000060BD8BF8346B1EB060AD8BF8A4609F125
:102D30000109DAE710B5144600F046F9D7482649EC
:102D4000008908804C8010BD2DE9F843DDF8208013
:102D5000DFF840901C460B4615460E460746CDF858
:102D60000080C847384631463A462346CDF80080B1
:102D7000C847384621462A462346CDF80080C84732
:102D8000284631462A462346CDF80080C847BDE88C
:102D9000F88300BF912C00082DE9F0478246101AF5
:102DA00001300D4F089CDFF8F09398460D4686B22F
:102DB000A9B2414588BFBDE8F087504600F004F94C
:102DC000B9F808003880002081B2B14202D27C807C
:102DD0000130F9E70135EBE77E00006C01210206C6
:102DE00004BF0846704701EB810101384900F6E74E
:102DF0001CB5E94C02462388002093422CD96388F5
:102E00008B4229D9104600F0DFF8A18845F2105214
:102E10002E20914208BF4FF4385000F0A9FA104913
:102E200041F663130888ADF80200BDF80200A288DD
:102E30009A4211D00888ADF80600BDF8060009884E
:102E4000ADF8041000F0FC0100F4784040EAC10045
:102E5000BDF8041040EAD1201CBD00BF8002002054
:102E60008000006C70B5CC4D41F66313AC79621EE6
:102E700018BF0122A988B4FA84F4CB1AB3FA83F3F9
:102E80005B0964091C420AD11A4308D0013806289C
:102E90001CD8DFE800F013191511170D0F000024DE
:102EA000072814D8DFE800F00406080E0A130C10F7
:102EB000A0240CE0E0240AE0202408E0802406E0BE
:102EC000C02404E0602402E0402400E0002445F235
:102ED00010523620914249F2413208BF4FF4585007
:102EE000914203D047F28972914201D144F0080423
:102EF000214600F04BFAAE8841F66310864207D0B7
:102F000068882988A2065CD4814201D9698028801A
:102F1000688900F02DFA002000F01AFA45F21050EE
:102F200086422FD168895E4C013080B2A0475D4E49
:102F30000020B0476889023080B2A0472888013855
:102F4000C0F30F20B0476889033080B2A0472888BB
:102F50000138C0B2B047A889A0470020B047A8896F
:102F6000013080B2A0470020B047A889023080B26B
:102F7000A04768880138C0F30F20B047A889033004
:102F800080B216E0474C0020A04728880138C0F3E3
:102F90000F20A04728880138C0B2A047A88900F0B8
:102FA000E7F90020A0470020A04768880138C0F357
:102FB0000F20A04768880138C0B2BDE8704000F01B
:102FC000C7B98142A2D3A3E72DE9F041724E05466D
:102FD000B78841F663100C46874212D1B079B0B37E
:102FE000708900F0C5F92F4F280AB847E8B2B847F2
:102FF00030880138C0F30F20B847308800F1FF0552
:1030000035E0708900F0B4F9280A00F0A1F945F222
:103010001050874211D17089214F013080B2B847DA
:10302000E8B200F095F9B089B847200A00F090F9AD
:10303000B089013080B2B8472BE0E8B200F088F9DF
:10304000B08900F095F9200A00F082F921E070893A
:10305000B6F8008000F08CF9124F0020B84700202D
:10306000B847E84308EB0005A8B2000AB847E8B241
:103070000C4DA847B08900F07BF9200AA847E0B2C0
:10308000A84770880138C0F30F20A847708800F166
:10309000FF04E0B2BDE8F04100F05AB98002002020
:1030A00071330008513300082DE9FE4F06465807DA
:1030B00088464FF001014FEAD30018BF01EBD3005F
:1030C000A3F10C011C464FEAB103052B57D8A2F11E
:1030D0002001DFE803F00309540E5416CAB252006F
:1030E00052FA81F12A4A09E0284AC9B202EB0111D9
:1030F0000BE0CAB2D20052FA81F1234A02EB8101FD
:1031000003E0204AC9B202EB8111029161084843F1
:10311000DFF884A0C0B200214546019081422ED242
:1031200002980F4610F801904FF0000BBBF1070F0B
:1031300021D84FFA89F00D9A002803D40C9828B9A9
:1031400014480268B0B2A9B2FFF7F4FDBAF8021051
:103150000135A8B2884212D2A0EB08000BF1010B96
:103160004FEA4909A042E1D1BAF800000136B1B2F4
:103170008142454603D239460198791CCEE7BDE825
:10318000FE8F00BF986E00083C6100084C5B000891
:10319000D856000810000020800200202DE9F04FD2
:1031A00085B007460E981C460E464508581E4FF03F
:1031B000000B4FF000084FF0000A4FF00009049296
:1031C0000390444539D06FEA0A002044C0B2FFF7AB
:1031D00005FE0499B9F1000FB1FBF0F04FF00A01C0
:1031E000B0FBF1F101EB8101A0EB410105D10398A6
:1031F000404502DDA9B14FF00109002000900F9871
:1032000041F0300101900BEB070080B2CAB23146A9
:103210000E9BFFF749FFAB440AF1010A08F10108D0
:10322000CFE70F984FF0000901900BEB0700CDF8A6
:10323000009080B231462022EAE705B0BDE8F08F69
:103240002DE9FE4F8046DDF830A00C46581802EB01
:1032500008010D9F4FEA5A091FFA81FB86B24546C5
:103260003A78A2F12000C0B25E2813D8A8B258451F
:1032700024BF5FFA88F55444A1B2B1420AD20020BB
:1032800000900E9853460190A8B2FFF70DFF4D44F1
:103290000137E5E7BDE8FE8F2DE9F04F85B0074621
:1032A0000F981C4600F001050E984FF000084608E4
:1032B000581E4FF000094FF0000A4FF0000BCDE907
:1032C000031202904C4540D06FEA0A002044C0B27D
:1032D000FFF784FD0499BBF1000FB1FBF0F04FF054
:1032E0000A01B0FBF1F101EB8101A0EB410105D135
:1032F0000298484502DDA1B14FF0010B109841F052
:103300003001019008EB0700CAB203990E9B80B20E
:103310000095FFF7C9FEB0440AF1010A09F101095D
:10332000D0E70F9908EB070049B2B1F1FF3F1099C0
:103330000E9B0191039980B20095D4BF30222022C8
:10334000FFF7B2FE4FF0000BE5E705B0BDE8F08FE8
:1033500081B0ADF80200BDF80200ADF802000348EC
:10336000BDF80210018001B0704700BF8000006C02
:1033700081B0ADF80200BDF80200ADF802000548CA
:10338000BDF80210018001B0704700BF014A1080F3
:10339000518070477E00006C86B0FEF7A3FA4FF4B0
:1033A000A87008210222072300F01AF9A820FFF7CD
:1033B00039FB4FF4E13000F0ADF92F48416854205B
:1033C0008847FFF76DFBFFF7F5F82C483C21FEF727
:1033D000B3FEFDF717FE4FF000094FF47A70ADF819
:1033E0001690CDF81090CDE90299FFF723FB9FEDE1
:1033F0001E8B274C9FED1E9B0DF1080A0FF2800BD0
:1034000004F1180557EC186B0FF288080DF116003F
:1034100004A9524600F048F99DED020B584653ECC2
:10342000102BCDE90099FCF7C7FFB0EE480A012048
:10343000F0EE680A00F034F80120214600F068F848
:10344000B0EE490A0220F0EE690A00F029F80220E5
:10345000294600F05DF8404632463B46FCF7ACFF9B
:103460000220FEF70FF9D1E7000000000000000085
:1034700000000000000014C030000020B80400204C
:103480000D0A252E326620252E326620000000000F
:1034900008020020252E3266000000000000000017
:1034A0007CB555EC106B9FED140B044653EC102BC0
:1034B0003046294602F079F858B99FED110B324693
:1034C00051EC100B2B4601F071FF01F09FFD4042C3
:1034D00003E03046294601F099FD00210191A12128
:1034E00000918DF80400000A8DF805006946204619
:1034F0000822FFF775FA7CBD000000000000000004
:10350000000000000000008000687047000000001C
:103510002DE9FE430C4600F5A07001A9FFF738FA2B
:10352000002843D0BDF80A0001F0B6FD9FED200B46
:1035300053EC102B01F0D6FB9FED1F0B56EC105BEC
:103540002A46334601F034FE41EC100B84ED040BA7
:103550008046BDF90800BDF90670894601F085FD79
:103560002A46334601F024FE9FED150B53EC102B39
:1035700001F01EFE41EC100B384684ED020B01F009
:1035800074FD9FED110B53EC102B01F011FE9FED1C
:10359000100B53EC102B01F00BFE41EC100B0EA0A6
:1035A00042464B4684ED000BFCF706FFBDE8FE8368
:1035B00000000000E0FFEF400000000000807640C7
:1035C000000000000000F03E0000000000803040DD
:1035D000000000000000403F252E32662000000061
:1035E0002DE9F04792B088460746002401A814212F
:1035F0001E469246CDE90A44CDE90844FDF780F81D
:10360000264D009428684FF0020940F08050286051
:10361000286800F0805000900098214800940168CC
:1036200041F480410160006800F4804000904FF454
:1036300080000F970D904FF480300127CDF8309027
:1036400007900697009806A8CDE910A6CDF8388017
:10365000FEF794FAE8B94FF4805005904FF4A0506B
:1036600004900F20CDE90294019001A80521FEF7F6
:10367000A9F908B101270CE0FEF720F941F2010198
:10368000884205D1D5F8C00340F48070C5F8C00366
:103690000027384612B0BDE8F08700BF403802402E
:1036A000007000400000000010B5194B14461B6864
:1036B00002885B6A038098B2801A4FEAE07200EBDE
:1036C0009252034648BF43420A2BC8BF90120A6871
:1036D0001044086001F0C9FC9FED090B53EC102B5E
:1036E00001F066FD9FED080B53EC102B01F060FD1F
:1036F00041EC100B84ED000B10BD00BF00BF00BFFC
:103700000000000000807640000000000000503FF4
:10371000B8040020B0B50B4C0021C4E902010A48EE
:103720000C222546C4E90411C4E9062145F8040F1A
:103730002846FEF763FE284621460122BDE8B04038
:10374000FEF7D8BE38020020001001402DE9F043FA
:1037500091B00DF122010DF141020DF142038046BD
:1037600000F0F6F910B111B0BDE8F0839D4E0020D5
:1037700001AD0DF140090DF142070DF12204317D3B
:10378000C2B28A428DF843001FD23068294600EB4E
:10379000C20040684A463B4600F0DAF90028E2D110
:1037A0002846214600F000FC18B19DF84300013086
:1037B000E5E79DF841009DF84010814201D90220C3
:1037C000D1E79DF84300B075317DC0B2884201D188
:1037D0000420C8E70DF14301404600F079FA0028C3
:1037E000C1D19DF8430070750020BCE72DE9F04F72
:1037F00099B0DFF8F0B19BF814009BF81690814562
:1038000080F0ED80DBF800000DF11E0400EBC90034
:1038100040680DF11D0207AB214600F099F972A036
:103820002146FCF7C9FD00240FAD0FF2002A0BF171
:1038300024087DA69DF81D00844233D2BBF81800F1
:10384000E040C00715D02220FCF73EFFE7B2384623
:1038500000F0CAFA08EB00013046FCF7ADFD22206B
:10386000FCF732FF384600F0BFFA404445F8240028
:103870000EE0E0B200F0B8FA5844416A9BF8170035
:1038800045F82410002814BF50466AA0FCF794FDA8
:103890009DF81D000138844202D02C20FCF714FF53
:1038A0000134C7E72920FCF70FFF00F053FD9BF818
:1038B00015000A280DD8DFE800F0060D141C242B93
:1038C000333C46515E00DBF8000050F83900804779
:1038D00062E062E0DBF8000050F839100F9888478A
:1038E0005AE0DBF8000050F83920DDE90F0190477D
:1038F00052E0DBF800000FAA50F8393007CA9847A9
:103900004AE0DBF800000FAB50F839400FCB18E06D
:10391000DBF800000FAD50F839402FCD009510E0D6
:10392000DBF800000FAE50F839406FCECDE90056FD
:1039300007E0DBF800000FAF50F83940EFCF8DE81B
:10394000E000A04728E0DBF80000169C50F839C0E2
:103950000FAFEFCF8DE8E00003941CE0DBF8000030
:10396000DDE9164E50F839C00FAFEFCF8DE8E0001B
:10397000CDE9034E0FE0DBF800000FAF50F839C07F
:10398000EFCFDDE9164EDDF860808DE8E000CDE98F
:10399000034ECDF81480E047044600F0A1FC9DF8EA
:1039A0001C00012809D19BF81700214600280CBFF4
:1039B00013A010A0FCF700FD02E00DA0FCF78AFEAA
:1039C0009BF8EC0058B1DBF8F0000A21B0FBF1F1F4
:1039D00001EB8102A0EB42020BA0FCF7EDFC19B059
:1039E000BDE8F08F300000200D0A2573280000008C
:1039F0003B0D00003D305825583B0D0A00000000EB
:103A00003D256C753B0D0A0046756E6374696F6EDB
:103A10002052756E2054696D653A25642E253164F7
:103A20006D730D0A00000000257300003058255802
:103A300000000000256C64002DE9F043384C4FF085
:103A400000094FF0010CA04600264FF0000E0027A1
:103A5000057885F02C043C43240608BF0126292D57
:103A600000D00DB93C0653D0BEF1000F10D0B5F117
:103A7000220408BF274634064AD13C0628D05C2DD4
:103A800004BF09F101090130047801F8014B30E06D
:103A9000A5F13004E4B20A2C22D3A5F14104172C7D
:103AA00018D9A5F16104172C05D80CFA04F414EA0E
:103AB000080F434614D14FF0000E202D19D0222DAF
:103AC0001BD02D2D0CD02C2D13D02B2D08D01DE06C
:103AD00000270EE00CFA04F414EA080F4346E0D085
:103AE000340610D1602D88BF203D01F8015B4FF0F6
:103AF000000E013009F10109AAE7340603D14FF0A5
:103B0000010E0127F5E74FF0000E01E04FF0FF0E28
:103B1000002008705FFA89F082F800E0BDE8F083C9
:103B20003F008000B0B500241470047844F02005F4
:103B3000202D0AD001F8014B1478013001341470A3
:103B4000E4B29C42F1D30120B0BD00200870B0BDAA
:103B50002DE9FE4F07461D4690468A4600200DF18E
:103B6000060939460A78202A12D0B2B100F07F0344
:103B7000042B0DD8030608BF6FF07F0000F07F0311
:103B80002A2A01D0042B0CD0013009F8032002E0CE
:103B9000C2B2852A04D00131E4E7010601D10DE06B
:103BA000852000F07F00002109F8001047494846B1
:103BB00000F0FAF9002818BF012028703C784FF077
:103BC000000B3D460026E0B2013580B128280ED01A
:103BD0002C7801362A2C01D0202CF4D1284600F074
:103BE0006BF940F002002A2818BFB346EBE757FAFA
:103BF0008BF01BF0FF0F18BF471C0025012200218E
:103C000000204FF0000E4FF0000C00243B78282BD2
:103C10000CD0002B44D0260608BF292B1BD0E6B2BF
:103C2000B6FA86F6222B08BF740902E0260608BF02
:103C300001310E0609D0202B18BF282B20D02C2BA9
:103C400012D10CF1010C012228E0202B18BF0AF838
:103C5000013B002122E0CEB2002E0CBF01254E1EFA
:103C600031061ED000243146BEF1040F02F10102DC
:103C700098BF5FEA0C6604BF09F80E300EF1010E22
:103C800082F0020381F001063343DBB2002BB3FA6A
:103C900083F34FEA531308BF032218440137B5E7F3
:103CA0000125C1B2012909D10020084909F80E00F7
:103CB000484600F079F9002818BF012088F8000074
:103CC00000208AF80000E8B2BDE8FE8F158E0008DB
:103CD0002DE9F04FB7B0DFF8A0860546002000239D
:103CE0000A2B04D008EB030290760133F8E715F8AD
:103CF000010B282805D015F8010B0028F9D1012067
:103D00005DE04FF000090DF10B0B0DF1DB0A0191A5
:103D1000284659465246FFF78FFE04469DF8DB00C1
:103D200020B101281DD0FF283BD145E09DF80B00B4
:103D3000B8B3584635A900F0C5F8E8BB5FFA89F773
:103D4000359E384600F050F84044466258FA89F0F3
:103D5000042181760120B8F81810B84021EA00004B
:103D600017E0584600F034F95FFA89F60746304606
:103D700000F03AF8404400F12401584600F020F9E0
:103D800058FA89F0791C81760120B8F81810B040F3
:103D9000084309F10109A8F818005FFA89F00A2818
:103DA0000CD825442878292818BF0028B0D10198BC
:103DB00080F80090002002E0022000E0032037B0ED
:103DC000BDE8F08F06490020B1F90020B2F1FF3FB5
:103DD00000DD7047034BD2B29854088018467047F4
:103DE0003A020020F0030020244901F11A020021C8
:103DF00020B112F8013B01381944F9E7C8B2704705
:103E000080B564214843013881B24FF47A7000F0E4
:103E100079FAF9480121C17580BD00BF0246012031
:103E20000B0608BF704750430139F9E770B5FFF73B
:103E3000C9FFA0B1114E0446B168884780B105465C
:103E4000204600F0CDF8012818BF0546681E03285B
:103E500005D8DFE800F002090B0D0FA009E070BDE6
:103E6000F068BDE87040004708A002E004A000E050
:103E70000CA0BDE87040FCF72DBC00BF3000002056
:103E8000B2CECAFDCCABB6E0210D0000B2CECAFD69
:103E9000B4EDCEF3210D0000BAAFCAFDB4EDCEF300
:103EA000210D0000CEB4D5D2B5BDC6A5C5E4B5C4BC
:103EB000BAAFCAFD210D0000411C11F8010B2028EA
:103EC000FBD070472DE9F047884600210A230546BC
:103ED0000026C8F800100EE0402C88BF10232B2AC3
:103EE00004D02D2A05D10130022603E0013001263D
:103EF00000E0013101352C780278A4F130070A2F57
:103F0000EAD32D2A01D02B2A01D10F06E4D0A4F147
:103F10004107062FE0D3CFB2012F08BF582CDBD0CA
:103F200014B10120BDE8F0875FFA83F9B9F1100FF1
:103F30000DD1032F3CBF0220BDE8F087302A2DD1E0
:103F40004278582A2AD110F8022F023901E00B06D4
:103F500027D0441C0027A2F130000A286FF0360059
:103F600038BF6FF02F00CDB200EB020A002D18BF52
:103F70004D1EE9B24846FFF751FF0AFB007729467C
:103F8000C8F8007014F8012B002AE4D1022E04BFF7
:103F90007842C8F800000020BDE8F0870320BDE8A3
:103FA000F0870420BDE8F08702780B789A421CBFA6
:103FB0000120704712B101310130F5E70020704750
:103FC00002780A70027812B101310130F8E77047C7
:103FD0000021027812B101300131FAE7C8B270470E
:103FE0002DE9F0418AB00DF109010DF127021E23E0
:103FF0000446FFF797FD009008B10120F4E09DF81A
:1040000027007B4E044400210DF10905C8B20628A3
:104010008DF8271009D856F820102846FFF7C4FF5E
:104020009DF8271008B10131F0E7C8B20628E4D89E
:10403000DFE800F004042A45708AA6006D48964C1B
:10404000A0479648A0479648A0479648A04796485C
:10405000A0479648A0479648A0479648A04796484C
:10406000A0479648A0479648A0479648A04796483C
:10407000A0479648A0479648A0479648A04796482C
:10408000A0479648A047AEE05A48FCF723FB7F487C
:10409000FCF720FB584D00207DA4297D8DF82700DA
:1040A000C0B2884280F09C80296801EBC000416862
:1040B0002046FCF781F99DF827000130EDE74D48D7
:1040C000FCF708FB6B48FCF705FB4B4D00200DF19E
:1040D00009040DF108080DF1070667A7297D8DF881
:1040E0002700C0B288427BD22968424601EBC0005B
:1040F000406821463346FFF72BFD28689DF82710BE
:1041000050F8312038462146FCF756F99DF8270033
:104110000130E3E73748FCF7DDFA0DF109010DF155
:1041200027022046FFF788FC9DF82700E8BB0DF129
:1041300009006946FFF7C6FE04288DF8270036D02F
:1041400098BB009948A018E02A48FCF7C3FA0DF183
:1041500009010DF127022046FFF76EFC9DF82700AC
:1041600018BB0DF109006946FFF7ACFE04288DF875
:10417000270022D0C8B9009933A0FCF71DF92FE021
:104180001C48FCF7A7FA0DF109010DF127022046A2
:10419000FFF752FC9DF8270038B90DF10900694678
:1041A000FFF790FE8DF8270070B102201CE029A0D7
:1041B000FCF790FA1048012104E01EA0FCF78AFAEF
:1041C0000D480021C1750BE00B489DF800100BA2B3
:1041D00080F8EC1010A0002908BF1046FCF77AFA0E
:1041E0000448FCF777FA00200AB0BDE8F08100BF70
:1041F00014000020ED8900083000002052756E2068
:1042000054696D652043616C63756C6174696F6E90
:10421000204F46460D00000052756E2054696D65B2
:104220002043616C63756C6174696F6E204F4E0D35
:10423000000000003130BDF8D6C6B2CECAFDCFD4E2
:10424000CABE210D000000004445433A256C750D9F
:104250000A0000003136BDF8D6C6B2CECAFDCFD4B2
:10426000CABE210D000000004845583A3058255874
:104270000D0A0000278700082573206964206973F0
:104280003A0D0A3058253038580D0A006687000864
:1042900025730D0A00000000D5060008E38700081A
:1042A000218800087289000833890008B089000855
:1042B0005F880008ED880008CD880008078900089D
:1042C0001D8900080E870008F3860008BE860008D6
:1042D00089860008588600089A880008A587000883
:1042E000244A25491268D1F8F0001369DB071EBF84
:1042F0004FF6FF731844C1F8F000526A1044C1F839
:10430000F0007047BCB50022104B01921C68104DA4
:1043100044F004041C60174CC4E90051C4E90220B5
:104320002261186800F00400019001982046FDF712
:104330000FFE2046FDF73AFE1E2003210322FDF763
:1043400015FB1E20BDE8BC40FDF702BB4038024013
:104350000008004007486FF0010201680A614FF64B
:10436000FF72CA62C26004480022C0F8F0204A62AC
:10437000704700BFA8030020300000200160704794
:104380005FEA400C08BF91F0000F4FEA8C234FEA20
:10439000C12243EA51514FEA1C5018BF00F5F040CA
:1043A0004FEA300018BF41F000415FEA6C5C00F05A
:1043B0002980BCF1FF3F08BF40F080407047130CDC
:1043C00006BF12044FF0100C4FF0000C130E04BF88
:1043D00012020CF1080C130F04BF12010CF1040CB3
:1043E000930F04BF92000CF1020CD30F04BF5200D4
:1043F0000CF1010C11464FF00002A0F11F00A0EBE0
:104400000C00704711F0004F08BF704731F00041B9
:104410003FF4D5AF0B0C06BF09044FF0100C4FF062
:10442000000C0B0E04BF09020CF1080C0B0F04BFAB
:1044300009010CF1040C8B0F04BF89000CF1020C74
:10444000CB0F04BF49000CF1010CCCF1200322FA80
:1044500003F341EA030102FA0CF2A0EB0C0000F1B5
:104460000100704723F07F4720F07F4C80EA030073
:1044700000F00040ACEB070303F57C5303F1FF03AE
:104480002DE9804909B44FEA144324EA03484FEA6E
:10449000154B25EA0B4E0FF2042606EB13273E7848
:1044A00003FB0667C7F5000707FB06F64FEAD6468B
:1044B00006F102064FEA543707FB066CCCF1005CAC
:1044C0004FEA1C472CEA074C0CFB06F507FB06F4E9
:1044D00004EB15464FEA961649085FEA320234BFEC
:1044E00000204FF000404FEAD13706FB07FC4FEAAF
:1044F0001C4C0CFB0BF7D21B03FB0CF761EB070109
:104500000CFB0EF7B0EB074072EB17420CFB08F701
:1045100034BFA2EB0742B2EB074261EB17414FEA0F
:104520000C444FEA910706FB07FC4FEA1C4C0CFBBE
:104530000BF7B0EBC74072EB573203FB0CF734BFFD
:10454000A2EBC742B2EBC74261EB57310CFB0EF74F
:10455000B0EBC70072EB57720CFB08F734BFA2EB4D
:10456000C702B2EBC70261EB57714FEA816141EAC2
:1045700092114FEA826242EA90124FEA806004EBA5
:10458000CC04039F4FEAD13706FB07FC4FEA1C4CD3
:104590000CFB0BF7D21B03FB0CF761EB07010CFBC9
:1045A0000EF7B0EB074072EB17420CFB08F734BF75
:1045B000A2EB0742B2EB074261EB17414FEA8C5581
:1045C00004EB9C244FEA910706FB07FC4FEA1C4CC6
:1045D0000CFB0BF7B0EBC74072EB573203FB0CF749
:1045E00034BFA2EBC742B2EBC74261EB57310CFBC1
:1045F0000EF7B0EBC70072EB57720CFB08F734BF35
:10460000A2EBC702B2EBC70261EB57714FEA8161BF
:1046100041EA92114FEA826242EA90124FEA8060C8
:1046200015EB4C2544F100044FEAD13706FB07FC9B
:104630004FEA1C4C0CFB0BF7D21B03FB0CF761EB96
:1046400007010CFB0EF7B0EB074072EB17420CFBB7
:1046500008F734BFA2EB0742B2EB074261EB174108
:104660004FEA813141EA92414FEA823242EA904276
:104670004FEA80304FEA0C7615EB1C1544F100042C
:1046800048EA03434EEA0B484FF0000EB2EB080C29
:1046900071EB030724BF624639464EEB0E0E4FF016
:1046A000000B0018524149414BEB0B0BB2EB080CCD
:1046B00071EB03077BF1000B24BF624639464EEBDA
:1046C0000E0E4FF0000B0018524149414BEB0B0B03
:1046D000B2EB080C71EB03077BF1000B24BF6246C1
:1046E00039464EEB0E0E51EA020718BF46F001069E
:1046F00016EB0E7655F1000254F1000103D5BDE82A
:104700008901BDE80088BDE88901BDE80048B61907
:10471000524141EB0101A3F10103704780807F7E8C
:104720007D7C7B7A79787776767574737271717027
:104730006F6E6E6D6C6C6B6A6A69686867666665D9
:104740006464636362616160605F5F5E5E5D5D5C67
:104750005C5B5B5A5A5959585857575656555555D8
:104760005454535352525251515050504F4F4F4E38
:104770004E4D4D4D4C4C4C4B4B4B4A4A4A49494986
:1047800048484847474747464646454545444444C8
:104790004443434343424242424141419C46002BF1
:1047A00030D477002BD04FEA37071CB503B44FF055
:1047B00010004FF01001BAF1000F06D0BCF1000F4D
:1047C000DCBF40F0080040F008014FF000000FBCD3
:1047D000BDE810400BF1010BBBF1010F08BF5FEA10
:1047E000170722BF12F1010211F101014FF0004140
:1047F00043F1000300F0004043EA00007047F9D3A2
:104800005708D0E746EA06464FEA164613F1400F2E
:104810001FDD13F1200FDFBF16430A4600212033AE
:104820005B42BED0C3F1200746EA06464FEA164671
:1048300002FA07F746EA070622FA03F2C3F1200755
:1048400001FA07F742EA070221FA03F14FF00003E9
:10485000A7E746EA020646EA06464FEA164646EA51
:104860000106BCBF46EA0646360C4FF000034FF087
:1048700000024FF0000194E72DE9804C70B49A4695
:10488000934691E8380007C831EA400C48BF34EA43
:10489000430C03D5FFF7E6FDFFF780FFF0BCBDE852
:1048A000008C2DE9804C70B49A46934691E838000C
:1048B00007C810F0804F08BF13F0804F03D100F0FD
:1048C00005F8FFF76BFFF0BCBDE8008C20F07F47D8
:1048D00023F07F4C80EA030000F0004007EB0C035C
:1048E000A3F57C53A3F1FE0392F0000F00F0B38018
:1048F00095F0000F00F077802DE901494FEA114053
:1049000021EA00484FEA144624EA064700FB06FC69
:1049100008FB06F607FB08F818EB06484CEB164CAC
:1049200000FB07F718EB07484CEB17404FEA124B18
:1049300022EA0B4E4FEA154625EA06470BFB06FC1A
:104940000EFB06F607FB0EFE1EEB064E4CEB164C5E
:104950000BFB07F71EEB074E4CEB174B18EB0B0846
:1049600040F1000018EB0E0B58EB000840F100007E
:104970008F1A4FF000014FF000063CBFC943661B81
:1049800014BFB5EB040C00213CBFC943F61B4FEA32
:10499000174427EA04454FEA1C472CEA074C04FB5E
:1049A000076205FB07F70CFB05F616EB074642EB23
:1049B000174204FB0CFC16EB0C4642EB1C421BEBB3
:1049C000060658EB020241414EEA8E0E46EA9E066A
:1049D00001D5BDE80189B619524141EB0101A3F1AE
:1049E0000103BDE801894FEA144524EA05464FEA70
:1049F000114721EA074C05FB07F406FB07F70CFB00
:104A000006F111EB074144EB174405FB0CFC11EBDD
:104A10000C4144EB1C444FEA124722EA074C05FBC9
:104A200007F206FB07F70CFB06F616EB074642EB10
:104A3000174205FB0CFC16EB0C4642EB1C456A18B2
:104A400054F1000148BF7047B619524141EB0101D2
:104A5000A3F10103704795F0000F37D04FEA1142E0
:104A600021EA02464FEA144724EA074C02FB07F109
:104A700006FB07F70CFB06F414EB074441EB174168
:104A800002FB0CFC14EB0C4441EB1C414FEA1547B4
:104A900025EA074C02FB07F506FB07F70CFB06F6B9
:104AA00016EB074645EB174502FB0CFC16EB0C46D4
:104AB00045EB1C42121951F1000148BF7047B6196D
:104AC000524141EB0101A3F1010370474FEA144544
:104AD00024EA05464FEA114721EA074C05FB07F196
:104AE00006FB07F70CFB06F212EB074241EB1741FE
:104AF00005FB0CFC12EB0C4251EB1C414FF0000685
:104B000048BF7047921841EB0101A3F101037047C0
:104B100003B401984100009850EAC12018BF042056
:104B20004A0D18BF40F0010040F2FF72B2EB515F36
:104B300008BF40F00200012808BF052002B07047FE
:104B400030380A2801D20120704700207047000049
:104B500010B500290AD00878002807D00548784405
:104B6000FCF7D2F9002801D0002010BD024878449B
:104B700010BD0000DE420000D642000010B591EAF0
:104B8000030F48BF83F0004300F11884841A71EBCF
:104B9000030C05D2121943EB0C03001B61EB0C0153
:104BA0004FEA1154A4EB135CDFF81CE11EEA430F3B
:104BB00018BF9EEA445F73D021EA045123EA0E0332
:104BC00043F48013DCF1200E32D322FA0CFE10EBFA
:104BD0000E0023FA0CFE41EB0E01CCF1200E03FA7D
:104BE0000EFE10EB0E00CCF1200E51F10001B1F5DC
:104BF000801F32D201EB045112FA0EF2BDE81040D0
:104C000058BF7047401C38BF5FEA420218BF704768
:104C1000002814BF20F0010041F100014FEA4103D8
:104C200013F5001F38BF7047A1F1C04100F0B8BBB9
:104C3000012A43EB0302ACF1200CDCF11F0E32BF62
:104C40004FF0000E23FA0CF310EB030041EB04517C
:104C5000B4EB115FD0D0A1EB045101F580114908EC
:104C600001EB04515FEA30000ED350F1000038BF71
:104C700012FA0EFE08D1BDE81040C9E7401C38BF4B
:104C80005FEA4202CAD1C3E7BDE810404FEA4103E0
:104C900013F5001F38BF7047A1F1C04100F080BB81
:104CA0009EEA445F08D011EA5E0FBDE8104004BFE1
:104CB00001F0004100207047BDE8104070B500F0E1
:104CC00021FB00BF64FBBE3E0000E0FF491058BF5F
:104CD000C1F140415B1058BFC3F140438B42EFF339
:104CE000008070472DE9C04130B4DFF8A0C23CEA33
:104CF000111418BF3CEA131400F0EC801CEA1114E4
:104D000081EA030544EAD57418BF1CEA131500F0C4
:104D1000C780A4EB050404F17F7404F500344FF060
:104D2000004545EAC12145EAC32341EA505143EA1F
:104D300052534FEAC0204FEAC222994208BF904224
:104D400000F09C804FEA13650FF24016765D4FEA43
:104D5000134506FB05F7C7F1807706FB07F74FEA17
:104D6000D737A7FB03687642A7FB06CEC8F5803885
:104D700038BFA8F1010807FB08E6A6FB028C4FF03C
:104D8000000EE6FB03CEDCF1000CCEF1004E38BF86
:104D9000AEF1010EA6FB0C584FF00007E6FB0E87A4
:104DA000A1FB08C6A0FB07CE16EB0E064FF00005D0
:104DB00045F10005E1FB076515F1E04E7EBFA4F566
:104DC00080345FEA46066D4116F1800745F1000523
:104DD0004FEA172747EA05674FEA15254FEA0666A7
:104DE000A6F1DE46B6F1805F1FD9384605EBC471E7
:104DF00024F0010C01EB0C11BCF1FE6F02D8F0BCE9
:104E0000BDE8008124425CBF01F5801E9EEAC47F9C
:104E100002D4F0BCBDE80081244238D4A1F1C041E5
:104E2000F0BCBDE8004100F0BBBA4FEAD02040EA38
:104E300041504FEAD1214FEAD22242EA43524FEA8F
:104E4000D323A7FB028607FB036605FB02661EEA67
:104E50000E0F58BFA6EB0056B6EB00564FEA520EA7
:104E60004EEAC37E18EB0E0E56EB530EBDD518EB73
:104E700002085E417F1C55F10005B6E74FF480152E
:104E80004FF000074FF000064FF00008ADE701F1CA
:104E9000C04101F000414FF00000F0BCBDE80081CE
:104EA0000CEA131511EA0C1F00D00CE013EA0C1FDA
:104EB00000F025804FF0000081EA030101F000417D
:104EC000F0BCBDE80081F0BCBDE8004181EA03010F
:104ED00000F066BAF0BCBDE8004170B500F012FA0F
:104EE000097EFC3E00F007B84FF0000081EA0301A4
:104EF00001F00041704781EA030100F051BAF0BCB3
:104F0000BDE8004122494FF000007047FFFDFBF96A
:104F1000F7F5F4F2F0EEEDEBE9E8E6E4E3E1E0DEEC
:104F2000DDDBDAD8D7D5D4D3D1D0CFCDCCCBCAC85E
:104F3000C7C6C5C4C2C1C0BFBEBDBCBBBAB9B8B785
:104F4000B6B5B4B3B2B1B0AFAEADACABAAA9A8A878
:104F5000A7A6A5A4A3A3A2A1A09F9F9E9D9C9C9B46
:104F60009A999998979796959594939392919190F1
:104F70008F8F8E8E8D8C8C8B8B8A89898888878782
:104F80008685858484838382828181800000FF07F7
:104F90000000F87F51EA030C17D41CF5801F58BF9E
:104FA000BCF5801F00F10680994218BF704708BF0A
:104FB0009042704707D711F5801F58BF13F5801F27
:104FC00019D499427047894270471CF5801F08D553
:104FD000BCF5801FF7D58B4218BF704708BF8242CF
:104FE00070474FF4001C1CEB410F38BF1CEB430F04
:104FF00001D28B42704770B500F084F992244900C9
:105000004FF000514FF08053FFF760BE4FEA41036D
:105010004FEA5353A3F58063D3F11E03C8BFD3F106
:10502000210C0CDD4FF0004242EAC12242EA50520C
:1050300032FA03FC8CEAE17CACEBE1707047102B98
:10504000C4BF0020704703F5787CBCF1FF3F04D05B
:105050006FF0004282EA2100704770B500F052F90B
:105060004992248000207047F2E710F0004248BFC8
:105070004042B0FA80F310FA03F10AD0C3F11D03E5
:1050800003F5806302EB03524FEA415002EBD1215A
:1050900070474FF000007047B0FA80F310FA03F148
:1050A0000AD0C3F11D0303F580634FEA03524FEAB0
:1050B000415002EBD12170474FF0000070470000D3
:1050C00051EA030C17D41CF5801F58BFBCF5801F94
:1050D00000F10680994218BF704708BF90427047A0
:1050E00007D711F5801F58BF13F5801F19D49942B7
:1050F0007047894270471CF5801F08D5BCF5801F9A
:10510000F7D58B4218BF704708BF824270474FF4F3
:10511000001C1CEB410F38BF1CEB430F01D28B422C
:10512000704770B500F0EEF8922449004FF08051BE
:105130004FF00053FFF7CABD51EA030C17D41CF51A
:10514000801F58BFBCF5801F00F10680994218BF30
:10515000704708BF9042704707D711F5801F58BFAE
:1051600013F5801F19D499427047894270471CF586
:10517000801F08D5BCF5801FF7D58B4218BF70473C
:1051800008BF824270474FF4001C1CEB410F38BF30
:105190001CEB430F01D28B42704770B500F0B2F8A0
:1051A000922449004FF000514FF08053FFF78EBD1D
:1051B00070B5DFF848C11CEA111E1EBF1CEA1315AA
:1051C0009EEA0C0F95EA0C0F00F06F8081EA030451
:1051D0004EEAD47EAE4421EA4C1123EA4C1341F44A
:1051E000801143F48013AEF17F7EA1FB024CA0FB43
:1051F0000365361955EB0C05A1FB034C4CF100037C
:10520000A0FB021C16EB0C06654153F1000309429A
:1052100018BF46F0010613F4007F0BD14FEA0331AB
:105220004FEA053041EA155140EA165034036FF059
:1052300003020AE04FEAC3214FEAC52041EA555173
:1052400040EA5650F4026FF0020202EB2E4201EBEC
:10525000025585EACE710AD05FEA440C18BF24F0EB
:10526000004450F1000041F1000120EAD47040F206
:10527000FE7C624500D270BDA84214BF4FF080444E
:105280004FF04044002E08BF0024BEF1806FA8BF3D
:10529000A1F1C041BDE8704080F2828001F1C041BF
:1052A00001F000414FF0000070470CEA13159EEA30
:1052B0000C0F18BF95EA0C0F06D081EA030E4FF0D1
:1052C00000000EF0004170BD00F01CF88900013EA6
:1052D00000F007B800F009B84FEA430C5FEA5C5CE5
:1052E00008D081EA030100F05BB84FEA410C5FEAA5
:1052F0005C5CF6D102494FF0000070470000FF07E8
:105300000000F87F0EF1020E2EF0030E5EF8046B23
:10531000364205D4012A43EB030515F5001F12D8C8
:10532000012841EB010C1CF5001F0CD80ED14FEAEF
:10533000D17C0CEB4C0C0CF1020C15F5001F08BFD6
:105340004CEBD37C04E04FF0080C01E04FEAD37C37
:105350000CEB4C0526FA05F606F00706B6F1040C30
:1053600006D20EEB860CBDE870404CF0010C604795
:10537000DFE80CF0090B02024FF00041A1F500211B
:105380004FF0000070BD19461046012851EB010492
:1053900018BFD4F5001484BF002001F0004170BD97
:1053A0000808A0F500114FEA3101704710B591EAE5
:1053B000030F48BF83F000433FF5E8AB841A71EB5D
:1053C000030C07D28CF0004C121943EB0C03001BAA
:1053D00061EB0C014FEA1154A4EB135CDFF89CE184
:1053E0001EEA430F18BF9EEA445F00F0B08021EA36
:1053F000045123EA6E035242C3EB6E0338BF5B1EB7
:10540000DCF1200E25D322FA0CFE10EB0E0043FA3D
:105410000CFE41EB0E01CCF1200E03FA0EFE10EB58
:105420000E00CCF1200E51F1000129D401EB045102
:1054300012FA0EF2BDE8104058BF7047401C1CBF66
:10544000B2F1004F704700280CBF491C20F001004A
:10545000704712EB020E43EB030218BF4FF0010E30
:105460004EEA4202ACF1200CDCF11E0E54D943FA94
:105470000CFE10EB0E00CCF11E0E51F1FF31D5D514
:105480000EF1010E12FA0EFE404141EB010101EB5B
:10549000445C5FEA5C5C10D901EB045110EBDE70F8
:1054A00038BFBEF1004FBDE8104018BF704700285C
:1054B0000CBF491C20F00100704730D24FEAD42CB9
:1054C00024F4006411F500111BD0B1FA81F20B3AFB
:1054D000A41AA41ED2F12003914030FA03F3194319
:1054E000904001EBCC7101EB0451002CBDE8104061
:1054F000A8BF704701F1C04101F000414FF000002A
:105500007047B0FA80F310FA03F100D110BDE41A2D
:10551000173C4805C90AE4E701EB045110BD4910E6
:105520004FEA300001EB0451BDE8104002E04FF0BB
:10553000000170474A0008BF0042F8D0B2F5001FD2
:1055400028BF704701F000414FF0000070479EEA0D
:10555000445F07D011EA5E0FBDE8104004BF002190
:1055600000207047BDE8104070B5FFF7CBFE00BFCC
:1055700040DFF63E104683F0004170470000E0FF38
:1055800010B5FFF707FD0CBF0120002010BD10B5BE
:10559000FFF700FD14BF0120002010BD10B5FFF77C
:1055A0008FFD8CBF0120002010BD10B5FFF788FDD6
:1055B0002CBF0120002010BD10B5FFF7BDFD94BF2A
:1055C0000120002010BD10B5FFF7B6FD34BF01204B
:1055D000002010BDF1EE100A4FF6FF71C0F2C0318D
:1055E00020EA010040F04070E1EE100A7047FBF73E
:1055F000E3B93031323334353637383941424344F8
:10560000454640305800303132333435363738393A
:105610006162636465664030780004000008000041
:105620000000000000020001000010000240000025
:10563000000000A00000000005400000000000C8BD
:10564000000000000C4000000000409C0000000032
:10565000194000000020BCBE0000000034400000E3
:10566000BFC91B8E00000004B5400000504BCFD0D6
:105670006607E2CF010000006C4100003E8251AAA3
:10568000DFEEA73401000000D9420000DCB5A0E243
:105690003A301F97FFFFFFFFB4450000FD25A0C86B
:1056A000E9A3C14FFFFFFFFFFF3F000000000080A4
:1056B00000000000FF3F000000000080000000002C
:1056C00000000000000000000102030406070809B2
:1056D00000000000010203040000000000000000C0
:1056E00000000000000000003F400000000000003B
:1056F00000003000400030004000000009000BC0F6
:105700003D000BC03D00090018C024407FE022404E
:1057100031800000180024C01B000D803240018041
:1057200003801C4027401C800740004010006000A0
:1057300000000000000000000000000000001F80CA
:10574000204040200000402020401F80000000003A
:10575000090006001F800600090000000400040084
:105760003F80040004000000001000600000000002
:105770000000000004000400040004000400000015
:10578000000000400000000000000000002001C0F8
:1057900006003800400000001F80204020402040CC
:1057A0001F800000000010403FC0004000000000CB
:1057B00018C02140224024401840000010802040A2
:1057C000244024401B80000002000D0011003FC057
:1057D000014000003C8024402440244023800000FD
:1057E0001F8024402440344003800000300020000B
:1057F00027C03800200000001B80244024402440A3
:105800001B8000001C0022C0224022401F8000009C
:105810000000000008400000000000000000000040
:105820000460000000000000000004000A001100F5
:10583000208040400900090009000900090000001B
:1058400000004040208011000A00040018002000E1
:1058500023402400180000001F80204027402940DA
:105860001F400000004007C039000F0001C0004089
:1058700020403FC0244024401B8000001F80204067
:10588000204020403080000020403FC02040204089
:105890001F80000020403FC024402E4030C0000048
:1058A00020403FC024402E00300000000F00108038
:1058B000204022403380020020403FC0040004000A
:1058C0003FC02040204020403FC0204020400000FA
:1058D0000060202020203FC02000200020403FC04A
:1058E00024400B0030C0204020403FC020400040FA
:1058F000004000C03FC03C0003C03C003FC000006F
:1059000020403FC00C4023003FC020001F802040AB
:10591000204020401F80000020403FC02440240041
:10592000180000001F802140214020E01FA000003F
:1059300020403FC02440260019C0004018C0244029
:105940002440224031800000300020403FC02040F1
:105950003000000020003F80004000403F802000D9
:1059600020003E0001C0070038002000380007C0BA
:105970003C0007C038000000204039C0060039C094
:10598000204000002000384007C0384020000000C0
:10599000304021C02640384020C0000000000000F8
:1059A0007FE0402040200000000070000C000380D9
:1059B000004000000000402040207FE00000000088
:1059C0000000200040002000000000000010001037
:1059D0000010001000100010000000004000000047
:1059E00000000000000002800540054003C00040A8
:1059F00020003FC0044004400380000000000380FA
:105A0000044004400640000000000380044024409D
:105A10003FC00040000003800540054003400000F7
:105A2000000004401FC0244024402000000002E089
:105A3000055005500650042020403FC0044004009B
:105A400003C000400000044027C0004000000000E8
:105A500000100010041027E00000000020403FC0AC
:105A60000140070004C00440204020403FC00040E7
:105A70000040000007C0040007C0040003C000008D
:105A8000044007C00440040003C00040000003803D
:105A90000440044003800000041007F00450044058
:105AA00003800000000003800440045007F0001051
:105AB000044007C00240040004000000000006404B
:105AC0000540054004C00000000004001F800440A1
:105AD00000400000040007800040044007C0004070
