:020000040800F2
:1000000098080020A10200088F2E0008D32D0008B8
:100010008D2E000843170008FD3300080000000083
:10002000000000000000000000000000593000083F
:100030007918000800000000912E00085B300008CD
:10004000C5020008C5020008C5020008C502000874
:10005000C5020008C5020008C5020008C502000864
:100060007D18000891180008C5020008C5020008A4
:10007000C5020008C5020008C5020008C502000844
:10008000C5020008C5020008C5020008C502000834
:1000900045170008C5020008C5020008C50200088F
:1000A000C5020008C5020008C5020008C502000814
:1000B000C5020008C502000871300008C50200082A
:1000C000C5020008C5020008C5020008C5020008F4
:1000D000C5020008B9330008C5020008C5020008BF
:1000E000C5020008C5020008C5020008C5020008D4
:1000F000C5020008C5020008C5020008C5020008C4
:10010000C5020008C5020008C5020008C5020008B3
:10011000C5020008C5020008C5020008C5020008A3
:10012000C5020008C5020008C5020008C502000893
:10013000C5020008C5020008C5020008C502000883
:10014000C5020008C5020008C5020008C502000873
:10015000C5020008C5020008C5020008C502000863
:10016000C5020008C5020008C5020008C502000853
:10017000C5020008C5020008C50200080000000012
:10018000C5020008C502000800F002F800F078F887
:100190000AA090E8000C82448344AAF10107DA45E2
:1001A00001D100F06DF8AFF2090EBAE80F0013F0BC
:1001B000010F18BFFB1A43F0010318478C8D000094
:1001C000AC8D00000A444FF0000C10F8013B13F016
:1001D000070408BF10F8014B1D1108BF10F8015BA0
:1001E000641E05D010F8016B641E01F8016BF9D193
:1001F00013F0080F1EBF10F8014BAD1C0C1B09D1EA
:100200006D1E58BF01F801CBFAD505E014F8016B5B
:1002100001F8016B6D1EF9D59142D6D370470000ED
:100220000023002400250026103A28BF78C1FBD8FF
:10023000520728BF30C148BF0B607047662905F0E0
:100240002A84642900F02681752900F02381782909
:1002500000F05C81632900F02F85732900F034855C
:10026000002070471FB505F00CFC00F043FD0400B2
:100270000020002104F0D0FEE0601FBD10B510BDCD
:1002800000F038FE1146FFF7EDFF03F0ADFD00F082
:1002900056FE03B4FFF7F2FF03BC03F0DFF80000E3
:1002A0000C48016841F4700101600B4880470B481D
:1002B0000047FEE7FEE7FEE7FEE7FEE7FEE7FEE7B4
:1002C000FEE7FEE7FEE7000005480649044A064B44
:1002D0007047000088ED00E06130000889010008E7
:1002E000980400209808002098040020704753EAE2
:1002F000020C00F069802DE9F04B4FF00006002B56
:100300001FBFB3FA83F503FA05F424FA05F65E403D
:1003100012BF1643B2FA82F502FA05F4C5F12005C0
:100320001EBF22FA05FC44EA0C04203556EA044CB0
:100330004FEA144418BF641C4FF000084FF0000946
:10034000904271EB030C39D3002919BFB1FA81F740
:1003500001FA07F6B0FA80F700FA07F6C7F12007AE
:100360001EBF20FA07FC46EA0C062037B6FBF4FC59
:10037000A7EB0507103F07F01F0BCBF120060CFA87
:100380000BFB2CFA06F644BFB3460026202FA4BF71
:100390005E464FF0000B5BEA060C08BF4FF0010B06
:1003A00019EB0B09ABFB027C48EB0608C01B06FBF4
:1003B00002CC0BFB03CC71EB0C01C1E70B460246F0
:1003C00041464846BDE8F08B13B54FF000004FF0B2
:1003D0000001AFF30080BDE81C4070470FB4044932
:1003E00010B503AA029800F073FC10BC5DF814FB72
:1003F0001000002070B5044685690068C10601D56B
:10040000302600E02026C00707D070BDD4E90121C6
:1004100030469047206A401C20626D1EF6D570BDA4
:1004200070B5044685690078C00707D170BDD4E96E
:10043000012120209047206A401C20626D1EF6D5C5
:1004400070BD70B50C460546012A05D02878800697
:1004500000D5EA69002302E0012305E05B1C93421A
:1004600002D2E05C0028F9D1A869E618C01AA86198
:10047000286A184428622846FFF7BCFF04E0D5E943
:10048000012114F8010B9047B442F8D32846FFF736
:10049000C7FF70BD2DE9F04106460024106875299C
:1004A000314616A510D0AFF30080002802DA404292
:1004B00013A507E031688A0701D512A502E04907B4
:1004C00004D511A5012401E0AFF3008000210A2228
:1004D00006F1240709E0B0FBF2FCB0FBF2F302FBEB
:1004E0001C00303078541846491C0028F3D12346AC
:1004F0002A463046BDE8F04100F055B90000000042
:100500002D0000002B0000002000000070B5044604
:100510000D4621461068AFF300802188090502D5F9
:100520000F4A7A4402E00E4A7A440E32002104F166
:10053000240305E000F00F060009965D5E54491C97
:100540000028F7D120780023000704D5702D02D0B1
:1005500009B1022311322046BDE8704000F023B9F2
:100560000C8500002DE9F05F894604464FF0000A33
:10057000DFF874B1FB44C0F820A02046E16888474A
:10058000002874D0252806D0D4E901219047206A9C
:10059000401C2062F1E700265F462046E16888475C
:1005A0002028054607DB312D05D2781910F8200CDC
:1005B00008B10643F1E7B00701D526F00406C4F8F8
:1005C0001CA00027C4F818A02A2D09D0284602F044
:1005D0003EFF38B304EB8708303DC8F8185019E0E7
:1005E00059F8041B204604EB87029161E1688847B3
:1005F000012F054618D1E069002820DA26F02006F0
:100600001DE0D8F8180000EB800005EB4000303802
:10061000C8F818002046E1688847054602F017FF31
:100620000028EED1012F0AD02E2D08D12046E168F6
:1006300088477F1C0546022F46F02006C4DBA069D0
:10064000002803DA404246F00106A061F00701D01D
:1006500026F010066C2D0BD0682D09D04C2D39D00A
:100660006A2D35D0742D35D07A2D33D016E038E090
:10067000E1682F4620468847B842054609D16C2FCD
:1006800026D04FF48060E16806432046884705463F
:1006900004E06C2F1AD04FF4807006430DB3A5F11F
:1006A0004100192802D8203546F400664A462946FA
:1006B000204626604E46FFF7C1FD80B101280BD0D1
:1006C000F61D26F0070000F1080956E74020E4E790
:1006D0008020D8E70020D6E706F104094DE7284638
:1006E00052E7206ABDE8F09FE284000010B5203A8E
:1006F000C0F00B80B1E81850203AA0E81850B1E8DB
:100700001850A0E81850BFF4F5AF5FEA027C24BF90
:10071000B1E81850A0E8185044BF18C918C0BDE887
:1007200010405FEA827C24BF51F8043B40F8043B50
:1007300008BF7047D20728BF31F8023B48BF11F805
:10074000012B28BF20F8023B48BF00F8012B70475F
:100750004FF0000200B5134694469646203922BF5A
:10076000A0E80C50A0E80C50B1F12001BFF4F7AFA5
:10077000090728BFA0E80C5048BF0CC05DF804EB87
:10078000890028BF40F8042B08BF704748BF20F8F5
:10079000022B11F0804F18BF00F8012B70477047F3
:1007A0007047704770472DE9F0470D4699469246CD
:1007B000044600F124080168880604D5E06921F0A8
:1007C0001001216000E00120A84201DD471B00E08C
:1007D0000027A1697A1902EB0900081AA0612078A4
:1007E000C00602D42046FFF705FE002608E0D4E943
:1007F00001211AF806009047206A401C761C2062EE
:100800004E45F4DB2078C0060AD52046FFF7F2FDFE
:1008100006E0D4E9012130209047206A401C206284
:10082000381EA7F10107F4DC07E0D4E9012118F82C
:1008300005009047206A401C2062281EA5F1010592
:10084000F3DC2046FFF7ECFD2078000602D50220FD
:10085000BDE8F0870120FBE770472DE9FF4F0C460C
:100860001E464FF0FF378BB0D2E90001DDF8608003
:100870000A908A46C1F30A5505B93D46002108464B
:100880004FF00000BAF1000F00F4400005DA00EB71
:1008900080004FF4400101EA50004FEA9059B9F14D
:1008A000010F00DDB9460A9850EA4A000ED044F61E
:1008B0001050A5F2FF3545432F14B8F1000F1ED09C
:1008C0007542291E1EDDC9F100021CE0B8F1010FBE
:1008D0004FF0000001D0302103E0F24305E0215445
:1008E000401CB042FBDB30460022002121540B9912
:1008F000C1F80880C1E900200FB0BDE8F08FBD1B32
:100900006D1CDEE74A4600DA694206A800F07CFA70
:1009100006AB93E8070003AB83E8070050460A994B
:1009200000F054FB8DE80700A0F500501F38009040
:100930000398002D09DD42F21F014A46084403A92D
:100940000390684600F0B3FD08E0A0F500504A4669
:100950001F3803A90390684600F0BDFD8DE807002D
:100960000004000C03D04FF0FF30410800E01046B7
:10097000B8F1000F03D00022009215461EE0751E4C
:1009800005D400F0BBF9303262556D1EF9D5B3467F
:100990000122084302D000227F1C04E02078302886
:1009A00001D100227F1E002A099786D01DE0112D5B
:1009B00007DA00F0A3F9303262556D1C50EA0102EB
:1009C000F5D1084302D00098C8B10EE00021681E9E
:1009D00005E0235C625C63542254401E491C814242
:1009E000F7DBAB46A81B401E0990002004F80B0063
:1009F0000B98099AC0F80880C0E9002B7CE7112603
:100A00004FF0000859E72DE9F04F88460446D21D03
:100A100022F0070191B0D1E90001CDE90A0102F00D
:100A2000EEFC02460B98C00F01D02D2007E0206895
:100A3000810701D52B2002E0202101EAC000032A12
:100A4000099001D0072A05DB03464146204600F005
:100A50009BF90BE12078800601D5E06900E00620D3
:100A6000B8F1650F814606D0B8F1660F18D0B8F11D
:100A7000670F70D131E00020B9F1110F009001DB58
:100A8000112301E009F101030AAA01A90CA8FFF74B
:100A9000E4FEDDE90C70002609F10105834647E01C
:100AA00001204B4600904FF000470AAA01A90CA86C
:100AB000FFF7D3FEDDE90DB00C995D46002610B9B5
:100AC00009F101000D18B9EB050003D4C0F1FF36A0
:100AD00009F10105A5EB09002BE0B9F1010F01DADD
:100AE0004FF001090020B9F1110F0090484601DDD7
:100AF000112300E003460AAA01A90CA8FFF7ADFEE6
:100B0000DDE90C704D4600268346207800070AD4A4
:100B1000AB4500DA5D4601A8012D04DD411911F84D
:100B2000011C302907D04F4502DA17F1040F04DA0F
:100B3000012082460FE06D1EEEE7002F02DCED1B68
:100B40003E4403E0781CA84200DD7D1CB81B00F188
:100B5000010A4FF000472078000703D4AA4501DBC3
:100B60004FF0FF3A0021B7F1004F0DF143088DF827
:100B7000431024D002202B23002F01DA7F422D23A3
:100B80000A21021EA0F1010000DC5FB197FBF1FC1D
:100B900097FBF1F201FB1C7C17460CF1300C08F8B6
:100BA00001CDEEE7A8F1010003702188090501D508
:100BB000452100E06521A0F1010800F8011C099819
:100BC0000FA9A1EB0807FF1D00B10120411901EB9E
:100BD000EA70A1693844081A401EA0612078C00656
:100BE00002D42046FFF706FC099828B1D4E9012178
:100BF0009047206A401C20622078C00622D52046FB
:100C0000FFF7F8FB1EE0002E04DBB34502DD01A870
:100C1000805D00E03020D4E901219047206A401C2B
:100C20002062761CAAF101005FEA000A0AD100F0F6
:100C300061F8C0680168405CD4E901219047206AEE
:100C4000401C2062281EA5F10105DCDC07E0D4E988
:100C5000012118F8010B9047206A401C2062381EC1
:100C6000A7F10107F3DC2046FFF7DAFB032011B000
:100C700043E6000001694A1C02610878704700B52C
:100C80008FB0CDE901310021059105497944CDE9C5
:100C9000031011466846FFF765FC0FB000BD000069
:100CA000E5FFFFFF10B5436913B1AFF3008001E02A
:100CB000FFF7C7FB012010BD127800F124010A7074
:100CC00000224A700122EDE711684FF0FF32E9E798
:100CD000074B70B50D467B44FFF7D1FF044628460D
:100CE00000F000F910B14FF0FF3070BD204670BD2C
:100CF00077280000004870475804002030B5B0F154
:100D00000A024FEA900E71F100034EEA817EB0EBC9
:100D10000E0061EB91014FEA101E4EEA017E10EBCE
:100D20000E0041EB11114FEA102E4EEA016E10EB4E
:100D30000E0041EB11214FEA104E4EEA014E10EB2E
:100D40000E0041EB1141401841F100014FEAD00083
:100D500040EA41704FEAD10110EB80054FEA81046F
:100D600044EA907444EB01046D1944EB0404521BF3
:100D7000A3414FF0000348BF0A3200D530BD401CEC
:100D800041F1000130BD00002DE9F0411F4604464D
:100D900003260168072A01F4006004DB08B116A5E8
:100DA00005E016A503E008B115A500E015A521F0A2
:100DB00010002060A069C01EA0610FB1401EA0619C
:100DC0002046FFF717FB4FB1D4E901213846904781
:100DD000206A401C2062C01C206206E0206AFAE7FC
:100DE000D4E9012115F8010B9047761EF8D2204670
:100DF000FFF716FBBDE8F0814E414E006E616E00BC
:100E0000494E4600696E66002DE9F0478146164658
:100E10008AB0334878440DC88DE80D0030487844D6
:100E2000801C03AC0DC884E80D0041F69B300844DB
:100E3000372190FBF1F290FBF1F5A5F1800501FB64
:100E400012041B3C02D56442012000E00020DFF8C0
:100E500090A080460027FA44AAF1BE0A0DE0E00700
:100E600009D03246684607EB47010AEB810100F0E2
:100E700032FB8DE8070064107F1C002CEFD1184F67
:100E80007F44AC3F18E0E80714D007EB04100DF1E5
:100E9000180A90E80E008AE80E00C068F04201D1FE
:100EA00098190890324606A903A800F014FB03AB7A
:100EB00083E807006D10641C002DE4D132466946BA
:100EC000B8F1000F03A802D000F0F1FA01E000F041
:100ED00002FBC9E90001C9F808200AB0BDE8F087A3
:100EE000D07C0000007B00F0800070470048704715
:100EF000380400207546FFF7F9FFAE460500694645
:100F0000534620F00700854618B020B5FFF7DCF9FE
:100F1000BDE820404FF000064FF000074FF00008FA
:100F20004FF0000B21F00701AC46ACE8C009ACE87B
:100F3000C009ACE8C009ACE8C0098D46704704465A
:100F4000AFF300802046FFF7A4F900004FF0013C0A
:100F500050F8042B51F8043B9A4221D1A2EB0C0328
:100F6000934313EACC1317D150F8042B51F8043BE8
:100F70009A4215D1A2EB0C03934313EACC130BD185
:100F800050F8042B51F8043B9A4209D1A2EB0C0310
:100F9000934313EACC13DBD04FF00000704700BF3F
:100FA000D01A01BAB1FA81F101F0180122FA01F068
:100FB000CB40C1F12001DBB2C0B2C01A2CFA01F360
:100FC000D11A914311EAC311E6D170475FEA400C90
:100FD00008BF91F0000F4FEA8C234FEAC12243EA89
:100FE00051514FEA1C5018BF00F5F0404FEA300055
:100FF00018BF41F000415FEA6C5C00F02980BCF151
:10100000FF3F08BF40F080407047130C06BF12043A
:101010004FF0100C4FF0000C130E04BF12020CF135
:10102000080C130F04BF12010CF1040C930F04BF42
:1010300092000CF1020CD30F04BF52000CF1010C12
:1010400011464FF00002A0F11F00A0EB0C0070470A
:1010500011F0004F08BF704731F000413FF4D5AFA9
:101060000B0C06BF09044FF0100C4FF0000C0B0ED8
:1010700004BF09020CF1080C0B0F04BF09010CF1AD
:10108000040C8B0F04BF89000CF1020CCB0F04BFC2
:1010900049000CF1010CCCF12003A0EB0C0022FA6A
:1010A00003F302FA0CF241EA030100F10100704778
:1010B00020F07F4C80EA030023F07F47ACEB07036E
:1010C00003F57C5300F0004003F1FF032DE9804954
:1010D0004FEA154B09B44FEA144325EA0B4E24EAB4
:1010E00003480FF2042606EB132749083E785FEA0F
:1010F000320203FB0667C7F5000707FB06F64FEA57
:1011000054374FEAD64606F1020607FB066CCCF1CF
:10111000005C4FEA1C472CEA074C07FB06F40CFB6B
:1011200006F504EB15464FEA961634BF00204FF043
:1011300000404FEAD13706FB07FC4FEA1C4C0CFB82
:101140000BF7D21B03FB0CF761EB07010CFB0EF74F
:10115000B0EB074072EB17420CFB08F734BFA2EB71
:101160000742B2EB074261EB17414FEA0C444FEAEA
:10117000910706FB07FC4FEA1C4C0CFB0BF7B0EB8E
:10118000C74072EB573203FB0CF734BFA2EBC742E8
:10119000B2EBC74261EB57310CFB0EF7B0EBC70067
:1011A00072EB57720CFB08F734BFA2EBC702B2EB2D
:1011B000C70261EB5771039F4FEA816141EA9211C7
:1011C00004EBCC044FEAD1374FEA826206FB07FCFE
:1011D00042EA90124FEA80604FEA1C4C0CFB0BF77E
:1011E000D21B03FB0CF761EB07010CFB0EF7B0EB16
:1011F000074072EB17420CFB08F734BFA2EB074223
:10120000B2EB074261EB17414FEA8C554FEA910769
:1012100004EB9C2406FB07FC4FEA1C4C0CFB0BF771
:10122000B0EBC74072EB573203FB0CF734BFA2EBB5
:10123000C742B2EBC74261EB57310CFB0EF7B0EB84
:10124000C70072EB57720CFB08F734BFA2EBC70262
:10125000B2EBC70261EB577115EB4C254FEA816188
:1012600041EA92114FEA82624FEAD13742EA901284
:1012700006FB07FC44F100044FEA80604FEA1C4C77
:101280000CFB0BF7D21B03FB0CF761EB07010CFB0C
:101290000EF7B0EB074072EB17420CFB08F734BFB8
:1012A000A2EB0742B2EB074261EB174115EB1C15AD
:1012B0004FEA813141EA92414FEA823242EA90425A
:1012C0004FEA80304FEA0C7644F1000448EA0343C9
:1012D0004EEA0B484FF0000EB2EB080C71EB03071F
:1012E00024BF624639464EEB0E0E4FF0000B00183D
:1012F000524149414BEB0B0BB2EB080C71EB03076E
:101300007BF1000B24BF624639464EEB0E0E4FF0C8
:10131000000B0018524149414BEB0B0BB2EB080C90
:1013200071EB03077BF1000B24BF624639464EEB9D
:101330000E0E51EA020718BF46F0010616EB0E76B4
:1013400055F1000254F1000103D5BDE88901BDE863
:101350000088BDE88901BDE80048B619524141EB5B
:101360000101A3F10103704780807F7E7D7C7B7A41
:101370007978777676757473727171706F6E6E6D41
:101380006C6C6B6A6A6968686766666564646363E7
:1013900062616160605F5F5E5E5D5D5C5C5B5B5A6D
:1013A0005A595958585757565655555554545353DA
:1013B00052525251515050504F4F4F4E4E4D4D4D35
:1013C0004C4C4C4B4B4B4A4A4A4949494848484780
:1013D00047474746464645454544444444434343BE
:1013E0004342424242414141002B26D4770021D062
:1013F0001CB54FEA370703B44FF010004FF010014F
:101400004FF000000FBCBDE810400BF1010BBBF129
:10141000010F08BF5FEA170722BF12F1010211F1A5
:1014200001014FF0004143F1000300F0004043EAA6
:1014300000007047F9D35708DAE746EA064613F189
:10144000400F4FEA16461FDD13F1200FDFBF164392
:101450000A46002120335B42C8D0C3F1200746EA88
:10146000064602FA07F74FEA164646EA0706C3F1B0
:10147000200722FA03F201FA07F721FA03F14FF0ED
:10148000000342EA0702B1E746EA020646EA0646D8
:101490004FEA164646EA0106BCBF46EA0646360C47
:1014A0004FF000034FF000024FF000019EE72DE9DE
:1014B000C048934630B491E8380007C831EA400C80
:1014C00048BF34EA430C03D5FFF7F2FDFFF78CFF6A
:1014D000F0BCBDE800882DE9C048934630B491E8DF
:1014E000380007C810F0804F08BF13F0804F03D1B9
:1014F00000F005F8FFF778FFF0BCBDE8008820F0A9
:101500007F4780EA030023F07F4C07EB0C03A3F531
:101510007C5300F00040A3F1FE0392F0000F00F0B6
:10152000B38095F0000F00F077802DE901494FEA74
:1015300011404FEA144621EA004800FB06FC24EA69
:10154000064708FB06F607FB08F800FB07F718EB51
:1015500006484CEB164C4FEA124B18EB07484FEA83
:1015600015464CEB174022EA0B4E0BFB06FC25EA16
:1015700006470EFB06F607FB0EFE0BFB07F71EEBFE
:10158000064E4CEB164C4FF000061EEB074E4CEB94
:10159000174B18EB0B0840F1000018EB0E0B58EB43
:1015A000000840F100008F1A4FF000013CBFC94312
:1015B000661B14BFB5EB040C00213CBFC943F61BEE
:1015C0004FEA17444EEA8E0E27EA04454FEA1C47BD
:1015D00004FB07622CEA074C05FB07F70CFB05F63A
:1015E00004FB0CFC16EB074642EB174216EB0C46CD
:1015F00042EB1C421BEB060658EB0202414146EA55
:101600009E0601D5BDE80189B619524141EB0101A1
:10161000A3F10103BDE801894FEA14454FEA1147E0
:1016200024EA054621EA074C05FB07F406FB07F709
:101630000CFB06F105FB0CFC11EB074144EB1744D6
:101640004FEA124711EB0C4144EB1C4422EA074CD1
:1016500005FB07F206FB07F70CFB06F605FB0CFC87
:1016600016EB074642EB174216EB0C4642EB1C45C5
:101670006A1854F1000148BF7047B619524141EB56
:101680000101A3F10103704795F0000F37D04FEA35
:1016900011424FEA144721EA024624EA074C02FBB2
:1016A00007F106FB07F70CFB06F402FB0CFC14EB3E
:1016B000074441EB17414FEA154714EB0C4441EB4B
:1016C0001C4125EA074C02FB07F506FB07F70CFB5C
:1016D00006F602FB0CFC16EB074645EB174516EB2E
:1016E0000C4645EB1C42121951F1000148BF7047EE
:1016F000B619524141EB0101A3F1010370474FEAD2
:1017000014454FEA114724EA054621EA074C05FB38
:1017100007F106FB07F70CFB06F24FF0000605FB8E
:101720000CFC12EB074241EB174112EB0C4251EB60
:101730001C4148BF7047921841EB0101A3F101031E
:101740007047FEE71CB5084A6B460021A2F1400035
:1017500000F0A6F9002805D103490A7C086869460B
:1017600001F098FB1CBD0000D403002010B501F06F
:1017700031FB11480068416941F0020141610022DA
:101780001146142000F0EEFC142000F0DEFC00F006
:1017900041F8094800F0DCFA10B108A0FEF71EFE7F
:1017A0000221054800F080F8002804D0BDE8104070
:1017B0000DA0FEF713BE10BD940300200D0A2054A7
:1017C00068652043414E207065726970686572617A
:1017D0006C20686173206E6F74207374617274651D
:1017E0006421200D0A0000000D0A2043414E2052C2
:1017F0005830206E6F74696669636174696F6E201A
:10180000686173206E6F74206F70656E656421204F
:101810000D0A000000B58BB000200121CDE90601C2
:1018200005900290039004900E20CDE908106946BF
:10183000044800F0AFF8002802D003A0FEF7CEFD68
:101840000BB000BD940300200D0A205468652043AE
:10185000414E2066696C74657220636F6E666967BD
:1018600020686173206E6F742066696E69736865A5
:101870006421200D0A0000007047000010B504200C
:1018800000F020FB01490420086010BD143C014019
:1018900010B5082000F016FB01490820086010BDB3
:1018A000143C014072B6FEE790F82020012A07D0D0
:1018B000022A05D0416A41F480214162012070472B
:1018C000006842690A43426100207047F0B590F811
:1018D00020500468A468012D05D0022D03D0416A70
:1018E00041F4802153E014F0406F01D1E5004BD565
:1018F000C4F30164022C03D9416A41F4000146E0BB
:101900000125A5401D608B684FF4C0759BB1CE6862
:1019100033434E6843EAC603066805EB0417F351E8
:101920004FF4C273076803EB04130E69FE50097D80
:10193000012905D009E00E88CB6843EA4653EBE75E
:101940000168CE5846F48076CE501179D2F8053031
:101950004FF4C67641EA0323016806EB04168B5167
:101960001178D2F801204FF4C47341EA02210268D1
:1019700003EB0413D150006805EB0411425842F008
:10198000010242500020F0BD416A41F40011416261
:101990000120F0BD10B590F82020012A07D0022ABE
:1019A00005D0416A41F480214162012010BD3B48CD
:1019B000D0F8002242F00102C0F80022D0F8002244
:1019C00022F47C52C0F80022D0F800224B6A42EA8E
:1019D0000322C0F800220A7D02F01F0301229A4070
:1019E000D0F81C329343C0F81C32CB69B3B9D0F89D
:1019F0000C329343C0F80C328C894B6864F31F435C
:101A00004C6900EBC404C4F840320C890B6864F3E1
:101A10001F434C6900EBC404C4F84432CB69012B6A
:101A200016D1D0F80C321343C0F80C320C884B6836
:101A300064F31F434C6900EBC404C4F840320C89C2
:101A4000CB6864F31F434C6900EBC404C4F8443210
:101A50008B69002BD0F804320ED01343C0F8043247
:101A60000B69002BD0F8143208D01343C0F814329D
:101A7000096A012904D008E09343EFE79343F5E7AF
:101A8000D0F81C121143C0F81C12D0F8001221F03B
:101A90000101C0F80012002010BD000000640040E9
:101AA00030B590F82040012C05D0022C03D0416ABB
:101AB00041F480215DE00468002955D02469A40721
:101AC00054D04FF4D874056804EB01142D5915F067
:101AD0000405956005682D594ED0ED0855600568E0
:101AE0002C5904F00204D4604FF4DA74056804EB56
:101AF00001142D5905F00F05156105682D59C5F321
:101B00000725956105682C59240C54614FF4DC724B
:101B1000046802EB0112A4581C700468A458240A3B
:101B20005C700468A458240C9C700468A258120EBF
:101B3000DA704FF4DE72046802EB0112A4581C71D3
:101B40000468A458240A5C710468A458240C9C718D
:101B50000468A258120EDA71006881B1016941F07F
:101B600020010161002030BDE468A8E7416A41F42A
:101B700000114162012030BD6D0D1560AFE7C168F5
:101B800041F02001C160EDE70246002092F82010EC
:101B9000012901D002290CD111688A68520100D5AF
:101BA00001208A68120100D5401C8968C90000D54F
:101BB000401C704770B5040003D094F8200010B1A9
:101BC00004E0012070BD204600F082F82068016822
:101BD00021F00201016000F073FA0546052604E0D9
:101BE00000F06EFA401B0A2811D820684068800770
:101BF000F6D42068016841F00101016000F060FA4C
:101C000005460BE000F05CFA401B0A2806D9606A22
:101C100040F40030606284F82060D2E720684068B9
:101C2000C007EFD0207E0128206801683DD021F058
:101C300080010160607E01282068016838D021F0B1
:101C400040010160A07E01282068016833D021F0A6
:101C500020010160E07E0128206801682ED041F05B
:101C600010010160207F01282068016829D021F03F
:101C700008010160607F01282068016824D021F0FC
:101C800004010160D4E902010843D4E904121143BC
:101C900008436168491E08432168C86100206062EA
:101CA000012084F82000002070BD41F08001C0E7D1
:101CB00041F04001C5E741F02001CAE721F01001E1
:101CC000CFE741F00801D4E741F00401D9E7000073
:101CD00000B500681B4987B0884230D11A480168B6
:101CE00041F001010160016801F001010591016805
:101CF00041F001010160016801F001010591124903
:101D000010310A6842F000720A60096801F000713F
:101D10000591016841F0010101600068012100F0B6
:101D2000010005904FF4C05000900220CDE9010160
:101D30000390092004906946044800F0CFF807B0EA
:101D400000BD000000640040303802400000024046
:101D500070B5044690F82000012804D0606A40F471
:101D60000020606217E0022084F8200020680168EB
:101D700021F00101016000F0A3F905460DE000F03B
:101D80009FF9401B0A2808D9606A40F4003060625D
:101D9000052084F82000012070BD20684068C0073D
:101DA000EDD1606270BD2DE9F0410446876D00F011
:101DB00087F9054694F835000026022806D08020D1
:101DC000606584F834600120BDE8F0812068016816
:101DD00021F0160101602068416921F08001416114
:101DE000206C08B9A06C20B12068016821F00801BE
:101DF00001602068016821F0010101600BE000F042
:101E00005FF9401B052806D92020606504F8346F6F
:101E100003206070D8E720680068C007EFD194F80D
:101E20005C103F208840B86004F8346F0120607077
:101E30000020C9E790F83510022903D080214165C0
:101E400001207047052180F835100068016821F0F5
:101E5000010101600020704780B201F02BBB00003F
:101E600010B50C4C042808D108210B4800F01CF9CF
:101E70000028206807D0401E20602168BDE810407F
:101E800006A0FEF7ABBA401C206008A0FEF7A6FA39
:101E9000F3E7000024000020001002400D0A206338
:101EA0006F756E743A202564200D0A000D0A2064B7
:101EB000657465637420686967682070696E200DB9
:101EC0000A000000044910B50A68024202D0086006
:101ED000FFF7C6FF10BD0000143C01402DE9F84F8C
:101EE000DFF89891002209F1040A0AF1040B032794
:101EF0004FF00F0C0BF1040E01250B6895402B40A1
:101F0000AB4272D10C7904F00304012C01D0022CF5
:101F100015D18668540007FA04F826EA0806D1F8B5
:101F20000C8008FA04F848EA0608C0F808804468FB
:101F3000AC430D79C5F300159540254345600C79F8
:101F4000E443A40708D0C568540007FA04F6B54373
:101F50008E68A6402E43C6600C7904F00304022C60
:101F600011D1D40800EB8406356A5407E40E0CFA4C
:101F700004F825EA0805D1F8108008FA04F848EAC0
:101F80000508C6F820800568540007FA04F6B54332
:101F90000E7906F00306A6402E4306604C68E40066
:101FA00066D5374C256845F480452560246822F0C5
:101FB000030504F480440094324C05EB0408D8F87F
:101FC00008589407260F0CFA06F4A5432E4CA0429D
:101FD00001D1002424E02D4CA04201D101241FE0B6
:101FE0002B4CA04202D102241AE041E0294CA0422D
:101FF00001D1032414E0284CA04201D104240FE0B5
:10200000264CA04201D105240AE0254CA04201D172
:10201000062405E0234CA04201D1072400E0082457
:10202000B4402C43C8F80848D9F800404D464E68E3
:102030009C43F60300D51C432C60DAF8004055465B
:102040004E689C43B60300D51C432C60DBF800406F
:102050005D464E689C43F60200D51C432C60DEF8BA
:10206000004075464E689C43B60200D51C432C6068
:10207000521C102AFFF440AFBDE8F88F003C01402D
:102080004438024000300140000002400004024099
:1020900000080240000C0240001002400014024000
:1020A00000180240001C02400069084000D00120D6
:1020B0007047000001480068000C7047002004E0F1
:1020C00001488068704700001400002002488168C1
:1020D000027811448160704714000020094810B54F
:1020E000016841F400710160016841F480610160A0
:1020F000032000F057F80F2000F006F800F024F855
:10210000002010BD003C024070B50D4D04464FF458
:102110007A712878B1FBF0F00A490968B1FBF0F058
:1021200000F0F4FA48B9102C07D200222146501EC4
:1021300000F018F800206C6070BD012070BD000038
:1021400014000020040000207047002809DB00F084
:102150001F02012191404009800000F1E020C0F8F9
:1021600000117047F0B40E4B1B68C3F30223C3F198
:102170000704042C00D904241D1D072D01D20023BF
:1021800000E0DB1E012606FA04F56D1E0D409D40A1
:102190009E40761E164045EA0601F0BC01F047B9A4
:1021A0000CED00E0064A00F0070110684FF6FF034F
:1021B000184040EA012003490843106070470000BE
:1021C0000CED00E00000FA052DE9F0470D46040093
:1021D00065D0DFF81491D9F80000EFB200F00700E5
:1021E000A84207D289F80070D9F8000000F0070073
:1021F000A84254D120683D4E810712D5400703D52F
:10220000306840F4E05030602078000703D5306833
:1022100040F4604030603068A16820F0F00008436E
:1022200030602078C0072DD0304960680839012817
:1022300012D0022813D0032811D009688907002979
:102240002DDA316821F0030101433160FFF738FFD7
:10225000804641F2883A0EE009688903EFE7096891
:102260008901ECE7FFF72CFFA0EB0801514502D9EB
:102270000320BDE8F0873068616800F00C00B0EB27
:10228000810FEFD1D9F80010484601F00701A942AB
:1022900007D90770006800F00700A84201D00120AC
:1022A000E7E72078400705D53068E16820F4E05082
:1022B000084330602078000706D53068216920F493
:1022C000604040EAC100306000F038F83168084AE8
:1022D000C1F30311515CC840064908600648006814
:1022E000FFF712FF0020C4E7003C0240083802401C
:1022F0009A5A0008040000201800002004480549EC
:1023000000680968044AC1F38221515CC8407047E3
:102310000400002008380240AA5A00080448054971
:1023200000680968044AC1F34231515CC8407047F3
:102330000400002008380240AA5A0008154810B5C9
:10234000006810F00C01144813D0431004290FD07A
:1023500008290ED10F4C241F216801F03F0221688B
:10236000490207D52068C0F38810A0FB030106E0EE
:10237000184610BD2168C1F38811A1FB000100239C
:10238000FDF7B5FF2168C1F30141491C4900B0FBCD
:10239000F1F010BD083802400024F4002DE9F84F98
:1023A000040075D02078DFF838A3C007AAF104052F
:1023B00048D00AF104000168C1F38101012908D065
:1023C0000068C0F3810002280AD1DAF80000400258
:1023D00006D52868800335D560680028E1D031E053
:1023E0006068B0F5803F10D0B0F5A02F286810D0FD
:1023F00020F480302860286820F4802028606068FD
:10240000A0B1FFF75DFE06460CE0286840F480307E
:10241000F4E740F480202860F7E7FFF751FE801BC7
:10242000642871D828688003F7D50BE0FFF748FED1
:10243000064604E0FFF744FE801B6428F1D82868B4
:102440008003F7D42078DFF89C9280074FF0000BD0
:102450003DD5A348001D016811F00C0F08D000689D
:10246000C0F3810002280AD1DAF80000400206D445
:102470002868800715D5E068012809D111E0E068D7
:10248000B8B10120C9F80000FFF71AFE064605E0C2
:1024900022E1FFF715FE801B0228C2D828688007BA
:1024A000F7D52868216920F0F80040EAC1002860CB
:1024B0000DE0C9F800B0FFF703FE064604E0FFF7A1
:1024C000FFFD801B02281FD828688007F7D42078DA
:1024D000000722D5824F84486169703771B10121AC
:1024E0000160FFF7EDFD064604E0FFF7E9FD801B04
:1024F000022809D838688007F7D50EE0C0F800B088
:10250000FFF7DEFD064605E082E0FFF7D9FD801B00
:1025100002287DD838688007F7D42078400765D531
:102520006F484FF000083C300068C0000BD46C4886
:102530003C30016841F08051016000684FF00108B3
:1025400000F080500090694F3868C0050FD438689B
:1025500040F480703860FFF7B3FD064604E0FFF7F3
:10256000AFFD801B022853D83868C005F7D55C4FF3
:10257000A0686C3701280FD00528386810D020F0EB
:1025800001003860386820F004003860A068B0B1FD
:10259000FFF796FD06460EE0386840F00100F4E7CC
:1025A00040F004003860F7E7FFF78AFD811B41F235
:1025B0008830814263D838688007F5D50DE0FFF791
:1025C0007FFD064606E0FFF77BFD811B41F2883068
:1025D000814254D838688007F5D4B8F1000F05D08F
:1025E0003F483C30016821F080510160A069B8B3D8
:1025F0003B49091D0968C1F38101022946D002281F
:10260000584606D0C9F86000FFF75AFD044639E085
:1026100035E04F46C9F86000FFF752FD064604E07A
:10262000FFF74EFD801B022829D828688001F7D4C7
:10263000D4E907010843A16A2D4A490802EB014188
:10264000626A41EA8211084394F82C1040EA016161
:10265000CAF8001001203866FFF732FD044605E095
:102660003CE0FFF72DFD001B022808D828688001F8
:10267000F7D533E0FFF724FD001B022802D9032021
:10268000BDE8F88F28688001F4D427E00128F7D04E
:10269000DAF80000E26900F4800191421CD1226A5C
:1026A00000F03F01914217D147F6C071626A0140C4
:1026B000B1EB821F10D1A26A4FF0FF3300F440311A
:1026C00003EB5202B1EB024F06D194F82C1000F04C
:1026D0007060B0EB016F01D00120D1E70020CFE79F
:1026E0000438024000004742800E4742007000401C
:1026F0000000FFFF4FF0E0210428086903D020F01C
:1027000004000861704740F00400FAE710B5401E6D
:10271000B0F1807F01D3012010BD4FF0E024606153
:102720000F21601700F083FE0020A06107202061C8
:10273000002010BD70B590F83C20012A32D0012550
:1027400080F83C50022280F83D200268536894686B
:1027500023F070060B6833435360134B02689A42B0
:1027600014D0B2F1804F11D0104B9A420ED0104BC2
:102770009A420BD00F4B9A4208D00F4B9A4205D089
:102780000E4B9A4202D00E4B9A4204D1496824F073
:1027900080031943916080F83D50002180F83C107F
:1027A000084670BD022070BD0000014000040040DA
:1027B00000080040000C00400004014000400140BF
:1027C0000018004010B5040003D094F83D0010B18B
:1027D00007E0012010BD002084F83C00204600F0F6
:1027E0001EF8022084F83D00211D206800F05AFCEC
:1027F000012084F8460084F83E0084F83F0084F805
:10280000400084F8410084F8420084F8430084F8D2
:10281000440084F8450084F83D00002010BD704756
:1028200090F83D10012901D001207047022180F865
:102830003D100168CA6842F00102CA60006811498F
:10284000884214D0B0F1804F11D00F4988420ED089
:102850000E4988420BD00E49884208D00D49884263
:1028600005D00D49884202D00C49884204D18168C4
:1028700001F00701062903D0016841F00101016060
:1028800000207047000001400004004000080040A4
:10289000000C0040000401400040014000180040CE
:1028A0002DE9F0410D46040003D094F83D0018B125
:1028B00008E00120BDE8F081002084F83C002046BB
:1028C00000F040F8022084F83D002068816844F25E
:1028D000070291438160211D206800F0E3FB20681E
:1028E00081688269066A2B68AF690B4340F2033145
:1028F0008A4342EA0722A968EF6911434FF6FC4276
:102900009143EA6841EA07210A4329692F6A0901CC
:1029100041EA073111436A686D6926F0AA0646EA62
:1029200005152A4383602068816154F8460B0262D2
:10293000012004F81F09E0752076E0762077A07565
:102940000020B7E710B586B0044614216846FDF7AD
:10295000FFFE1249206888421ED1114800210268FA
:1029600042F008020260006800F0080005900C4880
:102970001038026842F001020260006800F00100B5
:102980000590032000900220CDE90101CDE903105C
:1029900069460448FFF7A2FA06B010BD000C0040DB
:1029A000403802400000024070B590F83E500446A6
:1029B00090F83F3090F8422090F84300022621B171
:1029C00004290BD0012D16D10FE0012D13D1012ABE
:1029D00011D184F83E6084F8426016E0012B0AD1E0
:1029E000012808D184F83F600DE0012B03D1012AB2
:1029F00001D1012801D0012070BD84F83E6084F827
:102A00003F6084F8426084F8436091B1042904D0A7
:102A100001220021206800F0A9FB01220421206886
:102A200000F0A4FB2068016841F001010160002072
:102A300070BD012200212068F2E77047704710F84E
:102A40003D1F407808437047F8B502680446106897
:102A5000D168536910F00F0F4FF0000554D003F008
:102A6000010601F4907737435FD0C20705D0CA054D
:102A700003D5226C42F001022264420705D5DA0731
:102A800003D0226C42F002022264820705D5DA07E5
:102A900003D0226C42F004022264020707D501F041
:102AA0002002324303D0226C42F008022264226CDE
:102AB000002A35D0800604D5880602D5204600F0CD
:102AC00082FB20684069216CC0F3801001F008018E
:102AD0000143204625D000F05EFB2068416949068D
:102AE0001BD5416921F040014161A06BA8B1594952
:102AF0000165A06BFFF79EF9002811D0A06B016D56
:102B000001B0BDE8F040084783060ED58B060CD512
:102B10002046BDE8F84000F056BB2046FFF78EFF88
:102B2000F8BDFFF78BFF2564F8BD266B2023012E2F
:102B300053D1C60651D5CE064FD5106850680090C7
:102B4000506940062BD5A16B086840680004000C52
:102B5000EAD0A68D8642E7D9E085C869B0F5807FC6
:102B600018D0D06820F48070D0602068416921F0CE
:102B7000010141612068416921F04001416184F80F
:102B80003E3025632068C16821F01001C160A06B50
:102B9000FFF709F9A08DE18D401A81B219E0A08DEF
:102BA000E18D401A81B2E08D0028BDD00029BBD054
:102BB000D06820F49070D0602068426922F0010251
:102BC000426184F83E3025632068C26822F010021A
:102BD000C2602046FFF731FFF8BD05062BD50D0674
:102BE00029D594F83D002128F6D1A068B0F5805F82
:102BF00001D12069B0B1206A411C216221680078AE
:102C00004860E08C401E0004000CE084E4D12068A1
:102C1000C16821F08001C1602068C16841F04001B5
:102C2000C160F8BD206A0088C0F308005060206AC7
:102C3000801C2062E5E74006F3D54806F1D5D1684F
:102C4000204621F04001D16084F83D3000F0C0F80A
:102C5000F8BD00008731000870B5040004D094F876
:102C60003D00002510B106E0012070BD84F83C5005
:102C7000204600F023F8242084F83D002068C16835
:102C800021F40051C160204600F0F4FA2068016987
:102C900021F4904101612068416921F02A014161DC
:102CA0002068C16841F40051C1602564202084F887
:102CB0003D0084F83E00002070BD000030B5006883
:102CC0001F4987B0884238D11E48016841F0100181
:102CD0000160006800F0100005901A48143801687F
:102CE00041F001010160016801F0010105910168F5
:102CF00041F0010101600068012100F00100059030
:102D00004FF4007000900220CDE901010724CDE9C5
:102D100003040D4D69462846FFF7E0F82915009198
:102D2000049469462846FFF7D9F82520FFF70DFAE5
:102D3000032211462520FFF715FA07B030BD000029
:102D400000100140443802400000024090F83E303C
:102D5000202B0ED159B152B190F83C30012B08D044
:102D6000012380F83C300023036300F009BB0120FD
:102D7000704702207047000030B500681149884252
:102D80000CD1114A5088010408D411464404097832
:102D90004FF0000306D50A2901D0538030BD40F41E
:102DA00000400DE00D2909D0C0F30D04074D401C73
:102DB00080B229555080C728EFD830BD40F48040FC
:102DC000508030BD001001400C000020E0010020C8
:102DD0007047FEE710B5114C88B00F4820601C22E8
:102DE0006946201DFDF782FC0320606000204FF43F
:102DF000C021A060C4E903014FF4A0016161207605
:102E00006076A0760121E176207760772046FEF794
:102E1000D1FE08B010BD0000006400409403002003
:102E200010B58CB024216846FDF792FC00241648AA
:102E3000099414490A9401600321C0E901144FF474
:102E40008062C0E90324846100910120CDE9014042
:102E500003940494CDE90540079469460A48089410
:102E6000FFF71EFD08B1FEF71DFD099409A90648EC
:102E70000A94FFF75FFC002801D0FEF713FD0CB0A9
:102E800010BD0000000C0040EC020020FEE770477F
:102E9000704700002DE9F0412DED048B17460D46DB
:102EA0000646082A08D0BDEC048B39460246BDE828
:102EB000F0412CA0FDF792BA01463AA0FDF78EFA38
:102EC000002441A0295DFDF789FA641CBC42F8DBAF
:102ED00033A0FDF783FA2978A12901D03CA03BE07B
:102EE000E888A6F24111042934D89FED469B9FED56
:102EF000478B0E1C19D0012E13D102F01AFB53EC94
:102F0000192B02F091F953EC182B02F061FB9FEDA5
:102F1000411B53EC112B02F059FC02F09FF83F4982
:102F20004860BDEC048BBDE8F08102F002FB53EC7D
:102F3000192B02F079F953EC182B02F049FB9FEDA5
:102F4000381B53EC112B02F041FC02F087F8334997
:102F50000860E6E7314634A0BDEC048BBDE8F041E3
:102F6000FDF73CBA5265636569766564206D6573EB
:102F700073616765207769746820696E636F727228
:102F8000656374206C656E6774683A2025642062FE
:102F9000797465732C2049443A20307825303358B1
:102FA0000A00000052656365697665642038206216
:102FB0007974657320666F7220494420307825301B
:102FC00033583A200000000025303258200000001D
:102FD0005265636569766564206D657373616765C5
:102FE00020776974682077726F6E67206865616406
:102FF000657220627974653A203078253032580A3B
:103000000000000000000000E0FFEF4000000000B2
:10301000008076400000000000207440CC010020B9
:1030200000000000002067405265636569766564B2
:10303000206D657373616765207769746820756EAC
:1030400065787065637465642049443A203078255A
:103050003033580A000000007047FFF737B800000F
:103060000248016841F470010160704788ED00E09A
:1030700010B50A4C2068C068C043C00709D1084891
:103080000069804721680020486221686420C86286
:10309000E06021686FF00100086110BDF0030020BE
:1030A000C4000020F0B50268254D264E264FDFF8FB
:1030B0009CC0274B4FF0804EA84209D0704507D0E6
:1030C000B04205D0B84203D0604501D0984203D148
:1030D00022F070044A682243A8421BD0704519D0E0
:1030E000B04217D0B84215D0604513D0984211D0E5
:1030F000184CA0420ED0184CA0420BD0174CA04246
:1031000008D0174CA04205D0164CA04202D0164C55
:10311000A04203D122F44074CA6822434C6922F0D1
:103120008002224302608A68C2620A688262A84200
:1031300001D0984201D10969016301214161F0BDCB
:10314000000001400004004000080040000C004066
:10315000000401400040014000440140004801409B
:1031600000180040001C00400020004010B501F095
:103170001F010123046A8B409C430462036A8A4056
:103180001343036210BD10B5806B0021C185C1845B
:10319000FFF754FC10BD0168CA6822F49072CA603F
:1031A00001684A6922F001024A61016B012904D1D8
:1031B0000168CA6822F01002CA60202180F83E101F
:1031C00000210163704710B5044690F83E002228A4
:1031D00001D0022010BDA0684FF48052904201D16E
:1031E000216921B1A16A90421BD048B10AE021684F
:1031F000A06A4968C1F308010180A06A801C08E048
:10320000206970B12068406800F07F000870A06AF3
:10321000401CA062E08D401E0004000CE08503D03D
:103220001CE020684068F1E72068C16821F02001B7
:10323000C1602068C16821F48071C1602068416963
:1032400021F001014161202084F83E00206B01281B
:1032500006D02046FFF790FD00202063002010BD1F
:103260002068C16821F01001C160A18D2046FFF7E0
:10327000E4FBF1E770B5044600680169E26821F4F7
:10328000405111430161A1682069E269014360690D
:10329000104301432068C26849F20C639A430A4311
:1032A000C26020684169A26921F440711143416103
:1032B00031492068884202D03049884202D1FFF764
:1032C0002DF801E0FFF71AF8E269002319216425BF
:1032D0003226B2F5004F626828D0A0FB0101930F9F
:1032E0009200FDF704F80146B0FBF5F06FF018020C
:1032F000504301EB800006EB0010B0FBF5F000F04E
:10330000F002B1FBF5F002EB0012B1FBF5F06FF04B
:103310001803584301EB800006EB0010B0FBF5F0FA
:1033200000F00F0021681044886070BDA0FB01010F
:1033300092185B41FCF7DBFF0146B0FBF5F00201A0
:10334000B1FBF5F06FF01803584301EB800006EB7A
:10335000C000B0FBF5F000F0F80002EB4002B1FB5A
:10336000F5F0584301EB800006EBC000B0FBF5F030
:1033700000F00700D6E700000010014000140140F3
:1033800081628285C28500210164222280F83E206C
:1033900080F83C100168CA6842F48072CA60016813
:1033A0004A6942F001024A610068C16841F02001A7
:1033B000C16000207047000070B500240C4D0D481E
:1033C000FFF742FB02E0641CAC4204D80948FFF757
:1033D00036FB2028F7D1002402E0641CAC4206D85A
:1033E000012205490348FFF7B1FC0028F5D170BD63
:1033F000FFFF0100A80200200C000020FEE703B43C
:1034000001984100009850EAC12018BF04204A0DDD
:1034100018BF40F0010040F2FF72B2EB515F08BFED
:1034200040F00200012808BF052002B070470907DC
:10343000090E002804DB00F1E02080F8001470473A
:1034400000F00F0000F1E02080F8141D70473038C4
:103450000A2801D201207047002070477047000001
:1034600008B51346012200920C4A106000205060FB
:103470009060C2E903030A4608496B46A1F128009F
:10348000FEF724FA08B1012008BD04482838FEF7E9
:103490007BFB0328F9D1002008BD0000BC030020FD
:1034A00010B504460420FFF725F90148046010BD5B
:1034B000080000204FF4077170B5B0FBF1F2B0FBCB
:1034C000F1F401FB1205094E03E0304600F010F85C
:1034D000641E002CF9D1002D06D04FF47A70684399
:1034E000BDE8704000F004B870BD0000603D080009
:1034F00070B54FF0E02500216C69094AAB6912688C
:103500005043AA699A42FCD002D2A3EB020302E024
:10351000A4EB02063344194413468142F1D370BD33
:1035200008000020094808B5016841F080010160E9
:10353000016801F080010091016841F00101016022
:10354000006800F00100009008BD00003038024023
:1035500003490A685206FCD5C2B24A6070470000AF
:103560000010014070B50A490646002408884D88BD
:1035700021464543204600F07FFA00F025FC4FF03D
:10358000D84002E0A0F88060641CAC42FAD370BD61
:10359000840300202DE9F04F2B4B2C2719469871FE
:1035A0002B2589884FF4305A4FF4285B4FF4487428
:1035B00041F6631E2A264FF0F00845F210594FF4E9
:1035C000A07C4FF4F072C8B1A3F800C0A3F8028049
:1035D000494533D1A3F808A0A3F80AB0280298817E
:1035E0001C805A80A1F5A640103802D11A80A3F899
:1035F00002C0BDE8F04F002000F070B9A3F80080D1
:10360000A3F802C0494507D1A3F808A0A3F80AB05F
:103610004FF42C50988104E071451F8104D15D81E5
:103620009E811A805C8001E05E819D81A1F5A640AB
:103630001038DED1A3F800C05A80DAE71F815E811E
:1036400071459D81CCD0CDE7840300202DE9FF4F4B
:10365000804600241546032082B00F46A0EB4506A5
:1036600051E0781B81B208EB040A01901FFA8AF03E
:10367000059A00F099F8381B009081B208EB050913
:103680001FFA89F0059A00F08FF807EB040B1FFA78
:103690008BF11FFA89F0059A00F086F807EB05090F
:1036A0001FFA89F11FFA8AF0059A00F07DF8A8EB5D
:1036B000040A1FFA89F11FFA8AF0059A00F074F8DB
:1036C000A8EB05091FFA8BF11FFA89F0059A00F0A3
:1036D0006BF80198059A81B21FFA8AF000F064F83D
:1036E0000098059A81B21FFA89F000F05DF8641C19
:1036F000002E03DA06EB8406B61D04E0601B06EB21
:1037000080066D1E0A36AC42ABDD06B0BDE8F08F18
:103710002DE9FE4F0026A2EB000882465F1A701EBC
:1037200035468946B8F1000F02DD4FF0010102E095
:1037300003D14FF00001019102E0C8F100080190AF
:10374000002F02DD4FF0010002E003D14FF0000036
:10375000009002E0C7F1000700904046B84501DD47
:10376000044600E03C46601C4FF0000B029016E05F
:103770001FFA89F11FFA8AF00C9A00F015F84644F6
:103780003D44A64202DD0199361B8A44A54202DD72
:1037900000992D1B89440BF101001FFA80FB02994F
:1037A0008B45E5DDBDE8FE8F10B5144600F064F9E9
:1037B00000F00AFB4FF0D840A0F8804010BD2DE982
:1037C000F8411D46079C1646884607460B4600945E
:1037D000FFF79EFF3A462B46414610460094FFF7FE
:1037E00097FF2B463246194638460094FFF790FF64
:1037F00032462B46414610460094FFF789FFBDE84C
:10380000F8812DE9F0431F468146A2EB0900079B92
:10381000401C0C4686B29DB24FF0D84810E02146BD
:10382000484600F029F900F0CFFA0020414603E0B5
:10383000A1F88050401C80B2B042F9D3641CA4B2FD
:10384000BC42ECD9BDE8F0830346012000E05843B8
:10385000491EC9B2FBD2704708B54FF0D840B0F846
:103860008000ADF80000BDF8000008BD10B51A4C8E
:103870002288824202D962888A4201D8002010BD83
:1038800000F0FAF8A088A0F5AA41103921D02E2026
:1038900000F08EFAFFF7E0FFA188A1F5C852633A65
:1038A000EDD00220401EFDD2FFF7D6FF04460221D4
:1038B000491EFDD2FFF7D0FFE1B24FF6FF7202EAD8
:1038C000012124EA6212890A42EA411141EAD02028
:1038D00010BD4FF43850DBE78403002070B5654C11
:1038E00000232146A279898841F66315012A01D077
:1038F0001AB11BE0A94202D118E0A94216D108284A
:1039000014D2DFE800F00406080A0C0E101206209C
:103910000CE007200AE0042008E0052006E0012072
:1039200004E0002002E0032000E00220082812D278
:10393000DFE800F0110406080A0C0E1080230AE0EC
:10394000402308E0C02306E0202304E0602302E0D7
:10395000A02300E0E023362045F21056B14200D10A
:103960000002A1F51342413A03D0A1F5EE42893A93
:1039700001D143F00803194600F030FAA288AA42A8
:103980000AD098062088618802D5884202D303E0D5
:10399000884201D9218060806089B24240D100F024
:1039A00007FA002000F0F8F96089401C80B200F0AE
:1039B000FFF9002000F0F0F96089801C80B200F06F
:1039C000F7F92088401EC0F30F2000F0E5F9608968
:1039D000C01C80B200F0ECF92078401EC0B200F0AC
:1039E000DBF9A08900F0E4F9002000F0D5F9A08906
:1039F000401C80B200F0DCF9002000F0CDF9A08975
:103A0000801C80B200F0D4F96088401EC0F30F2003
:103A100000F0C2F9A089C01C80B200F0C9F921E011
:103A200000F0C6F9002000F0B7F9002000F0B4F96A
:103A30002088401EC0F30F2000F0AEF92078401E11
:103A4000C0B200F0A9F9A08900F0B2F9002000F09E
:103A5000A3F9002000F0A0F96088401EC0F30F20F9
:103A600000F09AF9A078BDE87040401EC0B200F0A6
:103A700093B9000084030020F0B53A4D0C4602468D
:103A8000060AA9882846270A4089A1F5C853633B3E
:103A900016D0A1F5AA43103B4BD000F089F930466F
:103AA00000F07AF9D0B200F077F9A88900F080F937
:103AB000384600F071F9E0B2BDE8F04000F06CB9B2
:103AC000A97929B300F074F9304600F065F9D0B255
:103AD00000F062F92888401EC0F30F2000F05CF966
:103AE0002878401EC0B200F057F9A88900F060F9AC
:103AF000384600F051F9E0B200F04EF96888401EF7
:103B0000C0F30F2000F048F9A878401EC0B2D3E7F8
:103B10002988891A491E8AB200F04AF9002000F06B
:103B20003BF9002000F038F9100A00F035F9D0B266
:103B3000D9E700F03DF9304600F02EF96889401CC5
:103B400080B200F035F9D0B200F026F9A88900F073
:103B50002FF9384600F020F9A889401C80B200F007
:103B600027F9A8E7840300202DE9F84F82469846FC
:103B70000C468B46580700D0012000EBD8014FEAD5
:103B8000580011FB00F0C0B2203A0090D0B241467C
:103B9000B8F10C0F0AD010290CD0182910D0B8F1A8
:103BA000200F41D1214901EB801006E000EB4000DD
:103BB0001F4908E01F4901EB00108146002730E053
:103BC0001D4900EBC00001EB8000F6E719F8076023
:103BD0000025300601D50B9A03E00A9828B917484A
:103BE000026821465046FFF7DFFD7006060E1448B6
:103BF000641CA4B24088A04216D9A4EB0B01414535
:103C000009D10AF101001FFA80FA0D485C460188CB
:103C1000514509D903E06D1CEDB2082DD9D37F1CA5
:103C2000FFB200988742D1D3BDE8F88F72720008C6
:103C3000B25A0008265F0008166500082000002020
:103C4000840300202DE9FF4F83B080460027DDE983
:103C500010091D4693463C46BA46460827E0281BF5
:103C6000401EC1B20A20FFF7EFFDBBFBF0F00A21B6
:103C7000B0FBF1F201FB120027B9691E8C4201DA98
:103C800048B101273030C2B2CDE900A906FB04805B
:103C900080B2109B06E0CDE900A906FB0480109BD2
:103CA00080B220220499FFF75FFF641CE4B2AC42AB
:103CB000D5D307B0BDE8F08F2DE9FC4F044600F0E6
:103CC000FF0910190D46DDE90B761FFA80F8581927
:103CD0001FFA80FADDF834B012E0444502D3E81947
:103CE0004C4685B2554510D20021CDE9001B3B461C
:103CF00029462046FFF738FF04EB570084B2761CB4
:103D00003278A2F120005E28E7D9BDE8FC8F2DE9CA
:103D1000FF4F83B08046DDE911B910984FF0000ADB
:103D20001F4654460BF0010546082EE0381B401E86
:103D3000C1B20A20FFF788FD0599B1FBF0F00A2116
:103D4000B0FBF1F201FB1200BAF1000F05D1791EB0
:103D50008C4202DA50B14FF0010A3030C2B2CDE9E4
:103D6000005906FB048080B2109B09E0CDE90059A0
:103D70005FEA0B6006FB0480109B80B20AD53022FC
:103D80000499FFF7F1FE641CE4B2BC42CED307B045
:103D9000BDE8F08F2022F3E701B5BDF80000ADF8D3
:103DA0000000BDF800004FF0D841A1F8800008BD28
:103DB00001B5BDF80000ADF80000BDF800004FF0FF
:103DC000D841A1F87E0008BD03484FF0D8410089D2
:103DD000A1F87E0070470000840300204FF0D84215
:103DE00022F87E0F518070472DED048BFEF776F997
:103DF0000723022208214FF4A87000F0EBF8A82056
:103E0000FFF74EFB4FF4E13000F03CF920484168E9
:103E100054208847FFF786FBFFF702F83C211D4836
:103E2000FEF7C2FDFDF7A2FC4FF47A70FFF742FBEC
:103E30001A4C9FED199A9FED1A8B1B4D04F1140635
:103E40004FF4FA7784ED009AB0EE480AF0EE680A73
:103E5000287800F02BF896ED000A0A2084ED020A7B
:103E6000FDF7FAFFB0EE480AF0EE680A687800F055
:103E70001DF896ED010A84ED030A00F085F805218E
:103E8000064800F059F83846FDF7E6FFDAE700008B
:103E9000C4000020EC02002000000000B801002057
:103EA00000000000000000000000002030B50546C2
:103EB0002DED028BB0EE408AF0EE608A83B09FED6C
:103EC0001C0B0024ADF8004053EC102B51EC180BE8
:103ED00001F042FB51EC180B05D201F0B3F801F0F0
:103EE000FBFA404201E001F0F7FAADF8000001945E
:103EF000A1208DF8040002949DF800008DF80800C0
:103F00009DF801008DF809008DF805408DF80640F8
:103F10008DF80A408DF807408DF80B40082201A962
:103F200005F5A070FFF79CFA03B0BDEC028B30BD25
:103F3000000000000000000070B506460D460CA011
:103F4000FCF74CFA00240BE056F8240001F028FDA1
:103F500041EC100B08A053EC102BFCF73FFA641C4B
:103F6000AC42F1DBBDE8704004A0FCF737BA0000BA
:103F7000446174613A20000025662000202E200A4A
:103F800000000000006870472DE9FC41104F00243C
:103F90006D4601AE07EB840104F2311091ED000A89
:103FA00000218DED010AC1F10302B25C6A54491C83
:103FB0000429F8D304226946FFF752FA002805D1F4
:103FC0003220FDF749FF641C052CE3DBBDE8FC81D2
:103FD000B80100202DE9F04393B00E468046994683
:103FE000154630216846FCF7B3FB14210CA8FCF7FA
:103FF000AFFB21480024016841F080510160006856
:1040000000F0805011901D48016841F4804101602A
:104010000068022700F48040119001200090000405
:104020000697019007A9800181E84101CDE90A596D
:104030006846FEF7B3F968B90F20CDE90C074FF4D5
:10404000A050CDE90E40F802109005210CA8FEF713
:10405000BBF818B1012013B0BDE8F083FEF72AF8D1
:1040600041F20101884204D10548016841F48071A0
:1040700001600020EFE7000040380240007000407F
:10408000003C02400B4910B5094AC1E9002000205C
:104090008860C860086188610C2048610846FEF7A6
:1040A000DBFDBDE81040012203490248FEF74EBE89
:1040B00000100140A80200200C00002070B594B050
:1040C000064613AB11AA694600F0DCF9002824D19A
:1040D0008DF840001D4C042514E0206805EBC1015B
:1040E00013AB405812AA08A900F0CCF9002814D14B
:1040F000694608A800F0DBFB88B19DF84000401C31
:104100008DF84000207D9DF840108842E5D8207D44
:104110009DF8401088420ED1042014B070BD9DF867
:1041200048009DF84410884201D90220F5E79DF827
:104130004000A075EBE710A9304600F057FA0028C0
:10414000EBD19DF8400060750020E6E7C400002038
:104150002DE9F0417E4E9AB0B57D307DA8427CD9E4
:104160000421306801EBC50119AB405818AA10A909
:1041700000F088F910A977A0FCF730F900240DF1C0
:10418000180832E0308B0121A140084217D02221CB
:1041900072A0FCF723F9204600F0A0FA811970A064
:1041A0002431FCF71BF922216CA0FCF717F92046FB
:1041B00000F094FA3044243048F824000BE0204604
:1041C00000F08CFA3044416A48F82410F07D00B3C6
:1041D00064A0FCF703F99DF86000401E844202D001
:1041E00062A0FCF7FBF8641CE4B29DF86000844216
:1041F000C8D35FA0FCF7F2F800F0F8FE707D0B2842
:1042000014D2DFE800F0080D31384048525E6B7878
:10421000890058A0DDE7306850F83500804704E099
:10422000306850F8351006988847074600F09EFE23
:104230009DF8640001286ED04FA0FCF7CFF896F8E7
:10424000EC0000280DD0D6F8F0000A21B0FBF1F206
:1042500001FB1202B0FBF1F100E002E047A0FCF725
:10426000BDF81AB0BDE8F081306850F83520DDE9BE
:1042700006019047D9E7306806AC50F8353094E82D
:1042800007009847D1E7306806AF50F8354097E807
:104290000F00A047C9E70A980090306806AF50F8B1
:1042A000354097E80F00A047BFE7DDE90A01CDE9F7
:1042B0000001306806AF50F8354097E80F00A0477E
:1042C000B3E70AAB06AF93E807008DE80700306854
:1042D00050F8354097E80F00A047A6E70AAC06AFB4
:1042E00094E80F008DE80F00306850F8354097E8EB
:1042F0000F00A04799E70BAC06AF94E80F0001ACA4
:1043000084E80F000A980090306850F8354097E82C
:104310000F00A04789E711E00CAC06AF94E80F004E
:1043200002AC84E80F00DDE90A01CDE90001306844
:1043300050F8354097E80F00A04776E7F07D394602
:1043400018B116A0FCF74AF879E717A0FAE70000C1
:10435000C40000200D0A257328000000256300001A
:104360002573000030582558000000002C00000084
:1043700029000000256C64003B0D0A0046756E6341
:1043800074696F6E2052756E2054696D653A2564AC
:104390002E2531646D730D0A000000003D30582554
:1043A000583B0D0A000000003D256C753B0D0A00CE
:1043B000F0B500252E462F462C4603782C2B03D033
:1043C000292B04D01BB103E014B9012600E00CB383
:1043D00017B1222B2AD02AE0A3F1300CBCF1090F2F
:1043E00019D92D2B17D02B2B15D0A3F1610CBCF1B3
:1043F000050F10D9A3F1410CBCF1050F0BD9582BB7
:1044000009D0782B07D0222B0CD0202B1ED02C2BA0
:104410001CD0FF270CE05EB9612B00D3203B01F8D4
:10442000013B13E026B901273C460FE0002426B1EA
:104430000020087017702846F0BD3CB15C2B02D1FB
:104440006D1CEDB2401C037801F8013B6D1CEDB210
:10445000401CB2E730B5002515700AE001F8014BA9
:104460001478401C641CE4B214709C4201D30120F7
:1044700030BD0478202C01D0002CEFD10D7000202D
:1044800030BD00002DE9FF4F002482B089469846D8
:10449000A2462746012526462246EB46029915E00C
:1044A000202810D002F07F03052B0CD202B9802205
:1044B00002F07F03042B01D12A280AD1521C0BF8E9
:1044C0000300D2B201E0852A04D0491C08780028F4
:1044D000E6D16AB102F07F0200200BF8020041A190
:1044E000584600F0E4F938B1012188F800100022A4
:1044F0004FF00008029B15E0002088F80000F6E766
:1045000008F1010000F0FF0813F8010F202801D086
:104510002A2807D1184600F057F9282802D02A285F
:1045200000D0C2461878282801D00028E8D1029986
:10453000BAF1000F01D05144491C4FF00008434626
:10454000087888B1282804D0292806D0222810D03D
:1045500011E083B9641CE4B20DE063B924B1641EB8
:1045600014F0FF0402D00DE04FF00108012F27D016
:104570002FE04BB100234CB12C280CD0202816D0B2
:10458000282814D05AB110E00123F4E7202815D0D0
:1045900009F8010B12E00125521CD2B207E0052EEA
:1045A00003D20BF80600761CF6B26D1CEDB2012C9E
:1045B00004D1022D02D103257F1CFFB2491CBFE7A5
:1045C00000200BF8060007A1684600F070F900B95A
:1045D000002704980770002089F8000006B04046C4
:1045E000BDE8F08F766F6964000000002DE9F043AC
:1045F00000248946304DB5B0214622466B18491C2F
:10460000C9B29A760A29F9D302E010F8011F99B1CC
:1046100001782829F9D1461C4FF0010833AA6946D0
:104620003046FFF7C5FE06449DF8CC0040B1012896
:1046300024D0FF2836D10BE0012035B0BDE8F0834F
:104640009DF8000070B334A9684600F0C5F808B1C1
:104650000220F2E7204600F041F8284434994162F4
:10466000298B08FA04F081432983042029198876CC
:10467000641CE4B20A2C15D90320DEE7684600F07A
:104680002BF9471C204600F029F8411968462431CF
:1046900000F019F9298B08FA04F00143281929833D
:1046A0008776E5E73078292801D00028B6D189F847
:1046B00000400020C1E70000C4000020054A00209F
:1046C00011880B0405D5044BC8B2002119541846B3
:1046D000118070470E000020E0010020024610B556
:1046E00000200146054B05E05C18491CA47EC9B2B8
:1046F0002044C0B29142F7D310BD0000C400002096
:1047000000EBC00101EB00104FF0FF3101EB800026
:1047100010B581B24FF47A7000F040FC01490120DD
:10472000C87510BDC40000200346012000E05843B6
:10473000491EC9B2FBD2704770B5FFF7BFFF050035
:1047400022D0124EB1688847040013D0284600F0EA
:10475000CDF8012801D0040016D0012C0ED0022C77
:104760000ED0032C0ED0042C0ED109A0BDE8704051
:10477000FBF734BEF068BDE87040004709A0F5E7DC
:104780000BA0F3E70DA0F1E770BD0000C40000200E
:10479000CEB4D5D2B5BDC6A5C5E4B5C4BAAFCAFDC1
:1047A000210D0A00BAAFCAFDB4EDCEF3210D0A0007
:1047B000B2CECAFDB4EDCEF3210D0A00B2CECAFDD1
:1047C000CCABB6E0210D0A0010F8011F202901D161
:1047D0000028F9D1C8B270472DE9F0430E460024F5
:1047E0004FF00A082546014634600A78A2F13003EA
:1047F000092B14D903782D2B01D02B2B00D174B1A8
:10480000A2F14103052B0AD9582A05D012F0FF0F57
:1048100017D00120BDE8F083012C02D0F9E7412A2E
:1048200001D34FF0100802782D2A04D02B2A04D08F
:10483000641CE4B203E0022500E00125401C491C91
:10484000D3E70746B8F1100F01D084B112E0032C72
:1048500001D20220DEE73878302802D17878582853
:1048600001D00320D6E7A41EE4B2BF1C01E004205F
:10487000D0E70CB1641EE4B238780146303809281C
:1048800001D8814601E0A1F1370921464046FFF7F2
:104890004BFF326809FB0020306017F8011F002928
:1048A000E7D1022D01D1404230600020B2E702780A
:1048B0000B789A4201D00120704712B1401C491C6C
:1048C000F5E70020704702780A700278002A02D0CB
:1048D000401C491CF7E77047002102781AB1491CB7
:1048E000C9B2401CF9E7084670470000F0B58DB02A
:1048F00004461E2308AA6946FFF7ACFD099000286C
:1049000072D19DF82000271800253E4C8DF82050CC
:104910009DF8200054F820106846FFF7C8FF38B112
:104920009DF82000401CC0B28DF820000728EFD36E
:104930009DF820000426344C072855D2DFE800F00B
:104940000404395A605F5E0030A0FBF747FD30A0D9
:10495000FBF744FD3EA0FBF741FD4DA0FBF73EFDFC
:104960005BA0FBF73BFD6AA0FBF738FD78A0FBF7E7
:1049700035FD86A0FBF732FD8BA0FBF72FFD93A042
:10498000FBF72CFD97A0FBF729FD9CA0FBF726FD6C
:10499000A1A0FBF723FDA7A0FBF720FDB3A0FBF729
:1049A0001DFDC0A0FBF71AFDCBA0FBF717FDD7A09C
:1049B0001BE016A0FBF712FDE4A0FBF70FFD8DF83E
:1049C00020500BE0216806EBC0000958EFA0FBF770
:1049D00005FD9DF82000401C8DF82000217D9DF8EC
:1049E00020008142EED856E257E2FBF7F7FC0020A8
:1049F0000DB0F0BD05A0FBF7F1FCCBE12CE20CE221
:104A0000EBE1000028000020C40000200D0A000097
:104A10002D2D2D2D2D2D2D2D2D2D2D2D2D2D2D2DC6
:104A20002D2D2D2D2D2D2D2D55534D4152542056CC
:104A3000332E352D2D2D2D2D2D2D2D2D2D2D2D2D97
:104A40002D2D2D2D2D2D2D2D2D2D2D200D0A000040
:104A50002020202055534D415254CAC7D3C9414C40
:104A600049454E54454BBFAAB7A2B5C4D2BBB8F610
:104A7000C1E9C7C9B5C4B4AEBFDAB5F7CAD4BBA5DE
:104A8000BDBBD7E9BCFE2CCDA8B9FD200D0A0000A6
:104A9000CBFC2CC4E3BFC9D2D4CDA8B9FDB4AEBF02
:104AA000DAD6FACAD6B5F7D3C3B3CCD0F2C0EFC3C7
:104AB000E6B5C4C8CEBACEBAAFCAFD2CB2A2D6B43F
:104AC000D0D02ED2F2B4CB2CC4E3BFC90D0A000063
:104AD000D2D4CBE6D2E2B8FCB8C4BAAFCAFDB5C4F2
:104AE000CAE4C8EBB2CECAFD28D6A7B3D6CAFDD752
:104AF000D62831302F3136BDF8D6C62CD6A7B3D63E
:104B0000B8BACAFD29A1A2D7D6B7FBB4AE0D0A0028
:104B1000A1A2BAAFCAFDC8EBBFDAB5D8D6B7B5C83F
:104B2000D7F7CEAAB2CECAFD292CB5A5B8F6BAAF32
:104B3000CAFDD7EEB6E0D6A7B3D63130B8F6CAE490
:104B4000C8EBB2CECAFD2CB2A2D6A7B3D60D0A00CE
:104B5000BAAFCAFDB7B5BBD8D6B5CFD4CABE2ED66C
:104B6000A7B3D6B2CECAFDCFD4CABEBDF8D6C6C989
:104B7000E8D6C3B9A6C4DC2CD6A7B3D6BDF8D6C632
:104B8000D7AABBBBB9A6C4DC2E0D0A00BCBCCAF5B3
:104B9000D6A7B3D63A7777772E6F70656E65647651
:104BA0002E636F6D0D0A000055534D415254D3D002
:104BB00037B8F6CFB5CDB3C3FCC1EE28B1D8D0EB32
:104BC000D0A1D0B4293A0D0A000000003F3A2020BD
:104BD00020202020BBF1C8A1B0EFD6FAD0C5CFA2CB
:104BE0000D0A000068656C703A202020BBF1C8A156
:104BF000B0EFD6FAD0C5CFA20D0A00006C6973746D
:104C00003A202020BFC9D3C3B5C4BAAFCAFDC1D0B2
:104C1000B1ED0D0A0A00000069643A20202020202E
:104C2000BFC9D3C3BAAFCAFDB5C44944C1D0B1ED01
:104C30000D0A0A006865783A20202020B2CECAFD0D
:104C40003136BDF8D6C6CFD4CABE2CBAF3B8FABF37
:104C5000D5B8F12BCAFDD7D6BCB4D6B4D0D0BDF8E8
:104C6000D6C6D7AABBBB0D0A0A0000006465633A2A
:104C700020202020B2CECAFD3130BDF8D6C6CFD418
:104C8000CABE2CBAF3B8FABFD5B8F12BCAFDD7D635
:104C9000BCB4D6B4D0D0BDF8D6C6D7AABBBB0D0A1B
:104CA0000A00000072756E74696D653A312CBFAAF6
:104CB000C6F4BAAFCAFDD4CBD0D0BCC6CAB13B3063
:104CC0002CB9D8B1D5BAAFCAFDD4CBD0D0BCC6CAE6
:104CD000B13B0D0A0A000000C7EBB0B4D5D5B3CC88
:104CE000D0F2B1E0D0B4B8F1CABDCAE4C8EBBAAFF3
:104CF000CAFDC3FBBCB0B2CECAFDB2A2D2D4BBD8EF
:104D0000B3B5BCFCBDE1CAF82E0D0A002D2D2D2D2A
:104D10002D2D2D2D2D2D2D2D2D2D2D2D2D2D2D2DC3
:104D20002D2D2D2D2D2DD5FDB5E3D4ADD7D32D2D86
:104D30002D2D2D2D2D2D2D2D2D2D2D2D2D2D2D2DA3
:104D40002D2D2D2D2D2D2D200D0A00002D2D2D2D3D
:104D50002D2D2D2D2D2D2D2D2D2D2D2D2D2D2D2D83
:104D60002D2D2D2D2DBAAFCAFDC7E5B5A52D2D2DA5
:104D70002D2D2D2D2D2D2D2D2D2D2D2D2D2D2D2D63
:104D80002D2D2D2D2D2D2D2D200D0A0025730D0AD5
:104D90000000000042A0FBF721FB8DF8205016E038
:104DA000216806EBC0000BAB08580AAA6946FFF75A
:104DB00069FB9DF82010206850F83120694648A012
:104DC000FBF70CFB9DF82000401C8DF82000217D96
:104DD0009DF820008142E3D85DE0AFF2D030FBF7D0
:104DE000FDFA08AA69463846FFF7E2FA9DF8200066
:104DF000002843D109A96846FFF7EEFC8DF8200092
:104E000010B104283AD102E03AA009991CE03CA074
:104E1000FBF7E4FA0120E0753DE038A0FBF7DEFA8D
:104E200008AA69463846FFF7C3FA9DF8200028BB58
:104E300009A96846FFF7D0FC8DF8200010B10428BE
:104E40001CD104E033A00999FBF7C8FA23E034A091
:104E5000FBF7C4FAE5751EE028A0FBF7BFFA08AA25
:104E600069463846FFF7A4FA9DF8200030B909A931
:104E70006846FFF7B1FC8DF8200008B10220B7E5C5
:104E8000099810F0FF0084F8EC0001D029A000E0A0
:104E90002FA0FBF7A3FA19A0A7E50120A8E50000C1
:104EA0002D2D2D2D2D2D2D2D2D2D2D2D2D2D2D2D32
:104EB0002D2D2D2D2D2D2D2D2DBAAFCAFD20494480
:104EC000202D2D2D2D2D2D2D2D2D2D2D2D2D2D2D1F
:104ED0002D2D2D2D2D2D2D2D2D2D2D2D200D0A007F
:104EE00025732069642069733A0D0A3058253038DB
:104EF000580D0A004845583A305825580D0A000008
:104F00003136BDF8D6C6B2CECAFDCFD4CABE210D49
:104F10000A0000004445433A256C750D0A00000064
:104F20003130BDF8D6C6B2CECAFDCFD4CABE210D2F
:104F30000A00000052756E2054696D652043616C53
:104F400063756C6174696F6E204F4E0D0A0000002E
:104F500052756E2054696D652043616C63756C6198
:104F600074696F6E204F46460D0A000009480068BC
:104F70000169C943CA070849D1F8F02004D14FF6A6
:104F8000FF731A44C1F8F020406A1044C1F8F000E1
:104F900070470000F0030020C400002038B5104A1C
:104FA0000023146844F00404146012680D4C02F0ED
:104FB000040200920C4AC2E902301361C2E90041C6
:104FC0001046FDF7FFFB0848FDF72AFC03221146B7
:104FD0001E20FDF7C7F8BDE838401E20FDF7B5B824
:104FE0004038024000080040F003002007486FF0FE
:104FF0000101026811610268090CD162C160006898
:10500000002141620248C0F8F0107047F003002010
:10501000C40000200160704710B500290AD008784C
:10502000002807D005487844FBF790FF002801D0FE
:10503000002010BD0248784410BD0000423F00002F
:105040003A3F000081F00041704780F00040704717
:1050500021F00041704720F00040704721F00042ED
:10506000A2F16052B2F5801F01F0004328BFD2F1D7
:105070007F6C0BD95FEA001C43EAC20242EB50701E
:1050800018BF704728BF20F001007047B2F5801F9D
:10509000BCBF184670474FEA410C1CF5001F02D2F6
:1050A000084600F0F3BC70B500F03CFB000000893E
:1050B000FFF7F6BF4FF00040A0F5800070470000FA
:1050C00010B591EA030F48BF83F0004300F18683D7
:1050D000841A71EB030C05D2121943EB0C03001B6D
:1050E00061EB0C01DFF824E14FEA1154A4EB135CEF
:1050F0001EEA430F18BF9EEA445F73D023EA0E03F3
:10510000DCF1200E21EA045143F4801332D322FA59
:105110000CFE10EB0E0023FA0CFE41EB0E01CCF15D
:10512000200E03FA0EFE10EB0E0051F10001B1F556
:10513000801FCCF1200E32D201EB045112FA0EF294
:10514000BDE8104058BF7047401C38BF5FEA4202BC
:1051500018BF7047002814BF20F0010041F1000182
:105160004FEA410313F5001F38BF7047A1F1C0415A
:1051700000F026BB012A43EB0302ACF1200CDCF16A
:105180001F0E32BF4FF0000E23FA0CF310EB03009A
:1051900041EB0451B4EB115FD0D0A1EB045101F508
:1051A000801149085FEA300001EB04510ED350F141
:1051B000000038BF12FA0EFE08D1BDE81040C9E762
:1051C000401C38BF5FEA4202CAD1C3E7BDE81040C5
:1051D0004FEA410313F5001F38BF7047A1F1C041EA
:1051E00000F0EEBA9EEA445F08D011EA5E0FBDE817
:1051F000104004BF01F0004100207047BDE810409E
:1052000070B500F08FFA00BF64FBBE3E0000E0FF07
:10521000491058BFC1F140415B1058BFC3F1404332
:105220008B42EFF3008070472DE9C04130B4DFF8C6
:10523000A0C23CEA111418BF3CEA131400F0EC8041
:1052400081EA03051CEA111444EAD57418BF1CEA6C
:10525000131500F0C780A4EB05044FF0004545EAA4
:10526000C12145EAC32341EA505143EA525304F1B4
:105270007F74994204F500344FEAC0204FEAC222FD
:1052800008BF904200F09C804FEA13650FF2401671
:10529000765D4FEA134506FB05F7C7F1807706FBFD
:1052A00007F74FEAD737A7FB03687642C8F580387F
:1052B000A7FB06CE38BFA8F1010807FB08E64FF0B0
:1052C000000EA6FB028CE6FB03CEDCF1000CCEF157
:1052D000004E38BFAEF1010EA6FB0C584FF0000790
:1052E0004FF00005E6FB0E87A1FB08C6A0FB07CE2A
:1052F00016EB0E0645F10005E1FB076515F1E04EE2
:105300007EBFA4F580345FEA46066D4116F1800742
:1053100045F100054FEA17274FEA066647EA056799
:10532000A6F1DE46B6F1805F4FEA15251FD9384653
:1053300024F0010C05EBC471BCF1FE6F01EB0C1104
:1053400002D8F0BCBDE8008124425CBF01F5801E9C
:105350009EEAC47F02D4F0BCBDE80081244238D468
:10536000F0BCA1F1C041BDE8004100F029BA4FEA0C
:10537000D22242EA43524FEAD323A7FB02864FEAE6
:10538000D02040EA415007FB03661EEA0E0F4FEAA9
:10539000D12105FB026658BFA6EB0056B6EB0056BE
:1053A0004FEA520E4EEAC37E18EB0E0E56EB530E2A
:1053B000BDD518EB02085E417F1C55F10005B6E72C
:1053C0004FF480154FF000074FF000064FF0000833
:1053D000ADE7F0BC4FF0000001F1C04101F0004129
:1053E000BDE8008111EA0C1F0CEA131500D00CE097
:1053F00013EA0C1F00F025804FF00000F0BC81EA9A
:10540000030101F00041BDE80081F0BCBDE80041AE
:1054100081EA030100F0D4B9F0BCBDE8004170B5E9
:1054200000F080F9097EFC3E00F007B881EA030134
:105430004FF0000001F00041704781EA030100F0E5
:10544000BFB9F0BCBDE800414FF0000021497047F2
:10545000FFFDFBF9F7F5F4F2F0EEEDEBE9E8E6E439
:10546000E3E1E0DEDDDBDAD8D7D5D4D3D1D0CFCDC0
:10547000CCCBCAC8C7C6C5C4C2C1C0BFBEBDBCBBF9
:10548000BAB9B8B7B6B5B4B3B2B1B0AFAEADACABF4
:10549000AAA9A8A8A7A6A5A4A3A3A2A1A09F9F9ECE
:1054A0009D9C9C9B9A999998979796959594939380
:1054B000929191908F8F8E8E8D8C8C8B8B8A898917
:1054C000888887878685858484838382828181809A
:1054D0000000FF070000F87F4FEA1153A3F5806337
:1054E000D3F11E03A8BFD3F1200C08DB4FF000421C
:1054F00042EAC12252EA505232FA03F0704709429E
:105500000BD4102BC4BF0020704703F5787CBCF18E
:10551000FF3F05D04FF0FF3070474FF0000070475D
:1055200070B500F0FFF800BF49922480002070475A
:10553000F0E7B0FA80F310FA03F10AD0C3F11D03CB
:1055400003F580634FEA41504FEA035202EBD12149
:1055500070474FF00000704751EA030C17D41CF558
:10556000801F58BFBCF5801F00F10680994218BF0C
:10557000704708BF9042704707D711F5801F58BF8A
:1055800013F5801F19D499427047894270471CF562
:10559000801F08D5BCF5801FF7D58B4218BF704718
:1055A00008BF824270474FF4001C1CEB410F38BF0C
:1055B0001CEB430F01D28B42704770B500F0B2F87C
:1055C000922449004FF000514FF08053FFF720BE66
:1055D000DFF848C170B51CEA111E1EBF1CEA131586
:1055E0009EEA0C0F95EA0C0F00F06F8081EA03042D
:1055F00023EA4C134EEAD47E21EA4C1141F4801187
:1056000043F48013AE44A1FB024CA0FB0365AEF152
:105610007F7E361955EB0C05A1FB034C4CF10003C2
:10562000A0FB021C16EB0C06654153F10003094276
:1056300018BF46F0010613F4007F0BD14FEA033187
:105640004FEA0530340341EA155140EA16506FF035
:1056500003020AE04FEAC3214FEAC520F40241EAFF
:10566000555140EA56506FF0020202EB2E4201EB18
:10567000025585EACE710AD05FEA440C18BF24F0C7
:10568000004450F1000041F1000120EAD47040F2E2
:10569000FE7C624500D270BDA84214BF4FF080442A
:1056A0004FF04044002E08BF0024BEF1806FA8BF19
:1056B000A1F1C041BDE8704080F282804FF000004F
:1056C00001F1C04101F0004170479EEA0C0F0CEA65
:1056D000131518BF95EA0C0F06D04FF0000081EAB1
:1056E000030E0EF0004170BD00F01CF88900013E71
:1056F00000F007B800F009B84FEA430C5FEA5C5CC1
:1057000008D081EA030100F05BB84FEA410C5FEA80
:105710005C5CF6D14FF00000014970470000FF07C4
:105720000000F87F0EF1020E2EF0030E5EF8046BFF
:10573000364205D4012A43EB030515F5001F12D8A4
:10574000012841EB010C1CF5001F0CD80ED14FEACB
:10575000D17C15F5001F0CEB4C0C0CF1020C08BFB2
:105760004CEBD37C04E04FF0080C01E04FEAD37C13
:105770000CEB4C0526FA05F606F00706B6F1040C0C
:1057800006D20EEB860CBDE870404CF0010C604771
:10579000DFE80CF0090B02024FF000414FF000006F
:1057A000A1F5002170BD19461046012851EB0104F6
:1057B00018BFD4F5001484BF002001F0004170BD73
:1057C0000808A0F500114FEA3101704710B591EAC1
:1057D000030F48BF83F000433FF57AAC841A71EBA6
:1057E000030C07D212198CF0004C43EB0C03001B86
:1057F00061EB0C01DFF8A4E14FEA1154A4EB135C58
:105800001EEA430F18BF9EEA445F00F0B08023EA0F
:105810006E03524221EA0451C3EB6E0338BF5B1E94
:10582000DCF1200E25D322FA0CFE10EB0E0043FA19
:105830000CFE41EB0E01CCF1200E03FA0EFE10EB34
:105840000E0051F10001CCF1200E29D412FA0EF213
:1058500001EB0451BDE8104058BF7047401C1CBF0D
:10586000B2F1004F704700280CBF491C20F0010026
:10587000704712EB020E43EB030218BF4FF0010E0C
:105880004EEA4202ACF1200CDCF11E0E54D943FA70
:105890000CFE10EB0E0051F1FF31CCF11E0ED5D5F0
:1058A0000EF1010E12FA0EFE404141EB010101EB37
:1058B000445C5FEA5C5C10D910EBDE7001EB0451D4
:1058C00038BFBEF1004FBDE8104018BF7047002838
:1058D0000CBF491C20F00100704730D24FEAD42C95
:1058E00011F5001124F400641BD0B1FA81F20B3AD7
:1058F000A41AA41ED2F12003914030FA03F31943F5
:10590000904001EBCC71002C01EB0451BDE810403C
:10591000A8BF704701F1C0414FF0000001F0004105
:105920007047B0FA80F310FA03F100D110BDE41A09
:10593000173C4805C90AE4E701EB045110BD4910C2
:1059400001EB0451BDE810404FEA300002E04FF097
:10595000000170474A0008BF0042F8D0B2F5001FAE
:1059600028BF704701F000414FF0000070479EEAE9
:10597000445F07D011EA5E0FBDE8104004BF00216C
:1059800000207047BDE8104070B5FFF7CBFE00BFA8
:1059900040DFF63E83F00041104670470000E0FF14
:1059A00043004FEAD30C4FEA3C0C43401FBF400773
:1059B0000CF1605113F0FE4F70471CF0006F03D1E3
:1059C00000200CF0004170470CF0004343EA507097
:1059D00010B540EACC0000F00EF800BF00000092C5
:1059E0004FEA0001FFF7ECBE4FF000414FF000001E
:1059F000A1F5002170470EF1020E2EF0030E5EF8A5
:105A0000044B244204D44FEA4102B2F17F4F11D833
:105A10004FEA4003B3F17F4F0CD80ED14FEAD07C50
:105A2000B2F17F4F0CEB4C0C0CF1020C08BF4CEBAD
:105A3000D17C04E04FF0080C01E04FEAD17C0CEB84
:105A40004C0324FA03F404F00704B4F1040C06D266
:105A50000EEB840CBDE810404CF0010C6047DFE811
:105A60000CF0070802024FF00040A0F5800010BDC6
:105A70000846420018BFD2F1807288BF00F0004093
:105A800010BD4FF04070E1EE100A7047FF2141EA6F
:105A9000D050C0057047FAF7B6BF00000000000004
:105AA00000000102030406070809000000000102CB
:105AB00003040000000000000000000000000000DF
:105AC00000003F40000000000000000030004000E7
:105AD00030004000000009000BC03D000BC03D003D
