:020000040800F2
:100000004008002089020008A123000843230008BB
:100010009D2300082D0900082D290008000000007C
:10002000000000000000000000000000A523000800
:10003000D10A000800000000A3230008A72300083D
:10004000AD020008AD020008AD020008AD020008D4
:10005000AD020008AD020008AD020008AD020008C4
:10006000AD020008AD020008AD020008AD020008B4
:10007000AD020008AD020008AD020008AD020008A4
:10008000AD020008AD020008AD020008AD02000894
:1000900031090008AD020008AD020008AD020008F9
:1000A000AD020008AD020008AD020008AD02000874
:1000B000AD020008AD020008C5230008AD0200082B
:1000C000AD020008AD020008AD020008AD02000854
:1000D000AD020008DD280008AD020008AD020008EE
:1000E000AD020008AD020008AD020008AD02000834
:1000F000AD020008AD020008AD020008AD02000824
:10010000AD020008AD020008AD020008AD02000813
:10011000AD020008AD020008AD020008AD02000803
:10012000AD020008AD020008AD020008AD020008F3
:10013000AD020008AD020008AD020008AD020008E3
:10014000AD020008AD020008AD020008AD020008D3
:10015000AD020008AD020008AD020008AD020008C3
:10016000AD020008AD020008AD020008AD020008B3
:10017000AD020008AD020008AD020008000000005A
:10018000AD020008AD02000800F002F800F06DF8C2
:100190000AA090E8000C82448344AAF10107DA45E2
:1001A00001D100F062F8AFF2090EBAE80F0013F0C7
:1001B000010F18BFFB1A43F0010318472C7C000005
:1001C0004C7C00000A444FF0000C10F8013B13F087
:1001D000070408BF10F8014B1D1108BF10F8015BA0
:1001E000641E05D010F8016B641E01F8016BF9D193
:1001F00013F0080F1EBF10F8014BAD1C0C1B09D1EA
:100200006D1E58BF01F801CBFAD505E014F8016B5B
:1002100001F8016B6D1EF9D59142D6D370470000ED
:100220000023002400250026103A28BF78C1FBD8FF
:10023000520728BF30C148BF0B607047642900F0E7
:100240001D81752900F01A81782900F053816329F6
:1002500000F01883732900F01D83002070471FB53C
:1002600004F0B0FB1FBD10B510BD00F031FB11460E
:10027000FFF7F5FF03F0BAF900F04FFB03B4FFF707
:10028000F2FF03BC02F077FB0C48016841F47001F7
:1002900001600B4880470B480047FEE7FEE7FEE79A
:1002A000FEE7FEE7FEE7FEE7FEE7FEE7FEE700000B
:1002B00005480649044A064B7047000088ED00E0F7
:1002C000B1230008890100084004002040080020F4
:1002D00040040020704753EA020C00F069802DE9C9
:1002E000F04B4FF00006002B1FBFB3FA83F503FA63
:1002F00005F424FA05F65E4012BF1643B2FA82F501
:1003000002FA05F4C5F120051EBF22FA05FC44EAF5
:100310000C04203556EA044C4FEA144418BF641C00
:100320004FF000084FF00009904271EB030C39D3F5
:10033000002919BFB1FA81F701FA07F6B0FA80F780
:1003400000FA07F6C7F120071EBF20FA07FC46EAAD
:100350000C062037B6FBF4FCA7EB0507103F07F0AF
:100360001F0BCBF120060CFA0BFB2CFA06F644BF50
:10037000B3460026202FA4BF5E464FF0000B5BEA79
:10038000060C08BF4FF0010B19EB0B09ABFB027C0D
:1003900048EB0608C01B06FB02CC0BFB03CC71EB41
:1003A0000C01C1E70B46024641464846BDE8F08BCA
:1003B00013B54FF000004FF00001AFF30080BDE82F
:1003C0001C4070470FB4044910B503AA029800F00E
:1003D00065FA10BC5DF814FB0800002070B50446F7
:1003E00085690068C10601D5302600E02026C007D7
:1003F00007D070BDD4E9012130469047206A401CE7
:1004000020626D1EF6D570BD70B504468569007812
:10041000C00707D170BDD4E9012120209047206A90
:10042000401C20626D1EF6D570BD70B50C460546A9
:10043000012A05D02878800600D5EA69002302E069
:10044000012305E05B1C934202D2E05C0028F9D155
:10045000A869E618C01AA861286A184428622846C4
:10046000FFF7BCFF04E0D5E9012114F8010B904728
:10047000B442F8D32846FFF7C7FF70BD2DE9F0411D
:100480000646002410687529314616A510D0AFF332
:100490000080002802DA404213A507E031688A078D
:1004A00001D512A502E0490704D511A5012401E0F8
:1004B000AFF3008000210A2206F1240709E0B0FB17
:1004C000F2FCB0FBF2F302FB1C003030785418460B
:1004D000491C0028F3D123462A463046BDE8F041A6
:1004E00000F055B9000000002D0000002B000000B6
:1004F0002000000070B504460D4621461068AFF399
:1005000000802188090502D50F4A7A4402E00E4A8C
:100510007A440E32002104F1240305E000F00F06B6
:100520000009965D5E54491C0028F7D1207800230D
:10053000000704D5702D02D009B1022311322046E4
:10054000BDE8704000F023B9587400002DE9F05F59
:10055000894604464FF0000ADFF874B1FB44C0F846
:1005600020A02046E1688847002874D0252806D0BE
:10057000D4E901219047206A401C2062F1E700265F
:100580005F462046E16888472028054607DB312D75
:1005900005D2781910F8200C08B10643F1E7B0072E
:1005A00001D526F00406C4F81CA00027C4F818A042
:1005B0002A2D09D0284602F0D7F938B304EB870872
:1005C000303DC8F8185019E059F8041B204604EBD8
:1005D00087029161E1688847012F054618D1E069DB
:1005E000002820DA26F020061DE0D8F8180000EBDD
:1005F000800005EB40003038C8F818002046E1685C
:100600008847054602F0B0F90028EED1012F0AD044
:100610002E2D08D12046E16888477F1C0546022F11
:1006200046F02006C4DBA069002803DA404246F009
:100630000106A061F00701D026F010066C2D0BD04A
:10064000682D09D04C2D39D06A2D35D0742D35D078
:100650007A2D33D016E038E0E1682F4620468847EF
:10066000B842054609D16C2F26D04FF48060E1686E
:10067000064320468847054604E06C2F1AD04FF405
:10068000807006430DB3A5F14100192802D820352A
:1006900046F400664A462946204626604E46FFF745
:1006A000CDFD80B101280BD0F61D26F0070000F12A
:1006B000080956E74020E4E78020D8E70020D6E785
:1006C00006F104094DE7284652E7206ABDE8F09F8D
:1006D0002E74000010B5203AC0F00B80B1E818501D
:1006E000203AA0E81850B1E81850A0E81850BFF41C
:1006F000F5AF5FEA027C24BFB1E81850A0E81850BB
:1007000044BF18C918C0BDE810405FEA827C24BF0E
:1007100051F8043B40F8043B08BF7047D20728BF9C
:1007200031F8023B48BF11F8012B28BF20F8023BEB
:1007300048BF00F8012B70474FF0000200B5134688
:1007400094469646203922BFA0E80C50A0E80C50F1
:10075000B1F12001BFF4F7AF090728BFA0E80C50A2
:1007600048BF0CC05DF804EB890028BF40F8042B9B
:1007700008BF704748BF20F8022B11F0804F18BF08
:1007800000F8012B704770477047704770472DE99C
:10079000F0470D4699469246044600F12408016848
:1007A000880604D5E06921F01001216000E00120F5
:1007B000A84201DD471B00E00027A1697A1902EB7E
:1007C0000900081AA0612078C00602D42046FFF76D
:1007D00005FE002608E0D4E901211AF8060090473A
:1007E000206A401C761C20624E45F4DB2078C0064F
:1007F0000AD52046FFF7F2FD06E0D4E901213020BA
:100800009047206A401C2062381EA7F10107F4DCE3
:1008100007E0D4E9012118F805009047206A401C40
:100820002062281EA5F10105F3DC2046FFF7ECFD50
:100830002078000602D50220BDE8F0870120FBE702
:1008400001694A1C02610878704700B58FB0CDE994
:1008500001310021059105497944CDE90310114684
:100860006846FFF773FE0FB000BD0000E5FFFFFF15
:1008700010B5436913B1AFF3008001E0FFF7D5FD78
:10088000012010BD127800F124010A7000224A7084
:100890000122EDE711684FF0FF32E9E7074B70B531
:1008A0000D467B44FFF7D1FF0446284600F008F8C8
:1008B00010B14FF0FF3070BD204670BD33220000F4
:1008C000007B00F08000704700487047DC03002088
:1008D0007546FFF7F9FFAE4605006946534620F01E
:1008E0000700854618B020B5FFF7E2FCBDE82040C0
:1008F0004FF000064FF000074FF000084FF0000BDC
:1009000021F00701AC46ACE8C009ACE8C009ACE88E
:10091000C009ACE8C0098D46704710B50446AFF376
:1009200000802046BDE81040FFF7A8BC00BFFEE7EE
:100930002DE9FC414FF6FF766946404602F01EF86D
:100940009DF800009C2838D19DF802009DF8031006
:1009500040EA01244EF6602084420BDDA01B1849BA
:1009600008600846016817A0FFF72CFD19A0FFF7E3
:1009700029FD08E012480460214612A0FFF722FD7D
:1009800014A0FFF71FFD9DF804009DF8051040EA34
:1009900001254EF66020854208DDAF1B39460EA0CA
:1009A000FFF710FD0DA0FFF70DFD06E029460AA098
:1009B000FFF708FD09A0FFF705FDBDE8FC81000079
:1009C000380000207B6D6F746F72546E666F7D25EA
:1009D000640000002C000000256400000A000000F4
:1009E00010B501F0B1FC00F03FF8084800F0CEFB74
:1009F00010B107A0FFF7E6FC0221044800F069F8F7
:100A000010B10EA0FFF7DEFC10BD0000380300207F
:100A10000D0A205468652043414E2070657269704C
:100A2000686572616C20686173206E6F74207374E6
:100A3000617274656421200D0A0000000D0A2043D4
:100A4000414E20525830206E6F746966696361743C
:100A5000696F6E20686173206E6F74206F70656EB1
:100A6000656421200D0A000000B58BB000200690BF
:100A70000790012008900020039004900590012029
:100A800009900E200A9001A9044800F0E3F810B183
:100A900003A0FFF797FC0BB000BD00003803002057
:100AA0000D0A205468652043414E2066696C7465C8
:100AB0007220636F6E66696720686173206E6F7461
:100AC0002066696E697368656421200D0A00000064
:100AD000704710B5024692F82030012B01D0022B4E
:100AE00006D110684069084314686061002010BD99
:100AF000506A40F4802050620120F8E7F0B50446C7
:100B00000D461E4694F8207020688368A86800B9D6
:100B100000E000BF012F01D0022F7CD103F08060E4
:100B200030B903F0006018B903F08050002873D08A
:100B3000C3F30161022905D9606A40F400006062D4
:100B40000120F0BD012088403060A86860B9B5F888
:100B500000C0E86840EA4C5C206800F5C07000EB1B
:100B60000110C0F800C00FE0D5E901C040EACC0098
:100B7000D5F80CC040EA0C00D4F800C00CF5C07CDD
:100B80000CEB011CCCF80000D5F810C0206800F573
:100B9000C07000EB0110C0F804C0287D01280ED100
:100BA000206800F5C07000EB0110406840F4807CC4
:100BB000206800F5C07000EB0110C0F804C0D079C7
:100BC000000692F806C040EA0C4092F805C040EAE0
:100BD0000C2C10794CEA000C206800F5C07000EB7A
:100BE0000110C0F80CC0D078000692F802C040EAAC
:100BF0000C4092F801C040EA0C2092F800C040EA94
:100C00000C00D4F800C00CF5C07C0CEB011CCCF837
:100C10000800206801E016E00FE000F5C07000EB6E
:100C20000110006840F0010C206800F5C07000EB76
:100C30000110C0F800C0002083E7606A40F4001093
:100C4000606201207DE7606A40F4802060620120DC
:100C500077E70000F0B504460A46216894F8205072
:100C6000012D01D0022D7ED1424901F500710868A5
:100C700040F001000860086820F47C5008600868B3
:100C8000566A40EA06200860107D00F01F06012029
:100C900000FA06F3C8699843C861A1F50071D069EC
:100CA000C8B9D1F80C029843C1F80C02908880B200
:100CB000968940EA064601F51070576940F837609A
:100CC000108880B2168940EA064601F5107057690F
:100CD00000EBC7004660D069012819D1D1F80C0299
:100CE0001843C1F80C02908880B2168840EA064684
:100CF00001F51070576940F83760908980B2168905
:100D000040EA064601F51070576900EBC7004660DF
:100D1000906928B9D1F804029843C1F8040204E0AC
:100D2000D1F804021843C1F80402106928B9D1F8B7
:100D300014029843C1F8140204E0D1F814021843D5
:100D4000C1F81402106A012804D1D1F81C0218431A
:100D5000C1F81C02D1F8000220F00100C1F8000225
:100D60000020F0BDFFE7606A40F48020606201204F
:100D7000F7E700000064004010B50246002092F83A
:100D80002030012B01D0022B09D121B91468E4686D
:100D900004F0030003E01468246904F0030010BDAC
:100DA00070B5044694F82050012D01D0022D7DD15C
:100DB00051B92068C06800F0030080B9606A40F44F
:100DC00000106062012070BD2068006900F003001F
:100DD00028B9606A40F4001060620120F3E72068DF
:100DE00000F5D87000EB0110006800F0040090607E
:100DF000906840B9206800F5D87000EB01100068D9
:100E0000400D106007E0206800F5D87000EB01107D
:100E10000068C0085060206800F5D87000EB011031
:100E2000006800F00200D060206800F5D87000EB88
:100E30000110406800F00F001061206800F5D870C4
:100E400000EB0110406800F47F40000A90612068C8
:100E500000F5D87000EB01104068000C506120686C
:100E600000F5D87000EB011080681870206800F55C
:100E7000D87000EB0110806800F47F40000A5870C1
:100E8000206800F5D87000EB0110806800F47F0046
:100E9000000C9870206800F5D87000EB0110806895
:100EA000000ED870206800F5D87000E02FE000EB4D
:100EB0000110C0681871206800F5D87000EB0110AF
:100EC000C06800F47F40000A5871206800F5D870AF
:100ED00000EB0110C06800F47F00000C98712068DE
:100EE00000F5D87000EB0110C068000ED87131B960
:100EF0002068C06840F020002668F06005E02068A7
:100F0000006940F020002668306100205BE7606ADD
:100F100040F480206062012055E70146002091F8EE
:100F20002020012A01D0022A11D10B689B6803F00E
:100F3000806303B1401C0B689B6803F0006303B13E
:100F4000401C0B689B6803F0805303B1401C704742
:100F500070B504460CB9012070BD94F8200010B99A
:100F6000204600F0AFF82068006820F002002168F9
:100F7000086000F0B3FA05460DE000F0AFFA401B40
:100F80000A2808D9606A40F400306062052084F8BD
:100F900020000120E0E72068406800F002000028FF
:100FA000EBD12068006840F001002168086000F083
:100FB00095FA05460DE000F091FA401B0A2808D981
:100FC000606A40F400306062052084F8200001204F
:100FD000C2E72068406800F001000028EBD0207EC6
:100FE000012806D12068006840F080002168086070
:100FF00005E02068006820F0800021680860607EBD
:10100000012806D12068006840F04000216808608F
:1010100005E02068006820F0400021680860A07E9C
:10102000012806D12068006840F02000216808608F
:1010300005E02068006820F0200021680860E07E5C
:10104000012806D12068006820F01000216808609F
:1010500005E02068006840F0100021680860207FEB
:10106000012806D12068006840F008002168086067
:1010700005E02068006820F0080021680860607FB3
:10108000012806D12068006840F00400216808604B
:1010900005E02068006820F0040021680860D4E9B9
:1010A0000201084321690843616908436168491ED8
:1010B00008432168C86100206062012084F8200094
:1010C000002049E710B586B004462D4920688842C3
:1010D00053D100BF00BF002000902A48006840F0B4
:1010E0000100284908600846006800F001000090EF
:1010F00000BF00BF00BF00BF00BF00200090084637
:10110000006840F0010008600846006800F0010037
:10111000009000BF00BF00BF00BF00200090194832
:101120001030006840F00070164910310860084621
:10113000006800F00070009000BF00BF00BF0020FA
:1011400000901048006840F001000E490860084611
:10115000006800F00100009000BF00BF4FF4C050D5
:1011600001900220029001200390022004900920A7
:10117000059001A9044800F0A1F806B010BD0000D8
:1011800000640040303802400000024070B5044660
:1011900094F82000012822D1022084F82000206841
:1011A000006820F001002168086000F097F905460A
:1011B0000DE000F093F9401B0A2808D9606A40F45A
:1011C00000306062052084F82000012070BD206896
:1011D000406800F001000028EBD16062F6E7606A29
:1011E00040F4002060620120F0E770B50446A56D70
:1011F00000F074F9064694F83500022808D08020E3
:10120000606500BF002084F8340000BF012070BD7D
:101210002068006820F01600216808602068406996
:1012200020F0800021684861206C08B9A06C28B1CA
:101230002068006820F008002168086020680068C5
:1012400020F00100216808600FE000F047F9801BE2
:1012500005280AD92020606500BF002084F83400EA
:1012600000BF032084F83500D1E72068006800F053
:1012700001000028E9D194F85C103F208840A86064
:1012800000BF002084F8340000BF012084F835003E
:101290000020BCE7014691F83500022803D08020E9
:1012A000486501207047052081F83500086800680E
:1012B00020F001000A6810600020F3E7F8B502464C
:1012C0000B460025002400200021DEE0012606FA5E
:1012D00001F51E6806EA0504AC4275D11E7906F0D8
:1012E0000306012E04D01E7906F00306022E13D148
:1012F00090684F000326BE40B0434F00DE68BE40FA
:1013000030439060506801268E40B0431E79C6F38A
:1013100000168E40304350601E7906F00306032EFF
:1013200009D0D0684F000326BE40B0434F009E68EE
:10133000BE403043D0601E7906F00306022E13D162
:10134000CF0802F1200656F827004E07F70E0F26A9
:10135000BE40B0434F07FF0E1E69BE403043CF086A
:1013600002F1200646F8270010684F000326BE4011
:10137000B0431E7906F003064F00BE4030431060B4
:101380005E6806F08056B6F1805F7DD100BF002612
:101390000096404E366846F480463E4F3E603E46DC
:1013A000366806F48046009600BF00BF3A4E8F08AC
:1013B00056F827008E07370F0F26BE40B043374E32
:1013C000B24202D1002624E05EE0354EB24201D1A5
:1013D00001261EE0334EB24201D1022619E0324E00
:1013E000B24201D1032614E0304EB24201D10426AC
:1013F0000FE02F4EB24201D105260AE02D4EB24237
:1014000001D1062605E02C4EB24201D1072600E0AC
:1014100008268F073F0FBE4030431F4E8F0846F807
:101420002700264E3068A0435E6806F48036B6F585
:10143000803F00D12043214E3060361D3068A043EC
:101440005E6806F40036B6F5003F00D120431B4E1F
:10145000361D3060361D3068A0435E6806F4801685
:10146000B6F5801F00D12043144E08363060361D7B
:101470003068A0435E6806F40016B6F5001F00D180
:1014800020430E4E0C363060491C1029FFF41EAF6D
:10149000F8BD000044380240083801400000024016
:1014A0000004024000080240000C0240001002400C
:1014B0000014024000180240001C0240003C0140A1
:1014C000024613690B400BB1012000E00020704779
:1014D00001480068000C7047002004E001480068E3
:1014E0007047000010000020034800680349097895
:1014F00008440149086070471000002018000020CF
:1015000010B50A48006840F40070084908600846B1
:10151000006840F480600860032000F07FF80F202E
:1015200000F006F800F02AF8002010BD003C024050
:1015300070B504460E4800784FF47A71B1FBF0F0B4
:101540000C490968B1FBF0F5284600F01DFC08B114
:10155000012070BD102C07D200222146501E00F041
:101560001EF80548046001E00120F2E70020F0E7E2
:1015700018000020000000201400002070470146E1
:101580000846002809DB00F01F0301229A404309A6
:101590009B0003F1E023C3F8002100BF70472DE951
:1015A000F05F80460D461646002701F0C1F9074658
:1015B00039462A46334601F00700C0F1070ABAF15E
:1015C000040F02D94FF0040A01E0C0F1070AD14626
:1015D00000F1040ABAF1070F02D24FF0000A01E04D
:1015E000A0F1030AD4464FF0010A0AFA09FAAAF157
:1015F000010A0AEA020A0AFA0CFA4FF0010B0BFA86
:101600000CFBABF1010B0BEA030B4AEA0B0421467E
:10161000404601F095F9BDE8F09F000000BF00F0E2
:101620000702064B19684FF6FF031940044B0B43A2
:1016300043EA0221014B196000BF70470CED00E046
:101640000000FA0570B504460D460CB9012070BDC6
:101650005848006800F00700A84209D255490D70AB
:101660000846006800F00700A84201D00120EEE71C
:10167000207800F0020002281DD1207800F004003C
:10168000042805D14C48006840F4E0504A490860FD
:10169000207800F00800082805D14748006840F489
:1016A0006040454908604448006820F0F000A168A7
:1016B000084341490860207800F00100A8B3606841
:1016C000012807D13C4808380068C0F34040B8B949
:1016D0000120BCE76068022802D06068032807D1B7
:1016E000354808380068C0F3406048B90120AEE7CB
:1016F000314808380068C0F3400008B90120A6E767
:101700002D48006820F00300616808432A490860FA
:10171000FFF7E4FE064609E0FFF7E0FE801B41F21A
:101720008831884202D9032091E707E02248006807
:1017300000F00C006168B0EB810FEDD11D4800682E
:1017400000F00700A84209D91A490D700846006840
:1017500000F00700A84201D0012078E7207800F0CF
:101760000400042807D11448006820F4E050E16820
:10177000084311490860207800F00800082808D1C3
:101780000D48006820F46040216940EAC1000A4920
:10179000086000F03FF808490968C1F30311074ADF
:1017A000515CC8400649086006480068FFF7C0FE63
:1017B00000204CE7003C024008380240CE490008B7
:1017C000000000201400002001480068704700005D
:1017D0000000002000B5FFF7F7FF04490968C1F3D6
:1017E0008221034A515CC84000BD00000838024015
:1017F000DE49000800B5FFF7E7FF04490968C1F3B7
:101800004231034A515CC84000BD00000838024024
:10181000DE4900082DE9F047002400250026A146F6
:101820002548006800F00C0020B1042805D00828E5
:101830003AD105E0DFF8849039E0DFF8849036E0B3
:101840001D48001F006800F03F041B48001F00688F
:1018500000F4800078B11A481749091F0968C1F3DC
:101860008811A0FB01700146224600233846FEF78E
:1018700032FD05460EE011480F49091F0968C1F302
:101880008811A0FB01700146224600233846FEF76E
:1018900022FD05460848001F0068C0F30140401CB7
:1018A0004600B5FBF6F902E0DFF8109000BF00BF7C
:1018B0004846BDE8F0870000083802400024F400E4
:1018C00000127A00F8B504460CB90120F8BD207862
:1018D00000F00100002874D0F948006800F00C0006
:1018E00004280DD0F648006800F00C00082813D139
:1018F000F348001F006800F48000B0F5800F0BD1A2
:10190000EF4808380068C0F34040002859D06068AC
:10191000002856D10120D9E700BF6068B0F5803FAC
:1019200008D1E7480838006840F48030E4490839B5
:1019300008601EE06068B0F5A02F0DD1E0480838BF
:10194000006840F48020DE490839086008460068D5
:1019500040F4803008600CE0D9480838006820F472
:101960008030D749083908600846006820F4802094
:10197000086000BF606890B1FFF7B0FD054606E063
:10198000FFF7ACFD401B642801D903209EE7CC483B
:1019900008380068C0F340400028F1D011E0FFF79C
:1019A0009DFD054606E0FFF799FD401B642801D91F
:1019B00003208BE7C24808380068C0F34040002885
:1019C000F1D1207800F0020002285FD1BC48006805
:1019D00000F00C0058B1BA48006800F00C0008286C
:1019E0001CD1B748001F006800F48000B0B9B448AB
:1019F00008380068C0F3400020B1E068012801D039
:101A0000012063E7AE480838006820F0F80021693B
:101A100040EAC100AA490839086037E0E06800B32D
:101A20000120A8490860FFF759FD054606E0FFF7C9
:101A300055FD401B022801D9032047E7A04808387C
:101A40000068C0F340000028F1D09D4808380068C5
:101A500020F0F800216940EAC1009949083908607E
:101A600014E0002097490860FFF738FD054606E0BE
:101A7000FFF734FD401B022801D9032026E79048D8
:101A800008380068C0F340000028F1D1207800F049
:101A9000080008282CD16069A8B101208A49086093
:101AA000FFF71CFD054606E0FFF718FD401B022866
:101AB00001D903200AE782486C300068C0F3400077
:101AC0000028F1D014E000207F490860FFF706FDF0
:101AD000054606E0FFF702FD401B022801D903205E
:101AE000F4E677486C300068C0F340000028F1D17C
:101AF000207800F00400042870D1002770483830A6
:101B0000006800F0805090B900BF002000906C4841
:101B10003830006840F08050694938310860084624
:101B2000006800F08050009000BF00BF01276748A8
:101B3000006800F48070B0B96448006840F48070B8
:101B400062490860FFF7CAFC054606E0FFF7C6FCDD
:101B5000401B022801D90320B8E65C48006800F465
:101B600080700028F2D000BFA068012808D1544836
:101B70006830006840F001005149683108601DE09C
:101B8000A06805280DD14E486830006840F0040078
:101B90004B49683108600846006840F00100086061
:101BA0000CE047486830006820F001004449683183
:101BB00008600846006820F00400086000BFA068C4
:101BC000A8B1FFF78BFC054609E0FFF787FC401B37
:101BD00041F28831884202D9032077E626E038486E
:101BE00068300068C0F340000028EED013E0FFF733
:101BF00075FC054608E0FFF771FC401B41F2883197
:101C0000884201D9032061E62D4868300068C0F39E
:101C100040000028EFD1012F07D129483830006853
:101C200020F0805026493831086000BFA0690028A4
:101C300045D02348006800F00C0008285DD0A0695A
:101C4000022845D100201F490866FFF747FC0546DA
:101C500006E0FFF743FC401B022801D9032035E6CC
:101C6000174808380068C0F340600028F1D1D4E973
:101C700007010843616A40EA81110122A06AC2EBB0
:101C8000500041EA00412C20005D41EA00600C490F
:101C9000091F086001200B490866FFF71FFC054675
:101CA00006E0FFF71BFC401B022801D903200DE6CC
:101CB000034808380068C0F340600028F1D049E0CC
:101CC0000838024000004742800E47420070004042
:101CD000002021490866FFF701FC054606E0FFF7F2
:101CE000FDFB401B022801D90320EFE51B480068DB
:101CF000C0F340600028F2D12CE0A069012800D197
:101D0000E4E51648001D0668A069012820D006F405
:101D10008001E06981421BD106F03F01206A8142C7
:101D200016D147F6C0703040616AB0EB811F0FD109
:101D300006F440310122A06AC2EB5000B1EB004F23
:101D400006D106F070612C20005DB1EB006F01D070
:101D50000120BBE50020B9E5000047420038024001
:101D6000042808D14FF0E021096941F004014FF047
:101D7000E022116107E04FF0E021096921F0040140
:101D80004FF0E0221161704770B504462546681E89
:101D9000B0F1807F01D301200FE0681E4FF0E021F9
:101DA00048610F214FF0FF3000F0CAFD00204FF0D6
:101DB000E021886107200861002070BD10B504464D
:101DC0000CB9012010BD94F83D0028B9002084F81A
:101DD0003C00204600F025F8022084F83D00211D3B
:101DE000206800F011FB012084F8460000BF84F851
:101DF0003E0001213F200155402001554120015561
:101E000000BF00BF012084F8420043200155442058
:101E100001554520015500BF012084F83D000020F8
:101E2000D0E77047014691F83D00012801D001201C
:101E30007047022081F83D000868C06840F001004A
:101E40000B68D8601A4B086898421BD00868B0F13C
:101E5000804F17D0174B0868984213D0164B08686C
:101E600098420FD0154B086898420BD0144B086865
:101E7000984207D0134B0868984203D0124B086869
:101E800098420CD10868806800F00702062A0CD03E
:101E90000868006840F001000B68186005E00868F9
:101EA000006840F001000B6818600020C0E70000E7
:101EB000000001400004004000080040000C004009
:101EC0000004014000400140001800407047704786
:101ED00001460022002391F83D2091F83E3042EA6D
:101EE000030070472DE9F84F044620680568206814
:101EF000C668206847694FF00009CA4605F00F0917
:101F0000B9F1000F0AD105F0200038B106F0200029
:101F100020B1204600F019FBBDE8F88FB9F1000FA1
:101F200072D007F0010018B906F4907000286BD049
:101F300005F0010030B106F4807018B1206C40F05B
:101F40000100206405F0040030B107F0010018B171
:101F5000206C40F00200206405F0020030B107F070
:101F6000010018B1206C40F00400206405F0080066
:101F700048B106F0200010B907F0010018B1206C3C
:101F800040F008002064206C70B305F0200028B1F8
:101F900006F0200010B1204600F0D7FA2068406912
:101FA000C0F3801A206C00F0080010B9BAF1000FDD
:101FB00023D0204600F09EFA2068406900F04000DF
:101FC000402816D12068406920F04000216848610F
:101FD000A06B50B15648A16B0865A06BFFF75AF98A
:101FE00010B1A06B016D88470CE02046FFF76FFF32
:101FF00008E02046FFF76BFF04E02046FFF767FF8D
:102000000020206488E7FFE7206B012879D105F0E4
:102010001000002875D006F01000002871D000BF15
:1020200000200090206800680090206840680090C0
:1020300000BF00BF2068406900F04000402839D14F
:10204000A06B006840681FFA80F8B8F1000F30D02C
:10205000A08D40452DDDA4F82E80A06BC069B0F5A1
:10206000807F1FD02068C06820F480702168C8601D
:102070002068406920F001002168486120684069BB
:1020800020F0400021684861202084F83E000020B4
:1020900020632068C06820F010002168C860A06B31
:1020A000FFF7A3F8A08DE28D801A81B22046FFF7DA
:1020B0000DFF31E7A08DE18D401A1FFA80F8E08D09
:1020C000E8B1B8F1000F1AD02068C06820F4907011
:1020D0002168C8602068406920F0010021684861DB
:1020E000202084F83E00002020632068C06820F093
:1020F00010002168C86041462046FFF7E7FE0BE765
:10210000FFE705F0800030B106F0800018B12046EE
:1021100000F0B3FB00E705F0400030B106F04000EE
:1021200018B1204600F001FAF6E600BFF4E6000020
:10213000E124000810B504460CB9012010BDA069C7
:1021400000B100E000BF94F83D0028B9002084F8F9
:102150003C00204600F028F8242084F83D00206848
:10216000C06820F400502168C860204600F04CFA96
:102170002068006920F49040216808612068406967
:1021800020F02A00216848612068C06840F40050AF
:102190002168C86000202064202084F83D0084F875
:1021A0003E000020CAE7000010B586B004462E4964
:1021B0002068884255D100BF00BF002000902B4806
:1021C000006840F01000294908600846006800F0E7
:1021D0001000009000BF00BF00BF00BF00BF002084
:1021E000009022481438006840F001001F4914395B
:1021F00008600846006800F00100009000BF00BFC2
:1022000000BF00BF00BF002000900846006840F0FB
:10221000010008600846006800F00100009000BF5F
:1022200000BF00BF481501900220029001200390DA
:10223000022004900720059001A90D48FFF73EF801
:102240004FF4806001900720059001A90848FFF72E
:1022500035F82520FFF793F9032211462520FFF7D3
:102260009EF906B010BD0000001001404438024045
:102270000000024070B504460D46164694F83E0034
:10228000202816D105B10EB9012070BD00BF94F809
:102290003C00012801D10220F7E7012084F83C002E
:1022A00000BF0020206332462946204600F0C2FAD3
:1022B000EBE70220E9E700001D4A0168914236D1B0
:1022C0001C49098801F4004189BB1A49098801F4B5
:1022D000804171B1184909780A2903D00021154AB3
:1022E000118024E01349098841F40041114A11800A
:1022F0001DE0114909780D2906D10E49098841F4DC
:1023000080410C4A118012E00B490978094A128871
:10231000C2F30D02094B995406490988491C054A24
:10232000118011460988C72901DD002111807047FD
:10233000001001400C0000200E000020CC01002005
:10234000704700BFFEE7000000B587B01148124992
:1023500008601C2269461048001DFEF7BBF90320E7
:102360000D49486000210C488160C1604FF4C021D4
:1023700001614FF4A001416100210176417681762F
:102380000121C176002101774177FEF7E1FD07B019
:1023900000BD0000006400403803002000BFFEE7DD
:1023A00070477047704710B5FFF79EF810BD0000EA
:1023B0000348006840F4700001490860704700005D
:1023C00088ED00E010B50E480068C06800F001001C
:1023D00078B10C49086980470020094909684862BA
:1023E00000BF642006490968C86264210448C160CE
:1023F00000BF6FF0010002490968086110BD0000CC
:1024000094030020D800002010B50268294B9842A0
:102410000ED0B0F1804F0BD0274B984208D0274BFD
:10242000984205D0264B984202D0264B984203D1C1
:1024300022F070024B681A431E4B984220D0B0F134
:10244000804F1DD01C4B98421AD01C4B984217D07D
:102450001B4B984214D01B4B984211D01A4B9842F8
:102460000ED01A4B98420BD0194B984208D0194BFA
:10247000984205D0184B984202D0184B984203D18D
:1024800022F44072CB681A4322F080034C6943EA7D
:10249000040202608B68C3620B688362054B98423A
:1024A00002D0084B984201D10B69036301234361B9
:1024B00010BD000000000140000400400008004082
:1024C000000C004000040140004001400044014075
:1024D0000048014000180040001C0040002000405F
:1024E00070B50546AC6B0020E085E0842046FFF720
:1024F000EEFC70BD0168C96821F490710268D1607A
:102500000168496921F0010102685161016B0129EB
:1025100005D10168C96821F010010268D16020214D
:1025200080F83E1000210163704710B50446206812
:10253000C06820F040002168C860202084F83D0079
:102540002046FFF7FDFE002010BD70B5044694F84C
:102550003E00222856D1A068B0F5805F0CD12069DA
:1025600050B90025A66A20684068C0F30800308092
:10257000A06A801CA06215E0A56A0026A068B0F5DC
:10258000805F03D0A06828B9206918B92068406826
:10259000287004E02068406800F07F002870A06A7E
:1025A000401CA062E08D401E80B2E08540BB2068E8
:1025B000C06820F020002168C8602068C06820F44E
:1025C00080702168C8602068406920F0010021689F
:1025D0004861202084F83E00206B01280AD1206841
:1025E000C06820F010002168C860A18D2046FFF768
:1025F0006DFC02E02046FFF75FFE0020206370BD07
:102600000020FCE70220FAE72DE9F84F0446206895
:10261000006920F44050E16808432168086121699D
:10262000A068084361690843E16908430090206895
:10263000C06849F20C618843009908432168C8606A
:102640002068406920F44070A1690843216848610E
:1026500076492068884203D075492068884203D1B2
:10266000FFF7C8F8814602E0FFF7B4F88146E06959
:10267000B0F5004F6CD102206168A0FB0150034609
:102680001920A9FB007001462A463846FDF723FEB3
:102690006421B0FBF1F04FEA001A02206168A0FB50
:1026A00001510B461920A9FB00712A463846FDF757
:1026B00012FE834602206168A0FB015003461920E8
:1026C000A9FB00712A463846FDF705FE6421B0FBE0
:1026D000F1F000EBC00101EB0010ABEB8000322108
:1026E00001EBC0006421B0FBF1F000F0F8000AEB50
:1026F000400A02206168A0FB015003461920A9FB93
:10270000007001462A463846FDF7E5FD8346022063
:102710006168A0FB015003461920A9FB00712A46FD
:102720003846FDF7D8FD6421B0FBF1F000EBC001A5
:1027300001EB0010ABEB8000322101EBC000642103
:10274000B0FBF1F000F007005044216888606AE0B7
:1027500004206168A0FB015003461920A9FB00700A
:1027600001462A463846FDF7B6FD824604206168D8
:10277000A0FB015003461920A9FB007001462A4620
:102780003846FDF7A8FD6421B0FBF1F000EBC00175
:1027900001EB0010AAEB8000322101EB0010642154
:1027A000B0FBF1F000F0F00A04206168A0FB0170BA
:1027B00003461920A9FB00513A462846FDF78BFD38
:1027C0006421B0FBF1F00AEB001A04206168A0FB61
:1027D00001510B461920A9FB00712A463846FDF726
:1027E0007AFD834604206168A0FB0150034619204E
:1027F000A9FB007001462A463846FDF76CFD6421AE
:10280000B0FBF1F000EBC00101EB0010ABEB80007E
:10281000322101EB00106421B0FBF1F000F00F0059
:10282000504421688860BDE8F88F00000010014026
:102830000014014010B5034699629A85DA8500209C
:102840001864222083F83E0000BF002083F83C007B
:1028500000BF1868C06840F480701C68E0601868A9
:10286000406940F001001C6860611868C06840F071
:1028700020001C68E060002010BD014691F83D007A
:10288000212828D18868B0F5805F0BD1086948B944
:102890000A6A1088C0F308000B685860086A801C38
:1028A000086205E00B6A581C086218780B685860CB
:1028B000C88C401E80B2C88458B90868C06820F02F
:1028C00080000B68D8600868C06840F040000B6862
:1028D000D860002070470220FCE7000070B500249B
:1028E0000F4D1048FFF7FEFA00BF03E0641CAC4236
:1028F00000D904E00B48FFF7EBFA2028F6D100BF1F
:10290000002403E0641CAC4200D906E00122064921
:102910000448FFF7AFFC0028F4D100BF70BD0000F1
:10292000FFFF0100940200200E00002000BFFEE720
:1029300002480068C0F30220704700000CED00E080
:1029400010B5002804DB0A07130E054A135406E0ED
:102950000A07140E034A00F00F031B1FD45410BDC6
:1029600000E400E018ED00E030380A2801D2012030
:1029700070470020704700BF7047000070B50446E4
:102980000D46144804600020124948608860C86001
:102990000820086100211048FEF7EEF908B9002070
:1029A00070BD2B460B4A00210B48FEF7F9F908B120
:1029B0000020F5E707480068A04205D10548806877
:1029C00010B90448C06808B10020E9E70148007C5C
:1029D000E6E700007803002038030020F8B506463B
:1029E0000C4615460120009006F5A0700B490860C2
:1029F000002048608860C860084605616B46224632
:102A00000748FEF77BF808B10120F8BD00BF044875
:102A1000FEF783FA0328FAD10020F6E760030020CE
:102A20003803002010B504460420FFF799F9014847
:102A3000046010BD0400002070B504464FF4077018
:102A400094FBF0F594FBF0F100FB114603E007481E
:102A500000F00EF86D1E002DF9D12EB14FF47A71F1
:102A600006FB01F000F004F870BD0000603D0800B6
:102A700070B5034600224FF0E02675690D4E3668AA
:102A800003FB06F44FF0E026B16910E04FF0E026BA
:102A9000B06988420BD0884202D20E1A324402E05A
:102AA0002E1A0E4432440146A24200D300E0EDE764
:102AB00000BF70BD0400002000B585B00C20009060
:102AC000002001900220029069460248FEF7F6FBC2
:102AD00005B000BD0010024000BF054A126802F0B8
:102AE0004002002AF9D0C2B2014B5A607047000080
:102AF0000010014070B5044600260948058840884A
:102B000045430021084600F031FB00F05BFD00BFAB
:102B100002E004480480761CAE42FAD370BD000087
:102B2000280300208000006C10B5044649488471D9
:102B3000002C45D1F020474908804FF4A070488010
:102B40000846808845F21051884210D14FF4305029
:102B5000404908814FF4285048814FF42C50888117
:102B60004FF4F07008804FF4487048801AE03948FC
:102B7000808841F6631188420DD12C2035490881A7
:102B80002B2048812A2088814FF4F07008804FF470
:102B90004870488006E02C202E4908812A20488170
:102BA0002B2088812B48808845F2103188424CD1F7
:102BB0004FF4A070274908804FF4F070488044E03B
:102BC0004FF4A07023490880F02048800846808890
:102BD00045F21051884210D14FF430501D49088100
:102BE0004FF4285048814FF42C5088814FF448709E
:102BF00008804FF4F07048801AE01648808841F64B
:102C0000631188420DD12C20124908812A20488165
:102C10002B2088814FF4487008804FF4F070488072
:102C200006E02C200B4908812A2048812B2088812E
:102C30000848808845F21031884206D14FF4F07080
:102C4000044908804FF4A0704880002000F076F915
:102C500010BD0000280300202DE9F04706460F466E
:102C600090469A46002445460320A0EB480944E0DC
:102C70007A1B91B2321990B2524600F099F83A1B81
:102C800091B2721990B2524600F092F83A1991B28C
:102C9000721990B2524600F08BF87A1991B232193B
:102CA00090B2524600F084F87A1991B2321B90B279
:102CB000524600F07DF83A1991B2721B90B252461A
:102CC00000F076F87A1B91B2321B90B2524600F0B7
:102CD0006FF83A1B91B2721B90B2524600F068F83E
:102CE000641CB9F1000F03DAA000801D814404E0E8
:102CF000601B80000A3081446D1EAC42B8DDBDE827
:102D0000F0872DE9FF4F84B081468A46002002906B
:102D100083460698A0EB09050798A0EB0A06CDF8B4
:102D20000490CDF800A0002D01DD012705E00DB9CC
:102D3000002702E04FF0FF376D42002E02DD4FF01A
:102D4000010806E016B94FF0000802E04FF0FF3826
:102D50007642B54201DD2C4600E034460020039067
:102D60001EE0009A91B2019A90B2119A00F020F8F8
:102D7000029828440290B3440298A04205DD0298CC
:102D8000001B0290019838440190A34504DDABEB91
:102D9000040B0098404400900398401C80B20390BC
:102DA000611C03988842DCDD08B0BDE8F08F0000AC
:102DB00070B505460E4614463146284600F0D6F951
:102DC00000F000FC01490C8070BD00008000006C28
:102DD0002DE9F84105460E4617469846079C3346AE
:102DE0003A46314628460094FFF78BFF43462A4671
:102DF000314628460094FFF784FF43463A46414651
:102E000028460094FFF77DFF43463A463146384650
:102E10000094FFF776FFBDE8F88100002DE9F04F40
:102E200005460E4617469846DDF824A04FF0000BE5
:102E3000781B401C1FFA80FB344613E021462846CD
:102E400000F094F900F0BEFB4FF0000906E00749DE
:102E5000A1F800A009F101001FFA80F9D945F6DBBD
:102E6000601C84B24445E9DDBDE8F08F8000006C51
:102E700000BF011EA0F10100FBD1704710B5024652
:102E8000012000E050430B1EA1F10104E1B2F9D191
:102E900010BD000008B5034800880090BDF8000090
:102EA00008BD00008000006C2DE9F04105460E468B
:102EB00000240027A04620480088A84203DD1E48C1
:102EC0004088B04202DC0020BDE8F081314628464F
:102ED00000F04CF91848808845F21051884204D11E
:102EE0004FF4385000F062FB02E02E2000F05EFB51
:102EF000FFF7D0FF04461048808841F663118842EE
:102F000001D12046E0E70220FFF7B2FFFFF7C2FF42
:102F100004460220FFF7ACFFFFF7BCFF8046E7B294
:102F20004FF6FF7000EA0727E012C002B91240EA2C
:102F3000411040EAE820C7E728030020F0B5054625
:102F40000024002788488079012805D18648808898
:102F500041F66311884208D183488079F0B98248EC
:102F6000808841F66311884218D1082D15D2DFE818
:102F700005F00406080A0C0E101206250DE00725C0
:102F80000BE0042509E0052507E0012505E0002503
:102F900003E0032501E0022500BF00BF082D1CD27D
:102FA000DFE805F00406090C0F12151800BF14E045
:102FB00044F0800411E044F040040EE044F0C0040A
:102FC0000BE044F0200408E044F0600405E044F025
:102FD000A00402E044F0E00400BF00BF36276248CE
:102FE000808845F21051884200D13F025E488088B7
:102FF00049F24131884205D05B48808847F28971A7
:10300000884201D144F008042146384600F0E4FA31
:103010005548808841F6631188421DD004F0200095
:1030200068B15148008850494988884214DA4E48AE
:10303000068840884C490880084646800CE04A488B
:10304000008849494988884206DD47480688408803
:1030500045490880084646804348808845F210511B
:10306000884252D14049488900F0A0FA002000F07F
:1030700091FA3D494989491C88B200F097FA00202D
:1030800000F088FA38494989891C88B200F08EFA24
:1030900035490988491EC1F30F2000F07BFA3249F7
:1030A0004989C91C88B200F081FA2F490978491E64
:1030B000C8B200F06FFA2C49888900F077FA002036
:1030C00000F068FA28498989491C88B200F06EFA34
:1030D000002000F05FFA24498989891C88B200F039
:1030E00065FA21494988491EC1F30F2000F052FAC0
:1030F0001D498989C91C88B200F058FA1A49897893
:10310000491EC8B200F046FA2DE01749488900F080
:103110004DFA002000F03EFA002000F03BFA124980
:103120000988491EC1F30F2000F034FA0E490978CE
:10313000491EC8B200F02EFA0B49888900F036FA11
:10314000002000F027FA002000F024FA0649498800
:10315000491EC1F30F2000F01DFA03498978491E6A
:10316000C8B200F017FAF0BD2803002010B50246DF
:103170000C464548808841F66311884247D1424851
:103180008079A8B940480088401E801A82B23E4922
:10319000488900F00BFA002000F0FCF9002000F054
:1031A000F9F9101200F0F6F9D0B200F0F3F916E0D8
:1031B0003549488900F0FAF9101200F0EBF9D0B265
:1031C00000F0E8F930490988491EC1F30F2000F0EA
:1031D000E1F92D490978491EC8B200F0DBF92A4906
:1031E000888900F0E3F9201200F0D4F9E0B200F091
:1031F000D1F925494988491EC1F30F2000F0CAF9C9
:1032000021498978491EC8B200F0C4F93AE01E4845
:10321000808845F21051884220D11B49488900F02E
:10322000C5F9101200F0B6F917494989491C88B24E
:1032300000F0BCF9D0B200F0ADF91349888900F074
:10324000B5F9201200F0A6F90F498989491C88B206
:1032500000F0ACF9E0B200F09DF913E00A494889AA
:1032600000F0A4F9101200F095F9D0B200F092F934
:103270000549888900F09AF9201200F08BF9E0B234
:1032800000F088F910BD0000280300202DE9FC4F54
:1032900080460E4615461C46B3460020019000901D
:1032A0002046E31704EB5373DB1021464FEAE47C1E
:1032B00004EB5C7C4FEAEC0CA4EBCC0CBCF1000FF3
:1032C00002D04FF0010C01E04FF0000C63442246A5
:1032D00004EBD27C4FEA6C0C03FB0CF3DBB20193E2
:1032E000A5F12000C5B20C2C06D0102C0BD0182C48
:1032F0000ED0202C18D112E005EB45002D4901EB32
:103300008000009012E02C4800EB051000900DE0CA
:1033100005EBC500294901EB8000009006E0284834
:1033200000EB8510009001E0BDE8FC8F00BF002796
:103330003AE0009810F807904FF0000A2EE009F0EC
:10334000800028B1314640460C9AFFF731FD07E076
:103350000B9828B91B48314602684046FFF728FD04
:103360004FEA49604FEA1069701C86B216484088DF
:10337000B04200DCD8E7A6EB0B00A0420AD15E46C3
:1033800008F101001FFA80F80F480088404500DC72
:10339000CAE706E00AF1010000F0FF0ABAF1080FDF
:1033A000CDDB00BF781CC7B201988742C1DB00BFEC
:1033B000BAE70000E64900085A4E00084A540008DF
:1033C000A661000820000020280300202DE9FF4FFF
:1033D00083B0074691461E46DDE9105A0020029050
:1033E00000243AE0301B401EC1B20A20FFF746FD20
:1033F000B9FBF0F00A21B0FBF1F201FB12080298D0
:10340000B8B9701EA04214DDB8F1000F0FD1002032
:10341000AB4605EBDB71491001FB0471CDE9000AF5
:1034200088B22B4620220499FFF730FF13E00120D9
:1034300002900020AB4605EBDB71491001FB0471E3
:10344000CDE9000A88B208F13001CAB22B460499CE
:10345000FFF71CFF00BF601CC4B2B442C2DB07B060
:10346000BDE8F08F2DE9FC4F04460D469046994685
:10347000DDE90C7A0B9E04F0FF0B08EB04001FFA49
:1034800080F809EB05001FFA80F917E0444502DBDC
:103490005C46A81985B24D4500DB15E00020CDE95A
:1034A000000A3A78334629462046FFF7EFFE3046B9
:1034B00006EBD07104EB61018CB27F1C38787E285A
:1034C00002DC38782028E1DA00BFBDE8FC8F2DE966
:1034D000FF4F85B0064693461F46DDE91389129CCF
:1034E00000200490002550E0781B401EC1B20A2045
:1034F000FFF7C4FCBBFBF0F00A21B0FBF1F201FBCB
:10350000120A049860BB781EA84229DDBAF1000FA8
:1035100024D108F0800080B108F0010004EBD471E0
:10352000491001FB0561CDE90009039488B22346E7
:1035300030220699FFF7AAFE0FE008F0010004EB25
:10354000D471491001FB0561CDE90009039488B2EB
:10355000234620220699FFF799FE14E001200490EB
:1035600008F0010004EBD471491001FB0561CDE9BD
:103570000009039488B20AF13001CAB223460699C1
:10358000FFF784FE00BF681CC5B2BD42ACDB09B0CA
:10359000BDE8F08F01B5BDF800000090BDF8000057
:1035A0000149088008BD00008000006C01B5BDF82D
:1035B00000000090BDF800000149088008BD00002F
:1035C0007E00006C024800890249088070470000B4
:1035D000280300207E00006C034A10804FF0D84280
:1035E000A2F88010704700007E00006C00BF00BF92
:1035F00000BF00BFFDF784FF0723022208214FF41C
:10360000A87000F06FF8A820FFF70CFA4FF4E13033
:1036100000F0D6F81648416854208847FFF74CFA66
:10362000FDF7DEF913A0FCF7CDFE1FE01420FFF735
:1036300003FA04211448FDF743FF04460821124809
:10364000FDF73EFF0546012C03D110A0FCF7BAFEA2
:1036500002E013A0FCF7B6FE012D03D115A0FCF784
:10366000B1FE02E018A0FCF7ADFE00BFDEE70000EF
:10367000D80000200D0A2073746172742074657381
:1036800074200D0A00000000001002400D0A2050B6
:10369000494E322069732068696768200D0A00006E
:1036A0000D0A2050494E32206973206C6F77200D2F
:1036B0000A0000000D0A2050494E3320697320682B
:1036C000696768200D0A00000D0A2050494E33201A
:1036D0006973206C6F77200D0A00000001460868AE
:1036E000704700002DE9F04192B080460C46154627
:1036F0001E460027302106A8FDF71EF8142101A858
:10370000FDF71AF800BF002000902A48006840F03A
:103710008050284908600846006800F080500090FA
:1037200000BF00BF00BF002000902348006840F4A5
:103730008040214908600846006800F480400090FD
:1037400000BF00BF012006900004079002200C90EB
:1037500041050D91CDF83C800E941095119606A868
:10376000FEF7B0F807461FB1012012B0BDE8F081A6
:103770000F20019002200290002003904FF4A050EF
:1037800004904FF480500590052101A8FDF75AFFE1
:1037900007460FB10120E8E7FDF79AFE41F201016B
:1037A000884205D10548006840F4807003490860EC
:1037B0000020DAE74038024000700040003C024040
:1037C00010B5044609480A490860084644600021CB
:1037D0008160C160016181610C214161FEF7AAFC39
:1037E000012204490248FEF745FD10BD00100140CA
:1037F000940200200E00002030B595B0054613ABB2
:1038000012AA09A9284600F03FFA044614B120463E
:1038100015B030BD0020149026E0224909689DF8BB
:10382000502001EBC20113AB11AA486801A900F0B6
:103830002BFA04460CB12046EAE709A901A800F0DA
:10384000AFFC60B99DF844009DF84810884201DD46
:103850000220DDE79DF85000124988750AE09DF8C6
:103860005000401CC0B214900E48007D9DF85010CE
:103870008842D2DC00BF0B48007D9DF85010884282
:1038800001D10420C4E714A9284600F0DDFA04465B
:103890000CB12046BCE79DF8500002494875002055
:1038A000B6E70000D80000202DE9F0419AB09C480E
:1038B000847D007DA04202DC1AB0BDE8F081984909
:1038C000096801EBC40106AB07AA486808A900F023
:1038D000DBF908A993A0FCF775FD002644E09048A9
:1038E000008B0121B1400840D8B122218FA0FCF704
:1038F00069FD304600F042FB8949243147183946BA
:103900008BA0FCF75FFD222188A0FCF75BFD304611
:1039100000F034FB82492431084410A941F8260004
:1039200018E0304600F02AFB7D492431085810A9E0
:1039300041F826007A48C07D30B910A850F826100A
:103940007CA0FCF73FFD05E010A850F826107AA0F7
:10395000FCF738FD9DF81C00401EB04202D078A054
:10396000FCF730FD701CC6B29DF81C008642B6DB29
:1039700074A0FCF727FD01F009F86948407D0B2889
:103980000DD2DFE800F0060D151E27323F4E5F72A4
:1039900087006349096851F834008047054690E084
:1039A0005F4A126852F8341010988847054688E03C
:1039B0005B4B1B6853F83420DDE910019047054646
:1039C0007FE0574F3F6857F8343010A807C8984732
:1039D000054676E0DFF848C1DCF800C05CF83470DA
:1039E00010A80FC8B84705466BE01498DFF830C13F
:1039F0000090DCF800C05CF8347010A80FC8B8471D
:103A000005465EE0DDE91401DFF814C1CDE90001EF
:103A1000DCF800C05CF8347010A80FC8B847054641
:103A20004FE0DDE914121698DFF8F4C0CDE900127A
:103A30000290DCF800C05CF8347010A80FC8B847DA
:103A400005463EE0DDE91423DDE91610DFF8D0C0BD
:103A5000CDE90023CDE90210DCF800C05CF8347039
:103A600010A80FC8B84705462BE0DDE91523DDE9AE
:103A70001710CDE90123CDE903101498DFF8A0C099
:103A80000090DCF800C05CF8347010A80FC8B8478C
:103A9000054616E0DDE91623DDE91810CDE902231D
:103AA000CDE90410DDE91401DFF874C0CDE90001AF
:103AB000DCF800C05CF8347010A80FC8B8470546A1
:103AC00000BF00BF00F00EFF9DF8180001280CD1C8
:103AD0001348C07D20B929461BA0FCF773FC07E002
:103AE00029461BA0FCF76EFC02E018A0FCF76AFC5C
:103AF0000B4890F8EC0088B10948D0F8F0000A2192
:103B0000B0FBF1F201FB12070548D0F8F000B0FB62
:103B1000F1F83A46414611A0FCF754FC00BFCBE651
:103B2000D80000200D0A257328000000256300003E
:103B300025730000256C64003058255800000000F3
:103B40002C000000290000003D256C753B0D0A008B
:103B50003D305825583B0D0A0000000046756E6345
:103B600074696F6E2052756E2054696D653A2564D4
:103B70002E2531646D730D0A00000000F0B5034678
:103B8000154600200022002600245BE01F782C2F21
:103B900001D104B901221F78292F01D01F780FB954
:103BA00004B950E0002E3AD11F78302F02DB1F7885
:103BB000392F17DD1F782D2F14D01F782B2F11D000
:103BC0001F78612F02DB1F78662F0BDD1F78412FD6
:103BD00002DB1F78462F05DD1F78582F02D01F7893
:103BE000782F0CD102B12EE01F78612F03DB1F78F4
:103BF000203F0F7001E01F780F70491C1FE01F78F5
:103C0000222F04D102B11EE00126012417E01F7803
:103C1000202F14D01F782C2F11D0FF2613E01F78EF
:103C2000222F00D1002402B10DE044B11F785C2F97
:103C300002D15B1C471CF8B21F780F70491C471C4F
:103C4000F8B25B1CA2E700BF00270F702E70F0BD1A
:103C500010B50446002010700BE020780870641C3A
:103C6000491C1078401C10701078984201DB01202C
:103C700010BD2078202802D020780028EDD1002027
:103C8000087000BFF4E700002DE9FF4F85B08046C3
:103C900089460027002004900390012002904FF0F5
:103CA000000B002544461DE02078202816D005F0A2
:103CB0007F00052812DA0DB945F0800505F07F0078
:103CC000042803D120782A2800D00EE0207805F0BF
:103CD0007F010DF80100681CC5B202E0852D00D1FE
:103CE00003E0641C20780028DED100BF8DB10020E5
:103CF00005F07F010DF8010051A1684600F050FA6F
:103D000018B900210898017002E00121089801709B
:103D100000254FF0000A444614E0641C0AF101003B
:103D200000F0FF0A2078202802D020782A2809D124
:103D3000204600F0A7F90646282E03D02A2E01D0EF
:103D4000CDF810A02078282802D020780028E4D1CF
:103D50004446049810B10498401C04444FF0000AF3
:103D6000002654E0207810B94FF0010A50E0207886
:103D7000282803D116B9781CC7B213E02078292867
:103D800008D13EB917B1781EC7B201E04FF0010A61
:103D900047B93DE02078222804D10EB9012000E087
:103DA0000020064647B9207820282FD0207889F8AF
:103DB000000009F1010929E020782C2804D1012014
:103DC0000290681CC5B214E02078202811D0207819
:103DD00028280ED04DB9BBF1050F06DA20780DF872
:103DE0000B000BF1010000F0FF0B0298401CC0B269
:103DF0000290012F0AD10298022807D10298401C94
:103E0000C0B202900398401CC0B20390641CA9E7A2
:103E100000BF0398012809D100200DF80B0008A16C
:103E2000684600F0BDF908B900200390079903988F
:103E30000870002089F80000504609B0BDE8F08FF6
:103E4000766F6964000000002DE9F043B5B00546C7
:103E50000F460024002604E000213D488155701CD7
:103E6000C6B20A2EF8DB06E06D1C287818B90120CE
:103E700035B0BDE8F08328782828F5D16D1C61E0C5
:103E800034AA69462846FFF779FE064635449DF870
:103E9000D00020B1012827D0FF284CD149E09DF85F
:103EA000000000B333A9684600F0F7F806460EB1EB
:103EB0000220DDE7204600F061F825490A31339AF7
:103EC0000A50A1F12400008B0121A1408843204920
:103ED0001A39088304211E480155601CC4B20A2CFB
:103EE00001DD0320C4E726E0684600F075F9401CB8
:103EF00000F0FF08204600F041F815490A3100EBB8
:103F000001094946684600F05CF911481A38018BEE
:103F10000120A040014388B20D491A3908830C489A
:103F200000F80480601CC4B20A2C01DD03209FE766
:103F300001E002209CE700BF2878292801D02878DA
:103F400000B900E09CE700BF3C70002090E7000053
:103F5000F20000200020074A128802F400423AB121
:103F6000044A11780022044B5A541846014B1A8017
:103F7000704700000C000020CC0100200246002009
:103F8000002105E0044B5B5C0344D8B24B1CD9B262
:103F90009142F7DB70470000F200002010B50446A4
:103FA00004EBC40000EB04100122C2EB800081B2DC
:103FB0004FF47A7000F0B8FC01200149C87510BDBB
:103FC000D800002010B50246012000E050430B1E2F
:103FD000A1F10104E1B2F9D110BD000070B50026D5
:103FE000FFF7B8FF064606B970BD1748816830462E
:103FF000884704461CB91449C868804721E0304608
:1040000000F0F6F80546012D00D02C46CCB1012C6D
:1040100006D0022C08D0032C0AD0042C10D10BE0BF
:104020000AA0FCF7CFF90BE00BA0FCF7CBF907E0F7
:104030000CA0FCF7C7F903E00DA0FCF7C3F900BF23
:1040400000BF00BFD0E70000D8000020BAAFCAFD13
:10405000B4EDCEF3210D0A00B2CECAFDB4EDCEF31D
:10406000210D0A00B2CECAFDCCABB6E0210D0A008C
:10407000CEB4D5D2B5BDC6A5C5E4B5C4BAAFCAFDE8
:10408000210D0A000146491C00E0491C087820283F
:1040900001D10029F9D1087870472DE9F04F054684
:1040A0000F4600264FF00A09B3462C460020386020
:1040B00034E02078392802DC2078302811DA28789A
:1040C0002D2802D028782B2800D156B120784628F8
:1040D00002DC2078412804DA2078582817D1012EF4
:1040E00015D12078412801DB4FF0100928782D28C0
:1040F00003D14FF0020B6D1C0FE028782B2803D161
:104100004FF0010B6D1C08E0701CC6B205E0207872
:1041100000B904E00120BDE8F08F641CC9E700BFCE
:104120002C46B9F1100F0FD1032E01DA0220F2E76D
:104130002078302806D16078582803D1A41CB01EFE
:10414000C6B204E00320E6E70EB90420E3E71BE073
:104150000EB1701EC6B22078392806DC20783028CF
:1041600003DB2078A0F1300A02E02078A0F1370AC2
:1041700031464846FFF726FF39680AFB00103860D1
:10418000641C207800B900E0E2E700BFBBF1020F39
:1041900004D13868C0F10008C7F800800020BAE7F1
:1041A00002460AE010780B78984201D0012070474F
:1041B000107800B902E0521C491CF3E700BF002050
:1041C000F5E706E002780A70027802B902E0401CC6
:1041D000491CF7E700BF70470146002005E00A7858
:1041E00002B903E0421CD0B2491CF8E700BF704797
:1041F00010B58CB004461E230BAA03A92046FFF776
:1042000027FD0090009810B101200CB010BD9DF862
:104210002C00044400200B900EE040489DF82C2018
:1042200050F8221003A8FFF7BBFF00B908E09DF883
:104230002C00401CC0B20B909DF82C000728ECD33A
:1042400000BF9DF82C00072863D2DFE800F00405CA
:104250003C5E6564630000BF31A0FCF7B3F831A099
:10426000FCF7B0F83FA0FCF7ADF84EA0FCF7AAF8B9
:104270005CA0FCF7A7F86BA0FCF7A4F879A0FCF70A
:10428000A1F887A0FCF79EF88CA0FCF79BF894A0FF
:10429000FCF798F898A0FCF795F89DA0FCF792F829
:1042A000A2A0FCF78FF8A8A0FCF78CF8B4A0FCF74C
:1042B00089F8C1A0FCF786F8CCA0FCF783F8D8A059
:1042C000FCF780F8A2E216A0FCF77CF8E4A0FCF76B
:1042D00079F800200B900EE0F14800689DF82C2042
:1042E00000EBC2004168EFA0FCF76CF89DF82C00D1
:1042F000401CC0B20B90EA48007D9DF82C1088420B
:10430000EADC07A0FCF75EF880E205A0FCF75AF8AB
:10431000CCE179E24DE221E2F4E100003C00002032
:104320000D0A00002D2D2D2D2D2D2D2D2D2D2D2D5A
:104330002D2D2D2D2D2D2D2D2D2D2D2D55534D412B
:1043400052542056332E352D2D2D2D2D2D2D2D2D26
:104350002D2D2D2D2D2D2D2D2D2D2D2D2D2D2D209A
:104360000D0A00002020202055534D415254CAC749
:10437000D3C9414C49454E54454BBFAAB7A2B5C419
:10438000D2BBB8F6C1E9C7C9B5C4B4AEBFDAB5F798
:10439000CAD4BBA5BDBBD7E9BCFE2CCDA8B9FD20B6
:1043A0000D0A0000CBFC2CC4E3BFC9D2D4CDA8B900
:1043B000FDB4AEBFDAD6FACAD6B5F7D3C3B3CCD004
:1043C000F2C0EFC3E6B5C4C8CEBACEBAAFCAFD2CB0
:1043D000B2A2D6B4D0D02ED2F2B4CB2CC4E3BFC993
:1043E0000D0A0000D2D4CBE6D2E2B8FCB8C4BAAF12
:1043F000CAFDB5C4CAE4C8EBB2CECAFD28D6A7B37D
:10440000D6CAFDD7D62831302F3136BDF8D6C62CC6
:10441000D6A7B3D6B8BACAFD29A1A2D7D6B7FBB4DE
:10442000AE0D0A00A1A2BAAFCAFDC8EBBFDAB5D87B
:10443000D6B7B5C8D7F7CEAAB2CECAFD292CB5A536
:10444000B8F6BAAFCAFDD7EEB6E0D6A7B3D63130CC
:10445000B8F6CAE4C8EBB2CECAFD2CB2A2D6A7B356
:10446000D60D0A00BAAFCAFDB7B5BBD8D6B5CFD402
:10447000CABE2ED6A7B3D6B2CECAFDCFD4CABEBD51
:10448000F8D6C6C9E8D6C3B9A6C4DC2CD6A7B3D61D
:10449000BDF8D6C6D7AABBBBB9A6C4DC2E0D0A0090
:1044A000BCBCCAF5D6A7B3D63A7777772E6F7065BE
:1044B0006E6564762E636F6D0D0A000055534D4195
:1044C0005254D3D037B8F6CFB5CDB3C3FCC1EE2824
:1044D000B1D8D0EBD0A1D0B4293A0D0A0000000029
:1044E0003F3A202020202020BBF1C8A1B0EFD6FA0F
:1044F000D0C5CFA20D0A000068656C703A2020205C
:10450000BBF1C8A1B0EFD6FAD0C5CFA20D0A00000A
:104510006C6973743A202020BFC9D3C3B5C4BAAF45
:10452000CAFDC1D0B1ED0D0A0A00000069643A204D
:1045300020202020BFC9D3C3BAAFCAFDB5C44944A7
:10454000C1D0B1ED0D0A0A006865783A202020201C
:10455000B2CECAFD3136BDF8D6C6CFD4CABE2CBA4B
:10456000F3B8FABFD5B8F12BCAFDD7D6BCB4D6B4D0
:10457000D0D0BDF8D6C6D7AABBBB0D0A0A00000032
:104580006465633A20202020B2CECAFD3130BDF8E8
:10459000D6C6CFD4CABE2CBAF3B8FABFD5B8F12B61
:1045A000CAFDD7D6BCB4D6B4D0D0BDF8D6C6D7AA2B
:1045B000BBBB0D0A0A00000072756E74696D653A26
:1045C000312CBFAAC6F4BAAFCAFDD4CBD0D0BCC67A
:1045D000CAB13B302CB9D8B1D5BAAFCAFDD4CBD013
:1045E000D0BCC6CAB13B0D0A0A000000C7EBB0B48C
:1045F000D5D5B3CCD0F2B1E0D0B4B8F1CABDCAE4DD
:10460000C8EBBAAFCAFDC3FBBCB0B2CECAFDB2A202
:10461000D2D4BBD8B3B5BCFCBDE1CAF82E0D0A009C
:104620002D2D2D2D2D2D2D2D2D2D2D2D2D2D2D2DBA
:104630002D2D2D2D2D2D2D2D2D2DD5FDB5E3D4ADCD
:10464000D7D32D2D2D2D2D2D2D2D2D2D2D2D2D2D4A
:104650002D2D2D2D2D2D2D2D2D2D2D200D0A000034
:104660002D2D2D2D2D2D2D2D2D2D2D2D2D2D2D2D7A
:104670002D2D2D2D2D2D2D2D2DBAAFCAFDC7E5B514
:10468000A52D2D2D2D2D2D2D2D2D2D2D2D2D2D2DE2
:104690002D2D2D2D2D2D2D2D2D2D2D2D200D0A00C7
:1046A000D800002025730D0A0000000059A0FBF778
:1046B00089FE00200B901AE0664909689DF82C20BD
:1046C00001EBC20101AB02AA486803A9FFF7DCFABB
:1046D000604800689DF82C1050F8312003A95EA0B6
:1046E000FBF770FE9DF82C00401CC0B20B9059489F
:1046F000007D9DF82C108842DEDCAFF2DC30FBF749
:1047000061FE83E0AFF2E830FBF75CFE0BAA03A981
:104710002046FFF733FA9DF82C00C8B9694603A874
:10472000FFF7BBFC0B909DF82C0020B94FA000991F
:10473000FBF748FE0EE09DF82C00042801D0022073
:1047400063E54DA0FBF73EFE01204249C87501E03C
:1047500002205AE547A0FBF735FE57E045A0FBF7DE
:1047600031FE0BAA03A92046FFF708FA9DF82C009A
:10477000C8B9694603A8FFF790FC0B909DF82C0080
:1047800020B942A00099FBF71DFE0EE09DF82C0019
:10479000042801D0022038E53FA0FBF713FE0020DB
:1047A0002C49C87501E002202FE532A0FBF70AFE74
:1047B0002CE030A0FBF706FE0BAA03A92046FFF76A
:1047C000DDF99DF82C00C8B9694603A8FFF765FC20
:1047D0000B909DF82C0078B91E49009881F8EC00E8
:1047E000084690F8EC0018B130A0FBF7EBFD07E0AD
:1047F00035A0FBF7E7FD03E0022006E5022004E513
:104800001CA0FBF7DFFD01E00120FEE400BF00205B
:10481000FBE400002D2D2D2D2D2D2D2D2D2D2D2D9D
:104820002D2D2D2D2D2D2D2D2D2D2D2D2DBAAFCA0C
:10483000FD204944202D2D2D2D2D2D2D2D2D2D2DBF
:104840002D2D2D2D2D2D2D2D2D2D2D2D2D2D2D2D98
:10485000200D0A00D80000202573206964206973A8
:104860003A0D0A3058253038580D0A004845583A54
:10487000305825580D0A00003136BDF8D6C6B2CEE4
:10488000CAFDCFD4CABE210D0A0000004445433AF8
:10489000256C750D0A0000003130BDF8D6C6B2CEC9
:1048A000CAFDCFD4CABE210D0A00000052756E2089
:1048B00054696D652043616C63756C6174696F6EDA
:1048C000204F4E0D0A00000052756E2054696D6530
:1048D0002043616C63756C6174696F6E204F46464E
:1048E0000D0A00000E480068006900F0010040B1A8
:1048F0000C48D0F8F0004FF6FF7108440949C1F8A0
:10490000F0000848D0F8F00005490968496A0844F1
:104910000449C1F8F0000846D0F8F00070470000E4
:1049200094030020D800002038B505460C4600BF8F
:1049300000BF002000901248006840F004001049B9
:1049400008600846006800F00400009000BF00BF47
:1049500000BF0C480C490860084644600021816093
:10496000C5600161FDF72AFA0748FDF75BFA0322EB
:1049700011461E20FCF713FE1E20FCF700FE38BD7A
:104980004038024000080040940300206FF001000E
:1049900009490968086100BF000C07490968C86235
:1049A00001460548C16000BF00200349096848620C
:1049B0000249C1F8F000704794030020D80000209D
:1049C000016070474FF04070E1EE100A7047000040
:1049D00000000000000001020304060708090000AF
:1049E00000000102030400000000000000000000BD
:1049F0000000000000003F40000000000000000038
:104A00003000400030004000000009000BC03D00B5
:104A10000BC03D00090018C024407FE022403180D7
:104A20000000180024C01B000D803240018003806C
:104A30001C4027401C800740004010006000000020
:104A40000000000000000000000000001F80204067
:104A500040200000402020401F800000000009008E
:104A600006001F80060009000000040004003F80CB
:104A700004000400000000100060000000000000BE
:104A80000000040004000400040004000000000012
:104A900000400000000000000000002001C00600EF
:104AA0003800400000001F802040204020401F8030
:104AB0000000000010403FC000400000000018C08F
:104AC0002140224024401840000010802040244013
:104AD00024401B80000002000D0011003FC0014077
:104AE00000003C80244024402440238000001F809C
:104AF000244024403440038000003000200027C0C0
:104B00003800200000001B802440244024401B80EB
:104B100000001C0022C0224022401F800000000034
:104B200000000840000000000000000000000460D9
:104B3000000000000000000004000A0011002080B6
:104B400040400900090009000900090000000000B8
:104B50004040208011000A0004001800200023407B
:104B60002400180000001F802040274029401F40DB
:104B70000000004007C039000F0001C00040204085
:104B80003FC0244024401B8000001F802040204064
:104B900020403080000020403FC0204020401F8047
:104BA000000020403FC024402E4030C00000204084
:104BB0003FC024402E00300000000F001080204035
:104BC00022403380020020403FC0040004003FC068
:104BD0002040204020403FC0204020400000006096
:104BE000202020203FC02000200020403FC0244043
:104BF0000B0030C0204020403FC02040004000401B
:104C000000C03FC03C0003C03C003FC0000020404B
:104C10003FC00C4023003FC020001F8020402040A8
:104C200020401F80000020403FC024402400180086
:104C300000001F802140214020E01FA000002040F4
:104C40003FC02440260019C0004018C02440244022
:104C5000224031800000300020403FC02040300022
:104C6000000020003F80004000403F8020002000E6
:104C70003E0001C0070038002000380007C03C009B
:104C800007C038000000204039C0060039C020406D
:104C900000002000384007C03840200000003040AD
:104CA00021C02640384020C00000000000007FE006
:104CB000402040200000000070000C0003800040F5
:104CC00000000000402040207FE0000000000000C5
:104CD0002000400020000000000000100010001024
:104CE0000010001000100000000040000000000054
:104CF0000000000002800540054003C00040200085
:104D00003FC00440044003800000000003800440D2
:104D100004400640000000000380044024403FC0DF
:104D200000400000038005400540034000000000F3
:104D300004401FC0244024402000000002E0055031
:104D400005500650042020403FC00440040003C02A
:104D500000400000044027C0004000000000001098
:104D60000010041027E00000000020403FC0014078
:104D7000070004C00440204020403FC000400040E5
:104D8000000007C0040007C0040003C00000044086
:104D900007C00440040003C000400000038004403A
:104DA000044003800000041007F004500440038016
:104DB0000000000003800440045007F0001004408D
:104DC00007C0024004000400000000000640054047
:104DD000054004C00000000004001F8004400040A3
:104DE0000000040007800040044007C000400400A9
:104DF000070004C0018006000400060001C007008F
:104E000001C006000000044006C0010006C00440C6
:104E100000000410071004E00180060004000000F8
:104E2000044005C0064004400000000000000400EB
:104E30007BE040200000000000000000FFF00000C8
:104E40000000000040207BE0040000000000400063
:104E50008000400020002000400000000000000012
:104E60000000000000000000000000000000000042
:104E70001FCC000C00000000000000000800300003
:104E800060000800300060000000022003FC1E20CB
:104E9000022003FC1E200220000000000E18110456
:104EA0003FFF10840C78000000000F0010840F38C2
:104EB00000C0077818840078000000780F8410C4C0
:104EC00011240E9800E400840008080068007000B7
:104ED00000000000000000000000000000000000D2
:104EE00007E01818200440020000000040022004DF
:104EF000181807E000000000000002400240018096
:104F00000FF001800240024000000080008000801D
:104F10000FF800800080008000000001000D000EEE
:104F20000000000000000000000000000080008081
:104F3000008000800080008000800000000C000CD9
:104F40000000000000000000000000000006001843
:104F500000600180060018002000000007F008082B
:104F600010041004080807F00000000008040804FA
:104F70001FFC000400040000000000000E0C1014D0
:104F80001024104411840E0C000000000C181004B2
:104F90001104110412880C700000000000E00320CE
:104FA000042408241FFC0024000000001F98108423
:104FB00011041104108810700000000007F0088828
:104FC0001104110418880070000000001C0010007B
:104FD00010FC13001C001000000000000E381144EB
:104FE0001084108411440E38000000000700088C63
:104FF00010441044088807F0000000000000000082
:10500000030C030C00000000000000000000000181
:1050100001060000000000000000000000800140C8
:1050200002200410080810040000022002200220C0
:1050300002200220022002200000000010040808C4
:105040000410022001400080000000000E00120049
:10505000100C106C10800F00000003E00C1813E41B
:10506000142417C4082807D000000004003C03C41F
:105070001C40074000E4001C000410041FFC110445
:10508000110411040E880070000003E00C181004D5
:105090001004100410081C10000010041FFC100461
:1050A00010041004080807F0000010041FFC11048D
:1050B000110417C410040818000010041FFC110488
:1050C000110017C010000800000003E00C181004C5
:1050D000100410441C780040000010041FFC1084D1
:1050E0000080008010841FFC1004000010041004D5
:1050F0001FFC100410040000000000030001100158
:1051000010011FFE10001000000010041FFC11040D
:1051100003801464181C1004000010041FFC100409
:10512000000400040004000C000010041FFC1F0019
:1051300000FC1F001FFC1004000010041FFC0C04E6
:10514000030000E010181FFC100007F0080810040E
:1051500010041004080807F0000010041FFC10845D
:105160001080108010800F00000007F00818102435
:105170001024101C080A07F2000010041FFC110480
:10518000110011C011300E0C000400000E1C11049F
:105190001084108410441C38000018001000100403
:1051A0001FFC100410001800000010001FF810046D
:1051B0000004000410041FF8100010001E0011E08D
:1051C000001C007013801C0010001FC0103C00E089
:1051D0001F0000E0103C1FC000001004180C163423
:1051E00001C001C01634180C100410001C00130478
:1051F00000FC13041C00100000000804101C1064C4
:10520000108413041C0410180000000000000000AB
:105210007FFE4002400240020000000030000C000F
:1052200003800060001C00030000000040024002F8
:1052300040027FFE0000000000000000000020008F
:10524000400040004000200000000001000100017B
:1052500000010001000100010001000040004000C9
:105260002000000000000000000000000098012461
:1052700001440144014400FC000410001FFC0088AC
:105280000104010400880070000000000070008824
:10529000010401040104008800000000007000887F
:1052A0000104010411081FFC0004000000F801447F
:1052B00001440144014400C800000000010401044D
:1052C0000FFC1104110411001800000000D6012980
:1052D0000129012901C90106000010041FFC0084F6
:1052E00001000100010400FC000400000104190495
:1052F00019FC00040004000000000000000300018D
:105300000101190119FE0000000010041FFC002417
:10531000004001B4010C010400000000100410045E
:105320001FFC0004000400000000010401FC010453
:10533000010001FC0104010000FC010401FC0084E7
:1053400001000100010400FC0004000000F8010459
:1053500001040104010400F80000010101FF0085BF
:105360000104010400880070000000000070008843
:1053700001040104010501FF00010104010401FC15
:1053800000840104010001800000000000CC012421
:105390000124012401240198000000000100010003
:1053A00007F80104010400000000010001F80004F6
:1053B00000040004010801FC0004010001800170E8
:1053C000000C001001600180010001F0010C0030B0
:1053D00001C00030010C01F0010000000104018C4B
:1053E00000740170018C0104000001010181017150
:1053F000000E001801600180010000000184010C12
:10540000013401440184010C000000000000000090
:10541000000001003EFC40024002000000000000CD
:105420000000FFFF000000000000000040024002FA
:105430003EFC010000000000000000006000800051
:10544000800040004000200020000000000000001C
:10545000000000000000000000000000000000004C
:10546000000000000000000000000000000000003C
:10547000000000000000000000000000000F803865
:105480000FFE380F80380000000000000000000010
:1054900000000000000000000100000600000C00F9
:1054A000003800003100000600000C000038000049
:1054B0003000000000000000000061800067F80775
:1054C000F980006180006180006180006180006778
:1054D000F807F98000618000000000000000000073
:1054E00001C0E003E0F00630080418081FFFFE04C6
:1054F0000E080787F00381E000000000000001F0C3
:1055000000060C00040408060C7001F9C0000E002F
:10551000003BE000EC18070808040C180003E0004A
:1055200000000001E00007F003F818041C0804174D
:105530000807E1D003C0E00023B0003C08002008C9
:1055400000001000000000000001000031000032E7
:1055500000001C000000000000000000000000002F
:10556000000000000000000000000000000000003B
:10557000000000000000000000007F0001FFC007E5
:1055800080F00C0018100004200002000000000051
:10559000002000021000040C00180780F001FFC07A
:1055A000007F00000000000000000000000000007C
:1055B0000000000000004200006600006600003CA1
:1055C0000000180003FFC0001800003C0000660047
:1055D0000066000042000000000008000008000013
:1055E000080000080000080001FFC00008000008D3
:1055F0000000080000080000080000000000000192
:1056000000003100003200001C000000000000001B
:10561000000000000000000000000000000000008A
:105620000000080000080000080000080000080052
:105630000008000008000008000008000008000042
:1056400000000000000000000000380000380000EA
:105650003800000000000000000000000000000012
:1056600000000000000000000000000600001C0018
:105670000070000180000E0000380000C00007002C
:10568000001C0000300000000000000000007F80CF
:1056900001FFE003807006001804000804000806FB
:1056A000001803807001FFE0007F80000000000010
:1056B0000000000001000801000801000803FFF8D5
:1056C00007FFF800000800000800000800000000C4
:1056D000000000000001C03802C058040098040116
:1056E00018040218040418061C1803F81801E0F83E
:1056F00000000000000000000001C0E003C0F00452
:10570000000804080804080806180803F41801E74C
:10571000F00001E0000000000000000000000300B5
:10572000000D00001100006100008108030108075E
:10573000FFF80FFFF800010800010800000000005A
:10574000000000E007FCD006080806100806100854
:10575000061008061838060FF00607C00000000003
:105760000000000000003F8001FFE00384300208D9
:1057700018041008041008041008071810030FF08C
:105780000007C000000000000000000003C0000788
:1057900000000600000600F80607F806180006E0FC
:1057A0000007000006000000000000000001E1E02A
:1057B00003F7F0063410041808041808040C080451
:1057C0000C0806161803F3F001C1E0000000000009
:1057D0000000F80003FC3003063804020804020845
:1057E0000402080404100308F001FFC0007F000059
:1057F00000000000000000000000000000000000A9
:1058000000007038007038007038000000000000A0
:105810000000000000000000000000000000000088
:10582000000000000000301A00301C0000000000E2
:105830000000000000000000000000000000000068
:1058400000080000140000220000410000808001D8
:1058500000400200200400100800080000000000C2
:105860000000210000210000210000210000210093
:105870000021000021000021000021000021000083
:1058800000000000000000000800080400100200F2
:105890002001004000808000410000220000140030
:1058A00000080000000000000003C00004C0000465
:1058B0000000080038080F380808380810000C30BD
:1058C0000007E00003C000000000000000003F806F
:1058D00000FFE0038070020F1006708804C0880487
:1058E0008308047F8802C09003012000FE4000006E
:1058F000080000180001F8003E0801C2000702007D
:1059000007E20000FE00001FC80001F80000380098
:10591000000804000807FFF807FFF8040808040857
:105920000804080804080806180803F41801E7F03A
:105930000001E0000000000000003F8001FFE003E4
:105940008070020018040008040008040008040025
:10595000100600200780C000000004000807FFF8C0
:1059600007FFF804000804000804000804001802F7
:10597000001003807001FFE0007F80000000040041
:105980000807FFF807FFF8040808040808040808D7
:10599000040808043E08040008060018010060001E
:1059A000000004000807FFF807FFF80408080408CF
:1059B00000040800040800043E0006000006000081
:1059C000018000000000000000003F8001FFE003B4
:1059D000807006001804000804020804020802038C
:1059E000F00783F000020000020004000807FFF83F
:1059F00007FFF8040808000800000800000800007D
:105A0000080004080807FFF807FFF8040008000072
:105A10000000000004000804000804000807FFF864
:105A200007FFF80400080400080400080000000054
:105A30000000000000000006000007000001040054
:105A40000104000104000307FFFE07FFFC0400003F
:105A500004000004000004000807FFF807FFF80432
:105A60000C08001800003E0004C7800503C80600AB
:105A7000F804003804001800000804000807FFF8C4
:105A800007FFF804000800000800000800000800F4
:105A9000000800000800001800006000000004007A
:105AA0000807FFF807800807FC00007FC00003F824
:105AB0000007C000780007800807FFF807FFF80418
:105AC000000804000807FFF807000803C00000E012
:105AD00000003800001E000007000001C00400F0B4
