:020000040800F2
:10000000480D002089020008A7280008EB270008F7
:10001000A5280008050B00080D2D000800000000B1
:100020000000000000000000000000000929000896
:10003000050D000800000000A92800080B29000891
:10004000AD020008AD020008AD020008AD020008D4
:10005000AD020008AD020008AD020008AD020008C4
:10006000090D00081D0D0008AD020008AD020008D2
:10007000AD020008AD020008AD020008AD020008A4
:10008000AD020008AD020008AD020008AD02000894
:10009000090B0008AD020008AD020008AD0200081F
:1000A000AD020008AD020008AD020008AD02000874
:1000B000AD020008AD02000821290008AD020008C9
:1000C000AD020008AD020008AD020008AD02000854
:1000D000AD020008C92C0008AD020008AD020008FE
:1000E000AD020008AD020008AD020008AD02000834
:1000F000AD020008AD020008AD020008AD02000824
:10010000AD020008AD020008AD020008AD02000813
:10011000AD020008AD020008AD020008AD02000803
:10012000AD020008AD020008AD020008AD020008F3
:100130003D0C0008AD020008AD020008AD02000849
:10014000AD020008AD020008AD020008AD020008D3
:10015000AD020008AD020008AD020008AD020008C3
:10016000AD020008AD020008AD020008AD020008B3
:10017000AD020008AD020008AD020008000000005A
:10018000AD020008AD02000800F002F800F06DF8C2
:100190000AA090E8000C82448344AAF10107DA45E2
:1001A00001D100F062F8AFF2090EBAE80F0013F0C7
:1001B000010F18BFFB1A43F001031847888B00009A
:1001C000A88B00000A444FF0000C10F8013B13F01C
:1001D000070408BF10F8014B1D1108BF10F8015BA0
:1001E000641E05D010F8016B641E01F8016BF9D193
:1001F00013F0080F1EBF10F8014BAD1C0C1B09D1EA
:100200006D1E58BF01F801CBFAD505E014F8016B5B
:1002100001F8016B6D1EF9D59142D6D370470000ED
:100220000023002400250026103A28BF78C1FBD8FF
:10023000520728BF30C148BF0B607047642900F0E7
:100240003181752900F02E81782900F067816329BA
:1002500000F02C83732900F03183002070471FB514
:1002600005F04FFB1FBD10B510BD00F045FB11465A
:10027000FFF7F5FF03F020FC00F063FB03B4FFF78A
:10028000F2FF03BC02F0F7FD0C48016841F4700175
:1002900001600B4880470B480047FEE7FEE7FEE79A
:1002A000FEE7FEE7FEE7FEE7FEE7FEE7FEE700000B
:1002B00005480649044A064B7047000088ED00E0F7
:1002C000112900088901000848090020480D002074
:1002D00048090020704753EA020C00F069802DE9BC
:1002E000F04B4FF00006002B1FBFB3FA83F503FA63
:1002F00005F424FA05F65E4012BF1643B2FA82F501
:1003000002FA05F4C5F120051EBF22FA05FC44EAF5
:100310000C04203556EA044C4FEA144418BF641C00
:100320004FF000084FF00009904271EB030C39D3F5
:10033000002919BFB1FA81F701FA07F6B0FA80F780
:1003400000FA07F6C7F120071EBF20FA07FC46EAAD
:100350000C062037B6FBF4FCA7EB0507103F07F0AF
:100360001F0BCBF120060CFA0BFB2CFA06F644BF50
:10037000B3460026202FA4BF5E464FF0000B5BEA79
:10038000060C08BF4FF0010B19EB0B09ABFB027C0D
:1003900048EB0608C01B06FB02CC0BFB03CC71EB41
:1003A0000C01C1E70B46024641464846BDE8F08BCA
:1003B00013B54FF000004FF00001AFF30080BDE82F
:1003C0001C407047B2F120030AD5C2F1200301FAA4
:1003D00002F120FA03F300FA02F041EA0301704748
:1003E00000FA03F14FF00000704700000FB4044919
:1003F00010B503AA029800F065FA10BC5DF814FB72
:100400003400002070B5044685690068C10601D536
:10041000302600E02026C00707D070BDD4E90121B6
:1004200030469047206A401C20626D1EF6D570BD94
:1004300070B5044685690078C00707D170BDD4E95E
:10044000012120209047206A401C20626D1EF6D5B5
:1004500070BD70B50C460546012A05D02878800687
:1004600000D5EA69002302E0012305E05B1C93420A
:1004700002D2E05C0028F9D1A869E618C01AA86188
:10048000286A184428622846FFF7BCFF04E0D5E933
:10049000012114F8010B9047B442F8D32846FFF726
:1004A000C7FF70BD2DE9F04106460024106875298C
:1004B000314616A510D0AFF30080002802DA404282
:1004C00013A507E031688A0701D512A502E04907A4
:1004D00004D511A5012401E0AFF3008000210A2218
:1004E00006F1240709E0B0FBF2FCB0FBF2F302FBDB
:1004F0001C00303078541846491C0028F3D123469C
:100500002A463046BDE8F04100F055B90000000031
:100510002D0000002B0000002000000070B50446F4
:100520000D4621461068AFF300802188090502D5E9
:100530000F4A7A4402E00E4A7A440E32002104F156
:10054000240305E000F00F060009965D5E54491C87
:100550000028F7D120780023000704D5702D02D0A1
:1005600009B1022311322046BDE8704000F023B9E2
:100570008A8300002DE9F05F894604464FF0000AA7
:10058000DFF874B1FB44C0F820A02046E16888473A
:10059000002874D0252806D0D4E901219047206A8C
:1005A000401C2062F1E700265F462046E16888474C
:1005B0002028054607DB312D05D2781910F8200CCC
:1005C00008B10643F1E7B00701D526F00406C4F8E8
:1005D0001CA00027C4F818A02A2D09D0284602F034
:1005E00043FC38B304EB8708303DC8F8185019E0D5
:1005F00059F8041B204604EB87029161E1688847A3
:10060000012F054618D1E069002820DA26F02006DF
:100610001DE0D8F8180000EB800005EB40003038F2
:10062000C8F818002046E1688847054602F01CFC1F
:100630000028EED1012F0AD02E2D08D12046E168E6
:1006400088477F1C0546022F46F02006C4DBA069C0
:10065000002803DA404246F00106A061F00701D00D
:1006600026F010066C2D0BD0682D09D04C2D39D0FA
:100670006A2D35D0742D35D07A2D33D016E038E080
:10068000E1682F4620468847B842054609D16C2FBD
:1006900026D04FF48060E16806432046884705462F
:1006A00004E06C2F1AD04FF4807006430DB3A5F10F
:1006B0004100192802D8203546F400664A462946EA
:1006C000204626604E46FFF7B9FD80B101280BD0C9
:1006D000F61D26F0070000F1080956E74020E4E780
:1006E0008020D8E70020D6E706F104094DE7284628
:1006F00052E7206ABDE8F09F6083000010B5203A01
:10070000C0F00B80B1E81850203AA0E81850B1E8CA
:100710001850A0E81850BFF4F5AF5FEA027C24BF80
:10072000B1E81850A0E8185044BF18C918C0BDE877
:1007300010405FEA827C24BF51F8043B40F8043B40
:1007400008BF7047D20728BF31F8023B48BF11F8F5
:10075000012B28BF20F8023B48BF00F8012B70474F
:100760004FF0000200B5134694469646203922BF4A
:10077000A0E80C50A0E80C50B1F12001BFF4F7AF95
:10078000090728BFA0E80C5048BF0CC05DF804EB77
:10079000890028BF40F8042B08BF704748BF20F8E5
:1007A000022B11F0804F18BF00F8012B70477047E3
:1007B0007047704770472DE9F0470D4699469246BD
:1007C000044600F124080168880604D5E06921F098
:1007D0001001216000E00120A84201DD471B00E07C
:1007E0000027A1697A1902EB0900081AA061207894
:1007F000C00602D42046FFF705FE002608E0D4E933
:1008000001211AF806009047206A401C761C2062DD
:100810004E45F4DB2078C0060AD52046FFF7F2FDEE
:1008200006E0D4E9012130209047206A401C206274
:10083000381EA7F10107F4DC07E0D4E9012118F81C
:1008400005009047206A401C2062281EA5F1010582
:10085000F3DC2046FFF7ECFD2078000602D50220ED
:10086000BDE8F0870120FBE701694A1C02610878B6
:10087000704700B58FB0CDE90131002105910549E0
:100880007944CDE9031011466846FFF773FE0FB0B7
:1008900000BD0000E5FFFFFF10B5436913B1AFF3E2
:1008A000008001E0FFF7D5FD012010BD127800F1B6
:1008B00024010A7000224A700122EDE711684FF00E
:1008C000FF32E9E7074B70B50D467B44FFF7D1FFD8
:1008D0000446284600F008F810B14FF0FF3070BD14
:1008E000204670BD9B280000007B00F08000704710
:1008F00000487047E80800207546FFF7F9FFAE464C
:1009000005006946534620F00700854618B020B51B
:10091000FFF7CEFCBDE820404FF000064FF0000787
:100920004FF000084FF0000B21F00701AC46ACE897
:10093000C009ACE8C009ACE8C009ACE8C0098D4604
:1009400070470446AFF300802046FFF797FC10B5D0
:100950000146806B026C12F0500F05D0026CD2067B
:1009600026D500F08FFA10BD016C41F400710164CE
:1009700001688A6812F0405F17D1027EAAB9CA6A7C
:1009800012F4700F02D08A6852050ED44A6822F021
:1009900020024A60016C21F480710164016CC90479
:1009A00003D4016C41F00101016400F069FA10BD4B
:1009B000806BC26CBDE810400846104710B5806BD4
:1009C00040210164416C41F00401416400F05AFA95
:1009D00010BD10B5806B00F054FA10BD464910B53B
:1009E0004A6822F440324A604A6843681A434A60BF
:1009F00001684A6822F480724A6001684A680369A3
:100A000042EA03224A6001684A6822F040724A6062
:100A100001684A6883681A434A6001688A6822F458
:100A200000628A6001688A68C3681A438A60816AC2
:100A30006FF07062D14201688A6822F070628A6049
:100A400001688A680CD0836A1A438A6001688A68E0
:100A500022F040528A6001688A68C36A1A4301E042
:100A600022F040528A6001688A6822F002028A609D
:100A700001688A68037E42EA43028A6090F8201087
:100A8000002901684A680FD042F400624A60016898
:100A90004A6822F460424A6001684A68174C436A17
:100AA00004EB43331A4301E022F400624A60016818
:100AB000CA6A22F47002CA620168CA6A838B104C47
:100AC00004EB03531A43CA6201688A6822F4007275
:100AD0008A6001688A6890F8303042EA43228A606E
:100AE00001688A6822F480628A6001688A684069C5
:100AF00042EA8020886010BD0023014000E0FFFF33
:100B00000000F0FFFEE700001CB5084A6B4600211C
:100B1000A2F1400000F0B4FB002805D103490A7C93
:100B20000868694601F0C2FE1CBD00009407002061
:100B300010B501F05BFE11480068416941F0020107
:100B4000416100221146142000F0C0FF142000F083
:100B5000B0FF00F041F8094800F0EAFC10B108A02D
:100B6000FFF744FC0221054800F08EFA002804D06B
:100B7000BDE810400DA0FFF739BC10BD54070020A0
:100B80000D0A205468652043414E207065726970DB
:100B9000686572616C20686173206E6F7420737475
:100BA000617274656421200D0A0000000D0A204363
:100BB000414E20525830206E6F74696669636174CB
:100BC000696F6E20686173206E6F74206F70656E40
:100BD000656421200D0A000000B58BB000200121C2
:100BE000CDE9060105900290039004900E20CDE916
:100BF00008106946044800F0BDFA002802D003A09E
:100C0000FFF7F4FB0BB000BD540700200D0A205481
:100C100068652043414E2066696C74657220636F7D
:100C20006E66696720686173206E6F742066696EF6
:100C3000697368656421200D0A0000000648006899
:100C4000800608D50549012008700348083001686E
:100C500041F0200101607047046402404C00002014
:100C600001681823CAB2103AB2FBF3F2054B6FF3D6
:100C70000901032A9B5CC36500D9091D81650846EB
:100C8000704700003859000810B5014600208B69F4
:100C90008A6A4FF0C07453B1B3F5005F15D072B1DA
:100CA000012A0CD0022A0AD0032A09D104E01AB181
:100CB000012A06D0022A03D1C96AC90100D5012040
:100CC00010BDC96AA142FAD010BD002AF7D0012A8E
:100CD000F2D0022AF3D0032AF3D010BD30B5046855
:100CE000256825F480252560046863608368402BAF
:100CF000036803D099600068C26030BD9A600068E4
:100D0000C16030BD7047000010B5042000F08EFDBA
:100D100001490420086010BD143C014010B50820B2
:100D200000F084FD01490820086010BD143C01401A
:100D300072B6FEE778B50024009490F83C20012AB2
:100D400019D0012280F83C200A6807250368092A87
:100D500013D9DE680A3A02EB42029540AE43DE60E8
:100D60000A788B680A3A02EB420293400268D5681F
:100D70002B43D36010E0022078BD1E6902EB4202D3
:100D80009540AE431E610A788B6802EB42029340A5
:100D9000026815692B4313614A681F25072A13D27D
:100DA00003685E6B521E02EB82029540AE435E63A7
:100DB0000A8893B20A79521E02EB820293400268BB
:100DC000556B2B43536327E003680D2A12D21E6B29
:100DD000D21F02EB82029540AE431E630A8893B293
:100DE0000A79D21F02EB820293400268156B2B43F3
:100DF000136311E0DE6A0D3A02EB82029540AE43C6
:100E0000DE620A8893B20A790D3A02EB82029340BD
:100E10000268D56A2B43D362164B0568144A9D427B
:100E200006D10D68122D03D1556845F48005556033
:100E300005689D4218D10B68102B01D0112B13D1DE
:100E4000536843F400035360096810290CD10A4920
:100E50000A4A0968B1FBF2F101EB8101490000E0A7
:100E6000491E00910029FBD180F83C40002078BD4C
:100E700000230140002001402800002040420F00D4
:100E800070477047704770B504004FF0000603D0FC
:100E9000206C002510B107E0012070BD204600F055
:100EA0001DF8656484F83C50206CC00610D4206C9A
:100EB00020F4885040F0020020642046FFF78EFDA9
:100EC0006564206C20F0020040F00100206400E026
:100ED000012684F83C50304670BD000000B5006823
:100EE000114987B088421CD110480021026842F4A1
:100EF00080720260006800F4807005900B4814381E
:100F0000026842F001020260006800F001000590F2
:100F1000202000900320CDE901016946044800F03B
:100F200091FC07B000BD00000020014044380240A1
:100F300000000240F8B500230446009390F83C00FE
:100F4000012807D0012084F83C0020688568ED075F
:100F500002D011E00220F8BD856845F001058560EA
:100F60004048414D0068B0FBF5F000EB400000E068
:100F7000401E00900028FBD120688568ED0503D550
:100F8000856825F48075856020688568ED075FD0E9
:100F9000256C40F20166B54345F4807525644068D0
:100FA000400505D5206C20F4005040F480502064AA
:100FB000206CC00404D5606C20F00600606400E082
:100FC000636484F83C30A36B2948284DD863A36B35
:100FD00028481864A36B2848D86423686FF022005F
:100FE00018602068436843F080634360206883682A
:100FF00043F480738360134620680A46A66B00F1B1
:101000004C01304600F0A5FB68681C49C00620680A
:1010100006D0884224D1816811F0405F13D01FE0D0
:101020008842F8D0164A904203D1D1F80423D20660
:10103000F1D0144A904213D1D1F8041301F01F01EA
:101040001029E8D30CE0816841F08041816007E01D
:10105000206C40F010002064606C40F0010060647F
:101060000020F8BD2800002040420F00002301406E
:101070004F090008D3090008BD09000800200140FD
:10108000002101400022014090F82020012A07D0D1
:10109000022A05D0416A41F4802141620120704753
:1010A000006842690A43426100207047F0B590F839
:1010B00020500468A468012D05D0022D03D0416A98
:1010C00041F4802153E014F0406F01D1E5004BD58D
:1010D000C4F30164022C03D9416A41F4000146E0E3
:1010E0000125A5401D608B684FF4C0759BB1CE688B
:1010F00033434E6843EAC603066805EB0417F35111
:101100004FF4C273076803EB04130E69FE50097DA8
:10111000012905D009E00E88CB6843EA4653EBE786
:101120000168CE5846F48076CE501179D2F8053059
:101130004FF4C67641EA0323016806EB04168B518F
:101140001178D2F801204FF4C47341EA02210268F9
:1011500003EB0413D150006805EB0411425842F030
:10116000010242500020F0BD416A41F40011416289
:101170000120F0BD10B590F82020012A07D0022AE6
:1011800005D0416A41F480214162012010BD3B48F5
:10119000D0F8002242F00102C0F80022D0F800226C
:1011A00022F47C52C0F80022D0F800224B6A42EAB6
:1011B0000322C0F800220A7D02F01F0301229A4098
:1011C000D0F81C329343C0F81C32CB69B3B9D0F8C5
:1011D0000C329343C0F80C328C894B6864F31F4384
:1011E0004C6900EBC404C4F840320C890B6864F30A
:1011F0001F434C6900EBC404C4F84432CB69012B93
:1012000016D1D0F80C321343C0F80C320C884B685E
:1012100064F31F434C6900EBC404C4F840320C89EA
:10122000CB6864F31F434C6900EBC404C4F8443238
:101230008B69002BD0F804320ED01343C0F804326F
:101240000B69002BD0F8143208D01343C0F81432C5
:10125000096A012904D008E09343EFE79343F5E7D7
:10126000D0F81C121143C0F81C12D0F8001221F063
:101270000101C0F80012002010BD00000064004011
:1012800030B590F82040012C05D0022C03D0416AE3
:1012900041F480215DE00468002955D02469A40749
:1012A00054D04FF4D874056804EB01142D5915F08F
:1012B0000405956005682D594ED0ED085560056808
:1012C0002C5904F00204D4604FF4DA74056804EB7E
:1012D00001142D5905F00F05156105682D59C5F349
:1012E0000725956105682C59240C54614FF4DC7274
:1012F000046802EB0112A4581C700468A458240A64
:101300005C700468A458240C9C700468A258120EE7
:10131000DA704FF4DE72046802EB0112A4581C71FB
:101320000468A458240A5C710468A458240C9C71B5
:101330000468A258120EDA71006881B1016941F0A7
:1013400020010161002030BDE468A8E7416A41F452
:1013500000114162012030BD6D0D1560AFE7C1681D
:1013600041F02001C160EDE70246002092F8201014
:10137000012901D002290CD111688A68520100D5D7
:1013800001208A68120100D5401C8968C90000D577
:10139000401C704770B5040003D094F8200010B1D1
:1013A00004E0012070BD204600F082F8206801684A
:1013B00021F00201016000F037FB0546052604E03C
:1013C00000F032FB401B0A2811D8206840688007D3
:1013D000F6D42068016841F00101016000F024FBAF
:1013E00005460BE000F020FB401B0A2806D9606A86
:1013F00040F40030606284F82060D2E720684068E2
:10140000C007EFD0207E0128206801683DD021F080
:1014100080010160607E01282068016838D021F0D9
:1014200040010160A07E01282068016833D021F0CE
:1014300020010160E07E0128206801682ED041F083
:1014400010010160207F01282068016829D021F067
:1014500008010160607F01282068016824D021F024
:1014600004010160D4E902010843D4E904121143E4
:1014700008436168491E08432168C8610020606212
:10148000012084F82000002070BD41F08001C0E7F9
:1014900041F04001C5E741F02001CAE721F0100109
:1014A000CFE741F00801D4E741F00401D9E700009B
:1014B00000B500681B4987B0884230D11A480168DE
:1014C00041F001010160016801F00101059101682D
:1014D00041F001010160016801F00101059112492B
:1014E00010310A6842F000720A60096801F0007168
:1014F0000591016841F0010101600068012100F0DF
:10150000010005904FF4C05000900220CDE9010188
:101510000390092004906946044800F093F907B04D
:1015200000BD00000064004030380240000002406E
:1015300070B5044690F82000012804D0606A40F499
:101540000020606217E0022084F820002068016813
:1015500021F00101016000F067FA05460DE000F09E
:1015600063FA401B0A2808D9606A40F400306062C0
:10157000052084F82000012070BD20684068C00765
:10158000EDD1606270BD2DE9F0410446876D00F039
:101590004BFA054694F835000026022806D0802034
:1015A000606584F834600120BDE8F081206801683E
:1015B00021F0160101602068416921F0800141613C
:1015C000206C08B9A06C20B12068016821F00801E6
:1015D00001602068016821F0010101600BE000F06A
:1015E00023FA401B052806D92020606504F8346FD3
:1015F00003206070D8E720680068C007EFD194F836
:101600005C103F208840B86004F8346F012060709F
:101610000020C9E790F83510022903D080214165E8
:1016200001207047052180F835100068016821F01D
:1016300001010160002070472DE9F041044600F0EF
:10164000F3F905465CB1002684F83460022084F882
:1016500035002068016821F0010101600DE00120E2
:10166000BDE8F08100F0E0F9401B052805D92020F5
:101670006065032084F83500F2E720680068C00741
:10168000F0D121680A6820480240D4E901031843D8
:10169000D4E903352B43184363691843A3691843FE
:1016A000E3691843236A18431043626A042A03D18A
:1016B000D4E90B231A431043086020684069656A27
:1016C00020F0070128460D43012704280CD1A06A09
:1016D0000543E06A40B12046FFF7D6FA20B140202A
:1016E000606584F83570BAE7206845612046FFF7E9
:1016F000B7FA94F85C203F2191408160666584F8D8
:1017000035700020ACE700003F8010F070B5044653
:1017100090F83400002501280CD0012084F8340012
:1017200094F835600020012E06D084F8340002259C
:10173000284670BD022070BD022684F835606065C1
:101740002046FFF7CBFA2068016841F001010160F3
:10175000EEE72DE9F0410446866D90F8340000254F
:1017600001280DD0012084F8340094F83570002051
:10177000012F07D084F8340002252846BDE8F08107
:101780000220FBE7022784F8357060652046FFF7EA
:10179000A5FA94F85C103F208840B060206801688A
:1017A00041F016010160206C20B12068016841F011
:1017B000080101602068016841F001010160DCE777
:1017C00080B201F05DBC000010B50C4C042808D1BB
:1017D00008210B4800F01CF90028206807D0401EA3
:1017E00020602168BDE8104006A0FEF7FFBD401C48
:1017F000206008A0FEF7FAFDF3E700004800002093
:10180000001002400D0A20636F756E743A20256443
:10181000200D0A000D0A20646574656374206869F0
:1018200067682070696E200D0A000000044910B539
:101830000A68024202D00860FFF7C6FF10BD000030
:10184000143C01402DE9F84FDFF89891002209F18E
:10185000040A0AF1040B03274FF00F0C0BF1040EDE
:1018600001250B6895402B40AB4272D10C7904F0F6
:101870000304012C01D0022C15D18668540007FA0C
:1018800004F826EA0806D1F80C8008FA04F848EAB9
:101890000608C0F808804468AC430D79C5F300150C
:1018A0009540254345600C79E443A40708D0C568FA
:1018B000540007FA04F6B5438E68A6402E43C6606E
:1018C0000C7904F00304022C11D1D40800EB840637
:1018D000356A5407E40E0CFA04F825EA0805D1F835
:1018E000108008FA04F848EA0508C6F82080056860
:1018F000540007FA04F6B5430E7906F00306A64035
:101900002E4306604C68E40066D5374C256845F4E4
:1019100080452560246822F0030504F48044009487
:10192000324C05EB0408D8F808589407260F0CFA37
:1019300006F4A5432E4CA04201D1002424E02D4CF6
:10194000A04201D101241FE02B4CA04202D102246D
:101950001AE041E0294CA04201D1032414E0284CB4
:10196000A04201D104240FE0264CA04201D105245D
:101970000AE0254CA04201D1062405E0234CA042F8
:1019800001D1072400E00824B4402C43C8F80848DB
:10199000D9F800404D464E689C43F60300D51C43E1
:1019A0002C60DAF8004055464E689C43B60300D5DB
:1019B0001C432C60DBF800405D464E689C43F602F9
:1019C00000D51C432C60DEF8004075464E689C43F1
:1019D000B60200D51C432C60521C102AFFF440AF05
:1019E000BDE8F88F003C014044380240003001401F
:1019F000000002400004024000080240000C0240C7
:101A0000001002400014024000180240001C024076
:101A10000069084000D001207047000001480068BC
:101A2000000C7047002004E0014880687047000007
:101A300038000020024881680278114481607047B4
:101A400038000020094810B5016841F400710160B8
:101A5000016841F480610160032000F057F80F2015
:101A600000F006F800F024F8002010BD003C024011
:101A700070B50D4D04464FF47A712878B1FBF0F043
:101A80000A490968B1FBF0F000F0F4FA48B9102CEB
:101A900007D200222146501E00F018F800206C608A
:101AA00070BD012070BD000038000020280000201B
:101AB0007047002809DB00F01F0201219140400916
:101AC000800000F1E020C0F800117047F0B40E4B28
:101AD0001B68C3F30223C3F10704042C00D90424B8
:101AE0001D1D072D01D2002300E0DB1E012606FA92
:101AF00004F56D1E0D409D409E40761E164045EA41
:101B00000601F0BC01F030B90CED00E0064A00F02F
:101B1000070110684FF6FF03184040EA012003490F
:101B200008431060704700000CED00E00000FA056B
:101B30002DE9F0470D46040065D0DFF81491D9F87F
:101B40000000EFB200F00700A84207D289F8007049
:101B5000D9F8000000F00700A84254D120683D4E9B
:101B6000810712D5400703D5306840F4E05030605B
:101B70002078000703D5306840F46040306030685A
:101B8000A16820F0F000084330602078C0072DD015
:101B9000304960680839012812D0022813D0032880
:101BA00011D00968890700292DDA316821F0030175
:101BB00001433160FFF738FF804641F2883A0EE07A
:101BC00009688903EFE709688901ECE7FFF72CFF53
:101BD000A0EB0801514502D90320BDE8F087306829
:101BE000616800F00C00B0EB810FEFD1D9F8001064
:101BF000484601F00701A94207D90770006800F0C4
:101C00000700A84201D00120E7E72078400705D56A
:101C10003068E16820F4E050084330602078000725
:101C200006D53068216920F4604040EAC100306088
:101C300000F038F83168084AC1F30311515CC8401C
:101C40000649086006480068FFF712FF0020C4E755
:101C5000003C0240083802402059000828000020BB
:101C60003C0000200448054900680968044AC1F3A3
:101C70008221515CC840704728000020083802408B
:101C8000305900080448054900680968044AC1F34E
:101C90004231515CC840704728000020083802409B
:101CA00030590008154810B5006810F00C011448B0
:101CB00013D0431004290FD008290ED10F4C241F34
:101CC000216801F03F022168490207D52068C0F36E
:101CD0008810A0FB030106E0184610BD2168C1F37F
:101CE0008811A1FB00010023FEF7F5FA2168C1F37A
:101CF0000141491C4900B0FBF1F010BD0838024019
:101D00000024F4002DE9F84F040075D02078DFF8A6
:101D100038A3C007AAF1040548D00AF104000168FD
:101D2000C1F38101012908D00068C0F381000228B5
:101D30000AD1DAF80000400206D52868800335D5BC
:101D400060680028E1D031E06068B0F5803F10D0D5
:101D5000B0F5A02F286810D020F4803028602868C3
:101D600020F4802028606068A0B1FFF75DFE064681
:101D70000CE0286840F48030F4E740F480202860CC
:101D8000F7E7FFF751FE801B642871D828688003AD
:101D9000F7D50BE0FFF748FE064604E0FFF744FEE8
:101DA000801B6428F1D828688003F7D42078DFF8F6
:101DB0009C9280074FF0000B3DD5A348001D0168A1
:101DC00011F00C0F08D00068C0F3810002280AD17E
:101DD000DAF80000400206D42868800715D5E068CC
:101DE000012809D111E0E068B8B10120C9F800006C
:101DF000FFF71AFE064605E022E1FFF715FE801BFD
:101E00000228C2D828688007F7D52868216920F001
:101E1000F80040EAC10028600DE0C9F800B0FFF703
:101E200003FE064604E0FFF7FFFD801B02281FD8D3
:101E300028688007F7D42078000722D5824F84488D
:101E40006169703771B101210160FFF7EDFD064650
:101E500004E0FFF7E9FD801B022809D838688007F5
:101E6000F7D50EE0C0F800B0FFF7DEFD064605E04E
:101E700082E0FFF7D9FD801B02287DD838688007F3
:101E8000F7D42078400765D56F484FF000083C3004
:101E90000068C0000BD46C483C30016841F08051B0
:101EA000016000684FF0010800F080500090694F19
:101EB0003868C0050FD4386840F480703860FFF788
:101EC000B3FD064604E0FFF7AFFD801B022853D8A0
:101ED0003868C005F7D55C4FA0686C3701280FD073
:101EE0000528386810D020F001003860386820F0EC
:101EF00004003860A068B0B1FFF796FD06460EE01A
:101F0000386840F00100F4E740F004003860F7E77B
:101F1000FFF78AFD811B41F28830814263D838681F
:101F20008007F5D50DE0FFF77FFD064606E0FFF7D9
:101F30007BFD811B41F28830814254D8386880078C
:101F4000F5D4B8F1000F05D03F483C30016821F0CE
:101F500080510160A069B8B33B49091D0968C1F30C
:101F60008101022946D00228584606D0C9F86000EF
:101F7000FFF75AFD044639E035E04F46C9F86000E6
:101F8000FFF752FD064604E0FFF74EFD801B0228D6
:101F900029D828688001F7D4D4E907010843A16A49
:101FA0002D4A490802EB0141626A41EA8211084365
:101FB00094F82C1040EA0161CAF80010012038663C
:101FC000FFF732FD044605E03CE0FFF72DFD001B66
:101FD000022808D828688001F7D533E0FFF724FDF0
:101FE000001B022802D90320BDE8F88F2868800171
:101FF000F4D427E00128F7D0DAF80000E26900F411
:10200000800191421CD1226A00F03F01914217D118
:1020100047F6C071626A0140B1EB821F10D1A26A1B
:102020004FF0FF3300F4403103EB5202B1EB024FAB
:1020300006D194F82C1000F07060B0EB016F01D065
:102040000120D1E70020CFE70438024000004742DA
:10205000800E4742007000400000FFFF4FF0E0217B
:102060000428086903D020F004000861704740F09C
:102070000400FAE710B5401EB0F1807F01D30120C3
:1020800010BD4FF0E02460610F21601700F06CFE7E
:102090000020A06107202061002010BD70B590F8DD
:1020A0003C20012A32D0012580F83C50022280F8E1
:1020B0003D2002685368946823F070060B68334330
:1020C0005360134B02689A4214D0B2F1804F11D082
:1020D000104B9A420ED0104B9A420BD00F4B9A42A3
:1020E00008D00F4B9A4205D00E4B9A4202D00E4BAD
:1020F0009A4204D1496824F080031943916080F822
:102100003D50002180F83C10084670BD022070BD93
:10211000000001400004004000080040000C0040A6
:1021200000040140004001400018004010B50400C8
:1021300003D094F83D0010B107E0012010BD00204D
:1021400084F83C00204600F01EF8022084F83D0090
:10215000211D206800F0FEFB012084F8460084F871
:102160003E0084F83F0084F8400084F8410084F881
:10217000420084F8430084F8440084F8450084F861
:102180003D00002010BD704790F83D10012901D09E
:1021900001207047022180F83D100168CA6842F0B2
:1021A0000102CA6000681149884214D0B0F1804F22
:1021B00011D00F4988420ED00E4988420BD00E49EB
:1021C000884208D00D49884205D00D49884202D086
:1021D0000C49884204D1816801F00701062903D027
:1021E000016841F0010101600020704700000140DA
:1021F0000004004000080040000C004000040140C2
:1022000000400140001800402DE9F0410D46040057
:1022100003D094F83D0018B108E00120BDE8F0813A
:10222000002084F83C00204600F040F8022084F8AA
:102230003D002068816844F2070291438160211DBE
:10224000206800F087FB206881688269066A2B6835
:10225000AF690B4340F203318A4342EA0722A9687F
:10226000EF6911434FF6FC429143EA6841EA0721C6
:102270000A4329692F6A090141EA073111436A6853
:102280006D6926F0AA0646EA05152A438360206890
:10229000816154F8460B0262012004F81F09E075C1
:1022A0002076E0762077A0750020B7E710B586B0DD
:1022B000044614216846FEF753FA12492068884202
:1022C0001ED111480021026842F008020260006835
:1022D00000F0080005900C481038026842F0010236
:1022E0000260006800F001000590032000900220C9
:1022F000CDE90101CDE9031069460448FFF7A2FAD0
:1023000006B010BD000C0040403802400000024002
:1023100070B590F83E50044690F83F3090F8422057
:1023200090F84300022621B104290BD0012D16D1CB
:102330000FE0012D13D1012A11D184F83E6084F8F9
:10234000426016E0012B0AD1012808D184F83F60D1
:102350000DE0012B03D1012A01D1012801D0012078
:1023600070BD84F83E6084F83F6084F8426084F871
:10237000436091B1042904D001220021206800F0BB
:102380004DFB01220421206800F048FB2068016811
:1023900041F001010160002070BD01220021206890
:1023A000F2E77047704710F83D1F407808437047C8
:1023B000F8B5026804461068D168536910F00F0F31
:1023C0004FF0000554D003F0010601F49077374335
:1023D0005FD0C20705D0CA0503D5226C42F00102C6
:1023E0002264420705D5DA0703D0226C42F00202CC
:1023F0002264820705D5DA0703D0226C42F004027A
:102400002264020707D501F02002324303D0226C78
:1024100042F008022264226C002A35D0800604D5DE
:10242000880602D5204600F026FB20684069216C12
:10243000C0F3801001F008010143204625D000F0D0
:1024400002FB2068416949061BD5416921F0400122
:102450004161A06BA8B159490165A06BFFF7DAF89B
:10246000002811D0A06B016D01B0BDE8F040084715
:1024700083060ED58B060CD52046BDE8F84000F04B
:10248000FABA2046FFF78EFFF8BDFFF78BFF2564F1
:10249000F8BD266B2023012E53D1C60651D5CE069A
:1024A0004FD5106850680090506940062BD5A16B3D
:1024B000086840680004000CEAD0A68D8642E7D97F
:1024C000E085C869B0F5807F18D0D06820F48070AE
:1024D000D0602068416921F00101416120684169B3
:1024E00021F04001416184F83E3025632068C168D5
:1024F00021F01001C160A06BFFF745F8A08DE18DC0
:10250000401A81B219E0A08DE18D401A81B2E08DB0
:102510000028BDD00029BBD0D06820F49070D060D6
:102520002068426922F00102426184F83E3025634E
:102530002068C26822F01002C2602046FFF731FF17
:10254000F8BD05062BD50D0629D594F83D002128A8
:10255000F6D1A068B0F5805F01D12069B0B1206AE2
:10256000411C2162216800784860E08C401E000414
:10257000000CE084E4D12068C16821F08001C160D2
:102580002068C16841F04001C160F8BD206A008840
:10259000C0F308005060206A801C2062E5E7400616
:1025A000F3D54806F1D5D168204621F04001D1602D
:1025B00084F83D3000F018F9F8BD0000372A000813
:1025C00070B5040004D094F83D00002510B106E079
:1025D000012070BD84F83C50204600F023F82420F0
:1025E00084F83D002068C16821F40051C160204694
:1025F00000F098FA2068016921F490410161206897
:10260000416921F02A0141612068C16841F400510B
:10261000C1602564202084F83D0084F83E0000203D
:1026200070BD000030B500681F4987B0884238D1BE
:102630001E48016841F010010160006800F01000C0
:1026400005901A481438016841F0010101600168E1
:1026500001F001010591016841F00101016000688C
:10266000012100F0010005904FF40070009002205D
:10267000CDE901010724CDE903040D4D6946284643
:10268000FFF7E0F829150091049469462846FFF702
:10269000D9F82520FFF70DFA032211462520FFF770
:1026A00015FA07B030BD0000001001404438024068
:1026B0000000024090F83E30202B0ED159B152B1AB
:1026C00090F83C30012B08D0012380F83C300023E7
:1026D000036300F0ADBA012070470220704700008C
:1026E00030B50068114988420CD1114A5088010464
:1026F00008D41146440409784FF0000306D50A298E
:1027000001D0538030BD40F400400DE00D2909D0C8
:10271000C0F30D04074D401C80B229555080C728D6
:10272000EFD830BD40F48040508030BD00100140F3
:1027300030000020D80400202DE9F843044690F82A
:102740003D001F4615460E4620284BD1C6B1BDB1EF
:1027500094F83C00012845D0012084F83C004FF05B
:102760000008C4F84080212084F83D00FFF75CF9A0
:10277000A5848146E584A068B0F5805F03D004E0BD
:102780000120BDE8F883206920B13546002684F891
:102790003C800EE00025FAE78021204600F063FA35
:1027A000A0B9ADB115F8010B21684860E08C401E5E
:1027B000E084E08C4B464FF0000200970028EBD1FC
:1027C0004FF04001204600F04EFA30B10320D8E728
:1027D00036F8020BC0F30800E6E7202084F83D003D
:1027E0000020CEE70220CCE77047FEE710B5114C81
:1027F00088B00F4820601C226946201DFDF77EFF2F
:102800000320606000204FF4C021A060C4E90301F0
:102810004FF4A001616120766076A0760121E17617
:10282000207760772046FEF7B5FD08B010BD0000A8
:10283000006400405407002010B58CB02421684685
:10284000FDF78EFF00241648099414490A9401608C
:102850000321C0E901144FF48062C0E903248461BC
:1028600000910120CDE9014003940494CDE9054095
:10287000079469460A480894FFF7C6FC08B1FEF7BA
:1028800057FA099409A906480A94FFF707FC00289B
:1028900001D0FEF74DFA0CB010BD0000000C004056
:1028A000AC060020FEE77047704700001346082A78
:1028B00004D00246194604A0FDF798BD0A78922A72
:1028C00001D100F05BBC7047526563656976656451
:1028D000206D657373616765207769746820696E20
:1028E000636F7272656374206C656E6774683A20FA
:1028F00025642062797465732C2049443A2030782D
:10290000253033580A0000007047FFF793B80000E5
:102910000248016841F470010160704788ED00E0F1
:1029200010B50A4C2068C068C043C00709D10848E8
:102930000069804721680020486221686420C862DD
:10294000E06021686FF00100086110BDA008002060
:10295000EC000020F0B50268254D264E264FDFF82A
:102960009CC0274B4FF0804EA84209D0704507D03D
:10297000B04205D0B84203D0604501D0984203D19F
:1029800022F070044A682243A8421BD0704519D037
:10299000B04217D0B84215D0604513D0984211D03C
:1029A000184CA0420ED0184CA0420BD0174CA0429D
:1029B00008D0174CA04205D0164CA04202D0164CAD
:1029C000A04203D122F44074CA6822434C6922F029
:1029D0008002224302608A68C2620A688262A84258
:1029E00001D0984201D10969016301214161F0BD23
:1029F000000001400004004000080040000C0040BE
:102A000000040140004001400044014000480140F2
:102A100000180040001C00400020004010B501F0EC
:102A20001F010123046A8B409C430462036A8A40AD
:102A30001343036210BD10B5806B0021C185C184B2
:102A4000FFF7B0FC10BD0168CA6822F49072CA603A
:102A500001684A6922F001024A61016B012904D12F
:102A60000168CA6822F01002CA60202180F83E1076
:102A700000210163704710B5044690F83E002228FB
:102A800001D0022010BDA0684FF48052904201D1C5
:102A9000216921B1A16A90421BD048B10AE02168A6
:102AA000A06A4968C1F308010180A06A801C08E09F
:102AB000206970B12068406800F07F000870A06A4B
:102AC000401CA062E08D401E0004000CE08503D095
:102AD0001CE020684068F1E72068C16821F020010F
:102AE000C1602068C16821F48071C16020684169BB
:102AF00021F001014161202084F83E00206B012873
:102B000006D02046FFF7ECFD00202063002010BD1A
:102B10002068C16821F01001C160A18D2046FFF737
:102B200040FCF1E770B5044600680169E26821F4F1
:102B3000405111430161A1682069E2690143606964
:102B4000104301432068C26849F20C639A430A4368
:102B5000C26020684169A26921F44071114341615A
:102B600031492068884202D03049884202D1FFF7BB
:102B700089F801E0FFF776F8E2690023192164255E
:102B80003226B2F5004F626828D0A0FB0101930FF6
:102B90009200FDF7A0FB0146B0FBF5F06FF01802C4
:102BA000504301EB800006EB0010B0FBF5F000F0A5
:102BB000F002B1FBF5F002EB0012B1FBF5F06FF0A3
:102BC0001803584301EB800006EB0010B0FBF5F052
:102BD00000F00F0021681044886070BDA0FB010167
:102BE00092185B41FDF777FB0146B0FBF5F002015F
:102BF000B1FBF5F06FF01803584301EB800006EBD2
:102C0000C000B0FBF5F000F0F80002EB4002B1FBB1
:102C1000F5F0584301EB800006EBC000B0FBF5F087
:102C200000F00700D6E7000000100140001401404A
:102C300081628285C28500210164222280F83E20C3
:102C400080F83C100168CA6842F48072CA6001686A
:102C50004A6942F001024A610068C16841F02001FE
:102C6000C160002070472DE9F0411E461746884696
:102C70000446069D1CE0681C1AD025B1FEF7D4FE60
:102C8000801BA84214D92068C16821F4D071C160AA
:102C90002068416921F001014161202084F83D0054
:102CA00084F83E00002084F83C000320BDE8F08159
:102CB0002068016838EA010004D00020B842DAD068
:102CC0000020F3E70120F9E770B500240C4D0D4812
:102CD000FFF76EFB02E0641CAC4204D80948FFF722
:102CE00062FB2028F7D1002402E0641CAC4206D825
:102CF000012205490348FFF7DDFC0028F5D170BD2E
:102D0000FFFF01006806002030000020FEE7000001
:102D1000134A10B5FE201070FC2050700220114B99
:102D200000215C5C1454401C491CC9B2C0B2182973
:102D3000F7D30D211154401CC0B20A211154401C7C
:102D40000749C2B241F6FF7301F1C800FFF7F4FC76
:102D50000348C83000680168C9434906FBD410BD68
:102D6000A0050020500200200907090E002804DBFE
:102D700000F1E02080F80014704700F00F0000F12F
:102D8000E02080F8141D704710B52DED020B2DEDDD
:102D9000088B84B09DED0C0B51EC100B02F0FCFB8A
:102DA00041EC180B9DED0C0B53EC182B51EC100B58
:102DB00002F04CFC41EC190B0D989FED290B10F023
:102DC000004F53EC102B51EC190B9FED21AB9FEDF5
:102DD00022BB0ED002F070FA0ED953EC1B2B51EC33
:102DE000190B02F0A3FB1CD214E000BF41EC180B3E
:102DF00017E002F061FA06D253EC1A2B51EC180BD3
:102E000002F024FCF2E753EC1B2B51EC190B02F0FF
:102E10008DFB06D853EC1A2B51EC180B02F0E8F896
:102E2000E4E78DED028B9DED0C0B18EE901A10EE81
:102E3000900A8DED000B61F31E0003909DED020BD7
:102E400004B0BDEC088B02B010BD00000000000013
:102E5000000000000000F03F000000000000E03F24
:102E6000000000000000E0BF30380A2801D2012035
:102E700070470020704770471FB58DE80E00694607
:102E8000FDF758FF1FBD00000F4B10B519688A6889
:102E900022F001028A6003F1480211680C6824F0F4
:102EA00001040C60116848601068016841F001017C
:102EB00001601868816841F0010181600348816800
:102EC00041F08041816010BDF807002000200140E2
:102ED0000B4800B5026887B0002142F00102026091
:102EE000006800F0010005903F2000900320CDE92C
:102EF000010169460348FEF7A5FC07B000BD0000CC
:102F0000303802400000024071B5434881B00025CE
:102F1000016841F480710160006800F480700090E5
:102F20003D481438016841F48001016000683C4C60
:102F300000F4800000903948C4E900050015A56040
:102F4000C4E9035040006061800004F11801C6002C
:102F500081E861002046FEF76FFB002331492046DF
:102F6000019AFEF7D3FBA4F148002E4984634C3943
:102F70000160C0E901650121C0E90351017680F8D3
:102F800020500622C261284AC0E90952C56280F871
:102F90003010FDF778FFFFF79BFF07230122002188
:102FA000A4F14800FFF768FF072302220121A4F1E2
:102FB0004800FFF761FF072303220221A4F1480024
:102FC000FFF75AFF072304220321A4F14800FFF76B
:102FD00053FF072305220421A4F14800FFF74CFF0B
:102FE000072306220521A4F14800FFF745FF03222D
:102FF00011463C20FEF76AFD3C20FEF75AFD0222F6
:1030000001A9A4F14800FDF795FF2068016841F08F
:10301000100101607CBD0000443802407064024031
:10302000400800204C2001400100000F08B5134665
:10303000012200920C4A1060002050609060C2E9AA
:1030400003030A4608496B46A1F12800FEF72EF853
:1030500008B1012008BD04482838FEF785F9032887
:10306000F9D1002008BD00007C07002010B50446FF
:103070000420FEF7F3FF0148046010BD2C0000207F
:103080004FF4077170B5B0FBF1F2B0FBF1F401FB46
:103090001205094E03E0304600F010F8641E002CC3
:1030A000F9D1002D06D04FF47A706843BDE8704026
:1030B00000F004B870BD0000603D080070B54FF02E
:1030C000E02500216C69094AAB6912685043AA697E
:1030D0009A42FCD002D2A3EB020302E0A4EB020668
:1030E0003344194413468142F1D370BD2C000020B3
:1030F000094808B5016841F080010160016801F0EC
:1031000080010091016841F001010160006800F058
:103110000100009008BD00003038024070B50D4637
:103120000646002456F8240002F07AFB41EC100B0E
:10313000FFF72AFE51EC100B02F00EF8002801DA1E
:10314000C0F10000C0F3072105EB440205F814109C
:10315000507003DA41F0800005F8140004F1010416
:103160000C2CDFDB70BD000003490A685206FCD559
:10317000C2B24A6070470000001001402DE9F047DC
:10318000002689468046354601243746E20019F874
:1031900004003946083AFDF715F929430643641C33
:1031A0000D46072CF2DD05F400000743304601D040
:1031B00041F07F4102F02EF89FED0C1B53EC112BD8
:1031C00002F0B6F801F0E2FEA8F24111082908D297
:1031D000084A02EB8801A1F50061C1F8FC02BDE8D4
:1031E000F087BDE8F04704A0FDF700B97B14AE47B7
:1031F000E17A843F100200204572726F723A2049D2
:103200006E76616C696420494420726563656976F5
:1032100065642E0A0000000030EE600AB0EEC00ABD
:10322000B4EEC10AF1EE10FA01D20120704700207D
:103230007047000070B50A490646002408884D888A
:1032400021464543204600F07FFA00F025FC4FF070
:10325000D84002E0A0F88060641CAC42FAD370BD94
:10326000440700202DE9F04F2B4B2C27194698716D
:103270002B2589884FF4305A4FF4285B4FF448745B
:1032800041F6631E2A264FF0F00845F210594FF41C
:10329000A07C4FF4F072C8B1A3F800C0A3F802807C
:1032A000494533D1A3F808A0A3F80AB028029881B1
:1032B0001C805A80A1F5A640103802D11A80A3F8CC
:1032C00002C0BDE8F04F002000F070B9A3F8008004
:1032D000A3F802C0494507D1A3F808A0A3F80AB093
:1032E0004FF42C50988104E071451F8104D15D8119
:1032F0009E811A805C8001E05E819D81A1F5A640DF
:103300001038DED1A3F800C05A80DAE71F815E8151
:1033100071459D81CCD0CDE7440700202DE9FF4FBA
:10332000804600241546032082B00F46A0EB4506D8
:1033300051E0781B81B208EB040A01901FFA8AF071
:10334000059A00F099F8381B009081B208EB050946
:103350001FFA89F0059A00F08FF807EB040B1FFAAB
:103360008BF11FFA89F0059A00F086F807EB050942
:103370001FFA89F11FFA8AF0059A00F07DF8A8EB90
:10338000040A1FFA89F11FFA8AF0059A00F074F80E
:10339000A8EB05091FFA8BF11FFA89F0059A00F0D6
:1033A0006BF80198059A81B21FFA8AF000F064F870
:1033B0000098059A81B21FFA89F000F05DF8641C4C
:1033C000002E03DA06EB8406B61D04E0601B06EB54
:1033D00080066D1E0A36AC42ABDD06B0BDE8F08F4C
:1033E0002DE9FE4F0026A2EB000882465F1A701EF0
:1033F00035468946B8F1000F02DD4FF0010102E0C9
:1034000003D14FF00001019102E0C8F100080190E2
:10341000002F02DD4FF0010002E003D14FF0000069
:10342000009002E0C7F1000700904046B84501DD7A
:10343000044600E03C46601C4FF0000B029016E092
:103440001FFA89F11FFA8AF00C9A00F015F8464429
:103450003D44A64202DD0199361B8A44A54202DDA5
:1034600000992D1B89440BF101001FFA80FB029982
:103470008B45E5DDBDE8FE8F10B5144600F064F91C
:1034800000F00AFB4FF0D840A0F8804010BD2DE9B5
:10349000F8411D46079C1646884607460B46009491
:1034A000FFF79EFF3A462B46414610460094FFF731
:1034B00097FF2B463246194638460094FFF790FF97
:1034C00032462B46414610460094FFF789FFBDE87F
:1034D000F8812DE9F0431F468146A2EB0900079BC6
:1034E000401C0C4686B29DB24FF0D84810E02146F1
:1034F000484600F029F900F0CFFA0020414603E0E9
:10350000A1F88050401C80B2B042F9D3641CA4B230
:10351000BC42ECD9BDE8F0830346012000E05843EB
:10352000491EC9B2FBD2704708B54FF0D840B0F879
:103530008000ADF80000BDF8000008BD10B51A4CC1
:103540002288824202D962888A4201D8002010BDB6
:1035500000F0FAF8A088A0F5AA41103921D02E2059
:1035600000F08EFAFFF7E0FFA188A1F5C852633A98
:10357000EDD00220401EFDD2FFF7D6FF0446022107
:10358000491EFDD2FFF7D0FFE1B24FF6FF7202EA0B
:10359000012124EA6212890A42EA411141EAD0205B
:1035A00010BD4FF43850DBE74407002070B5654C80
:1035B00000232146A279898841F66315012A01D0AA
:1035C0001AB11BE0A94202D118E0A94216D108287D
:1035D00014D2DFE800F00406080A0C0E10120620D0
:1035E0000CE007200AE0042008E0052006E00120A6
:1035F00004E0002002E0032000E00220082812D2AC
:10360000DFE800F0110406080A0C0E1080230AE01F
:10361000402308E0C02306E0202304E0602302E00A
:10362000A02300E0E023362045F21056B14200D13D
:103630000002A1F51342413A03D0A1F5EE42893AC6
:1036400001D143F00803194600F030FAA288AA42DB
:103650000AD098062088618802D5884202D303E008
:10366000884201D9218060806089B24240D100F057
:1036700007FA002000F0F8F96089401C80B200F0E1
:10368000FFF9002000F0F0F96089801C80B200F0A2
:10369000F7F92088401EC0F30F2000F0E5F960899B
:1036A000C01C80B200F0ECF92078401EC0B200F0DF
:1036B000DBF9A08900F0E4F9002000F0D5F9A08939
:1036C000401C80B200F0DCF9002000F0CDF9A089A8
:1036D000801C80B200F0D4F96088401EC0F30F2037
:1036E00000F0C2F9A089C01C80B200F0C9F921E045
:1036F00000F0C6F9002000F0B7F9002000F0B4F99E
:103700002088401EC0F30F2000F0AEF92078401E44
:10371000C0B200F0A9F9A08900F0B2F9002000F0D1
:10372000A3F9002000F0A0F96088401EC0F30F202C
:1037300000F09AF9A078BDE87040401EC0B200F0D9
:1037400093B9000044070020F0B53A4D0C460246FC
:10375000060AA9882846270A4089A1F5C853633B71
:1037600016D0A1F5AA43103B4BD000F089F93046A2
:1037700000F07AF9D0B200F077F9A88900F080F96A
:10378000384600F071F9E0B2BDE8F04000F06CB9E5
:10379000A97929B300F074F9304600F065F9D0B288
:1037A00000F062F92888401EC0F30F2000F05CF999
:1037B0002878401EC0B200F057F9A88900F060F9DF
:1037C000384600F051F9E0B200F04EF96888401E2A
:1037D000C0F30F2000F048F9A878401EC0B2D3E72C
:1037E0002988891A491E8AB200F04AF9002000F09F
:1037F0003BF9002000F038F9100A00F035F9D0B29A
:10380000D9E700F03DF9304600F02EF96889401CF8
:1038100080B200F035F9D0B200F026F9A88900F0A6
:103820002FF9384600F020F9A889401C80B200F03A
:1038300027F9A8E7440700202DE9F84F824698466B
:103840000C468B46580700D0012000EBD8014FEA08
:10385000580011FB00F0C0B2203A0090D0B24146AF
:10386000B8F10C0F0AD010290CD0182910D0B8F1DB
:10387000200F41D1214901EB801006E000EB400010
:103880001F4908E01F4901EB00108146002730E086
:103890001D4900EBC00001EB8000F6E719F8076056
:1038A0000025300601D50B9A03E00A9828B917487D
:1038B000026821465046FFF7DFFD7006060E1448E9
:1038C000641CA4B24088A04216D9A4EB0B01414568
:1038D00009D10AF101001FFA80FA0D485C460188FF
:1038E000514509D903E06D1CEDB2082DD9D37F1CD9
:1038F000FFB200988742D1D3BDE8F88F007100086D
:1039000040590008B45D0008A4630008440000208A
:10391000440700202DE9FF4F83B080460027DDE9F2
:1039200010091D4693463C46BA46460827E0281B28
:10393000401EC1B20A20FFF7EFFDBBFBF0F00A21E9
:10394000B0FBF1F201FB120027B9691E8C4201DACB
:1039500048B101273030C2B2CDE900A906FB04808E
:1039600080B2109B06E0CDE900A906FB0480109B05
:1039700080B220220499FFF75FFF641CE4B2AC42DE
:10398000D5D307B0BDE8F08F2DE9FC4F044600F019
:10399000FF0910190D46DDE90B761FFA80F858195A
:1039A0001FFA80FADDF834B012E0444502D3E8197A
:1039B0004C4685B2554510D20021CDE9001B3B464F
:1039C00029462046FFF738FF04EB570084B2761CE7
:1039D0003278A2F120005E28E7D9BDE8FC8F2DE9FE
:1039E000FF4F83B08046DDE911B910984FF0000A0F
:1039F0001F4654460BF0010546082EE0381B401EBA
:103A0000C1B20A20FFF788FD0599B1FBF0F00A2149
:103A1000B0FBF1F201FB1200BAF1000F05D1791EE3
:103A20008C4202DA50B14FF0010A3030C2B2CDE917
:103A3000005906FB048080B2109B09E0CDE90059D3
:103A40005FEA0B6006FB0480109B80B20AD530222F
:103A50000499FFF7F1FE641CE4B2BC42CED307B078
:103A6000BDE8F08F2022F3E701B5BDF80000ADF806
:103A70000000BDF800004FF0D841A1F8800008BD5B
:103A800001B5BDF80000ADF80000BDF800004FF032
:103A9000D841A1F87E0008BD03484FF0D841008905
:103AA000A1F87E0070470000440700204FF0D84284
:103AB00022F87E0F518070472DED028B86B0FDF706
:103AC000C1FF0723022208214FF4A87000F0F4F987
:103AD000A820FFF7CBFA4FF4E13000F081FA8C48D0
:103AE000416854208847FFF703FBFEF7A5FE3C2101
:103AF0008848FEF70DFCFDF71BF88748FFF704FA2E
:103B00004FF49670FFF7C0F94FF47A70FFF7B8FAE8
:103B1000824800F075F900278148029790EC028AEC
:103B20000097019700F020FA7B4E03AC183E6D46DB
:103B300096ED040A0DF114088DED000AD6ED050A84
:103B400030EE480ACDED010AB6EE008A8DED030A8B
:103B500030EEE80A8DED040A059700F005FA002121
:103B6000424606EB810090ED040A505C30B101281A
:103B700017D0022825D0032841D136E005EB81007B
:103B8000D0ED000A04EB810090ED001A30EEC11A6E
:103B900041EE480AF4EEC00AF1EE10FA2FDD0120E2
:103BA00021E004EB8100B1EE001AD0ED000AFFF72E
:103BB00033FB20B30220505402A8435C5B1C4354E7
:103BC0001DE005EB810090ED001A04EB8100D0EDC3
:103BD000000A31EE601A41EE080AF4EEC00AF1EE76
:103BE00010FA0CD20320505409E005EB8100B1EE2D
:103BF000001AD0ED000AFFF70FFB00B15754491C23
:103C00000229AEDB9DF808000228A6D39DF8090022
:103C10000228A2D300249FED438B404D083DB0EE17
:103C2000480A285DF0EE680A00F0A4F83220FDF79B
:103C3000C7FD641C082CF2DB41F27070FDF7C0FD7B
:103C40000024B0EE480A285DF0EE680A00F092F811
:103C50003220FDF7B5FD641C082CF2DBDFF8B880DC
:103C6000A8F15008A8F1500400F07EF90027E85DA3
:103C700000F0F0F87F1C082FF9DB274B00202749C4
:103C8000703B424603EB800797ED000A01EB80078B
:103C9000D7ED000A02EB8007401C30EE600A0828CE
:103CA00087ED000AEEDB002002EB800191ED000AB7
:103CB00004EB8001401C81ED000A0428F4DB0420A1
:103CC000062102EB8003401C93ED000A04EB810304
:103CD000491C83ED000A0828F3DB96ED000A84ED09
:103CE000040A96ED040A84ED050A96ED010A84EDB6
:103CF0000A0A96ED050A84ED0B0A00F0B9F80649A8
:103D00003039A1F17000FFF709FAFFF701F8ABE7CE
:103D1000EC000020AC0600208002002008000020FB
:103D200018590008000000000000000007B582B02C
:103D3000A4228DF8002000228DF801209DF810208B
:103D40008DF802209DF811208DF803208DF80410C5
:103D50000A0A8DF805200A0C8DF80620090E8DF848
:103D600007100822694600F5A070FFF75FF905B05B
:103D700000BD000030B505462DED028BB0EE408A47
:103D8000F0EE608A83B09FED1C0B0024ADF800407C
:103D900053EC102B51EC180B01F08EFA51EC180B70
:103DA00005D201F0E7F801F007FA404201E001F026
:103DB00003FAADF800000194A1208DF804000294EC
:103DC0009DF800008DF808009DF801008DF80900AD
:103DD0008DF805408DF806408DF80A408DF80740B3
:103DE0008DF80B40082201A905F5A070FFF71EF918
:103DF00003B0BDEC028B30BD0000000000000000ED
:103E0000F0B5124F05462DED028B89B09FED0E8A5D
:103E100000246E4605EB8400642290ED000A20EE3B
:103E2000080ABDEEC00A10EE101A46F82410385DDC
:103E3000FFF77CFF1420FDF7C3FC641C082CE9DBB2
:103E400009B0BDEC028BF0BD0000C84200000020AC
:103E5000006870471CB500210091019192218DF8F6
:103E600000100822694600F5A070FFF7DFF81CBDBE
:103E70002DE9FC410F4F00246D4601AE07EB840194
:103E800004F2311091ED000A00218DED010AC1F11B
:103E90000302B25C6A54491C0429F8D3042269461F
:103EA000FFF7C4F8002802D1641C0C2CE6DBBDE847
:103EB000FC810000E00100202DE9F04393B00E46A4
:103EC00080469946154630216846FCF749FC142186
:103ED0000CA8FCF745FC21480024016841F0805102
:103EE0000160006800F0805011901D48016841F4A5
:103EF000804101600068022700F480401190012099
:103F0000009000040697019007A9800181E8410113
:103F1000CDE90A596846FDF7F5FE68B90F20CDE9ED
:103F20000C074FF4A050CDE90E40F8021090052187
:103F30000CA8FDF7FDFD18B1012013B0BDE8F0831A
:103F4000FDF76CFD41F20101884204D1054801688A
:103F500041F4807101600020EFE70000403802402A
:103F600000700040003C0240F0B4194C2078012859
:103F70002CD1184B0021DFED180A9FED181A3225BD
:103F8000A3F118060022104600EB400701EB47079B
:103F9000401C33F8177032283A44F5DB92FBF5F0F9
:103FA00000EE100A06EB8100491CB8EEC00A062993
:103FB00020EE200A20EE010A80ED000AE2DB00205C
:103FC0002070F0BC4FF49670FEF75EBFF0BC7047F7
:103FD0004C00002080020020000080390000B44323
:103FE0000B4910B5094AC1E9002000208860C8606B
:103FF000086188610C2048610846FEF7E1FABDE8D7
:104000001040012203490248FEF754BB0010014052
:10401000680600203000002070B594B0064613AB4F
:1040200011AA694600F0DCF9002824D18DF840007F
:104030001D4C042514E0206805EBC10113AB40586A
:1040400012AA08A900F0CCF9002814D1694608A8E2
:1040500000F0DBFB88B19DF84000401C8DF840006B
:10406000207D9DF840108842E5D8207D9DF84010C5
:1040700088420ED1042014B070BD9DF848009DF810
:104080004410884201D90220F5E79DF84000A07550
:10409000EBE710A9304600F057FA0028EBD19DF865
:1040A000400060750020E6E7EC0000202DE9F041BB
:1040B0007E4E9AB0B57D307DA8427CD9042130680F
:1040C00001EBC50119AB405818AA10A900F088F9F6
:1040D00010A977A0FCF78AF900240DF1180832E046
:1040E000308B0121A140084217D0222172A0FCF799
:1040F0007DF9204600F0A0FA811970A02431FCF768
:1041000075F922216CA0FCF771F9204600F094FAB1
:104110003044243048F824000BE0204600F08CFAAC
:104120003044416A48F82410F07D00B364A0FCF7E5
:104130005DF99DF86000401E844202D062A0FCF749
:1041400055F9641CE4B29DF860008442C8D35FA0B6
:10415000FCF74CF900F0F8FE707D0B2814D2DFE874
:1041600000F0080D31384048525E6B78890058A045
:10417000DDE7306850F83500804704E0306850F8DB
:10418000351006988847074600F09EFE9DF86400AB
:1041900001286ED04FA0FCF729F996F8EC00002812
:1041A0000DD0D6F8F0000A21B0FBF1F201FB1202AB
:1041B000B0FBF1F100E002E047A0FCF717F91AB0FC
:1041C000BDE8F081306850F83520DDE90601904700
:1041D000D9E7306806AC50F8353094E807009847C6
:1041E000D1E7306806AF50F8354097E80F00A04798
:1041F000C9E70A980090306806AF50F8354097E854
:104200000F00A047BFE7DDE90A01CDE900013068F2
:1042100006AF50F8354097E80F00A047B3E70AAB68
:1042200006AF93E807008DE80700306850F8354086
:1042300097E80F00A047A6E70AAC06AF94E80F0086
:104240008DE80F00306850F8354097E80F00A04720
:1042500099E70BAC06AF94E80F0001AC84E80F00BF
:104260000A980090306850F8354097E80F00A04752
:1042700089E711E00CAC06AF94E80F0002AC84E8CB
:104280000F00DDE90A01CDE90001306850F8354042
:1042900097E80F00A04776E7F07D394618B116A0E1
:1042A000FCF7A4F879E717A0FAE70000EC0000207B
:1042B0000D0A257328000000256300002573000007
:1042C00030582558000000002C0000002900000094
:1042D000256C64003B0D0A0046756E6374696F6E51
:1042E0002052756E2054696D653A25642E2531641F
:1042F0006D730D0A000000003D305825583B0D0A33
:10430000000000003D256C753B0D0A00F0B500254E
:104310002E462F462C4603782C2B03D0292B04D075
:104320001BB103E014B9012600E00CB317B1222B36
:104330002AD02AE0A3F1300CBCF1090F19D92D2B9A
:1043400017D02B2B15D0A3F1610CBCF1050F10D9A0
:10435000A3F1410CBCF1050F0BD9582B09D0782BD8
:1043600007D0222B0CD0202B1ED02C2B1CD0FF27AB
:104370000CE05EB9612B00D3203B01F8013B13E058
:1043800026B901273C460FE0002426B10020087022
:1043900017702846F0BD3CB15C2B02D16D1CEDB20C
:1043A000401C037801F8013B6D1CEDB2401CB2E7E4
:1043B00030B5002515700AE001F8014B1478401C57
:1043C000641CE4B214709C4201D3012030BD047817
:1043D000202C01D0002CEFD10D70002030BD00004A
:1043E0002DE9FF4F002482B089469846A246274611
:1043F000012526462246EB46029915E0202810D0DA
:1044000002F07F03052B0CD202B9802202F07F0359
:10441000042B01D12A280AD1521C0BF80300D2B276
:1044200001E0852A04D0491C08780028E6D16AB149
:1044300002F07F0200200BF8020041A1584600F074
:10444000E4F938B1012188F8001000224FF000088B
:10445000029B15E0002088F80000F6E708F1010053
:1044600000F0FF0813F8010F202801D02A2807D1F7
:10447000184600F057F9282802D02A2800D0C24652
:104480001878282801D00028E8D10299BAF1000F45
:1044900001D05144491C4FF000084346087888B1C8
:1044A000282804D0292806D0222810D011E083B96A
:1044B000641CE4B20DE063B924B1641E14F0FF047F
:1044C00002D00DE04FF00108012F27D02FE04BB1B3
:1044D00000234CB12C280CD0202816D0282814D02A
:1044E0005AB110E00123F4E7202815D009F8010B98
:1044F00012E00125521CD2B207E0052E03D20BF8C0
:104500000600761CF6B26D1CEDB2012C04D1022D12
:1045100002D103257F1CFFB2491CBFE700200BF826
:10452000060007A1684600F070F900B9002704985A
:104530000770002089F8000006B04046BDE8F08F03
:10454000766F6964000000002DE9F043002489467D
:10455000304DB5B0214622466B18491CC9B29A7637
:104560000A29F9D302E010F8011F99B1017828292E
:10457000F9D1461C4FF0010833AA69463046FFF7CF
:10458000C5FE06449DF8CC0040B1012824D0FF2888
:1045900036D10BE0012035B0BDE8F0839DF8000076
:1045A00070B334A9684600F0C5F808B10220F2E7FC
:1045B000204600F041F8284434994162298B08FADA
:1045C00004F081432983042029198876641CE4B20D
:1045D0000A2C15D90320DEE7684600F02BF9471CAA
:1045E000204600F029F841196846243100F019F9F5
:1045F000298B08FA04F00143281929838776E5E717
:104600003078292801D00028B6D189F80040002050
:10461000C1E70000EC000020054A002011880B04CF
:1046200005D5044BC8B200211954184611807047B3
:1046300032000020D8040020024610B500200146B8
:10464000054B05E05C18491CA47EC9B22044C0B2E9
:104650009142F7D310BD0000EC00002000EBC00138
:1046600001EB00104FF0FF3101EB800010B581B27B
:104670004FF47A7000F040FC01490120C87510BD6C
:10468000EC0000200346012000E05843491EC9B257
:10469000FBD2704770B5FFF7BFFF050022D0124E66
:1046A000B1688847040013D0284600F0CDF80128EF
:1046B00001D0040016D0012C0ED0022C0ED0032CF9
:1046C0000ED0042C0ED109A0BDE87040FBF78EBEC1
:1046D000F068BDE87040004709A0F5E70BA0F3E7DC
:1046E0000DA0F1E770BD0000EC000020CEB4D5D2E3
:1046F000B5BDC6A5C5E4B5C4BAAFCAFD210D0A0053
:10470000BAAFCAFDB4EDCEF3210D0A00B2CECAFD98
:10471000B4EDCEF3210D0A00B2CECAFDCCABB6E0AB
:10472000210D0A0010F8011F202901D10028F9D11C
:10473000C8B270472DE9F0430E4600244FF00A0836
:104740002546014634600A78A2F13003092B14D9BA
:1047500003782D2B01D02B2B00D174B1A2F1410392
:10476000052B0AD9582A05D012F0FF0F17D00120C7
:10477000BDE8F083012C02D0F9E7412A01D34FF0C4
:10478000100802782D2A04D02B2A04D0641CE4B22D
:1047900003E0022500E00125401C491CD3E7074641
:1047A000B8F1100F01D084B112E0032C01D2022025
:1047B000DEE73878302802D17878582801D00320F5
:1047C000D6E7A41EE4B2BF1C01E00420D0E70CB180
:1047D000641EE4B2387801463038092801D8814691
:1047E00001E0A1F1370921464046FFF74BFF32684F
:1047F00009FB0020306017F8011F0029E7D1022DC6
:1048000001D1404230600020B2E702780B789A4232
:1048100001D00120704712B1401C491CF5E700206F
:10482000704702780A700278002A02D0401C491CA6
:10483000F7E77047002102781AB1491CC9B2401C41
:10484000F9E7084670470000F0B58DB004461E2316
:1048500008AA6946FFF7ACFD0990002872D19DF8BF
:104860002000271800253E4C8DF820509DF8200090
:1048700054F820106846FFF7C8FF38B19DF82000B3
:10488000401CC0B28DF820000728EFD39DF820000F
:104890000426344C072855D2DFE800F00404395AC6
:1048A000605F5E0030A0FBF7A1FD30A0FBF79EFD2E
:1048B0003EA0FBF79BFD4DA0FBF798FD5BA0FBF72F
:1048C00095FD6AA0FBF792FD78A0FBF78FFD86A00F
:1048D000FBF78CFD8BA0FBF789FD93A0FBF786FD12
:1048E00097A0FBF783FD9CA0FBF780FDA1A0FBF741
:1048F0007DFDA7A0FBF77AFDB3A0FBF777FDC0A075
:10490000FBF774FDCBA0FBF771FDD7A01BE016A051
:10491000FBF76CFDE4A0FBF769FD8DF820500BE080
:10492000216806EBC0000958EFA0FBF75FFD9DF87A
:104930002000401C8DF82000217D9DF82000814240
:10494000EED856E257E2FBF751FD00200DB0F0BD66
:1049500005A0FBF74BFDCBE12CE20CE2EBE1000004
:1049600050000020EC0000200D0A00002D2D2D2D00
:104970002D2D2D2D2D2D2D2D2D2D2D2D2D2D2D2D67
:104980002D2D2D2D55534D4152542056332E352D5E
:104990002D2D2D2D2D2D2D2D2D2D2D2D2D2D2D2D47
:1049A0002D2D2D2D2D2D2D200D0A00002020202015
:1049B00055534D415254CAC7D3C9414C49454E5431
:1049C000454BBFAAB7A2B5C4D2BBB8F6C1E9C7C9A7
:1049D000B5C4B4AEBFDAB5F7CAD4BBA5BDBBD7E981
:1049E000BCFE2CCDA8B9FD200D0A0000CBFC2CC4C8
:1049F000E3BFC9D2D4CDA8B9FDB4AEBFDAD6FACAE6
:104A0000D6B5F7D3C3B3CCD0F2C0EFC3E6B5C4C8B4
:104A1000CEBACEBAAFCAFD2CB2A2D6B4D0D02ED266
:104A2000F2B4CB2CC4E3BFC90D0A0000D2D4CBE64C
:104A3000D2E2B8FCB8C4BAAFCAFDB5C4CAE4C8EB88
:104A4000B2CECAFD28D6A7B3D6CAFDD7D6283130F4
:104A50002F3136BDF8D6C62CD6A7B3D6B8BACAFD04
:104A600029A1A2D7D6B7FBB4AE0D0A00A1A2BAAF56
:104A7000CAFDC8EBBFDAB5D8D6B7B5C8D7F7CEAA46
:104A8000B2CECAFD292CB5A5B8F6BAAFCAFDD7EE8D
:104A9000B6E0D6A7B3D63130B8F6CAE4C8EBB2CE8A
:104AA000CAFD2CB2A2D6A7B3D60D0A00BAAFCAFD72
:104AB000B7B5BBD8D6B5CFD4CABE2ED6A7B3D6B25B
:104AC000CECAFDCFD4CABEBDF8D6C6C9E8D6C3B9D2
:104AD000A6C4DC2CD6A7B3D6BDF8D6C6D7AABBBB16
:104AE000B9A6C4DC2E0D0A00BCBCCAF5D6A7B3D645
:104AF0003A7777772E6F70656E6564762E636F6D8B
:104B00000D0A000055534D415254D3D037B8F6CF5B
:104B1000B5CDB3C3FCC1EE28B1D8D0EBD0A1D0B491
:104B2000293A0D0A000000003F3A202020202020D2
:104B3000BBF1C8A1B0EFD6FAD0C5CFA20D0A0000D4
:104B400068656C703A202020BBF1C8A1B0EFD6FA9E
:104B5000D0C5CFA20D0A00006C6973743A202020E2
:104B6000BFC9D3C3B5C4BAAFCAFDC1D0B1ED0D0A38
:104B70000A00000069643A2020202020BFC9D3C366
:104B8000BAAFCAFDB5C44944C1D0B1ED0D0A0A009F
:104B90006865783A20202020B2CECAFD3136BDF8B3
:104BA000D6C6CFD4CABE2CBAF3B8FABFD5B8F12B4B
:104BB000CAFDD7D6BCB4D6B4D0D0BDF8D6C6D7AA15
:104BC000BBBB0D0A0A0000006465633A2020202068
:104BD000B2CECAFD3130BDF8D6C6CFD4CABE2CBACB
:104BE000F3B8FABFD5B8F12BCAFDD7D6BCB4D6B44A
:104BF000D0D0BDF8D6C6D7AABBBB0D0A0A000000AC
:104C000072756E74696D653A312CBFAAC6F4BAAF7D
:104C1000CAFDD4CBD0D0BCC6CAB13B302CB9D8B1B8
:104C2000D5BAAFCAFDD4CBD0D0BCC6CAB13B0D0AF1
:104C30000A000000C7EBB0B4D5D5B3CCD0F2B1E0D8
:104C4000D0B4B8F1CABDCAE4C8EBBAAFCAFDC3FB61
:104C5000BCB0B2CECAFDB2A2D2D4BBD8B3B5BCFCF4
:104C6000BDE1CAF82E0D0A002D2D2D2D2D2D2D2D37
:104C70002D2D2D2D2D2D2D2D2D2D2D2D2D2D2D2D64
:104C80002D2DD5FDB5E3D4ADD7D32D2D2D2D2D2D27
:104C90002D2D2D2D2D2D2D2D2D2D2D2D2D2D2D2D44
:104CA0002D2D2D200D0A00002D2D2D2D2D2D2D2DDE
:104CB0002D2D2D2D2D2D2D2D2D2D2D2D2D2D2D2D24
:104CC0002DBAAFCAFDC7E5B5A52D2D2D2D2D2D2D46
:104CD0002D2D2D2D2D2D2D2D2D2D2D2D2D2D2D2D04
:104CE0002D2D2D2D200D0A0025730D0A000000002A
:104CF00042A0FBF77BFB8DF8205016E0216806EB05
:104D0000C0000BAB08580AAA6946FFF769FB9DF87B
:104D10002010206850F83120694648A0FBF766FB58
:104D20009DF82000401C8DF82000217D9DF820007A
:104D30008142E3D85DE0AFF2D030FBF757FB08AA21
:104D400069463846FFF7E2FA9DF82000002843D173
:104D500009A96846FFF7EEFC8DF8200010B1042881
:104D60003AD102E03AA009991CE03CA0FBF73EFBD7
:104D70000120E0753DE038A0FBF738FB08AA694642
:104D80003846FFF7C3FA9DF8200028BB09A96846FA
:104D9000FFF7D0FC8DF8200010B104281CD104E0EE
:104DA00033A00999FBF722FB23E034A0FBF71EFB9D
:104DB000E5751EE028A0FBF719FB08AA69463846EE
:104DC000FFF7A4FA9DF8200030B909A96846FFF75B
:104DD000B1FC8DF8200008B10220B7E5099810F069
:104DE000FF0084F8EC0001D029A000E02FA0FBF721
:104DF000FDFA19A0A7E50120A8E500002D2D2D2D15
:104E00002D2D2D2D2D2D2D2D2D2D2D2D2D2D2D2DD2
:104E10002D2D2D2D2DBAAFCAFD204944202D2D2D2D
:104E20002D2D2D2D2D2D2D2D2D2D2D2D2D2D2D2DB2
:104E30002D2D2D2D2D2D2D2D200D0A0025732069B2
:104E4000642069733A0D0A3058253038580D0A002D
:104E50004845583A305825580D0A00003136BDF8FB
:104E6000D6C6B2CECAFDCFD4CABE210D0A000000FC
:104E70004445433A256C750D0A0000003130BDF8F9
:104E8000D6C6B2CECAFDCFD4CABE210D0A000000DC
:104E900052756E2054696D652043616C63756C6159
:104EA00074696F6E204F4E0D0A00000052756E201F
:104EB00054696D652043616C63756C6174696F6ED4
:104EC000204F46460D0A0000094800680169C943A1
:104ED000CA070849D1F8F02004D14FF6FF731A44ED
:104EE000C1F8F020406A1044C1F8F000704700009B
:104EF000A0080020EC00002038B5104A00231468F8
:104F000044F00404146012680D4C02F00402009294
:104F10000C4AC2E902301361C2E900411046FDF7B4
:104F200005F90848FDF730F9032211461E20FCF769
:104F3000CDFDBDE838401E20FCF7BBBD4038024027
:104F400000080040A008002007486FF00101026837
:104F500011610268090CD162C160006800214162E0
:104F60000248C0F8F0107047A0080020EC000020B4
:104F70000160704781F00041704780F00040704749
:104F800021F00041704720F00040704721F00042BE
:104F9000A2F16052B2F5801F01F0004328BFD2F1A8
:104FA0007F6C0BD95FEA001C43EAC20242EB5070EF
:104FB00018BF704728BF20F001007047B2F5801F6E
:104FC000BCBF184670474FEA410C1CF5001F02D2C7
:104FD000084600F09BBC70B500F054FA0000008950
:104FE000FFF7F6BF4FF00040A0F5800070470000CB
:104FF00010B591EA030F48BF83F0004300F12E8300
:10500000841A71EB030C05D2121943EB0C03001B3D
:1050100061EB0C01DFF824E14FEA1154A4EB135CBF
:105020001EEA430F18BF9EEA445F73D023EA0E03C3
:10503000DCF1200E21EA045143F4801332D322FA2A
:105040000CFE10EB0E0023FA0CFE41EB0E01CCF12E
:10505000200E03FA0EFE10EB0E0051F10001B1F527
:10506000801FCCF1200E32D201EB045112FA0EF265
:10507000BDE8104058BF7047401C38BF5FEA42028D
:1050800018BF7047002814BF20F0010041F1000153
:105090004FEA410313F5001F38BF7047A1F1C0412B
:1050A00000F03EBA012A43EB0302ACF1200CDCF124
:1050B0001F0E32BF4FF0000E23FA0CF310EB03006B
:1050C00041EB0451B4EB115FD0D0A1EB045101F5D9
:1050D000801149085FEA300001EB04510ED350F112
:1050E000000038BF12FA0EFE08D1BDE81040C9E733
:1050F000401C38BF5FEA4202CAD1C3E7BDE8104096
:105100004FEA410313F5001F38BF7047A1F1C041BA
:1051100000F006BA9EEA445F08D011EA5E0FBDE8CF
:10512000104004BF01F0004100207047BDE810406E
:1051300070B500F0A7F900BF64FBBE3E0000E0FFC1
:10514000491058BFC1F140415B1058BFC3F1404303
:105150008B42EFF3008070474FEA41034FEA53530D
:10516000A3F58063D3F11E03C8BFD3F1210C0CDD7E
:105170004FF0004242EAC12242EA505232FA03FCA6
:105180008CEAE17CACEBE1707047102BC4BF0020CF
:10519000704703F5787CBCF1FF3F04D06FF000420C
:1051A00082EA2100704770B500F06CF949922480C2
:1051B00000207047F2E700004FEA1153A3F5806327
:1051C000D3F11E03A8BFD3F1200C08DB4FF000423F
:1051D00042EAC12252EA505232FA03F070470942C1
:1051E0000BD4102BC4BF0020704703F5787CBCF1B2
:1051F000FF3F05D04FF0FF3070474FF00000704781
:1052000070B500F03FF900BF49922480002070473C
:10521000F0E700007FEAE17202D1101A62EB0101AF
:10522000B1FA81F30B3B24D3994012D1B0FA80F349
:1052300010FA03F108BF7047C3F11D0303F5406383
:1052400003EBC2234FEAD1224FEA415002EB035154
:105250007047C3F1200C20FA0CFC9840C3F13203D4
:1052600003F5406303EBC22341EA0C0101EB035158
:10527000704710B5C3F1320CC3F10004C4F1200E25
:105280000CF5406C0CEBC22201FA0EFC21FA04F181
:1052900000FA0EF3E040BDE8104040EA0C0001EBDC
:1052A000025138BF7047401C41F100015B0008BF4C
:1052B00020F001007047000051EA030C17D41CF5E0
:1052C000801F58BFBCF5801F00F10680994218BFAF
:1052D000704708BF9042704707D711F5801F58BF2D
:1052E00013F5801F19D499427047894270471CF505
:1052F000801F08D5BCF5801FF7D58B4218BF7047BB
:1053000008BF824270474FF4001C1CEB410F38BFAE
:105310001CEB430F01D28B42704770B500F0B2F81E
:10532000922449004FF000514FF08053FFF708BF1F
:10533000DFF848C170B51CEA111E1EBF1CEA131528
:105340009EEA0C0F95EA0C0F00F06F8081EA0304CF
:1053500023EA4C134EEAD47E21EA4C1141F4801129
:1053600043F48013AE44A1FB024CA0FB0365AEF1F5
:105370007F7E361955EB0C05A1FB034C4CF1000365
:10538000A0FB021C16EB0C06654153F10003094219
:1053900018BF46F0010613F4007F0BD14FEA03312A
:1053A0004FEA0530340341EA155140EA16506FF0D8
:1053B00003020AE04FEAC3214FEAC520F40241EAA2
:1053C000555140EA56506FF0020202EB2E4201EBBB
:1053D000025585EACE710AD05FEA440C18BF24F06A
:1053E000004450F1000041F1000120EAD47040F285
:1053F000FE7C624500D270BDA84214BF4FF08044CD
:105400004FF04044002E08BF0024BEF1806FA8BFBB
:10541000A1F1C041BDE8704080F282804FF00000F1
:1054200001F1C04101F0004170479EEA0C0F0CEA07
:10543000131518BF95EA0C0F06D04FF0000081EA53
:10544000030E0EF0004170BD00F01CF88900013E13
:1054500000F007B800F009B84FEA430C5FEA5C5C63
:1054600008D081EA030100F05BB84FEA410C5FEA23
:105470005C5CF6D14FF00000014970470000FF0767
:105480000000F87F0EF1020E2EF0030E5EF8046BA2
:10549000364205D4012A43EB030515F5001F12D847
:1054A000012841EB010C1CF5001F0CD80ED14FEA6E
:1054B000D17C15F5001F0CEB4C0C0CF1020C08BF55
:1054C0004CEBD37C04E04FF0080C01E04FEAD37CB6
:1054D0000CEB4C0526FA05F606F00706B6F1040CAF
:1054E00006D20EEB860CBDE870404CF0010C604714
:1054F000DFE80CF0090B02024FF000414FF0000012
:10550000A1F5002170BD19461046012851EB010498
:1055100018BFD4F5001484BF002001F0004170BD15
:105520000808A0F500114FEA3101704753EA010C59
:1055300017D41CF5801F58BFBCF5801F00F10680F2
:105540008B4218BF704708BF8242704707D713F5D8
:10555000801F58BF11F5801F19D48B4270479B42A2
:1055600070471CF5801F08D5BCF5801FF7D5994200
:1055700018BF704708BF904270474FF4001C1CEBE7
:10558000430F38BF1CEB410F01D2994270470FB453
:105590000CBC03BCFFF7C1BE5FEA410C5FEA5C5C78
:1055A000ACF580635B1C39D4D3F1340240F3458001
:1055B000B2F1200314DA4FF0010C0CFA02FCACF14A
:1055C00001030340B3EB5C0220EA030008BF10EACA
:1055D0000C0F98BF704710EB0C0041F100017047B1
:1055E0000AD0C3F1200201FA02FC012821FA03F1DA
:1055F00001FA03F14CF100004FF0010C0CFA03FC2E
:10560000ACF10103B0F1004F21EA030108BF11EA38
:105610000C0F4FF0000088BF61447047B3F1FF3FAB
:1056200028BF50EAC12C01F000414FF0000084BFB8
:1056300041F07C5141F470017047B3F5806FB8BF01
:10564000704770B5FFF71EFF40DBB6BE10B591EA9C
:10565000030F48BF83F000433FF5D2AC841A71EBCF
:10566000030C07D212198CF0004C43EB0C03001B07
:1056700061EB0C01DFF8A4E14FEA1154A4EB135CD9
:105680001EEA430F18BF9EEA445F00F0B08023EA91
:105690006E03524221EA0451C3EB6E0338BF5B1E16
:1056A000DCF1200E25D322FA0CFE10EB0E0043FA9B
:1056B0000CFE41EB0E01CCF1200E03FA0EFE10EBB6
:1056C0000E0051F10001CCF1200E29D412FA0EF295
:1056D00001EB0451BDE8104058BF7047401C1CBF8F
:1056E000B2F1004F704700280CBF491C20F00100A8
:1056F000704712EB020E43EB030218BF4FF0010E8E
:105700004EEA4202ACF1200CDCF11E0E54D943FAF1
:105710000CFE10EB0E0051F1FF31CCF11E0ED5D571
:105720000EF1010E12FA0EFE404141EB010101EBB8
:10573000445C5FEA5C5C10D910EBDE7001EB045155
:1057400038BFBEF1004FBDE8104018BF70470028B9
:105750000CBF491C20F00100704730D24FEAD42C16
:1057600011F5001124F400641BD0B1FA81F20B3A58
:10577000A41AA41ED2F12003914030FA03F3194376
:10578000904001EBCC71002C01EB0451BDE81040BE
:10579000A8BF704701F1C0414FF0000001F0004187
:1057A0007047B0FA80F310FA03F100D110BDE41A8B
:1057B000173C4805C90AE4E701EB045110BD491044
:1057C00001EB0451BDE810404FEA300002E04FF019
:1057D000000170474A0008BF0042F8D0B2F5001F30
:1057E00028BF704701F000414FF0000070479EEA6B
:1057F000445F07D011EA5E0FBDE8104004BF0021EE
:1058000000207047BDE8104070B5FFF73BFE00BFB9
:1058100040DFF63E83F00041104670470000E0FF95
:1058200043004FEAD30C4FEA3C0C43401FBF4007F4
:105830000CF1605113F0FE4F70471CF0006F03D164
:1058400000200CF0004170470CF0004343EA507018
:1058500010B540EACC0000F00EF800BF0000009246
:105860004FEA0001FFF75CBE4FF000414FF000002F
:10587000A1F5002170470EF1020E2EF0030E5EF826
:10588000044B244204D44FEA4102B2F17F4F11D8B5
:105890004FEA4003B3F17F4F0CD80ED14FEAD07CD2
:1058A000B2F17F4F0CEB4C0C0CF1020C08BF4CEB2F
:1058B000D17C04E04FF0080C01E04FEAD17C0CEB06
:1058C0004C0324FA03F404F00704B4F1040C06D2E8
:1058D0000EEB840CBDE810404CF0010C6047DFE893
:1058E0000CF0070802024FF00040A0F5800010BD48
:1058F0000846420018BFD2F1807288BF00F0004015
:1059000010BD4FF04070E1EE100A7047FF2141EAF0
:10591000D050C005704700000000F0410000F04189
:10592000000000000000000001020304060708094F
:105930000000000001020304000610160006101605
:105940000000000000000000000000000000000057
:105950003F40000000000000000030004000300028
:105960004000000009000BC03D000BC03D000900D5
:1059700018C024407FE0224031800000180024C07D
:105980001B000D803240018003801C4027401C809A
:105990000740004010006000000000000000000010
:1059A0000000000000001F80204040200000402038
:1059B00020401F8000000000090006001F80060034
:1059C00009000000040004003F80040004000000FF
:1059D000001000600000000000000000040004004F
:1059E000040004000400000000000040000000006B
:1059F00000000000002001C0060038004000000048
:105A00001F802040204020401F80000000001040E8
:105A10003FC000400000000018C021402240244048
:105A20001840000010802040244024401B800000CB
:105A300002000D0011003FC0014000003C802440E6
:105A400024402440238000001F8024402440344010
:105A5000038000003000200027C038002000000034
:105A60001B802440244024401B8000001C0022C0D6
:105A7000224022401F80000000000000084000007B
:105A800000000000000000000460000000000000B2
:105A9000000004000A0011002080404009000900B5
:105AA00009000900090000000000404020801100AA
:105AB0000A00040018002000234024001800000001
:105AC0001F802040274029401F400000004007C0A1
:105AD00039000F0001C0004020403FC02440244056
