:020000040800F2
:10000000980D002089020008B12800086327000825
:1000100063280008250B0008B52C0008000000002C
:10002000000000000000000000000000112900088E
:10003000250D000800000000B3280008132900085F
:10004000AD020008AD020008AD020008AD020008D4
:10005000AD020008AD020008AD020008AD020008C4
:10006000290D00083D0D0008AD020008AD02000892
:10007000AD020008AD020008AD020008AD020008A4
:10008000AD020008AD020008AD020008AD02000894
:10009000290B0008AD020008AD020008AD020008FF
:1000A000AD020008AD020008AD020008AD02000874
:1000B000AD020008AD02000829290008AD020008C1
:1000C000AD020008AD020008AD020008AD02000854
:1000D000AD020008712C0008AD020008AD02000856
:1000E000AD020008AD020008AD020008AD02000834
:1000F000AD020008AD020008AD020008AD02000824
:10010000AD020008AD020008AD020008AD02000813
:10011000AD020008AD020008AD020008AD02000803
:10012000AD020008AD020008AD020008AD020008F3
:100130005D0C0008AD020008AD020008AD02000829
:10014000AD020008AD020008AD020008AD020008D3
:10015000AD020008AD020008AD020008AD020008C3
:10016000AD020008AD020008AD020008AD020008B3
:10017000AD020008AD020008AD020008000000005A
:10018000AD020008AD02000800F002F800F06DF8C2
:100190000AA090E8000C82448344AAF10107DA45E2
:1001A00001D100F062F8AFF2090EBAE80F0013F0C7
:1001B000010F18BFFB1A43F001031847A0CD000040
:1001C000C0CD00000A444FF0000C10F8013B13F0C2
:1001D000070408BF10F8014B1D1108BF10F8015BA0
:1001E000641E05D010F8016B641E01F8016BF9D193
:1001F00013F0080F1EBF10F8014BAD1C0C1B09D1EA
:100200006D1E58BF01F801CBFAD505E014F8016B5B
:1002100001F8016B6D1EF9D59142D6D370470000ED
:100220000023002400250026103A28BF78C1FBD8FF
:10023000520728BF30C148BF0B607047642900F0E7
:100240003181752900F02E81782900F067816329BA
:1002500000F03883732900F03D83002070471FB5FC
:1002600009F019FA1FBD10B510BD00F055FB11467D
:10027000FFF7F5FF06F0F2FA00F073FB03B4FFF7A7
:10028000F2FF03BC05F057F80C48016841F4700117
:1002900001600B4880470B480047FEE7FEE7FEE79A
:1002A000FEE7FEE7FEE7FEE7FEE7FEE7FEE700000B
:1002B00005480649044A064B7047000088ED00E0F7
:1002C000192900088901000898090020980D0020CC
:1002D00098090020704753EA020C00F069802DE96C
:1002E000F04B4FF00006002B1FBFB3FA83F503FA63
:1002F00005F424FA05F65E4012BF1643B2FA82F501
:1003000002FA05F4C5F120051EBF22FA05FC44EAF5
:100310000C04203556EA044C4FEA144418BF641C00
:100320004FF000084FF00009904271EB030C39D3F5
:10033000002919BFB1FA81F701FA07F6B0FA80F780
:1003400000FA07F6C7F120071EBF20FA07FC46EAAD
:100350000C062037B6FBF4FCA7EB0507103F07F0AF
:100360001F0BCBF120060CFA0BFB2CFA06F644BF50
:10037000B3460026202FA4BF5E464FF0000B5BEA79
:10038000060C08BF4FF0010B19EB0B09ABFB027C0D
:1003900048EB0608C01B06FB02CC0BFB03CC71EB41
:1003A0000C01C1E70B46024641464846BDE8F08BCA
:1003B00013B54FF000004FF00001AFF30080BDE82F
:1003C0001C407047B2F120030AD5C2F1200301FAA4
:1003D00002F120FA03F300FA02F041EA0301704748
:1003E00000FA03F14FF00000704700000FB4044919
:1003F00010B503AA029800F071FA10BC5DF814FB66
:100400001000002070B5044685690068C10601D55A
:10041000302600E02026C00707D070BDD4E90121B6
:1004200030469047206A401C20626D1EF6D570BD94
:1004300070B5044685690078C00707D170BDD4E95E
:10044000012120209047206A401C20626D1EF6D5B5
:1004500070BD70B50C460546012A05D02878800687
:1004600000D5EA69002302E0012305E05B1C93420A
:1004700002D2E05C0028F9D1A869E618C01AA86188
:10048000286A184428622846FFF7BCFF04E0D5E933
:10049000012114F8010B9047B442F8D32846FFF726
:1004A000C7FF70BD2DE9F04106460024106875298C
:1004B000314616A510D0AFF30080002802DA404282
:1004C00013A507E031688A0701D512A502E04907A4
:1004D00004D511A5012401E0AFF3008000210A2218
:1004E00006F1240709E0B0FBF2FCB0FBF2F302FBDB
:1004F0001C00303078541846491C0028F3D123469C
:100500002A463046BDE8F04100F060B90000000026
:100510002D0000002B0000002000000070B50446F4
:100520000D4621461068AFF300802188090502D5E9
:100530000F4A7A4402E00E4A7A440E32002104F156
:10054000240305E000F00F060009965D5E54491C87
:100550000028F7D120780023000704D5702D02D0A1
:1005600009B1022311322046BDE8704000F02EB9D7
:1005700004C200002DE9F05F894604464FF0000AEE
:10058000DFF874B1FB44C0F820A02046E16888473A
:10059000002874D0252806D0D4E901219047206A8C
:1005A000401C2062F1E700265F462046E16888474C
:1005B0002028054607DB312D05D2781910F8200CCC
:1005C00008B10643F1E7B00701D526F00406C4F8E8
:1005D0001CA00027C4F818A02A2D09D0284604F032
:1005E000A3FE38B304EB8708303DC8F8185019E073
:1005F00059F8041B204604EB87029161E1688847A3
:10060000012F054618D1E069002820DA26F02006DF
:100610001DE0D8F8180000EB800005EB40003038F2
:10062000C8F818002046E1688847054604F07CFEBB
:100630000028EED1012F0AD02E2D08D12046E168E6
:1006400088477F1C0546022F46F02006C4DBA069C0
:10065000002803DA404246F00106A061F00701D00D
:1006600026F010066C2D0BD0682D09D04C2D39D0FA
:100670006A2D35D0742D35D07A2D33D016E038E080
:10068000E1682F4620468847B842054609D16C2FBD
:1006900026D04FF48060E16806432046884705462F
:1006A00004E06C2F1AD04FF4807006430DB3A5F10F
:1006B0004100192802D8203546F400664A462946EA
:1006C000204626604E46FFF7B9FD80B101280BD0C9
:1006D000F61D26F0070000F1080956E74020E4E780
:1006E0008020D8E70020D6E706F104094DE7284628
:1006F00052E7206ABDE8F09FDAC1000010B5203A49
:10070000C0F00B80B1E81850203AA0E81850B1E8CA
:100710001850A0E81850BFF4F5AF5FEA027C24BF80
:10072000B1E81850A0E8185044BF18C918C0BDE877
:1007300010405FEA827C24BF51F8043B40F8043B40
:1007400008BF7047D20728BF31F8023B48BF11F8F5
:10075000012B28BF20F8023B48BF00F8012B70474F
:100760004FF0000200B5134694469646203922BF4A
:10077000A0E80C50A0E80C50B1F12001BFF4F7AF95
:10078000090728BFA0E80C5048BF0CC05DF804EB77
:10079000890028BF40F8042B08BF704748BF20F8E5
:1007A000022B11F0804F18BF00F8012B70477047E3
:1007B00070477047704710B500F0A2F8006810BD90
:1007C00010B5044600F09CF8046010BD2DE9F04718
:1007D0000D4699469246044600F1240801688806B1
:1007E00004D5E06921F01001216000E00120A84259
:1007F00001DD471B00E00027A1697A1902EB09001F
:10080000081AA0612078C00602D42046FFF7FAFD3E
:10081000002608E0D4E901211AF806009047206A72
:10082000401C761C20624E45F4DB2078C0060AD5B9
:100830002046FFF7E7FD06E0D4E90121302090478C
:10084000206A401C2062381EA7F10107F4DC07E093
:10085000D4E9012118F805009047206A401C206265
:10086000281EA5F10105F3DC2046FFF7E1FD207805
:10087000000602D50220BDE8F0870120FBE700005A
:1008800001694A1C02610878704700B58FB0CDE954
:1008900001310021059105497944CDE90310114644
:1008A0006846FFF767FE0FB000BD0000E5FFFFFFE1
:1008B00010B5436913B1AFF3008001E0FFF7C9FD44
:1008C000012010BD127800F124010A7000224A7044
:1008D0000122EDE711684FF0FF32E9E7074B70B5F1
:1008E0000D467B44FFF7D1FF0446284600F00CF884
:1008F00010B14FF0FF3070BD204670BD375500007D
:100900000048704738090020007B00F080007047E5
:1009100000487047380900207546FFF7F9FFAE46DA
:1009200005006946534620F00700854618B020B5FB
:10093000FFF7BEFCBDE820404FF000064FF0000777
:100940004FF000084FF0000B21F00701AC46ACE877
:10095000C009ACE8C009ACE8C009ACE8C0098D46E4
:1009600070470446AFF300802046FFF787FC10B5C0
:100970000146806B026C12F0500F05D0026CD2065B
:1009800026D500F08FFA10BD016C41F400710164AE
:1009900001688A6812F0405F17D1027EAAB9CA6A5C
:1009A00012F4700F02D08A6852050ED44A6822F001
:1009B00020024A60016C21F480710164016CC90459
:1009C00003D4016C41F00101016400F069FA10BD2B
:1009D000806BC26CBDE810400846104710B5806BB4
:1009E00040210164416C41F00401416400F05AFA75
:1009F00010BD10B5806B00F054FA10BD464910B51B
:100A00004A6822F440324A604A6843681A434A609E
:100A100001684A6822F480724A6001684A68036982
:100A200042EA03224A6001684A6822F040724A6042
:100A300001684A6883681A434A6001688A6822F438
:100A400000628A6001688A68C3681A438A60816AA2
:100A50006FF07062D14201688A6822F070628A6029
:100A600001688A680CD0836A1A438A6001688A68C0
:100A700022F040528A6001688A68C36A1A4301E022
:100A800022F040528A6001688A6822F002028A607D
:100A900001688A68037E42EA43028A6090F8201067
:100AA000002901684A680FD042F400624A60016878
:100AB0004A6822F460424A6001684A68174C436AF7
:100AC00004EB43331A4301E022F400624A600168F8
:100AD000CA6A22F47002CA620168CA6A838B104C27
:100AE00004EB03531A43CA6201688A6822F4007255
:100AF0008A6001688A6890F8303042EA43228A604E
:100B000001688A6822F480628A6001688A684069A4
:100B100042EA8020886010BD0023014000E0FFFF12
:100B20000000F0FFFEE700001CB5084A6B460021FC
:100B3000A2F1400000F0B4FB002805D103490A7C73
:100B40000868694601F0B6FE1CBD0000FC040020E8
:100B500010B501F007FE11480068416941F002013B
:100B6000416100221146142000F0C4FF142000F05F
:100B7000B4FF00F041F8094800F0EAFC10B108A009
:100B8000FFF734FC0221054800F08EFA002804D05B
:100B9000BDE810400DA0FFF729BC10BDBC0400202B
:100BA0000D0A205468652043414E207065726970BB
:100BB000686572616C20686173206E6F7420737455
:100BC000617274656421200D0A0000000D0A204343
:100BD000414E20525830206E6F74696669636174AB
:100BE000696F6E20686173206E6F74206F70656E20
:100BF000656421200D0A000000B58BB000200121A2
:100C0000CDE9060105900290039004900E20CDE9F5
:100C100008106946044800F0BDFA002802D003A07D
:100C2000FFF7E4FB0BB000BDBC0400200D0A20540C
:100C300068652043414E2066696C74657220636F5D
:100C40006E66696720686173206E6F742066696ED6
:100C5000697368656421200D0A0000000648006879
:100C6000800608D50549012008700348083001684E
:100C700041F020010160704704640240340000200C
:100C800001681823CAB2103AB2FBF3F2054B6FF3B6
:100C90000901032A9B5CC36500D9091D81650846CB
:100CA00070470000B297000810B5014600208B691C
:100CB0008A6A4FF0C07453B1B3F5005F15D072B1BA
:100CC000012A0CD0022A0AD0032A09D104E01AB161
:100CD000012A06D0022A03D1C96AC90100D5012020
:100CE00010BDC96AA142FAD010BD002AF7D0012A6E
:100CF000F2D0022AF3D0032AF3D010BD30B5046835
:100D0000256825F480252560046863608368402B8E
:100D1000036803D099600068C26030BD9A600068C3
:100D2000C16030BD7047000010B5042000F08EFD9A
:100D300001490420086010BD143C014010B5082092
:100D400000F084FD01490820086010BD143C0140FA
:100D500072B6FEE778B50024009490F83C20012A92
:100D600019D0012280F83C200A6807250368092A67
:100D700013D9DE680A3A02EB42029540AE43DE60C8
:100D80000A788B680A3A02EB420293400268D568FF
:100D90002B43D36010E0022078BD1E6902EB4202B3
:100DA0009540AE431E610A788B6802EB4202934085
:100DB000026815692B4313614A681F25072A13D25D
:100DC00003685E6B521E02EB82029540AE435E6387
:100DD0000A8893B20A79521E02EB8202934002689B
:100DE000556B2B43536327E003680D2A12D21E6B09
:100DF000D21F02EB82029540AE431E630A8893B273
:100E00000A79D21F02EB820293400268156B2B43D2
:100E1000136311E0DE6A0D3A02EB82029540AE43A5
:100E2000DE620A8893B20A790D3A02EB820293409D
:100E30000268D56A2B43D362164B0568144A9D425B
:100E400006D10D68122D03D1556845F48005556013
:100E500005689D4218D10B68102B01D0112B13D1BE
:100E6000536843F400035360096810290CD10A4900
:100E70000A4A0968B1FBF2F101EB8101490000E087
:100E8000491E00910029FBD180F83C40002078BD2C
:100E900000230140002001400400002040420F00D8
:100EA00070477047704770B504004FF0000603D0DC
:100EB000206C002510B107E0012070BD204600F035
:100EC0001DF8656484F83C50206CC00610D4206C7A
:100ED00020F4885040F0020020642046FFF78EFD89
:100EE0006564206C20F0020040F00100206400E006
:100EF000012684F83C50304670BD000000B5006803
:100F0000114987B088421CD110480021026842F480
:100F100080720260006800F4807005900B481438FD
:100F2000026842F001020260006800F001000590D2
:100F3000202000900320CDE901016946044800F01B
:100F400091FC07B000BD0000002001404438024081
:100F500000000240F8B500230446009390F83C00DE
:100F6000012807D0012084F83C0020688568ED073F
:100F700002D011E00220F8BD856845F001058560CA
:100F80004048414D0068B0FBF5F000EB400000E048
:100F9000401E00900028FBD120688568ED0503D530
:100FA000856825F48075856020688568ED075FD0C9
:100FB000256C40F20166B54345F4807525644068B0
:100FC000400505D5206C20F4005040F4805020648A
:100FD000206CC00404D5606C20F00600606400E062
:100FE000636484F83C30A36B2948284DD863A36B15
:100FF00028481864A36B2848D86423686FF022003F
:1010000018602068436843F0806343602068836809
:1010100043F480738360134620680A46A66B00F190
:101020004C01304600F0A5FB68681C49C0062068EA
:1010300006D0884224D1816811F0405F13D01FE0B0
:101040008842F8D0164A904203D1D1F80423D20640
:10105000F1D0144A904213D1D1F8041301F01F01CA
:101060001029E8D30CE0816841F08041816007E0FD
:10107000206C40F010002064606C40F0010060645F
:101080000020F8BD0400002040420F000023014072
:101090006F090008F3090008DD090008002001407D
:1010A000002101400022014090F82020012A07D0B1
:1010B000022A05D0416A41F4802141620120704733
:1010C000006842690A43426100207047F0B590F819
:1010D00020500468A468012D05D0022D03D0416A78
:1010E00041F4802153E014F0406F01D1E5004BD56D
:1010F000C4F30164022C03D9416A41F4000146E0C3
:101100000125A5401D608B684FF4C0759BB1CE686A
:1011100033434E6843EAC603066805EB0417F351F0
:101120004FF4C273076803EB04130E69FE50097D88
:10113000012905D009E00E88CB6843EA4653EBE766
:101140000168CE5846F48076CE501179D2F8053039
:101150004FF4C67641EA0323016806EB04168B516F
:101160001178D2F801204FF4C47341EA02210268D9
:1011700003EB0413D150006805EB0411425842F010
:10118000010242500020F0BD416A41F40011416269
:101190000120F0BD10B590F82020012A07D0022AC6
:1011A00005D0416A41F480214162012010BD3B48D5
:1011B000D0F8002242F00102C0F80022D0F800224C
:1011C00022F47C52C0F80022D0F800224B6A42EA96
:1011D0000322C0F800220A7D02F01F0301229A4078
:1011E000D0F81C329343C0F81C32CB69B3B9D0F8A5
:1011F0000C329343C0F80C328C894B6864F31F4364
:101200004C6900EBC404C4F840320C890B6864F3E9
:101210001F434C6900EBC404C4F84432CB69012B72
:1012200016D1D0F80C321343C0F80C320C884B683E
:1012300064F31F434C6900EBC404C4F840320C89CA
:10124000CB6864F31F434C6900EBC404C4F8443218
:101250008B69002BD0F804320ED01343C0F804324F
:101260000B69002BD0F8143208D01343C0F81432A5
:10127000096A012904D008E09343EFE79343F5E7B7
:10128000D0F81C121143C0F81C12D0F8001221F043
:101290000101C0F80012002010BD000000640040F1
:1012A00030B590F82040012C05D0022C03D0416AC3
:1012B00041F480215DE00468002955D02469A40729
:1012C00054D04FF4D874056804EB01142D5915F06F
:1012D0000405956005682D594ED0ED0855600568E8
:1012E0002C5904F00204D4604FF4DA74056804EB5E
:1012F00001142D5905F00F05156105682D59C5F329
:101300000725956105682C59240C54614FF4DC7253
:10131000046802EB0112A4581C700468A458240A43
:101320005C700468A458240C9C700468A258120EC7
:10133000DA704FF4DE72046802EB0112A4581C71DB
:101340000468A458240A5C710468A458240C9C7195
:101350000468A258120EDA71006881B1016941F087
:1013600020010161002030BDE468A8E7416A41F432
:1013700000114162012030BD6D0D1560AFE7C168FD
:1013800041F02001C160EDE70246002092F82010F4
:10139000012901D002290CD111688A68520100D5B7
:1013A00001208A68120100D5401C8968C90000D557
:1013B000401C704770B5040003D094F8200010B1B1
:1013C00004E0012070BD204600F082F8206801682A
:1013D00021F00201016000F03BFB0546052604E018
:1013E00000F036FB401B0A2811D8206840688007AF
:1013F000F6D42068016841F00101016000F028FB8B
:1014000005460BE000F024FB401B0A2806D9606A61
:1014100040F40030606284F82060D2E720684068C1
:10142000C007EFD0207E0128206801683DD021F060
:1014300080010160607E01282068016838D021F0B9
:1014400040010160A07E01282068016833D021F0AE
:1014500020010160E07E0128206801682ED041F063
:1014600010010160207F01282068016829D021F047
:1014700008010160607F01282068016824D021F004
:1014800004010160D4E902010843D4E904121143C4
:1014900008436168491E08432168C86100206062F2
:1014A000012084F82000002070BD41F08001C0E7D9
:1014B00041F04001C5E741F02001CAE721F01001E9
:1014C000CFE741F00801D4E741F00401D9E700007B
:1014D00000B500681B4987B0884230D11A480168BE
:1014E00041F001010160016801F00101059101680D
:1014F00041F001010160016801F00101059112490B
:1015000010310A6842F000720A60096801F0007147
:101510000591016841F0010101600068012100F0BE
:10152000010005904FF4C05000900220CDE9010168
:101530000390092004906946044800F093F907B02D
:1015400000BD00000064004030380240000002404E
:1015500070B5044690F82000012804D0606A40F479
:101560000020606217E0022084F8200020680168F3
:1015700021F00101016000F06BFA05460DE000F07A
:1015800067FA401B0A2808D9606A40F4003060629C
:10159000052084F82000012070BD20684068C00745
:1015A000EDD1606270BD2DE9F0410446876D00F019
:1015B0004FFA054694F835000026022806D0802010
:1015C000606584F834600120BDE8F081206801681E
:1015D00021F0160101602068416921F0800141611C
:1015E000206C08B9A06C20B12068016821F00801C6
:1015F00001602068016821F0010101600BE000F04A
:1016000027FA401B052806D92020606504F8346FAE
:1016100003206070D8E720680068C007EFD194F815
:101620005C103F208840B86004F8346F012060707F
:101630000020C9E790F83510022903D080214165C8
:1016400001207047052180F835100068016821F0FD
:1016500001010160002070472DE9F041044600F0CF
:10166000F7F905465CB1002684F83460022084F85E
:1016700035002068016821F0010101600DE00120C2
:10168000BDE8F08100F0E4F9401B052805D92020D1
:101690006065032084F83500F2E720680068C00721
:1016A000F0D121680A6820480240D4E901031843B8
:1016B000D4E903352B43184363691843A3691843DE
:1016C000E3691843236A18431043626A042A03D16A
:1016D000D4E90B231A431043086020684069656A07
:1016E00020F0070128460D43012704280CD1A06AE9
:1016F0000543E06A40B12046FFF7D6FA20B140200A
:10170000606584F83570BAE7206845612046FFF7C8
:10171000B7FA94F85C203F2191408160666584F8B7
:1017200035700020ACE700003F8010F070B5044633
:1017300090F83400002501280CD0012084F83400F2
:1017400094F835600020012E06D084F8340002257C
:10175000284670BD022070BD022684F835606065A1
:101760002046FFF7CBFA2068016841F001010160D3
:10177000EEE72DE9F0410446866D90F8340000252F
:1017800001280DD0012084F8340094F83570002031
:10179000012F07D084F8340002252846BDE8F081E7
:1017A0000220FBE7022784F8357060652046FFF7CA
:1017B000A5FA94F85C103F208840B060206801686A
:1017C00041F016010160206C20B12068016841F0F1
:1017D000080101602068016841F001010160DCE757
:1017E00080B204F0C1BA000010B50C4C042808D136
:1017F00008210B4800F01CF90028206807D0401E83
:1018000020602168BDE8104006A0FEF7EFBD401C37
:10181000206008A0FEF7EAFDF3E70000300000209A
:10182000001002400D0A20636F756E743A20256423
:10183000200D0A000D0A20646574656374206869D0
:1018400067682070696E200D0A000000044910B519
:101850000A68024202D00860FFF7C6FF10BD000010
:10186000143C01402DE9F84FDFF89891002209F16E
:10187000040A0AF1040B03274FF00F0C0BF1040EBE
:1018800001250B6895402B40AB4272D10C7904F0D6
:101890000304012C01D0022C15D18668540007FAEC
:1018A00004F826EA0806D1F80C8008FA04F848EA99
:1018B0000608C0F808804468AC430D79C5F30015EC
:1018C0009540254345600C79E443A40708D0C568DA
:1018D000540007FA04F6B5438E68A6402E43C6604E
:1018E0000C7904F00304022C11D1D40800EB840617
:1018F000356A5407E40E0CFA04F825EA0805D1F815
:10190000108008FA04F848EA0508C6F8208005683F
:10191000540007FA04F6B5430E7906F00306A64014
:101920002E4306604C68E40066D5374C256845F4C4
:1019300080452560246822F0030504F48044009467
:10194000324C05EB0408D8F808589407260F0CFA17
:1019500006F4A5432E4CA04201D1002424E02D4CD6
:10196000A04201D101241FE02B4CA04202D102244D
:101970001AE041E0294CA04201D1032414E0284C94
:10198000A04201D104240FE0264CA04201D105243D
:101990000AE0254CA04201D1062405E0234CA042D8
:1019A00001D1072400E00824B4402C43C8F80848BB
:1019B000D9F800404D464E689C43F60300D51C43C1
:1019C0002C60DAF8004055464E689C43B60300D5BB
:1019D0001C432C60DBF800405D464E689C43F602D9
:1019E00000D51C432C60DEF8004075464E689C43D1
:1019F000B60200D51C432C60521C102AFFF440AFE5
:101A0000BDE8F88F003C01404438024000300140FE
:101A1000000002400004024000080240000C0240A6
:101A2000001002400014024000180240001C024056
:101A30000069084000D0012070470AB181617047F9
:101A40000904FBE701480068000C7047002004E02F
:101A50000148806870470000140000200248816837
:101A6000027811448160704714000020094810B5C5
:101A7000016841F400710160016841F48061016016
:101A8000032000F057F80F2000F006F800F024F8CB
:101A9000002010BD003C024070B50D4D04464FF4CF
:101AA0007A712878B1FBF0F00A490968B1FBF0F0CF
:101AB00000F0F4FA48B9102C07D200222146501E3B
:101AC00000F018F800206C6070BD012070BD0000AF
:101AD00014000020040000207047002809DB00F0FB
:101AE0001F02012191404009800000F1E020C0F870
:101AF00000117047F0B40E4B1B68C3F30223C3F10F
:101B00000704042C00D904241D1D072D01D2002335
:101B100000E0DB1E012606FA04F56D1E0D409D4017
:101B20009E40761E164045EA0601F0BC01F0DBB887
:101B30000CED00E0064A00F0070110684FF6FF03C5
:101B4000184040EA01200349084310607047000034
:101B50000CED00E00000FA052DE9F0470D46040009
:101B600065D0DFF81491D9F80000EFB200F007005B
:101B7000A84207D289F80070D9F8000000F00700E9
:101B8000A84254D120683D4E810712D5400703D5A5
:101B9000306840F4E05030602078000703D53068AA
:101BA00040F4604030603068A16820F0F0000843E5
:101BB00030602078C0072DD030496068083901288E
:101BC00012D0022813D0032811D0096889070029F0
:101BD0002DDA316821F0030101433160FFF738FF4E
:101BE000804641F2883A0EE009688903EFE7096808
:101BF0008901ECE7FFF72CFFA0EB0801514502D962
:101C00000320BDE8F0873068616800F00C00B0EB9D
:101C1000810FEFD1D9F80010484601F00701A94221
:101C200007D90770006800F00700A84201D0012022
:101C3000E7E72078400705D53068E16820F4E050F8
:101C4000084330602078000706D53068216920F409
:101C5000604040EAC100306000F038F83168084A5E
:101C6000C1F30311515CC84006490860064800688A
:101C7000FFF712FF0020C4E7003C02400838024092
:101C80009A97000804000020180000200448054925
:101C900000680968044AC1F38221515CC84070475A
:101CA0000400002008380240AA97000804480549AB
:101CB00000680968044AC1F34231515CC84070476A
:101CC0000400002008380240AA970008154810B503
:101CD000006810F00C01144813D0431004290FD0F1
:101CE00008290ED10F4C241F216801F03F02216802
:101CF000490207D52068C0F38810A0FB030106E065
:101D0000184610BD2168C1F38811A1FB0001002312
:101D1000FEF7E1FA2168C1F30141491C4900B0FB1B
:101D2000F1F010BD083802400024F4002DE9F84F0E
:101D3000040075D02078DFF838A3C007AAF10405A5
:101D400048D00AF104000168C1F38101012908D0DB
:101D50000068C0F3810002280AD1DAF800004002CE
:101D600006D52868800335D560680028E1D031E0C9
:101D70006068B0F5803F10D0B0F5A02F286810D073
:101D800020F480302860286820F480202860606873
:101D9000A0B1FFF75DFE06460CE0286840F48030F5
:101DA000F4E740F480202860F7E7FFF751FE801B3E
:101DB000642871D828688003F7D50BE0FFF748FE48
:101DC000064604E0FFF744FE801B6428F1D828682B
:101DD0008003F7D42078DFF89C9280074FF0000B47
:101DE0003DD5A348001D016811F00C0F08D0006814
:101DF000C0F3810002280AD1DAF80000400206D4BC
:101E00002868800715D5E068012809D111E0E0684D
:101E1000B8B10120C9F80000FFF71AFE064605E038
:101E200022E1FFF715FE801B0228C2D82868800730
:101E3000F7D52868216920F0F80040EAC100286041
:101E40000DE0C9F800B0FFF703FE064604E0FFF717
:101E5000FFFD801B02281FD828688007F7D4207850
:101E6000000722D5824F84486169703771B1012122
:101E70000160FFF7EDFD064604E0FFF7E9FD801B7A
:101E8000022809D838688007F7D50EE0C0F800B0FE
:101E9000FFF7DEFD064605E082E0FFF7D9FD801B77
:101EA00002287DD838688007F7D42078400765D5A8
:101EB0006F484FF000083C300068C0000BD46C48FD
:101EC0003C30016841F08051016000684FF001082A
:101ED00000F080500090694F3868C0050FD4386812
:101EE00040F480703860FFF7B3FD064604E0FFF76A
:101EF000AFFD801B022853D83868C005F7D55C4F6A
:101F0000A0686C3701280FD00528386810D020F061
:101F100001003860386820F004003860A068B0B173
:101F2000FFF796FD06460EE0386840F00100F4E742
:101F300040F004003860F7E7FFF78AFD811B41F2AB
:101F40008830814263D838688007F5D50DE0FFF707
:101F50007FFD064606E0FFF77BFD811B41F28830DE
:101F6000814254D838688007F5D4B8F1000F05D005
:101F70003F483C30016821F080510160A069B8B34E
:101F80003B49091D0968C1F38101022946D0022895
:101F9000584606D0C9F86000FFF75AFD044639E0FC
:101FA00035E04F46C9F86000FFF752FD064604E0F1
:101FB000FFF74EFD801B022829D828688001F7D43E
:101FC000D4E907010843A16A2D4A490802EB0141FF
:101FD000626A41EA8211084394F82C1040EA0161D8
:101FE000CAF8001001203866FFF732FD044605E00C
:101FF0003CE0FFF72DFD001B022808D8286880016F
:10200000F7D533E0FFF724FD001B022802D9032097
:10201000BDE8F88F28688001F4D427E00128F7D0C4
:10202000DAF80000E26900F4800191421CD1226AD2
:1020300000F03F01914217D147F6C071626A01403A
:10204000B1EB821F10D1A26A4FF0FF3300F4403190
:1020500003EB5202B1EB024F06D194F82C1000F0C2
:102060007060B0EB016F01D00120D1E70020CFE715
:102070000438024000004742800E47420070004092
:102080000000FFFF4FF0E0210428086903D020F092
:1020900004000861704740F00400FAE710B5401EE4
:1020A000B0F1807F01D3012010BD4FF0E0246061CA
:1020B0000F21601700F017FE0020A06107202061AB
:1020C000002010BD70B590F83C20012A32D00125C7
:1020D00080F83C50022280F83D20026853689468E2
:1020E00023F070060B6833435360134B02689A4227
:1020F00014D0B2F1804F11D0104B9A420ED0104B39
:102100009A420BD00F4B9A4208D00F4B9A4205D0FF
:102110000E4B9A4202D00E4B9A4204D1496824F0E9
:1021200080031943916080F83D50002180F83C10F5
:10213000084670BD022070BD000001400004004050
:1021400000080040000C0040000401400040014035
:102150000018004010B5040003D094F83D0010B101
:1021600007E0012010BD002084F83C00204600F06C
:102170001EF8022084F83D00211D206800F0EEFBCF
:10218000012084F8460084F83E0084F83F0084F87B
:10219000400084F8410084F8420084F8430084F849
:1021A000440084F8450084F83D00002010BD7047CD
:1021B00090F83D10012901D001207047022180F8DC
:1021C0003D100168CA6842F00102CA600068114906
:1021D000884214D0B0F1804F11D00F4988420ED000
:1021E0000E4988420BD00E49884208D00D498842DA
:1021F00005D00D49884202D00C49884204D181683B
:1022000001F00701062903D0016841F001010160D6
:10221000002070470000014000040040000800401A
:10222000000C004000040140004001400018004044
:102230002DE9F0410D46040003D094F83D0018B19B
:1022400008E00120BDE8F081002084F83C00204631
:1022500000F040F8022084F83D002068816844F2D4
:10226000070291438160211D206800F077FB206800
:1022700081688269066A2B68AF690B4340F20331BB
:102280008A4342EA0722A968EF6911434FF6FC42EC
:102290009143EA6841EA07210A4329692F6A090143
:1022A00041EA073111436A686D6926F0AA0646EAD9
:1022B00005152A4383602068816154F8460B026249
:1022C000012004F81F09E0752076E0762077A075DC
:1022D0000020B7E710B586B0044614216846FEF723
:1022E0003FFA1249206888421ED111480021026835
:1022F00042F008020260006800F0080005900C48F7
:102300001038026842F001020260006800F001002B
:102310000590032000900220CDE90101CDE90310D2
:1023200069460448FFF79EFA06B010BD000C004055
:10233000403802400000024070B590F83E5004461C
:1023400090F83F3090F8422090F84300022621B1E7
:1023500004290BD0012D16D10FE0012D13D1012A34
:1023600011D184F83E6084F8426016E0012B0AD156
:10237000012808D184F83F600DE0012B03D1012A28
:1023800001D1012801D0012070BD84F83E6084F89D
:102390003F6084F8426084F8436091B1042904D01E
:1023A00001220021206800F03DFB01220421206869
:1023B00000F038FB2068016841F001010160002055
:1023C00070BD012200212068F2E77047704710F8C5
:1023D0003D1F407808437047F8B50268044610680E
:1023E000D168536910F00F0F4FF0000554D003F07F
:1023F000010601F4907737435FD0C20705D0CA05C4
:1024000003D5226C42F001022264420705D5DA07A7
:1024100003D0226C42F002022264820705D5DA075B
:1024200003D0226C42F004022264020707D501F0B7
:102430002002324303D0226C42F008022264226C54
:10244000002A35D0800604D5880602D5204600F043
:1024500016FB20684069216CC0F3801001F0080170
:102460000143204625D000F0F2FA20684169490670
:102470001BD5416921F040014161A06BA8B15949C8
:102480000165A06BFFF7D6F8002811D0A06B016D95
:1024900001B0BDE8F040084783060ED58B060CD589
:1024A0002046BDE8F84000F0EABA2046FFF78EFF6C
:1024B000F8BDFFF78BFF2564F8BD266B2023012EA6
:1024C00053D1C60651D5CE064FD51068506800903E
:1024D000506940062BD5A16B086840680004000CC9
:1024E000EAD0A68D8642E7D9E085C869B0F5807F3D
:1024F00018D0D06820F48070D0602068416921F045
:10250000010141612068416921F04001416184F885
:102510003E3025632068C16821F01001C160A06BC6
:10252000FFF741F8A08DE18D401A81B219E0A08D2E
:10253000E18D401A81B2E08D0028BDD00029BBD0CA
:10254000D06820F49070D0602068426922F00102C7
:10255000426184F83E3025632068C26822F0100290
:10256000C2602046FFF731FFF8BD05062BD50D06EA
:1025700029D594F83D002128F6D1A068B0F5805FF8
:1025800001D12069B0B1206A411C21622168007824
:102590004860E08C401E0004000CE084E4D1206818
:1025A000C16821F08001C1602068C16841F040012C
:1025B000C160F8BD206A0088C0F308005060206A3E
:1025C000801C2062E5E74006F3D54806F1D5D168C6
:1025D000204621F04001D16084F83D3000F0C0F881
:1025E000F8BD00003F2A000870B5040004D094F83C
:1025F0003D00002510B106E0012070BD84F83C507C
:10260000204600F023F8242084F83D002068C168AB
:1026100021F40051C160204600F088FA2068016969
:1026200021F4904101612068416921F02A01416152
:102630002068C16841F40051C1602564202084F8FD
:102640003D0084F83E00002070BD000030B50068F9
:102650001F4987B0884238D11E48016841F01001F7
:102660000160006800F0100005901A4814380168F5
:1026700041F001010160016801F00101059101686B
:1026800041F0010101600068012100F001000590A6
:102690004FF4007000900220CDE901010724CDE93C
:1026A00003040D4D69462846FFF7DCF82915009113
:1026B000049469462846FFF7D5F82520FFF70DFA60
:1026C000032211462520FFF715FA07B030BD0000A0
:1026D00000100140443802400000024090F83E30B3
:1026E000202B0ED159B152B190F83C30012B08D0BB
:1026F000012380F83C300023036300F09DBA0120E1
:10270000704702207047000030B5006811498842C8
:102710000CD1114A5088010408D4114644040978A8
:102720004FF0000306D50A2901D0538030BD40F494
:1027300000400DE00D2909D0C0F30D04074D401CE9
:1027400080B229555080C728EFD830BD40F4804072
:10275000508030BD001001400C00002040020020DD
:102760007047FEE710B5114C88B00F4820601C225E
:102770006946201DFDF7C2FF0320606000204FF472
:10278000C021A060C4E903014FF4A001616120767B
:102790006076A0760121E176207760772046FEF70B
:1027A00009FE08B010BD000000640040BC04002019
:1027B00010B58CB024216846FDF7D2FF00241648DE
:1027C000099414490A9401600321C0E901144FF4EB
:1027D0008062C0E90324846100910120CDE90140B9
:1027E00003940494CDE90540079469460A48089487
:1027F000FFF71EFD08B1FEF7ABFA099409A90648D8
:102800000A94FFF75FFC002801D0FEF7A1FA0CB094
:1028100010BD0000000C00401404002070B5002121
:1028200004F0C7F80C4804F0B9F80B48283004F05D
:10283000CEF8094E002450360AE04CB1052C07D0E2
:1028400006EB840595ED000A04F050FF85ED000AC3
:10285000641C0A2CF1DB70BD78080020012104F013
:10286000A8B8FEE770B5104C104D607820B110216B
:102870002846FFF7DDF830B110212846FFF7D8F8D9
:1028800001280CD00DE00A2003F06EFA1021284632
:10289000FFF7CEF828B900206070012070BD01203C
:1028A0006070002070BD0000240000200010024075
:1028B000704770471346082A04D00246194604A000
:1028C000FDF794BD0A78922A01D103F0B1BA70479E
:1028D0005265636569766564206D657373616765CC
:1028E000207769746820696E636F72726563742003
:1028F0006C656E6774683A2025642062797465732C
:102900002C2049443A203078253033580A00000002
:102910007047FFF7A3B800000248016841F4700156
:102920000160704788ED00E010B50A4C2068C0686F
:10293000C043C00709D108480069804721680020CA
:10294000486221686420C862E06021686FF001007D
:10295000086110BDF0080020D4000020F0B5026826
:10296000254D264E264FDFF89CC0274B4FF0804E5A
:10297000A84209D0704507D0B04205D0B84203D074
:10298000604501D0984203D122F070044A68224386
:10299000A8421BD0704519D0B04217D0B84215D00C
:1029A000604513D0984211D0184CA0420ED0184C5C
:1029B000A0420BD0174CA04208D0174CA04205D023
:1029C000164CA04202D0164CA04203D122F440740F
:1029D000CA6822434C6922F08002224302608A685E
:1029E000C2620A688262A84201D0984201D1096994
:1029F000016301214161F0BD00000140000400407D
:102A000000080040000C004000040140004001406C
:102A1000004401400048014000180040001C0040F4
:102A20000020004010B501F01F010123046A8B4013
:102A30009C430462036A8A401343036210BD10B5CD
:102A4000806B0021C185C184FFF7C0FC10BD016807
:102A5000CA6822F49072CA6001684A6922F00102D1
:102A60004A61016B012904D10168CA6822F0100291
:102A7000CA60202180F83E1000210163704710B524
:102A8000044690F83E00222801D0022010BDA06824
:102A90004FF48052904201D1216921B1A16A904244
:102AA0001BD048B10AE02168A06A4968C1F3080157
:102AB0000180A06A801C08E0206970B1206840682D
:102AC00000F07F000870A06A401CA062E08D401EEC
:102AD0000004000CE08503D01CE020684068F1E7AA
:102AE0002068C16821F02001C1602068C16821F41C
:102AF0008071C1602068416921F00101416120209D
:102B000084F83E00206B012806D02046FFF7FCFD2C
:102B100000202063002010BD2068C16821F0100152
:102B2000C160A18D2046FFF750FCF1E770B5044667
:102B300000680169E26821F4405111430161A16814
:102B40002069E26901436069104301432068C2685B
:102B500049F20C639A430A43C26020684169A26942
:102B600021F440711143416131492068884202D00B
:102B70003049884202D1FFF799F801E0FFF786F863
:102B8000E2690023192164253226B2F5004F6268FC
:102B900028D0A0FB0101930F9200FDF79CFB01469A
:102BA000B0FBF5F06FF01802504301EB800006EB2C
:102BB0000010B0FBF5F000F0F002B1FBF5F002EB15
:102BC0000012B1FBF5F06FF01803584301EB8000E1
:102BD00006EB0010B0FBF5F000F00F002168104488
:102BE000886070BDA0FB010192185B41FDF773FB8B
:102BF0000146B0FBF5F00201B1FBF5F06FF01803F0
:102C0000584301EB800006EBC000B0FBF5F000F08C
:102C1000F80002EB4002B1FBF5F0584301EB8000F5
:102C200006EBC000B0FBF5F000F00700D6E70000AF
:102C3000001001400014014081628285C28500219C
:102C40000164222280F83E2080F83C100168CA68A6
:102C500042F48072CA6001684A6942F001024A6126
:102C60000068C16841F02001C16000207047000089
:102C700070B500240C4D0D48FFF7AEFB02E0641C5C
:102C8000AC4204D80948FFF7A2FB2028F7D1002462
:102C900002E0641CAC4206D8012205490348FFF754
:102CA0001DFD0028F5D170BDFFFF0100D0030020FD
:102CB0000C000020FEE703B401984100009850EAA0
:102CC000C12018BF04204A0D18BF40F0010040F297
:102CD000FF72B2EB515F08BF40F00200012808BF4D
:102CE000052002B070470907090E002804DB00F137
:102CF000E02080F80014704700F00F0000F1E020A1
:102D000080F8141D7047000010B5B94A2DED020B74
:102D10002DED0C8B82B00F9921F000409FEDB6CBCA
:102D200090422CDBA0F140530E9AA3F17F631A432B
:102D30000FD0B349884202DC16D10E98A0B19DEDA8
:102D40000E0B02B0BDEC0C8B02B0BDE8104002F0DF
:102D5000A7BA0029C1BF9FEDAC0B02B0BDEC0C8B34
:102D600002B0C8BF10BD16E00120FDF729FD02B07A
:102D7000BDEC0C8B02B0BDE8104002F0A5BAA44A2D
:102D80009FEDA59B9FEDA6AB90425EDAA6499FED15
:102D9000A8CB814208DBB0EE4C0AF0EE6C0A02B020
:102DA000BDEC0C8B02B010BD9DED0E0B53EC102B47
:102DB00051EC100B06F008F941EC180B9E48062167
:102DC000B0EE480AF0EE680A784401F095FF53EC43
:102DD000182B51EC100B06F0F7F841EC1B0B974841
:102DE000B0EE480AF0EE680A0421784401F084FF4E
:102DF00053EC182B51EC100B06F0E6F853EC192BA2
:102E000005F0BAFD41EC100B51EC1B0B53EC102BF1
:102E100005F06EFE41EC100B53EC102B9DED0E0BEC
:102E200051EC100B06F0D0F853EC1A2B06F000FA18
:102E30009DED0E1B53EC112B06F0FAF953EC1C2BF5
:102E400006F0F6F941EC100BA9E79FED7D8B9FEDA5
:102E50007EBB9DED0E0B002953EC192B51EC100B92
:102E600052DA05F089FD53EC182B06F0ADF841EC71
:102E7000180B77480621B0EE480AF0EE680A78444D
:102E800001F03AFF53EC182B51EC100B06F09CF8B4
:102E900041EC1D0B6F48B0EE480AF0EE680A0421C1
:102EA000784401F029FF53EC182B51EC100B06F07D
:102EB0008BF853EC192B05F05FFD41EC190B51EC2D
:102EC000180B04F085FC41EC180B53EC192B51EC5A
:102ED0001D0B05F00DFE53EC182B06F075F853ECA6
:102EE0001A2B06F07DFA41EC100B51EC180B53EC49
:102EF000102B05F041FD53EC1B2B06F065F853EC4D
:102F00001C2B06F095F96DE006F092F953EC182BA6
:102F100006F05AF841EC180B04F05AFC41EC1A0B7D
:102F200000208DED00AB00909DED000B51EC1A0BD5
:102F300053EC102B05F020FD9DED000B41EC1C0B1C
:102F400053EC102B51EC100B06F03EF853EC182B01
:102F500006F06EF953EC1C2B05F0CAFD41EC1C0B7E
:102F60003D48B0EE480AF0EE680A0621784401F0C8
:102F7000C3FE53EC182B51EC100B06F025F841EC76
:102F80001D0B3648B0EE480AF0EE680A042178447A
:102F900001F0B2FE53EC182B51EC100B06F014F8B4
:102FA00053EC192B05F0E8FC41EC100B51EC1D0B18
:102FB00053EC102B05F09CFD53EC1A2B06F004F893
:102FC00053EC1C2B05F0D8FC41EC100B53EC102BF0
:102FD0009DED000B51EC100B05F0CEFC53EC1B2BC0
:102FE00005F0F2FF41EC100BD9E6000000000000F4
:102FF0000000F03F00000000182D4454FB21094060
:103000000000F07F00000000000000000000000051
:103010000000E03F00000000000000000000F03F62
:10302000075C143326A6913C0000603C00000000C1
:10303000182D4454FB21F93FAC990000BA990000C7
:10304000000000000000E03F000000000000004021
:10305000F6980000049900000898000016980000F7
:1030600070B5C1482DED020B2DED0E8B82B0119D78
:1030700025F000449FEDBEDB9FEDBFEB84423EDBBD
:10308000A4F140511098A1F17F6108430FD0BC48D2
:10309000844202DC28D1109830B39DED100B02B0B1
:1030A000BDEC0E8B02B0BDE8704002F0F9B89DEDAA
:1030B000100B53EC1D2B51EC100B05F085FF9DED13
:1030C000100B41EC180B53EC1E2B51EC100B05F0C0
:1030D0007BFF53EC182B05F04FFC41EC100B02B0BA
:1030E000BDEC0E8B02B070BD0120FDF769FB02B094
:1030F000BDEC0E8B02B0BDE8704002F0E5B8A1480F
:103100009FEDA18B844256DA9DED100BB4F1795FEF
:103110000ADA51EC100BFFF7CEFD042808BF02F0CD
:10312000F3F89DED100BDAE753EC102B51EC100B7C
:1031300005F04AFF41EC190B95480621B0EE490A0B
:10314000F0EE690A784401F0D7FD53EC192B51ECED
:10315000100B05F039FF41EC1A0B8E48B0EE490A0E
:10316000F0EE690A0421784401F0C6FD53EC192BF6
:1031700051EC100B05F028FF53EC182B05F0FCFB6D
:1031800041EC100B51EC1A0B53EC102B05F0B0FC7A
:10319000CDE900019DED000B53EC102B9DED100BC4
:1031A00051EC100B05F010FF9DED101B53EC112B93
:1031B00005F0E2FBD2E09DED100B51EC100B02F09C
:1031C00021FE53EC182B06F033F89FED730BCDE97D
:1031D000000153EC102B9DED000B51EC100B05F092
:1031E000F3FE41EC190B6E480621B0EE490AF0EEF1
:1031F000690A784401F080FD53EC192B51EC100B57
:1032000005F0E2FE41EC1B0B6648B0EE490AF0EE19
:10321000690A0421784401F06FFD53EC192B51EC3D
:10322000100B05F0D1FE53EC182B05F0A5FB41EC7B
:103230001C0B51EC190B04F0CBFA41EC180B5A485B
:103240009FED5BABA04222DC53EC1C2B51EC1B0B23
:1032500005F04EFCCDE900019DED000B51EC180B83
:1032600053EC102B05F0B0FE53EC182B05F084FB4B
:1032700053EC1A2B05F0A8FE53EC1D2B06F0B0F80A
:1032800053EC1E2B05F0D4FF41EC100B5FE08DEDED
:10329000008B002000909DED000B51EC180B53ECBF
:1032A000102B05F069FB9DED000B41EC1E0B53EC60
:1032B000102B51EC100B05F087FE53EC192B05F089
:1032C000B7FF53EC1E2B05F013FC41EC190B53EC2C
:1032D0001C2B51EC1B0B05F00BFC41EC1B0B53ECB6
:1032E0001A2B51EC190B05F06FFE53EC1D2B05F05A
:1032F0009FFF41EC190B53EC1A2B51EC180B05F006
:1033000063FE53EC1B2B05F05FFE53EC192B06F00C
:1033100067F89DED000B41EC180B53EC1A2B51ECA8
:10332000100B05F051FE9FED249B53EC192B05F07B
:103330007FFF41EC100B51EC180B53EC102B06F0F7
:103340004FF853EC192B05F073FF41EC100B002DD7
:103350003FF7C5AE51EC100B05F0D0FA41EC100B65
:10336000BDE60000000000000000F03F000000008B
:10337000075C143326A6913C182D4454FB21F93FD9
:103380000000F07F0000E03F000000000000F03F80
:10339000809600008E960000000000000000E03FD4
:1033A000D2950000E09500003333EF3F00000000AD
:1033B0000000000000000040182D4454FB21E93FAC
:1033C00070B59B482DED020B2DED068B079D25F06A
:1033D0000044A04218DC9748844202DC0AD10698D7
:1033E00040B19DED060BBDEC068B02B0BDE8704010
:1033F00001F056BF002DCCBF9FED8F0B9FED900BC2
:10340000BDEC068B02B070BD8F48A04215DD8F4821
:10341000A042D8BF4FF0FF3458DD9DED060B51ECB4
:10342000100BFFF748FC042808BF01F06DFF9DED6D
:10343000060BBDEC068B02B070BD9DED060B51EC8A
:10344000100B02F0DFFCCDE9060181489FED828B75
:10345000A0423CDD8248A0421FDD00249FED82ABEC
:103460009DED060B53EC1A2B51EC100B05F084FA72
:103470009DED060B41EC190B53EC1A2B51EC100B84
:1034800005F0A2FD53EC182B05F0AAFF53EC192B05
:1034900005F02EFBCDE9060149E09DED060B012468
:1034A00053EC182B51EC100B05F066FA9DED060B52
:1034B00041EC190B53EC182B51EC100B05F090FF5D
:1034C00053EC192B05F014FBCDE906012FE06848F9
:1034D000A0421FDD02249FED689B9DED060B53EC7F
:1034E000192B51EC100B05F06FFD53EC182B05F068
:1034F00043FA9DED060B41EC180B53EC192B51ECE4
:10350000100B05F06DFF53EC182B05F0F1FACDE927
:1035100006010CE09DED060B032453EC102B9FEDF0
:10352000580B51EC100B05F0E3FACDE906019DEDC7
:10353000060B53EC102B51EC100B05F045FD41EC44
:10354000180B53EC182B05F03FFD41EC190B4E48BE
:103550000621B0EE490AF0EE690A784401F0CCFB8E
:1035600053EC182B51EC100B05F02EFD41EC180B11
:103570004648B0EE490AF0EE690A0521784401F0A8
:10358000BBFB53EC192B51EC100B05F01DFD41EC6E
:10359000100B51EC180B53EC102B002C0EDA05F02D
:1035A000EBF99DED061B53EC112B05F00DFD9DED88
:1035B000061B53EC112B05F03BFE35E005F0DCF962
:1035C0009DED061B53EC112B05F0FEFC41EC100B9E
:1035D0002F48784400EBC40090ED001B51EC100B19
:1035E00053EC112B05F0FCFE9DED061B53EC112B4B
:1035F00005F0F6FE41EC100B2648784400EBC400C1
:1036000090ED001B51EC100B53EC112B05F010FE4C
:1036100041EC100B002DA2BFBDEC068B02B070BDBB
:1036200051EC100B05F06AF941EC100B01E70000BA
:10363000000010440000F07F182D4454FB21F93F96
:10364000182D4454FB21F9BF0000DC3F0000203E50
:103650000000F33F00000000000000000000F03F09
:103660000000E63F000000000000000000000040F5
:103670000080034000000000000000000000F83F50
:10368000000000000000F0BF22930000D89200006C
:10369000629200001A92000070B56B4E2DED040B83
:1036A0002DED028B82B0DDF81CC0DDE905235C4204
:1036B0002CF000411C4341EAD474049D22F00040E8
:1036C000B44205D86C422C4340EAD474B4420BD9BE
:1036D0009DED061B9DED040B02B0BDEC028B04B00A
:1036E000BDE8704001F0E6BDACF14054A4F17F6448
:1036F0001C430BD0022404EAAC7444EAD2740543A0
:103700009FED538B9FED542B07D015E09DED040BDF
:1037100051EC100B01F0EAFE42E0002C11BF012C2D
:103720009DED040B02B0BDEC028B04BF04B070BD74
:10373000022C38D0032C3BD00B439FED491B9FED4F
:103740004A0B0AD0B14218D1B04209D121F08041D0
:1037500020F08040079105900FE0002A15DA10E074
:10376000434B7B44002C08BF93ED000B0DD0012C84
:1037700010D0022C17D0032C1AD0B0421DD1002A31
:1037800003DAB0EE410AF0EE610A02B0BDEC028B42
:1037900004B070BD93ED000B51EC100B05F0AEF8CA
:1037A00041EC100BF1E7B0EE480AF0EE680AECE7E6
:1037B000B0EE420AF0EE620AE7E7401A00153C2834
:1037C000C8BF8DED000B19DCBCF1000FBEBF10F1BE
:1037D0003C0F9FED290B8DED000B0FDB9DED060BD4
:1037E00053EC102B9DED040B51EC100B05F080F900
:1037F00002F008FB01F07AFECDE90001002C08BFC1
:103800009DED000BC1D0012C10D0022C9FED1C0BA4
:1038100053EC102B9DED000B51EC100B0DD005F06F
:10382000DFFD53EC182B05F0DBFDB9E7019880F0C4
:10383000004001909DED000BA7E705F0D1FD53EC92
:10384000182B05F0F5FCABE70000F07F000000004E
:10385000182D4454FB210940182D4454FB2109C064
:10386000182D4454FB21F9BF182D4454FB21F93F76
:1038700002920000000000000000000000000000B4
:10388000075C143326A6A13C10B52F499FED2C1BD5
:103890002DED020B84B0059820F000408842D8BF7F
:1038A0009DED040B2DDD2949884209D1049840B9CA
:1038B0004FF00100FCF784FF01F006FD06B010BDDB
:1038C00005DB9DED040B01F0EBFC06B010BD684676
:1038D0009DED040B00F03CFF10F0030004BF9DEDD4
:1038E000021B9DED000B0CD001280ED09DED021B9C
:1038F0009DED000B022817D0012001F079FA06B0E7
:1039000010BD01F041F906B010BD9DED021B9DED0B
:10391000000B012001F06CFA51EC100B04F0EEFFEB
:1039200006B041EC100B10BD01F02EF951EC100B5C
:1039300004F0E4FF06B041EC100B10BD00000000E5
:103940000000000000000000FB21E93F0000F07FC4
:103950002DE9F04D2DED040B2DED0C8B96B0DDE92E
:103960002350259CDDF888A025F0004624F000486F
:10397000BAF1000F14BF0121002101EB4502FE49FD
:1039800053184A1093422AD3002814BF012300235E
:1039900003EB44030B44F9498B4220D358EA00015E
:1039A0009FEDF78B6FD0DFF8E0B35D4503D1BAF13F
:1039B000000F05D187E0BAF1000F08BF002100D049
:1039C000012101EB450111F5001F08D8002814BFA3
:1039D0000121002101EB440111F5001F0BD99DEDE0
:1039E000241B9DED220B16B0BDEC0C8B04B0BDE882
:1039F000F04D01F05FBC0027002DBCBFE3498845B6
:103A000021DAE3498845A8BF02271CDAC3451ADC3E
:103A1000E04901EB2851142908DDC1F1340220FAF4
:103A200002F101FA02F282420DD108E058B9C1F167
:103A3000140228FA02F101FA02F2424503D101F020
:103A40000101C1F1020756EA0A011DD1002C1BDA5F
:103A5000002D18BF022F01D0012F0AD00220FCF741
:103A6000AFFE16B0BDEC0C8B04B0BDE8F04D01F01C
:103A7000FFBB0220FCF7A4FE01F0FAFB51EC100B97
:103A800004F03CFF83E01EE09FEDC39B9FEDC4ABC1
:103A9000002872D1BD4880452DD105F1804010F538
:103AA000801008BFBAF1000F0DD0B34515DC002C13
:103AB000A1BF9DED240B16B0BDEC0C8B04B0A8BFCC
:103AC000BDE8F08D12E0B0EE480AF0EE680A16B0DC
:103AD000BDEC0C8B04B0BDE8F08D002C06DA9DED3A
:103AE000240B51EC100B04F009FF50E0AE48784471
:103AF00090ED000BEBE7D8454FD1002C4ADA2EB100
:103B000086423BD1BAF1000F44D126E0BAF1000F52
:103B100013D00220FCF754FE01F0E6FB8DED020B02
:103B20009DED220B8DED000B10EE900A039961F3D1
:103B30001E0003909DED020BC9E78DED029B9DEDEC
:103B4000220B19EE901A10EE900A8DED000B61F326
:103B50001E0003909DED020BB9E78DED02AB9DEDCC
:103B6000220B1AEE901A10EE900A8DED000B61F305
:103B70001E0003909DED020BA9E729E00ADA9DEDF6
:103B8000220B51EC180B53EC102B04F0B1FF41EC5D
:103B9000100B9CE79DED220B99E7864218DAB4F1F1
:103BA000804F0DD0A4F10050B0F1FF5010D1002D86
:103BB0000EDB9DED220B51EC100B03F009FEE6E746
:103BC0009DED220B53EC102B51EC100B00F0AEBC12
:103BD0009DED220B51EC100B02F014F9BAF1000F1D
:103BE000CDE90C0134D19FED720BDEB1A6F1E040BE
:103BF000B0F17F602CD1002D01DD002C0DDA002DFD
:103C000001DD002C1FDB002D16DA002C14DB012F48
:103C100008BF9FED690B3FF45AAFB0EE490AF0EED2
:103C2000690A54E7022F18BF002D0CD0012F0AD1CA
:103C3000002DFFF64CAF06E0002DB8BF002C07DAD0
:103C4000012F3FF444AFB0EE4A0AF0EE6A0A3EE7B5
:103C5000012000EBE57A5AEA07000CD0584800250D
:103C600080457CDD57495848884514DDB0420DDB5E
:103C7000002C19DB2BE00120FCF7A2FD16B0BDECF7
:103C80000C8B04B0BDE8F04D01F01EBBB34502DC67
:103C9000002C09DC1BE0864202DA002C17DA03E074
:103CA0005E4527DD002C12DD0220FCF789FD01F0C6
:103CB0001BFB10EE901A19EE900A8DED020B8DEDA4
:103CC000009B61F31E0003909DED020BFFE60220B6
:103CD000FCF776FD01F018FB10EE901A18EE900A32
:103CE0008DED020B8DED008B61F31E0003909DEDB9
:103CF000020BECE69DED220B53EC182B51EC100B54
:103D000005F06EFB9FED320BCDE90A0153EC102B51
:103D10009DED0A0B51EC100B05F056F99FED2E1B93
:103D200053EC112B05F084FA9DED0A1B53EC112B7B
:103D300005F04AF99FED2A1B53EC112B05F078FA98
:103D40009DED0A0B41EC190B53EC102B51EC100BB1
:103D500005F03AF953EC192B05F036F900E07EE056
:103D60009FED210B41EC1A0B53EC102B9DED0A0B30
:103D700051EC100B3CE00000FFFF1F00FFFF0F00A5
:103D8000000000000000F03F0000F03F0000F07F66
:103D90000000404301FCFFFF000000000000F07F36
:103DA0000000000000000000768E0000000000000F
:103DB0000000000000000080000000000000F0FF94
:103DC0000000E0410000F043FFFFEF3F0000000073
:103DD000000000000000D03F555555555555D53FC2
:103DE000000000000000E03F000000604715F73FC2
:103DF00005F0EAF841EC190B9FEDFD0B51EC1A0BA5
:103E000053EC102B05F0E0F841EC1A0B9FEDFA0B88
:103E100053EC102B9DED0A0B51EC100B05F0D4F870
:103E200053EC1A2B05F0DCFA41EC1A0B51EC190B90
:103E300053EC1A2B04F0A0FD0690CDE906519DED40
:103E4000060B53EC192B51EC100B05F0C9FA53EC8F
:103E50001A2B05F0EDF941EC100B00F09FB9002092
:103E6000B6F5801F0EDA9FEDE60B53EC102B9DED9F
:103E70000C0B51EC100B05F0A7F8CDE90C016FF01D
:103E800034000E4600EB2650A0F2FF38C6F31300B4
:103E9000DD4940F07F6646F040568842D8BF002496
:103EA00009DDDA498142C8BF012404DC0024A6F5FB
:103EB000801608F10108D648784400EBC4000D963E
:103EC00090ED00BB9DED0C0B53EC1B2B51EC100B3C
:103ED00005F086FA9DED0C0B41EC1A0B53EC1B2BF5
:103EE00051EC100B04F048FD41EC100B51EC180B99
:103EF00053EC102B04F0FCFD41EC1C0B51EC1A0BA5
:103F000053EC1C2B05F060F841EC190BC1488DED0A
:103F1000109B7844109590ED000B4FF0005040EA54
:103F2000660000EB84408DED0A0B00F500200B903D
:103F30009DED0A0B53EC1B2B51EC100B05F050FAC6
:103F40009DED0C1B53EC112B05F072F941EC100B9D
:103F500053EC102B9DED100B51EC100B05F034F8C9
:103F60009DED0A0B41EC1B0B53EC102B9DED100B40
:103F700051EC100B05F028F853EC1A2B05F058F90A
:103F800053EC1B2B05F02CFA53EC1C2B05F01CF802
:103F900041EC1B0B53EC192B51EC190B05F014F8E9
:103FA00041EC1A0B9C480621B0EE4A0AF0EE6A0A70
:103FB000784400F0A1FEB0EE40CAF0EE60CA53ECC7
:103FC0001A2B51EC1A0B04F0FFFF53EC1C2B04F0DE
:103FD000FBFF9DED100B41EC1A0B53EC192B51EC30
:103FE000100B04F0C9FC53EC1B2B04F0EDFF53EC59
:103FF0001A2B04F0C1FC9DED100B41EC1A0B53EC95
:10400000102B51EC100B04F0DFFF41EC1C0B9FED6B
:1040100084DB53EC1D2B04F0AFFC53EC1A2B04F0A3
:10402000ABFC0A90CDE90A519DED0A0B53EC1D2B18
:1040300051EC100B05F0D4F953EC1C2B05F0D0F922
:1040400053EC1A2B05F0F4F89DED0A0B41EC1C0B18
:1040500053EC102B9DED100B51EC100B04F0B4FF42
:1040600041EC1A0B53EC192B51EC1C0B04F0ACFF78
:104070009DED0A0B41EC190B53EC102B51EC1B0B73
:1040800004F0A2FF53EC192B04F076FC41EC190B61
:1040900051EC1A0B53EC192B04F06EFC1090CDE987
:1040A00010519DED100B53EC1A2B51EC100B05F039
:1040B00097F953EC192B05F0BBF841EC190B9FED68
:1040C0005A0B53EC102B9DED100B51EC100B04F020
:1040D0007BFF41EC1A0B9FED560B51EC190B53EC87
:1040E000102B04F071FF41EC190B9FED530B53ECB7
:1040F000102B9DED100B51EC100B04F065FF53ECF1
:10410000192B04F039FC41EC100B4D48784400EBBE
:10411000C40090ED001B51EC100B53EC112B04F07C
:104120002BFC41EC190B404604F097FECDE90A0147
:1041300053EC192B51EC1A0B04F01EFC41EC100B44
:104140004048784400EBC40090ED00BB51EC100BEC
:1041500053EC1B2B04F010FC9DED0A1B53EC112BB0
:1041600004F00AFC0690CDE906519DED0A0B53ECD4
:10417000102B9DED060B51EC100B05F031F953ECB3
:104180001B2B05F02DF953EC1A2B05F029F953ECF4
:10419000192B05F04DF841EC100B00BF781EB0EE66
:1041A00048AAF0EE68AA5AEA000008BF9FED268BE5
:1041B0009DED241B53EC102B8DED001B00959DED08
:1041C000240B51EC100B04F0FFFE9DED000B41ECB5
:1041D000190B53EC102B9DED240B51EC100B05F03B
:1041E000FFF89DED061B53EC112B04F0EDFE2FE0C4
:1041F000FE822B654715F73F44DF5DF80BAE543E5A
:1042000000000000000040438E9803007AB60B00C7
:10421000F4890000528A00002C8900000000000090
:104220000000000000000840000000E009C7EE3F69
:10423000FD033ADC09C7EE3FF5015B14E02F3EBEFB
:10424000C08700007A870000000000000000F0BF77
:1042500053EC192B04F090FB9DED060B41EC190B70
:1042600053EC102B9DED000B51EC100B04F0ACFE49
:10427000CDE910019DED100B51EC190B53EC102BF7
:1042800004F07AFBCDE902010C46AB498C422FDBEE
:10429000611A084318D19DED100B53EC102B9DEDC6
:1042A000020B51EC100B05F09BF841EC1B0B9FED42
:1042B000A40B51EC190B53EC102B04F05DFB53ECE9
:1042C0001B2B04F07FFF2DD20220FCF779FA01F0BE
:1042D0000BF810EE901A18EE900A8DED020B8DED92
:1042E000008B61F31E0003909DED020BFFF7EFBB07
:1042F000954A24F00041914214D394492144084343
:104300007FF4E5AC9DED100B53EC102B9DED020BF3
:1043100051EC100B05F064F853EC192B04F052FF2C
:104320007FF6D5AC24F0004089498A4A002601EB8B
:10433000205182422BDA481C4FF4801121FA00F000
:104340002044854AC0F30A517A44A1F2FF3192ED2C
:10435000000B824A8DED0A0BCA4020EA0202C0F32C
:10436000130040F48010C1F1140120FA01F60B9201
:10437000002CB8BF76429DED0A0B53EC102B9DED3F
:10438000100B51EC100B05F02BF8CDE910019DED51
:10439000100B51EC190B53EC102B04F0EDFA9FEDC0
:1043A000700B0A90CDE90A5153EC102B9DED0A0BCE
:1043B00051EC100B04F008FE41EC1B0B9FED6A0B57
:1043C00053EC102B9DED0A0B51EC100B04F0FCFD8F
:1043D0009DED100B41EC1C0B53EC102B9DED0A0BCB
:1043E00051EC100B04F0FCFF53EC192B04F020FFF0
:1043F0009FED5F1B53EC112B04F0E6FD53EC1C2BDF
:1044000004F0BAFA41EC190B51EC1B0B53EC192BCD
:1044100004F0B2FACDE902019DED020B53EC1B2B27
:1044200051EC100B04F0DCFF53EC192B04F000FFEF
:104430009DED020B41EC190B53EC102B51EC100BC2
:1044400004F0C2FDCDE90A014B489DED0A0B0521A0
:10445000784400F051FC9DED0A1B51EC100B53EC1D
:10446000112B04F0B1FD9DED021B53EC112B04F058
:10447000DFFECDE906019DED020B53EC192B51EC4B
:10448000100B04F0A1FD53EC192B04F075FA9FED0D
:104490003C0B41EC190B53EC102B9DED060B51EC32
:1044A000100B04F09DFF9DED060B41EC1B0B53EC34
:1044B000102B9DED020B51EC100B04F085FD53EC1D
:1044C0001B2B04F015FB53EC192B04F089FF9DED19
:1044D000021B53EC112B04F083FF53EC1A2B04F056
:1044E000A7FECDE9020101EB065001150029C8BF66
:1044F000039015DC9DED020B324651EC100B05F0DC
:1045000006F9FEF7D8FB042808BF00F0FDFE32468E
:104510009DED020B51EC100B05F0F9F8CDE902010D
:104520009DED020B51EC180B53EC102B04F04CFDDD
:10453000FFF72DBB000000000000904000000000CD
:10454000FE822B654715973C00CC904000346F3FAE
:1045500001FCFFFF0000E03F1C860000FFFF0F0092
:1045600000000000432EE63F396CA80C615C20BEC1
:10457000EF39FAFE422EE63FBC8400000000000046
:10458000000000000000004010B52F499FED2C1BDB
:104590002DED020B84B0059820F000408842DCBF6E
:1045A00000209DED040B32DD2849884209D1049892
:1045B00040B94FF00100FCF703F900F085FE06B0AA
:1045C00010BD05DB9DED040B00F06AFE06B010BDCA
:1045D00068469DED040B00F0BBF810F0030011D00D
:1045E000012818D09DED021B9DED000B02281AD06A
:1045F00000F0CAFA51EC100B04F080F906B041EC5F
:10460000100B10BD9DED021B9DED000B012000F075
:10461000EFFB06B010BD9DED021B9DED000B00F001
:10462000B3FA06B010BD012000F0E2FB51EC100B14
:1046300004F064F906B041EC100B10BD000000005E
:104640000000000000000000FB21E93F0000F07FB7
:1046500000B52DED048BB0EE409AF0EE609A83B079
:1046600051EC190B04F0F0FD41EC180B18EE100A98
:1046700018EE901A8DED008B002818BF012008431A
:1046800020F00040C0F17F6000F1E040C00F14D086
:1046900019EE101A19EE900A8DED009B002918BF33
:1046A0000121084320F00040C0F17F6000F1E040AC
:1046B000C00F04BF0120FCF783F8B0EE480A03B036
:1046C000F0EE680ABDEC048B00BD000000000000A5
:1046D00010B51D499FED1A1B2DED020B84B00598F6
:1046E00020F000408842DCBF01209DED040B21DD5D
:1046F0001649884209D1049840B94FF00100FCF7EF
:104700005FF800F0E1FD06B010BD05DB9DED040B88
:1047100000F0C6FD06B010BD68469DED040B00F02C
:1047200017F800F001000121A1EB40009DED021BF4
:104730009DED000B00F0F4FB06B010BD0000000082
:104740000000000000000000FB21E93F0000F07FB6
:104750002DE9F14F04462DED020B2DED088B8AB0AB
:104760009FEDE70B80ED020B139EE74826F0004516
:1047700085420ADC9DED120B002084ED000B0AB08F
:10478000BDEC088B03B0BDE8F08FE0489FEDE0ABD7
:104790009FEDE1BBA84247DDE14F9FEDE39B9FED1D
:1047A000E48B9DED120B53EC1A2B51EC100B002EE9
:1047B0001CDD04F015FE41EC100BBD4208D053EC9B
:1047C0001B2B51EC100B04F00BFEC4E900010BE0B5
:1047D00053EC192B51EC100B04F002FE53EC182B88
:1047E00004F0FEFDC4E900010120C8E704F0C4F8AC
:1047F00041EC100BBD4208D053EC1B2B51EC100BBD
:1048000004F0BAF8C4E900010BE053EC192B51ECA9
:10481000100B04F0B1F853EC182B04F0ADF8C4E918
:1048200000014FF0FF30AAE7C348A84279DB9DEDB5
:10483000120B51EC100B01F0E5FA41EC180B9FED57
:10484000C00B53EC102B04F0BFFB9FEDBF1B53ECD0
:10485000112B04F091F804F0A3FA074604F0FDFAD6
:1048600041EC190B53EC1A2B04F0AEFB53EC182B54
:1048700004F0DEFC41EC180B53EC1B2B51EC190B34
:1048800004F0A2FBDFF8C8A241EC100B4FEA155868
:104890000125FA4453EC102B51EC180B04F0A0FD49
:1048A000032DC4E900013DD0C1F30A5005EB4511C9
:1048B000A8EB00001139814234DA0AEB051BB0EE97
:1048C00048AA9BED000BF0EE68AA53EC102B51ECBC
:1048D000190B04F079FB41EC1B0B51EC1A0B53EC58
:1048E0001B2B04F07DFD41EC180B51EC1A0B53EC23
:1048F000182B04F075FD53EC1B2B04F071FD9BEDA0
:10490000020B41EC1A0B53EC102B51EC190B04F079
:104910005BFB53EC1A2B04F063FD41EC100B6D1C98
:10492000B8E70EE0002EA8BF3846BFF628AF94EDDA
:10493000000B51EC100B03F0E1FFC4E900017842D9
:104940001DE7C6F3130040F4801EC6F30A50A0F220
:10495000F530471100F01F05C5F12000DDF848B023
:1049600008900020069007900520EC467949002D1C
:1049700007EB0002794408BF51F8221009D051F822
:10498000223001EB8201AB404A68089922FA01F11A
:104990001943A1FB0E26A1FB0B131A449A4234BF04
:1049A0000123002303EB06080CEB8003D3E901A6E7
:1049B0000E448E4234BF0121002192448A4411B139
:1049C000924502D903E0924501D2012100E0002185
:1049D000C3E901A641444CF82010011EA0F10100DA
:1049E000C4DC029800F10050850F0298DDE90367EE
:1049F0008000DDF8148004F030FA41EC1A0B3046E8
:104A000004F093FA9FED541B53EC112B04F0DCFAE5
:104A100041EC1B0B384604F088FA9FED511B53EC18
:104A2000112B04F0D1FA41EC180B404604F07DFA4A
:104A30009FED4D1B53EC112B04F0C6FA41EC190B02
:104A400051EC180B53EC192B03F096FF53EC1B2B76
:104A500003F092FF53EC1A2B03F08EFFCDE908010F
:104A6000002008909DED080B53EC1A2B51EC100B15
:104A700004F0B6FC53EC1B2B04F0B2FC53EC182BE7
:104A800004F0AEFC53EC192B04F0D2FB9FED381B65
:104A900053EC112B04F098FA9FED370B41EC180BF7
:104AA00053EC102B9DED080B51EC100B04F08CFA1D
:104AB00053EC182B03F060FF9FED310B41EC180B0A
:104AC00053EC102B9DED080B51EC100B04F07CFA0D
:104AD00053EC182B03F050FF41EC100B139810F01F
:104AE000004F06D06D4251EC100B03F007FF41EC74
:104AF000100B284684ED000B41E60000000000008A
:104B00000000000000000000FB21E93F7CD90240CA
:104B100000004054FB21F93F3163621A61B4D03D7B
:104B2000FB21F93F000000000000601A61B4D03D95
:104B30007370032E8A19A33BFB213941000000004A
:104B400083C8C96D305FE43F000000000000E03F13
:104B5000DA80000028800000000000000000103E05
:104B6000000000000000103C000000000000103AAF
:104B7000182D4454FB21F93D3326A611460B113C58
:104B800000000054FB21F93D10B52DED040B2DED77
:104B9000088B82B0B0EE419AF0EE619A0B9820F04B
:104BA00000449FED4BABB4F1795F11DA9DED0A0B38
:104BB00051EC100B04F0F4F8002801BFB0EE4A0AE3
:104BC000F0EE6A0A02B0BDEC088B04BF04B010BD61
:104BD0009DED0A0B53EC102B51EC100B04F0F4F983
:104BE00041EC180B3C480621B0EE480AF0EE680A8A
:104BF000784400F081F853EC182B51EC100B04F0C2
:104C0000E3F99DED0A0B41EC1B0B53EC192B51EC16
:104C1000100B04F0D9F941EC190B53EC1B2B51ECA0
:104C2000180B04F0D1F953EC192B04F0D9FB9FEDCC
:104C30002C0B41EC190B53EC102B51EC180B04F01E
:104C4000C3F941EC100B2848844210DA53EC192BBD
:104C500051EC100B04F0C4FB53EC1A2B04F0E8FAEF
:104C600041EC100B02B0BDEC088B04B010BD1F4826
:104C7000A042BCBF9FED1E1B8DED001B06DBA4F503
:104C800000100190002000909DED001B51EC100BD6
:104C900053EC112B04F0A4FB9DED000B41EC180B21
:104CA00053EC102B51EC1A0B04F09AFB41EC1A0B4D
:104CB00053EC192B51EC180B04F092FB53EC1A2B0C
:104CC00004F0B6FA41EC100BCCE700000000000045
:104CD000000000000000F03F447D000000000000E4
:104CE000000000000000E03F3333D33F0000E93F05
:104CF000000000000000D23F70B504462DED028B8D
:104D00004D1E00EBC500B0EE408AF0EE608A90EDDB
:104D1000000B35F0060017D053EC182B51EC100B9C
:104D200004F052F941EC100B6D1E04EBC50090ED40
:104D3000001B51EC100B53EC112B03F01DFE41EC4A
:104D4000100B35F00600E7D1022D36D0042D1CD013
:104D5000062D1CBFBDEC028B70BD53EC182B51EC23
:104D6000100B04F031F994ED0A1B53EC112B03F0F6
:104D700003FE53EC182B04F027F994ED081B53ECB9
:104D8000112B03F0F9FD41EC100B53EC182B51ECF7
:104D9000100B04F019F994ED061B53EC112B03F0E2
:104DA000EBFD53EC182B04F00FF994ED040B53ECCE
:104DB000102B03F0E1FD41EC100B53EC182B51ECE0
:104DC000100B04F001F994ED021B53EC112B03F0CE
:104DD000D3FD53EC182B04F0F7F894ED001B53ECC3
:104DE000112B03F0C9FDBDEC028B41EC100B70BD23
:104DF00031B504462DED040B2DED0A8BB0EE41BA12
:104E0000F0EE61BA0B989DED0A0B20F00040B0F176
:104E1000795F0DDA51EC100BFDF74DFF042808BF48
:104E200000F072FA9DED0A0BBDEC0A8B05B030BDA7
:104E300053EC102B51EC100B04F0C6F841EC180B9E
:104E40009DED0A0B53EC182B51EC100B04F0BCF841
:104E500041EC190B2C48B0EE480AF0EE680A052127
:104E60007844FFF749FF9FED2ACBB0EE40AAF0EE61
:104E700060AA9CB353EC1C2B51EC190B04F0A4F862
:104E800041EC1C0B53EC1A2B51EC190B04F09CF861
:104E90009FED210B41EC190B53EC102B51EC1B0B2C
:104EA00004F092F853EC192B04F09AFA53EC182BF7
:104EB00004F08AF853EC1B2B04F092FA53EC1C2BF1
:104EC00004F08EFA9DED0A1B53EC112B04F0B0F99F
:104ED000BDEC0A8B05B041EC100B30BDFFE753EC85
:104EE0001A2B51EC180B04F06FF853EC1C2B03F049
:104EF00043FD53EC192B04F067F89DED0A1B53ECAE
:104F0000112B03F039FDE3E7D47B00000000000023
:104F1000495555555555C5BF000000000000E03FFC
:104F2000F1B506462DED040BBD482DED0C8B8AB076
:104F3000B0EE418AF0EE618A179D25F000449FEDA6
:104F4000BABB9FEDBBCB844208DA9DED160B51EC4A
:104F5000100B03F025FF002800F0E980B64FA742B0
:104F600031DC002D0DDA9DED160B51EC100B03F02A
:104F7000C5FCCDE9160151EC180B03F0BFFC41EC68
:104F8000180B9FEDAF0B53EC102B9DED160B51EC56
:104F9000100B04F04DF953EC182B9FEDAB0BCDE942
:104FA000040151EC100B04F01BFA41EC100B53EC14
:104FB000102B9DED040B51EC100B03F0DDFC9FED6D
:104FC000A48BCDE916019DED160B53EC102B51EC83
:104FD000100B03F0F9FFCDE904019DED040B53EC38
:104FE000102B51EC100B03F0EFFF41EC190B9A481A
:104FF0000621B0EE490AF0EE690A7844FFF77CFE1C
:105000009648B0EE40DAF0EE60DAB0EE490AF0EE23
:10501000690A06217844FFF76FFE9DED041B51ECF1
:10502000100B53EC112B03F0CFFF9DED040B41EC63
:105030001A0B53EC102B9DED160B51EC100B03F0DB
:10504000C3FF41EC190B53EC1A2B51EC1D0B03F071
:1050500093FC53EC192B03F0B7FF53EC182B03F020
:105060008BFC9DED041B53EC112B03F0ADFF53ECB7
:10507000182B03F081FC41EC180B9FED790B51ECE0
:10508000190B53EC102B03F09FFF53EC182B03F07C
:1050900073FC41EC190B9DED160B53EC192B51ECE5
:1050A000100B03F069FC41EC180BA74269DC304699
:1050B00003F0D3FE41EC1A0B51EC180B53EC1A2BF6
:1050C00003F05AFC41EC1B0B53EC182B51EC180B62
:1050D00003F07AFF53EC1B2B03F00AFD53EC192B62
:1050E00004F07EF99DED161B53EC112B04F0A0F893
:1050F0009FED5D1B53EC112B03F066FF53EC1A2B55
:1051000004F096F841EC180B022000EAA570C0F1FB
:10511000010003F0A2FE53EC182B03F055FF00BF73
:1051200041EC100B0AB0BDEC0C8B05B0F0BD711C4E
:105130001698214308430CD09DED160B012E1CBF81
:1051400053EC102B51EC1C0B10D000BF03F0D0FC23
:10515000E6E79DED160B51EC100B00F053FE41EC11
:10516000100B51EC1B0B53EC102BEFE751EC100B19
:10517000FDF7A1FD042808BF00F0C6F89DED160B51
:10518000D0E7012E04BFB0EE480AF0EE680AC9D09D
:105190008DED048B002404949DED040B53EC102B37
:1051A0009DED160B51EC100B04F042F853EC192B4B
:1051B00004F03EF841EC190B53EC182B51EC1C0B8E
:1051C00003F096FC41EC180B8DED008B00949DEDE7
:1051D000040B53EC102B9DED000B51EC100B03F066
:1051E000F3FE53EC1B2B03F0C7FB9DED000B41ECD2
:1051F0001A0B53EC192B51EC100B03F0E5FE53EC9A
:105200001A2B03F0B9FB53EC182B03F0DDFE9DEDD8
:10521000001B53EC112B03F0AFFB81E700000000F3
:105220000000303E00000000000000000000F03FE1
:10523000000000000000F0BF2894E53F00000000DF
:10524000182D4454FB21E93F075C143326A6813C0A
:105250000000000000000000627A0000787A000080
:10526000635555555555D53F0000000000000040DE
:105270009FED070B10B553EC102B9FED070B51EC76
:10528000100B03F035FC41EC100B10BD00000000CA
:105290000000000000000000000000000000F03FDF
:1052A00010B553EC102B51EC100B03F065FB41ECE7
:1052B000100B10BD10B553EC112B51EC100B03F07B
:1052C0005BFB41EC100B10BD9FED050B10B553ECD3
:1052D000102B51EC100B03F00BFC41EC100B10BD2C
:1052E00000000000000000009FED050B10B553EC1E
:1052F000102B51EC100B03F067FE41EC100B10BDAE
:1053000000000000000000709FED050B10B553EC8D
:10531000102B51EC100B03F057FE41EC100B10BD9D
:10532000000000000000001030380A2801D20120DF
:1053300070470020704770471FB58DE80E00694622
:10534000FBF708FD1FBD00000F4B10B519688A68F8
:1053500022F001028A6003F1480211680C6824F00F
:1053600001040C60116848601068016841F0010197
:1053700001601868816841F001018160034881681B
:1053800041F08041816010BDD00700200020014025
:105390000B4800B5026887B0002142F001020260AC
:1053A000006800F0010005903F2000900320CDE947
:1053B000010169460348FCF755FA07B000BD00003B
:1053C000303802400000024071B5434881B00025EA
:1053D000016841F480710160006800F48070009001
:1053E0003D481438016841F48001016000683C4C7C
:1053F00000F4800000903948C4E900050015A5605C
:10540000C4E9035040006061800004F11801C60047
:1054100081E861002046FCF71FF90023314920464E
:10542000019AFCF783F9A4F148002E4984634C39B2
:105430000160C0E901650121C0E90351017680F8EE
:1054400020500622C261284AC0E90952C56280F88C
:105450003010FBF728FDFFF79BFF072301220021F7
:10546000A4F14800FFF768FF072302220121A4F1FD
:105470004800FFF761FF072303220221A4F148003F
:10548000FFF75AFF072304220321A4F14800FFF786
:1054900053FF072305220421A4F14800FFF74CFF26
:1054A000072306220521A4F14800FFF745FF032248
:1054B00011463C20FCF71EFB3C20FCF70EFB0222B1
:1054C00001A9A4F14800FBF745FD2068016841F0FF
:1054D000100101607CBD000044380240706402404D
:1054E000180800204C2001400100000F10B541ECCD
:1054F000100BFDF765FF51EC100B10BD2DE9F041CD
:105500000C462DED0A8B00EB8405174695EC020A3C
:1055100001F05CFFB0EE41AAF0EE61AAB0EE429A53
:10552000F0EE629A51EC100B03F0F4F908EE100A59
:1055300051EC1A0B03F0EEF9064651EC190B03F08F
:10554000E9F908EE900A6B48B1EE00BA9FED6AAB3C
:10555000DFED6BBA9FED6BCA00EB8404002F304681
:1055600065D004F027F83BEE480A41EC190B10EE29
:10557000100A04F01FF841EC100BB0EE491AF0EEDF
:10558000691AFEF789F851EC100B03F0C3F920609B
:10559000304604F00FF841EC100BB0EE4A1AF0EE72
:1055A0006A1AFEF7D5F9B0EE409A38EE4B0AF0EEE3
:1055B000609A10EE100A03F0FDFF41EC100BB0EE04
:1055C0004A1AF0EE6A1AFEF7C3F953EC192B51ECA4
:1055D000100B03F0D1F941EC100BFFF739F851EC47
:1055E000100B03F097F9606095ED020A00F09EFB46
:1055F000F0EE400A3BEEE81A94ED000A30EE011A94
:1056000031EE4C1A70EEC10AC4ED020A02F06EF8D7
:1056100084ED000A94ED020A02F068F884ED020AB3
:1056200095ED030A84ED030A95ED040A5CE003F0AE
:10563000C1FF3BEE480A41EC190B10EE100A03F0D3
:10564000B9FF41EC100BB0EE491AF0EE691AFEF703
:1056500023F851EC100B03F05DF92060304603F0A5
:10566000A9FF41EC100BB0EE4A1AF0EE6A1AFEF7F1
:105670006FF9B0EE409A38EE4B0AF0EE609A10EEF9
:10568000100A03F097FF41EC100BB0EE4A1AF0EE4F
:105690006A1AFEF75DF953EC192B51EC100B03F06D
:1056A0006BF941EC100BFEF7D3FF51EC100B03F03C
:1056B00031F9606095ED020A00F038FB3BEEE81A24
:1056C000D4ED000A70EE810A70EECC0A30EE600A6A
:1056D00084ED020A95ED030A00F028FB84ED030A2D
:1056E00095ED040A00F022FB84ED040ABDEC0A8B60
:1056F000BDE8F081780800200000000000000040B4
:10570000DB0F49407CD9203F70B50D462DED0C8B49
:1057100000EB850292ED008A5468D2ED028AD2ED48
:10572000039A92ED04DA18EE100A03F043FF41ECFD
:10573000100BFEF729FFB0EE40AAF0EE60AA20465B
:1057400003F038FF53EC1A2B03F03EFC38EE88CA06
:1057500041EC1B0B1CEE100A03F02CFF41EC100B6C
:10576000FEF712FFB0EE40AAF0EE60AA19EE900A22
:1057700003F020FF41EC100BFEF786F89FEDFE1BB7
:1057800051EC100B53EC112B03F01EFC53EC1A2BB5
:1057900003F01AFC53EC1B2B03F022FE03F0BAF8C3
:1057A00009EE100A1CEE100A03F004FF41EC100B86
:1057B000FEF76AF8B0EE40AAF0EE60AA19EE900A81
:1057C00003F0F8FE41EC100BFEF75EF89FEDEC1BCA
:1057D00051EC100B53EC112B03F0F6FB53EC1A2B8E
:1057E00003F0F2FB41EC1B0B18EE100A03F0E2FE93
:1057F00041EC100BFEF748F8B0EE40AAF0EE60AABC
:10580000204603F0D7FE53EC1A2B03F0DDFB53ECDC
:105810001B2B03F0B1F803F07DF80CEE100AB7EE85
:10582000002ADFEDD92A4FF4C870F0EE691AB0EE05
:10583000681AF0EE480AB0EE490A01F019F9B0EE24
:10584000409A38EE280A19EE900A70EE498A03F061
:10585000B1FE41EC100BFEF717F8B0EE40AAF0EEE7
:1058600060AA19EE100A03F0A5FE41EC100BFEF73A
:105870000BF853EC1A2B51EC100B03F0A5FB41EC89
:10588000100BFDF741FA51EC100B03F043F808EE52
:10589000100AB5EEC09A4FF0FF30F1EE10FA01DDBC
:1058A000012107E0B5EEC09AF1EE10FA01D20146EF
:1058B00000E0002100EE101AF5EEC09AF8EEC0CA22
:1058C000F1EE10FA01DD012005E0F5EEC09AF1EEEF
:1058D00010FA00D3002000EE100A18EE100AF8EEBD
:1058E000C0DA03F067FE41EC100BFEF74DFEB0EEA0
:1058F00040BAF0EE60BA19EE100A03F05BFE41EC1C
:10590000100BFEF741FEB0EE40AAF0EE60AA19EED1
:10591000900A03F04FFE41EC100BFDF7B5FF53EC7E
:105920001A2B51EC100B03F04FFB53EC1B2B03F025
:10593000DFF841EC100BFDF7E7F9B0EE40AAF0EE0E
:1059400060AA1DEE900A03F035FE53EC1A2B03F00B
:105950003BFB02F0DFFF044603F02CFE41EC1B0B87
:10596000204603F027FE41EC100BFEF70DFEB0EED3
:1059700040AAF0EE60AA19EE100A03F01BFE41ECFB
:10598000100BFDF781FF53EC1A2B51EC100B03F0B9
:105990001BFB41EC100BFDF7B7F9B0EE409AF0EEAF
:1059A000609A1CEE900A03F005FE53EC192B03F0ED
:1059B0000BFB53EC1B2B02F0DFFF9FED741B53EC32
:1059C000112B03F00DFD02F0A5FF00EE100A20469A
:1059D0007DEE00CA03F0EEFD41EC100BFDF754FF25
:1059E000B0EE40AAF0EE60AA18EE900A03F0E2FDD5
:1059F00041EC100BFEF7C8FDB0EE409AF0EE609A55
:105A000018EE100A03F0D6FD41EC100BFEF7BCFDBA
:105A100053EC192B51EC100B03F0D6FA53EC1A2B64
:105A200003F0D2FA41EC1A0B18EE900A03F0C2FD13
:105A300041EC100BFDF728FFB0EE409AF0EE609AB3
:105A400018EE100A03F0B6FD41EC100BFDF71CFF39
:105A5000B0EE401AF0EE601A53EC192B51EC110B1A
:105A600003F0B2FA53EC1A2B03F0BAFC9FED491B7A
:105A700053EC112B03F0A8FA41EC1B0B204603F06A
:105A800099FD41EC100BFDF7FFFEB0EE40AAF0EEE1
:105A900060AA18EE900A03F08DFD41EC100BFEF7A2
:105AA00073FDB0EE409AF0EE609A18EE100A03F023
:105AB00081FD41EC100BFDF7E7FE9FED381B51EC2B
:105AC000100B53EC112B03F0B3FB9FED361B53EC83
:105AD000112B03F079FA53EC192B03F075FA53EC00
