:020000040800F2
:10000000080D002089020008F72700083B27000898
:10001000F5270008050B0008FD2B00080000000074
:100020000000000000000000000000005928000847
:10003000050D000800000000F92700085B280008F3
:10004000AD020008AD020008AD020008AD020008D4
:10005000AD020008AD020008AD020008AD020008C4
:10006000090D00081D0D0008AD020008AD020008D2
:10007000AD020008AD020008AD020008AD020008A4
:10008000AD020008AD020008AD020008AD02000894
:10009000090B0008AD020008AD020008AD0200081F
:1000A000AD020008AD020008AD020008AD02000874
:1000B000AD020008AD02000871280008AD0200087A
:1000C000AD020008AD020008AD020008AD02000854
:1000D000AD020008B92B0008AD020008AD0200080F
:1000E000AD020008AD020008AD020008AD02000834
:1000F000AD020008AD020008AD020008AD02000824
:10010000AD020008AD020008AD020008AD02000813
:10011000AD020008AD020008AD020008AD02000803
:10012000AD020008AD020008AD020008AD020008F3
:100130003D0C0008AD020008AD020008AD02000849
:10014000AD020008AD020008AD020008AD020008D3
:10015000AD020008AD020008AD020008AD020008C3
:10016000AD020008AD020008AD020008AD020008B3
:10017000AD020008AD020008AD020008000000005A
:10018000AD020008AD02000800F002F800F06DF8C2
:100190000AA090E8000C82448344AAF10107DA45E2
:1001A00001D100F062F8AFF2090EBAE80F0013F0C7
:1001B000010F18BFFB1A43F001031847FC7F000032
:1001C0001C8000000A444FF0000C10F8013B13F0B3
:1001D000070408BF10F8014B1D1108BF10F8015BA0
:1001E000641E05D010F8016B641E01F8016BF9D193
:1001F00013F0080F1EBF10F8014BAD1C0C1B09D1EA
:100200006D1E58BF01F801CBFAD505E014F8016B5B
:1002100001F8016B6D1EF9D59142D6D370470000ED
:100220000023002400250026103A28BF78C1FBD8FF
:10023000520728BF30C148BF0B607047642900F0E7
:100240003181752900F02E81782900F067816329BA
:1002500000F02C83732900F03183002070471FB514
:1002600004F08EFD1FBD10B510BD00F045FB11461A
:10027000FFF7F5FF03F014FB00F063FB03B4FFF797
:10028000F2FF03BC02F0D2FC0C48016841F470019B
:1002900001600B4880470B480047FEE7FEE7FEE79A
:1002A000FEE7FEE7FEE7FEE7FEE7FEE7FEE700000B
:1002B00005480649044A064B7047000088ED00E0F7
:1002C000612800088901000808090020080D0020A5
:1002D00008090020704753EA020C00F069802DE9FC
:1002E000F04B4FF00006002B1FBFB3FA83F503FA63
:1002F00005F424FA05F65E4012BF1643B2FA82F501
:1003000002FA05F4C5F120051EBF22FA05FC44EAF5
:100310000C04203556EA044C4FEA144418BF641C00
:100320004FF000084FF00009904271EB030C39D3F5
:10033000002919BFB1FA81F701FA07F6B0FA80F780
:1003400000FA07F6C7F120071EBF20FA07FC46EAAD
:100350000C062037B6FBF4FCA7EB0507103F07F0AF
:100360001F0BCBF120060CFA0BFB2CFA06F644BF50
:10037000B3460026202FA4BF5E464FF0000B5BEA79
:10038000060C08BF4FF0010B19EB0B09ABFB027C0D
:1003900048EB0608C01B06FB02CC0BFB03CC71EB41
:1003A0000C01C1E70B46024641464846BDE8F08BCA
:1003B00013B54FF000004FF00001AFF30080BDE82F
:1003C0001C407047B2F120030AD5C2F1200301FAA4
:1003D00002F120FA03F300FA02F041EA0301704748
:1003E00000FA03F14FF00000704700000FB4044919
:1003F00010B503AA029800F065FA10BC5DF814FB72
:100400000C00002070B5044685690068C10601D55E
:10041000302600E02026C00707D070BDD4E90121B6
:1004200030469047206A401C20626D1EF6D570BD94
:1004300070B5044685690078C00707D170BDD4E95E
:10044000012120209047206A401C20626D1EF6D5B5
:1004500070BD70B50C460546012A05D02878800687
:1004600000D5EA69002302E0012305E05B1C93420A
:1004700002D2E05C0028F9D1A869E618C01AA86188
:10048000286A184428622846FFF7BCFF04E0D5E933
:10049000012114F8010B9047B442F8D32846FFF726
:1004A000C7FF70BD2DE9F04106460024106875298C
:1004B000314616A510D0AFF30080002802DA404282
:1004C00013A507E031688A0701D512A502E04907A4
:1004D00004D511A5012401E0AFF3008000210A2218
:1004E00006F1240709E0B0FBF2FCB0FBF2F302FBDB
:1004F0001C00303078541846491C0028F3D123469C
:100500002A463046BDE8F04100F055B90000000031
:100510002D0000002B0000002000000070B50446F4
:100520000D4621461068AFF300802188090502D5E9
:100530000F4A7A4402E00E4A7A440E32002104F156
:10054000240305E000F00F060009965D5E54491C87
:100550000028F7D120780023000704D5702D02D0A1
:1005600009B1022311322046BDE8704000F023B9E2
:10057000FE7700002DE9F05F894604464FF0000A3F
:10058000DFF874B1FB44C0F820A02046E16888473A
:10059000002874D0252806D0D4E901219047206A8C
:1005A000401C2062F1E700265F462046E16888474C
:1005B0002028054607DB312D05D2781910F8200CCC
:1005C00008B10643F1E7B00701D526F00406C4F8E8
:1005D0001CA00027C4F818A02A2D09D0284602F034
:1005E0001EFB38B304EB8708303DC8F8185019E0FB
:1005F00059F8041B204604EB87029161E1688847A3
:10060000012F054618D1E069002820DA26F02006DF
:100610001DE0D8F8180000EB800005EB40003038F2
:10062000C8F818002046E1688847054602F0F7FA46
:100630000028EED1012F0AD02E2D08D12046E168E6
:1006400088477F1C0546022F46F02006C4DBA069C0
:10065000002803DA404246F00106A061F00701D00D
:1006600026F010066C2D0BD0682D09D04C2D39D0FA
:100670006A2D35D0742D35D07A2D33D016E038E080
:10068000E1682F4620468847B842054609D16C2FBD
:1006900026D04FF48060E16806432046884705462F
:1006A00004E06C2F1AD04FF4807006430DB3A5F10F
:1006B0004100192802D8203546F400664A462946EA
:1006C000204626604E46FFF7B9FD80B101280BD0C9
:1006D000F61D26F0070000F1080956E74020E4E780
:1006E0008020D8E70020D6E706F104094DE7284628
:1006F00052E7206ABDE8F09FD477000010B5203A99
:10070000C0F00B80B1E81850203AA0E81850B1E8CA
:100710001850A0E81850BFF4F5AF5FEA027C24BF80
:10072000B1E81850A0E8185044BF18C918C0BDE877
:1007300010405FEA827C24BF51F8043B40F8043B40
:1007400008BF7047D20728BF31F8023B48BF11F8F5
:10075000012B28BF20F8023B48BF00F8012B70474F
:100760004FF0000200B5134694469646203922BF4A
:10077000A0E80C50A0E80C50B1F12001BFF4F7AF95
:10078000090728BFA0E80C5048BF0CC05DF804EB77
:10079000890028BF40F8042B08BF704748BF20F8E5
:1007A000022B11F0804F18BF00F8012B70477047E3
:1007B0007047704770472DE9F0470D4699469246BD
:1007C000044600F124080168880604D5E06921F098
:1007D0001001216000E00120A84201DD471B00E07C
:1007E0000027A1697A1902EB0900081AA061207894
:1007F000C00602D42046FFF705FE002608E0D4E933
:1008000001211AF806009047206A401C761C2062DD
:100810004E45F4DB2078C0060AD52046FFF7F2FDEE
:1008200006E0D4E9012130209047206A401C206274
:10083000381EA7F10107F4DC07E0D4E9012118F81C
:1008400005009047206A401C2062281EA5F1010582
:10085000F3DC2046FFF7ECFD2078000602D50220ED
:10086000BDE8F0870120FBE701694A1C02610878B6
:10087000704700B58FB0CDE90131002105910549E0
:100880007944CDE9031011466846FFF773FE0FB0B7
:1008900000BD0000E5FFFFFF10B5436913B1AFF3E2
:1008A000008001E0FFF7D5FD012010BD127800F1B6
:1008B00024010A7000224A700122EDE711684FF00E
:1008C000FF32E9E7074B70B50D467B44FFF7D1FFD8
:1008D0000446284600F008F810B14FF0FF3070BD14
:1008E000204670BD03260000007B00F080007047AA
:1008F00000487047A80800207546FFF7F9FFAE468C
:1009000005006946534620F00700854618B020B51B
:10091000FFF7CEFCBDE820404FF000064FF0000787
:100920004FF000084FF0000B21F00701AC46ACE897
:10093000C009ACE8C009ACE8C009ACE8C0098D4604
:1009400070470446AFF300802046FFF797FC10B5D0
:100950000146806B026C12F0500F05D0026CD2067B
:1009600026D500F08FFA10BD016C41F400710164CE
:1009700001688A6812F0405F17D1027EAAB9CA6A7C
:1009800012F4700F02D08A6852050ED44A6822F021
:1009900020024A60016C21F480710164016CC90479
:1009A00003D4016C41F00101016400F069FA10BD4B
:1009B000806BC26CBDE810400846104710B5806BD4
:1009C00040210164416C41F00401416400F05AFA95
:1009D00010BD10B5806B00F054FA10BD464910B53B
:1009E0004A6822F440324A604A6843681A434A60BF
:1009F00001684A6822F480724A6001684A680369A3
:100A000042EA03224A6001684A6822F040724A6062
:100A100001684A6883681A434A6001688A6822F458
:100A200000628A6001688A68C3681A438A60816AC2
:100A30006FF07062D14201688A6822F070628A6049
:100A400001688A680CD0836A1A438A6001688A68E0
:100A500022F040528A6001688A68C36A1A4301E042
:100A600022F040528A6001688A6822F002028A609D
:100A700001688A68037E42EA43028A6090F8201087
:100A8000002901684A680FD042F400624A60016898
:100A90004A6822F460424A6001684A68174C436A17
:100AA00004EB43331A4301E022F400624A60016818
:100AB000CA6A22F47002CA620168CA6A838B104C47
:100AC00004EB03531A43CA6201688A6822F4007275
:100AD0008A6001688A6890F8303042EA43228A606E
:100AE00001688A6822F480628A6001688A684069C5
:100AF00042EA8020886010BD0023014000E0FFFF33
:100B00000000F0FFFEE700001CB5084A6B4600211C
:100B1000A2F1400000F0B4FB002805D103490A7C93
:100B20000868694601F06AFE1CBD0000E40400206C
:100B300010B501F003FE11480068416941F002015F
:100B4000416100221146142000F0C0FF142000F083
:100B5000B0FF00F041F8094800F0EAFC10B108A02D
:100B6000FFF744FC0221054800F08EFA002804D06B
:100B7000BDE810400DA0FFF739BC10BDA404002053
:100B80000D0A205468652043414E207065726970DB
:100B9000686572616C20686173206E6F7420737475
:100BA000617274656421200D0A0000000D0A204363
:100BB000414E20525830206E6F74696669636174CB
:100BC000696F6E20686173206E6F74206F70656E40
:100BD000656421200D0A000000B58BB000200121C2
:100BE000CDE9060105900290039004900E20CDE916
:100BF00008106946044800F0BDFA002802D003A09E
:100C0000FFF7F4FB0BB000BDA40400200D0A205434
:100C100068652043414E2066696C74657220636F7D
:100C20006E66696720686173206E6F742066696EF6
:100C3000697368656421200D0A0000000648006899
:100C4000800608D50549012008700348083001686E
:100C500041F0200101607047046402404C00002014
:100C600001681823CAB2103AB2FBF3F2054B6FF3D6
:100C70000901032A9B5CC36500D9091D81650846EB
:100C800070470000AC4D000810B5014600208B698C
:100C90008A6A4FF0C07453B1B3F5005F15D072B1DA
:100CA000012A0CD0022A0AD0032A09D104E01AB181
:100CB000012A06D0022A03D1C96AC90100D5012040
:100CC00010BDC96AA142FAD010BD002AF7D0012A8E
:100CD000F2D0022AF3D0032AF3D010BD30B5046855
:100CE000256825F480252560046863608368402BAF
:100CF000036803D099600068C26030BD9A600068E4
:100D0000C16030BD7047000010B5042000F08EFDBA
:100D100001490420086010BD143C014010B50820B2
:100D200000F084FD01490820086010BD143C01401A
:100D300072B6FEE778B50024009490F83C20012AB2
:100D400019D0012280F83C200A6807250368092A87
:100D500013D9DE680A3A02EB42029540AE43DE60E8
:100D60000A788B680A3A02EB420293400268D5681F
:100D70002B43D36010E0022078BD1E6902EB4202D3
:100D80009540AE431E610A788B6802EB42029340A5
:100D9000026815692B4313614A681F25072A13D27D
:100DA00003685E6B521E02EB82029540AE435E63A7
:100DB0000A8893B20A79521E02EB820293400268BB
:100DC000556B2B43536327E003680D2A12D21E6B29
:100DD000D21F02EB82029540AE431E630A8893B293
:100DE0000A79D21F02EB820293400268156B2B43F3
:100DF000136311E0DE6A0D3A02EB82029540AE43C6
:100E0000DE620A8893B20A790D3A02EB82029340BD
:100E10000268D56A2B43D362164B0568144A9D427B
:100E200006D10D68122D03D1556845F48005556033
:100E300005689D4218D10B68102B01D0112B13D1DE
:100E4000536843F400035360096810290CD10A4920
:100E50000A4A0968B1FBF2F101EB8101490000E0A7
:100E6000491E00910029FBD180F83C40002078BD4C
:100E700000230140002001400000002040420F00FC
:100E800070477047704770B504004FF0000603D0FC
:100E9000206C002510B107E0012070BD204600F055
:100EA0001DF8656484F83C50206CC00610D4206C9A
:100EB00020F4885040F0020020642046FFF78EFDA9
:100EC0006564206C20F0020040F00100206400E026
:100ED000012684F83C50304670BD000000B5006823
:100EE000114987B088421CD110480021026842F4A1
:100EF00080720260006800F4807005900B4814381E
:100F0000026842F001020260006800F001000590F2
:100F1000202000900320CDE901016946044800F03B
:100F200091FC07B000BD00000020014044380240A1
:100F300000000240F8B500230446009390F83C00FE
:100F4000012807D0012084F83C0020688568ED075F
:100F500002D011E00220F8BD856845F001058560EA
:100F60004048414D0068B0FBF5F000EB400000E068
:100F7000401E00900028FBD120688568ED0503D550
:100F8000856825F48075856020688568ED075FD0E9
:100F9000256C40F20166B54345F4807525644068D0
:100FA000400505D5206C20F4005040F480502064AA
:100FB000206CC00404D5606C20F00600606400E082
:100FC000636484F83C30A36B2948284DD863A36B35
:100FD00028481864A36B2848D86423686FF022005F
:100FE00018602068436843F080634360206883682A
:100FF00043F480738360134620680A46A66B00F1B1
:101000004C01304600F0A5FB68681C49C00620680A
:1010100006D0884224D1816811F0405F13D01FE0D0
:101020008842F8D0164A904203D1D1F80423D20660
:10103000F1D0144A904213D1D1F8041301F01F01EA
:101040001029E8D30CE0816841F08041816007E01D
:10105000206C40F010002064606C40F0010060647F
:101060000020F8BD0000002040420F000023014096
:101070004F090008D3090008BD09000800200140FD
:10108000002101400022014090F82020012A07D0D1
:10109000022A05D0416A41F4802141620120704753
:1010A000006842690A43426100207047F0B590F839
:1010B00020500468A468012D05D0022D03D0416A98
:1010C00041F4802153E014F0406F01D1E5004BD58D
:1010D000C4F30164022C03D9416A41F4000146E0E3
:1010E0000125A5401D608B684FF4C0759BB1CE688B
:1010F00033434E6843EAC603066805EB0417F35111
:101100004FF4C273076803EB04130E69FE50097DA8
:10111000012905D009E00E88CB6843EA4653EBE786
:101120000168CE5846F48076CE501179D2F8053059
:101130004FF4C67641EA0323016806EB04168B518F
:101140001178D2F801204FF4C47341EA02210268F9
:1011500003EB0413D150006805EB0411425842F030
:10116000010242500020F0BD416A41F40011416289
:101170000120F0BD10B590F82020012A07D0022AE6
:1011800005D0416A41F480214162012010BD3B48F5
:10119000D0F8002242F00102C0F80022D0F800226C
:1011A00022F47C52C0F80022D0F800224B6A42EAB6
:1011B0000322C0F800220A7D02F01F0301229A4098
:1011C000D0F81C329343C0F81C32CB69B3B9D0F8C5
:1011D0000C329343C0F80C328C894B6864F31F4384
:1011E0004C6900EBC404C4F840320C890B6864F30A
:1011F0001F434C6900EBC404C4F84432CB69012B93
:1012000016D1D0F80C321343C0F80C320C884B685E
:1012100064F31F434C6900EBC404C4F840320C89EA
:10122000CB6864F31F434C6900EBC404C4F8443238
:101230008B69002BD0F804320ED01343C0F804326F
:101240000B69002BD0F8143208D01343C0F81432C5
:10125000096A012904D008E09343EFE79343F5E7D7
:10126000D0F81C121143C0F81C12D0F8001221F063
:101270000101C0F80012002010BD00000064004011
:1012800030B590F82040012C05D0022C03D0416AE3
:1012900041F480215DE00468002955D02469A40749
:1012A00054D04FF4D874056804EB01142D5915F08F
:1012B0000405956005682D594ED0ED085560056808
:1012C0002C5904F00204D4604FF4DA74056804EB7E
:1012D00001142D5905F00F05156105682D59C5F349
:1012E0000725956105682C59240C54614FF4DC7274
:1012F000046802EB0112A4581C700468A458240A64
:101300005C700468A458240C9C700468A258120EE7
:10131000DA704FF4DE72046802EB0112A4581C71FB
:101320000468A458240A5C710468A458240C9C71B5
:101330000468A258120EDA71006881B1016941F0A7
:1013400020010161002030BDE468A8E7416A41F452
:1013500000114162012030BD6D0D1560AFE7C1681D
:1013600041F02001C160EDE70246002092F8201014
:10137000012901D002290CD111688A68520100D5D7
:1013800001208A68120100D5401C8968C90000D577
:10139000401C704770B5040003D094F8200010B1D1
:1013A00004E0012070BD204600F082F8206801684A
:1013B00021F00201016000F037FB0546052604E03C
:1013C00000F032FB401B0A2811D8206840688007D3
:1013D000F6D42068016841F00101016000F024FBAF
:1013E00005460BE000F020FB401B0A2806D9606A86
:1013F00040F40030606284F82060D2E720684068E2
:10140000C007EFD0207E0128206801683DD021F080
:1014100080010160607E01282068016838D021F0D9
:1014200040010160A07E01282068016833D021F0CE
:1014300020010160E07E0128206801682ED041F083
:1014400010010160207F01282068016829D021F067
:1014500008010160607F01282068016824D021F024
:1014600004010160D4E902010843D4E904121143E4
:1014700008436168491E08432168C8610020606212
:10148000012084F82000002070BD41F08001C0E7F9
:1014900041F04001C5E741F02001CAE721F0100109
:1014A000CFE741F00801D4E741F00401D9E700009B
:1014B00000B500681B4987B0884230D11A480168DE
:1014C00041F001010160016801F00101059101682D
:1014D00041F001010160016801F00101059112492B
:1014E00010310A6842F000720A60096801F0007168
:1014F0000591016841F0010101600068012100F0DF
:10150000010005904FF4C05000900220CDE9010188
:101510000390092004906946044800F093F907B04D
:1015200000BD00000064004030380240000002406E
:1015300070B5044690F82000012804D0606A40F499
:101540000020606217E0022084F820002068016813
:1015500021F00101016000F067FA05460DE000F09E
:1015600063FA401B0A2808D9606A40F400306062C0
:10157000052084F82000012070BD20684068C00765
:10158000EDD1606270BD2DE9F0410446876D00F039
:101590004BFA054694F835000026022806D0802034
:1015A000606584F834600120BDE8F081206801683E
:1015B00021F0160101602068416921F0800141613C
:1015C000206C08B9A06C20B12068016821F00801E6
:1015D00001602068016821F0010101600BE000F06A
:1015E00023FA401B052806D92020606504F8346FD3
:1015F00003206070D8E720680068C007EFD194F836
:101600005C103F208840B86004F8346F012060709F
:101610000020C9E790F83510022903D080214165E8
:1016200001207047052180F835100068016821F01D
:1016300001010160002070472DE9F041044600F0EF
:10164000F3F905465CB1002684F83460022084F882
:1016500035002068016821F0010101600DE00120E2
:10166000BDE8F08100F0E0F9401B052805D92020F5
:101670006065032084F83500F2E720680068C00741
:10168000F0D121680A6820480240D4E901031843D8
:10169000D4E903352B43184363691843A3691843FE
:1016A000E3691843236A18431043626A042A03D18A
:1016B000D4E90B231A431043086020684069656A27
:1016C00020F0070128460D43012704280CD1A06A09
:1016D0000543E06A40B12046FFF7D6FA20B140202A
:1016E000606584F83570BAE7206845612046FFF7E9
:1016F000B7FA94F85C203F2191408160666584F8D8
:1017000035700020ACE700003F8010F070B5044653
:1017100090F83400002501280CD0012084F8340012
:1017200094F835600020012E06D084F8340002259C
:10173000284670BD022070BD022684F835606065C1
:101740002046FFF7CBFA2068016841F001010160F3
:10175000EEE72DE9F0410446866D90F8340000254F
:1017600001280DD0012084F8340094F83570002051
:10177000012F07D084F8340002252846BDE8F08107
:101780000220FBE7022784F8357060652046FFF7EA
:10179000A5FA94F85C103F208840B060206801688A
:1017A00041F016010160206C20B12068016841F011
:1017B000080101602068016841F001010160DCE777
:1017C00080B201F037BB000010B50C4C042808D1E2
:1017D00008210B4800F01CF90028206807D0401EA3
:1017E00020602168BDE8104006A0FEF7FFBD401C48
:1017F000206008A0FEF7FAFDF3E700004800002093
:10180000001002400D0A20636F756E743A20256443
:10181000200D0A000D0A20646574656374206869F0
:1018200067682070696E200D0A000000044910B539
:101830000A68024202D00860FFF7C6FF10BD000030
:10184000143C01402DE9F84FDFF89891002209F18E
:10185000040A0AF1040B03274FF00F0C0BF1040EDE
:1018600001250B6895402B40AB4272D10C7904F0F6
:101870000304012C01D0022C15D18668540007FA0C
:1018800004F826EA0806D1F80C8008FA04F848EAB9
:101890000608C0F808804468AC430D79C5F300150C
:1018A0009540254345600C79E443A40708D0C568FA
:1018B000540007FA04F6B5438E68A6402E43C6606E
:1018C0000C7904F00304022C11D1D40800EB840637
:1018D000356A5407E40E0CFA04F825EA0805D1F835
:1018E000108008FA04F848EA0508C6F82080056860
:1018F000540007FA04F6B5430E7906F00306A64035
:101900002E4306604C68E40066D5374C256845F4E4
:1019100080452560246822F0030504F48044009487
:10192000324C05EB0408D8F808589407260F0CFA37
:1019300006F4A5432E4CA04201D1002424E02D4CF6
:10194000A04201D101241FE02B4CA04202D102246D
:101950001AE041E0294CA04201D1032414E0284CB4
:10196000A04201D104240FE0264CA04201D105245D
:101970000AE0254CA04201D1062405E0234CA042F8
:1019800001D1072400E00824B4402C43C8F80848DB
:10199000D9F800404D464E689C43F60300D51C43E1
:1019A0002C60DAF8004055464E689C43B60300D5DB
:1019B0001C432C60DBF800405D464E689C43F602F9
:1019C00000D51C432C60DEF8004075464E689C43F1
:1019D000B60200D51C432C60521C102AFFF440AF05
:1019E000BDE8F88F003C014044380240003001401F
:1019F000000002400004024000080240000C0240C7
:101A0000001002400014024000180240001C024076
:101A10000069084000D001207047000001480068BC
:101A2000000C7047002004E0014880687047000007
:101A300010000020024881680278114481607047DC
:101A400010000020094810B5016841F400710160E0
:101A5000016841F480610160032000F057F80F2015
:101A600000F006F800F024F8002010BD003C024011
:101A700070B50D4D04464FF47A712878B1FBF0F043
:101A80000A490968B1FBF0F000F0F4FA48B9102CEB
:101A900007D200222146501E00F018F800206C608A
:101AA00070BD012070BD000010000020000000206B
:101AB0007047002809DB00F01F0201219140400916
:101AC000800000F1E020C0F800117047F0B40E4B28
:101AD0001B68C3F30223C3F10704042C00D90424B8
:101AE0001D1D072D01D2002300E0DB1E012606FA92
:101AF00004F56D1E0D409D409E40761E164045EA41
:101B00000601F0BC01F07BB80CED00E0064A00F0E5
:101B1000070110684FF6FF03184040EA012003490F
:101B200008431060704700000CED00E00000FA056B
:101B30002DE9F0470D46040065D0DFF81491D9F87F
:101B40000000EFB200F00700A84207D289F8007049
:101B5000D9F8000000F00700A84254D120683D4E9B
:101B6000810712D5400703D5306840F4E05030605B
:101B70002078000703D5306840F46040306030685A
:101B8000A16820F0F000084330602078C0072DD015
:101B9000304960680839012812D0022813D0032880
:101BA00011D00968890700292DDA316821F0030175
:101BB00001433160FFF738FF804641F2883A0EE07A
:101BC00009688903EFE709688901ECE7FFF72CFF53
:101BD000A0EB0801514502D90320BDE8F087306829
:101BE000616800F00C00B0EB810FEFD1D9F8001064
:101BF000484601F00701A94207D90770006800F0C4
:101C00000700A84201D00120E7E72078400705D56A
:101C10003068E16820F4E050084330602078000725
:101C200006D53068216920F4604040EAC100306088
:101C300000F038F83168084AC1F30311515CC8401C
:101C40000649086006480068FFF712FF0020C4E755
:101C5000003C024008380240944D0008000000207B
:101C6000140000200448054900680968044AC1F3CB
:101C70008221515CC84070470000002008380240B3
:101C8000A44D00080448054900680968044AC1F3E6
:101C90004231515CC84070470000002008380240C3
:101CA000A44D0008154810B5006810F00C01144848
:101CB00013D0431004290FD008290ED10F4C241F34
:101CC000216801F03F022168490207D52068C0F36E
:101CD0008810A0FB030106E0184610BD2168C1F37F
:101CE0008811A1FB00010023FEF7F5FA2168C1F37A
:101CF0000141491C4900B0FBF1F010BD0838024019
:101D00000024F4002DE9F84F040075D02078DFF8A6
:101D100038A3C007AAF1040548D00AF104000168FD
:101D2000C1F38101012908D00068C0F381000228B5
:101D30000AD1DAF80000400206D52868800335D5BC
:101D400060680028E1D031E06068B0F5803F10D0D5
:101D5000B0F5A02F286810D020F4803028602868C3
:101D600020F4802028606068A0B1FFF75DFE064681
:101D70000CE0286840F48030F4E740F480202860CC
:101D8000F7E7FFF751FE801B642871D828688003AD
:101D9000F7D50BE0FFF748FE064604E0FFF744FEE8
:101DA000801B6428F1D828688003F7D42078DFF8F6
:101DB0009C9280074FF0000B3DD5A348001D0168A1
:101DC00011F00C0F08D00068C0F3810002280AD17E
:101DD000DAF80000400206D42868800715D5E068CC
:101DE000012809D111E0E068B8B10120C9F800006C
:101DF000FFF71AFE064605E022E1FFF715FE801BFD
:101E00000228C2D828688007F7D52868216920F001
:101E1000F80040EAC10028600DE0C9F800B0FFF703
:101E200003FE064604E0FFF7FFFD801B02281FD8D3
:101E300028688007F7D42078000722D5824F84488D
:101E40006169703771B101210160FFF7EDFD064650
:101E500004E0FFF7E9FD801B022809D838688007F5
:101E6000F7D50EE0C0F800B0FFF7DEFD064605E04E
:101E700082E0FFF7D9FD801B02287DD838688007F3
:101E8000F7D42078400765D56F484FF000083C3004
:101E90000068C0000BD46C483C30016841F08051B0
:101EA000016000684FF0010800F080500090694F19
:101EB0003868C0050FD4386840F480703860FFF788
:101EC000B3FD064604E0FFF7AFFD801B022853D8A0
:101ED0003868C005F7D55C4FA0686C3701280FD073
:101EE0000528386810D020F001003860386820F0EC
:101EF00004003860A068B0B1FFF796FD06460EE01A
:101F0000386840F00100F4E740F004003860F7E77B
:101F1000FFF78AFD811B41F28830814263D838681F
:101F20008007F5D50DE0FFF77FFD064606E0FFF7D9
:101F30007BFD811B41F28830814254D8386880078C
:101F4000F5D4B8F1000F05D03F483C30016821F0CE
:101F500080510160A069B8B33B49091D0968C1F30C
:101F60008101022946D00228584606D0C9F86000EF
:101F7000FFF75AFD044639E035E04F46C9F86000E6
:101F8000FFF752FD064604E0FFF74EFD801B0228D6
:101F900029D828688001F7D4D4E907010843A16A49
:101FA0002D4A490802EB0141626A41EA8211084365
:101FB00094F82C1040EA0161CAF80010012038663C
:101FC000FFF732FD044605E03CE0FFF72DFD001B66
:101FD000022808D828688001F7D533E0FFF724FDF0
:101FE000001B022802D90320BDE8F88F2868800171
:101FF000F4D427E00128F7D0DAF80000E26900F411
:10200000800191421CD1226A00F03F01914217D118
:1020100047F6C071626A0140B1EB821F10D1A26A1B
:102020004FF0FF3300F4403103EB5202B1EB024FAB
:1020300006D194F82C1000F07060B0EB016F01D065
:102040000120D1E70020CFE70438024000004742DA
:10205000800E4742007000400000FFFF4FF0E0217B
:102060000428086903D020F004000861704740F09C
:102070000400FAE710B5401EB0F1807F01D30120C3
:1020800010BD4FF0E02460610F21601700F0B7FD34
:102090000020A06107202061002010BD70B590F8DD
:1020A0003C20012A32D0012580F83C50022280F8E1
:1020B0003D2002685368946823F070060B68334330
:1020C0005360134B02689A4214D0B2F1804F11D082
:1020D000104B9A420ED0104B9A420BD00F4B9A42A3
:1020E00008D00F4B9A4205D00E4B9A4202D00E4BAD
:1020F0009A4204D1496824F080031943916080F822
:102100003D50002180F83C10084670BD022070BD93
:10211000000001400004004000080040000C0040A6
:1021200000040140004001400018004010B50400C8
:1021300003D094F83D0010B107E0012010BD00204D
:1021400084F83C00204600F01EF8022084F83D0090
:10215000211D206800F0A6FB012084F8460084F8C9
:102160003E0084F83F0084F8400084F8410084F881
:10217000420084F8430084F8440084F8450084F861
:102180003D00002010BD704790F83D10012901D09E
:1021900001207047022180F83D100168CA6842F0B2
:1021A0000102CA6000681149884214D0B0F1804F22
:1021B00011D00F4988420ED00E4988420BD00E49EB
:1021C000884208D00D49884205D00D49884202D086
:1021D0000C49884204D1816801F00701062903D027
:1021E000016841F0010101600020704700000140DA
:1021F0000004004000080040000C004000040140C2
:1022000000400140001800402DE9F0410D46040057
:1022100003D094F83D0018B108E00120BDE8F0813A
:10222000002084F83C00204600F040F8022084F8AA
:102230003D002068816844F2070291438160211DBE
:10224000206800F02FFB206881688269066A2B688D
:10225000AF690B4340F203318A4342EA0722A9687F
:10226000EF6911434FF6FC429143EA6841EA0721C6
:102270000A4329692F6A090141EA073111436A6853
:102280006D6926F0AA0646EA05152A438360206890
:10229000816154F8460B0262012004F81F09E075C1
:1022A0002076E0762077A0750020B7E710B586B0DD
:1022B000044614216846FEF753FA12492068884202
:1022C0001ED111480021026842F008020260006835
:1022D00000F0080005900C481038026842F0010236
:1022E0000260006800F001000590032000900220C9
:1022F000CDE90101CDE9031069460448FFF7A2FAD0
:1023000006B010BD000C0040403802400000024002
:1023100070B590F83E50044690F83F3090F8422057
:1023200090F84300022621B104290BD0012D16D1CB
:102330000FE0012D13D1012A11D184F83E6084F8F9
:10234000426016E0012B0AD1012808D184F83F60D1
:102350000DE0012B03D1012A01D1012801D0012078
:1023600070BD84F83E6084F83F6084F8426084F871
:10237000436091B1042904D001220021206800F0BB
:10238000F5FA01220421206800F0F0FA20680168C3
:1023900041F001010160002070BD01220021206890
:1023A000F2E77047704710F83D1F407808437047C8
:1023B000F8B5026804461068D168536910F00F0F31
:1023C0004FF0000554D003F0010601F49077374335
:1023D0005FD0C20705D0CA0503D5226C42F00102C6
:1023E0002264420705D5DA0703D0226C42F00202CC
:1023F0002264820705D5DA0703D0226C42F004027A
:102400002264020707D501F02002324303D0226C78
:1024100042F008022264226C002A35D0800604D5DE
:10242000880602D5204600F0CEFA20684069216C6B
:10243000C0F3801001F008010143204625D000F0D0
:10244000AAFA2068416949061BD5416921F040017B
:102450004161A06BA8B159490165A06BFFF7DAF89B
:10246000002811D0A06B016D01B0BDE8F040084715
:1024700083060ED58B060CD52046BDE8F84000F04B
:10248000A2BA2046FFF78EFFF8BDFFF78BFF256449
:10249000F8BD266B2023012E53D1C60651D5CE069A
:1024A0004FD5106850680090506940062BD5A16B3D
:1024B000086840680004000CEAD0A68D8642E7D97F
:1024C000E085C869B0F5807F18D0D06820F48070AE
:1024D000D0602068416921F00101416120684169B3
:1024E00021F04001416184F83E3025632068C168D5
:1024F00021F01001C160A06BFFF745F8A08DE18DC0
:10250000401A81B219E0A08DE18D401A81B2E08DB0
:102510000028BDD00029BBD0D06820F49070D060D6
:102520002068426922F00102426184F83E3025634E
:102530002068C26822F01002C2602046FFF731FF17
:10254000F8BD05062BD50D0629D594F83D002128A8
:10255000F6D1A068B0F5805F01D12069B0B1206AE2
:10256000411C2162216800784860E08C401E000414
:10257000000CE084E4D12068C16821F08001C160D2
:102580002068C16841F04001C160F8BD206A008840
:10259000C0F308005060206A801C2062E5E7400616
:1025A000F3D54806F1D5D168204621F04001D1602D
:1025B00084F83D3000F0C0F8F8BD0000872900081D
:1025C00070B5040004D094F83D00002510B106E079
:1025D000012070BD84F83C50204600F023F82420F0
:1025E00084F83D002068C16821F40051C160204694
:1025F00000F040FA2068016921F4904101612068EF
:10260000416921F02A0141612068C16841F400510B
:10261000C1602564202084F83D0084F83E0000203D
:1026200070BD000030B500681F4987B0884238D1BE
:102630001E48016841F010010160006800F01000C0
:1026400005901A481438016841F0010101600168E1
:1026500001F001010591016841F00101016000688C
:10266000012100F0010005904FF40070009002205D
:10267000CDE901010724CDE903040D4D6946284643
:10268000FFF7E0F829150091049469462846FFF702
:10269000D9F82520FFF70DFA032211462520FFF770
:1026A00015FA07B030BD0000001001404438024068
:1026B0000000024090F83E30202B0ED159B152B1AB
:1026C00090F83C30012B08D0012380F83C300023E7
:1026D000036300F055BA01207047022070470000E4
:1026E00030B50068114988420CD1114A5088010464
:1026F00008D41146440409784FF0000306D50A298E
:1027000001D0538030BD40F400400DE00D2909D0C8
:10271000C0F30D04074D401C80B229555080C728D6
:10272000EFD830BD40F48040508030BD00100140F3
:1027300008000020280200207047FEE710B5114C69
:1027400088B00F4820601C226946201DFDF7D6FF87
:102750000320606000204FF4C021A060C4E90301A1
:102760004FF4A001616120766076A0760121E176C8
:10277000207760772046FEF70DFE08B010BD000000
:1027800000640040A404002010B58CB024216846E9
:10279000FDF7E6FF00241648099414490A940160E5
:1027A0000321C0E901144FF48062C0E9032484616D
:1027B00000910120CDE9014003940494CDE9054046
:1027C000079469460A480894FFF71EFD08B1FEF712
:1027D000AFFA099409A906480A94FFF75FFC00289C
:1027E00001D0FEF7A5FA0CB010BD0000000C0040AF
:1027F000FC030020FEE77047704700001346082ADC
:1028000004D00246194604A0FDF7F0BD0A78922ACA
:1028100001D100F0B5BB70475265636569766564A8
:10282000206D657373616765207769746820696ED0
:10283000636F7272656374206C656E6774683A20AA
:1028400025642062797465732C2049443A203078DD
:10285000253033580A0000007047FFF7EBB800003E
:102860000248016841F470010160704788ED00E0A2
:1028700010B50A4C2068C068C043C00709D1084899
:102880000069804721680020486221686420C8628E
:10289000E06021686FF00100086110BD6008002051
:1028A000EC000020F0B50268254D264E264FDFF8DB
:1028B0009CC0274B4FF0804EA84209D0704507D0EE
:1028C000B04205D0B84203D0604501D0984203D150
:1028D00022F070044A682243A8421BD0704519D0E8
:1028E000B04217D0B84215D0604513D0984211D0ED
:1028F000184CA0420ED0184CA0420BD0174CA0424E
:1029000008D0174CA04205D0164CA04202D0164C5D
:10291000A04203D122F44074CA6822434C6922F0D9
:102920008002224302608A68C2620A688262A84208
:1029300001D0984201D10969016301214161F0BDD3
:10294000000001400004004000080040000C00406E
:1029500000040140004001400044014000480140A3
:1029600000180040001C00400020004010B501F09D
:102970001F010123046A8B409C430462036A8A405E
:102980001343036210BD10B5806B0021C185C18463
:10299000FFF708FD10BD0168CA6822F49072CA6092
:1029A00001684A6922F001024A61016B012904D1E0
:1029B0000168CA6822F01002CA60202180F83E1027
:1029C00000210163704710B5044690F83E002228AC
:1029D00001D0022010BDA0684FF48052904201D176
:1029E000216921B1A16A90421BD048B10AE0216857
:1029F000A06A4968C1F308010180A06A801C08E050
:102A0000206970B12068406800F07F000870A06AFB
:102A1000401CA062E08D401E0004000CE08503D045
:102A20001CE020684068F1E72068C16821F02001BF
:102A3000C1602068C16821F48071C160206841696B
:102A400021F001014161202084F83E00206B012823
:102A500006D02046FFF744FE00202063002010BD72
:102A60002068C16821F01001C160A18D2046FFF7E8
:102A700098FCF1E770B5044600680169E26821F44A
:102A8000405111430161A1682069E2690143606915
:102A9000104301432068C26849F20C639A430A4319
:102AA000C26020684169A26921F44071114341610B
:102AB00031492068884202D03049884202D1FFF76C
:102AC000E1F801E0FFF7CEF8E2690023192164255F
:102AD0003226B2F5004F626828D0A0FB0101930FA7
:102AE0009200FDF7F8FB0146B0FBF5F06FF018021D
:102AF000504301EB800006EB0010B0FBF5F000F056
:102B0000F002B1FBF5F002EB0012B1FBF5F06FF053
:102B10001803584301EB800006EB0010B0FBF5F002
:102B200000F00F0021681044886070BDA0FB010117
:102B300092185B41FDF7CFFB0146B0FBF5F00201B7
:102B4000B1FBF5F06FF01803584301EB800006EB82
:102B5000C000B0FBF5F000F0F80002EB4002B1FB62
:102B6000F5F0584301EB800006EBC000B0FBF5F038
:102B700000F00700D6E700000010014000140140FB
:102B800081628285C28500210164222280F83E2074
:102B900080F83C100168CA6842F48072CA6001681B
:102BA0004A6942F001024A610068C16841F02001AF
:102BB000C16000207047000070B500240C4D0D4826
:102BC000FFF7F6FB02E0641CAC4204D80948FFF7AB
:102BD000EAFB2028F7D1002402E0641CAC4206D8AE
:102BE000012205490348FFF765FD0028F5D170BDB6
:102BF000FFFF0100B803002008000020FEE70907DE
:102C0000090E002804DB00F1E02080F80014704772
:102C100000F00F0000F1E02080F8141D70473038FC
:102C20000A2801D2012070470020704770471FB565
:102C30008DE80E006946FEF77DF81FBD0F4B10B5FD
:102C400019688A6822F001028A6003F1480211685B
:102C50000C6824F001040C60116848601068016879
:102C600041F0010101601868816841F00101816053
:102C70000348816841F08041816010BDB8070020A1
:102C8000002001400B4800B5026887B0002142F0E7
:102C900001020260006800F0010005903F200090F2
:102CA0000320CDE9010169460348FEF7CBFD07B0DB
:102CB00000BD0000303802400000024071B54348BA
:102CC00081B00025016841F480710160006800F462
:102CD000807000903D481438016841F48001016023
:102CE00000683C4C00F4800000903948C4E90005BD
:102CF0000015A560C4E9035040006061800004F144
:102D00001801C60081E861002046FEF795FC00230B
:102D100031492046019AFEF7F9FCA4F148002E49FA
:102D200084634C390160C0E901650121C0E90351A8
:102D3000017680F820500622C261284AC0E9095273
:102D4000C56280F83010FEF79EF8FFF79BFF07235F
:102D500001220021A4F14800FFF769FF07230222A6
:102D60000121A4F14800FFF762FF0723032202219B
:102D7000A4F14800FFF75BFF072304220321A4F11D
:102D80004800FFF754FF072305220421A4F148005F
:102D9000FFF74DFF072306220521A4F14800FFF7A6
:102DA00046FF032211463C20FEF790FE3C20FEF732
:102DB00080FE022201A9A4F14800FEF7BBF82068BA
:102DC000016841F0100101607CBD00004438024000
:102DD00070640240000800204C2001400100000FF8
:102DE00008B51346012200920C4A10600020506082
:102DF0009060C2E903030A4608496B46A1F1280026
:102E0000FEF754F908B1012008BD04482838FEF740
:102E1000ABFA0328F9D1002008BD0000CC04002043
:102E200010B504460420FFF719F90148046010BDED
:102E3000040000204FF4077170B5B0FBF1F2B0FB55
:102E4000F1F401FB1205094E03E0304600F010F8E2
:102E5000641E002CF9D1002D06D04FF47A7068431F
:102E6000BDE8704000F004B870BD0000603D08008F
:102E700070B54FF0E02500216C69094AAB69126812
:102E80005043AA699A42FCD002D2A3EB020302E0AB
:102E9000A4EB02063344194413468142F1D370BDBA
:102EA00004000020094808B5016841F08001016074
:102EB000016801F080010091016841F001010160A9
:102EC000006800F00100009008BD000030380240AA
:102ED00003490A685206FCD5C2B24A607047000036
:102EE0000010014030B5224D89B00024285D00F06B
:102EF00021FD641C082CF9DB1E4B1F4900206A468B
:102F000003EB800494ED000A01EB8004D4ED000A89
:102F100002EB8004401C30EE600A082884ED000AB1
:102F2000EEDB144B0020203302EB800191ED000A10
:102F300003EB8001401C81ED000A0428F4DB04202F
:102F4000052102EB8004401C94ED000A03EB810490
:102F5000491C84ED000A0828F3DB084890ED000ABC
:102F600083ED040A90ED020A83ED090A09B030BD31
:102F700020000020E00100202800002000050020A3
:102F80002DE9F0470026894680463546012437461C
:102F9000E20019F804003946083AFDF713FA29430C
:102FA0000643641C0D46072CF2DD05F400000743C0
:102FB000304601D041F07F4101F092FD9FED0C1BA6
:102FC00053EC112B01F0DEFD01F058FDA8F2411188
:102FD000082908D2084A02EB8801A1F50061C1F86E
:102FE000FC02BDE8F087BDE8F04704A0FDF7FEB99C
:102FF0007B14AE47E17A843FE00100204572726F96
:10300000723A20496E76616C696420494420726589
:103010006365697665642E0A0000000070B50A4990
:103020000646002408884D8821464543204600F086
:103030007FFA00F025FC4FF0D84002E0A0F8806055
:10304000641CAC42FAD370BD940400202DE9F04F0B
:103050002B4B2C27194698712B2589884FF4305A11
:103060004FF4285B4FF4487441F6631E2A264FF054
:10307000F00845F210594FF4A07C4FF4F072C8B13B
:10308000A3F800C0A3F80280494533D1A3F808A0F3
:10309000A3F80AB0280298811C805A80A1F5A640A6
:1030A000103802D11A80A3F802C0BDE8F04F00200A
:1030B00000F070B9A3F80080A3F802C0494507D119
:1030C000A3F808A0A3F80AB04FF42C50988104E0AC
:1030D00071451F8104D15D819E811A805C8001E071
:1030E0005E819D81A1F5A6401038DED1A3F800C015
:1030F0005A80DAE71F815E8171459D81CCD0CDE792
:10310000940400202DE9FF4F80460024154603203B
:1031100082B00F46A0EB450651E0781B81B208EB68
:10312000040A01901FFA8AF0059A00F099F8381BFA
:10313000009081B208EB05091FFA89F0059A00F0AA
:103140008FF807EB040B1FFA8BF11FFA89F0059A31
:1031500000F086F807EB05091FFA89F11FFA8AF0DB
:10316000059A00F07DF8A8EB040A1FFA89F11FFA0E
:103170008AF0059A00F074F8A8EB05091FFA8BF1A4
:103180001FFA89F0059A00F06BF80198059A81B250
:103190001FFA8AF000F064F80098059A81B21FFACD
:1031A00089F000F05DF8641C002E03DA06EB84065B
:1031B000B61D04E0601B06EB80066D1E0A36AC42AD
:1031C000ABDD06B0BDE8F08F2DE9FE4F0026A2EB87
:1031D000000882465F1A701E35468946B8F1000F16
:1031E00002DD4FF0010102E003D14FF00001019137
:1031F00002E0C8F100080190002F02DD4FF001004D
:1032000002E003D14FF00000009002E0C7F1000798
:1032100000904046B84501DD044600E03C46601C95
:103220004FF0000B029016E01FFA89F11FFA8AF0A6
:103230000C9A00F015F846443D44A64202DD01997F
:10324000361B8A44A54202DD00992D1B89440BF1EF
:1032500001001FFA80FB02998B45E5DDBDE8FE8F7A
:1032600010B5144600F064F900F00AFB4FF0D840A6
:10327000A0F8804010BD2DE9F8411D46079C164678
:10328000884607460B460094FFF79EFF3A462B46BA
:10329000414610460094FFF797FF2B4632461946E9
:1032A00038460094FFF790FF32462B4641461046C1
:1032B0000094FFF789FFBDE8F8812DE9F0431F4630
:1032C0008146A2EB0900079B401C0C4686B29DB2CA
:1032D0004FF0D84810E02146484600F029F900F0A8
:1032E000CFFA0020414603E0A1F88050401C80B294
:1032F000B042F9D3641CA4B2BC42ECD9BDE8F0835F
:103300000346012000E05843491EC9B2FBD2704772
:1033100008B54FF0D840B0F88000ADF80000BDF817
:10332000000008BD10B51A4C2288824202D962887A
:103330008A4201D8002010BD00F0FAF8A088A0F55C
:10334000AA41103921D02E2000F08EFAFFF7E0FFBD
:10335000A188A1F5C852633AEDD00220401EFDD2EB
:10336000FFF7D6FF04460221491EFDD2FFF7D0FF2A
:10337000E1B24FF6FF7202EA012124EA6212890AE1
:1033800042EA411141EAD02010BD4FF43850DBE74A
:103390009404002070B5654C00232146A2798988E9
:1033A00041F66315012A01D01AB11BE0A94202D1EE
:1033B00018E0A94216D1082814D2DFE800F004066C
:1033C000080A0C0E101206200CE007200AE0042068
:1033D00008E0052006E0012004E0002002E00320D0
:1033E00000E00220082812D2DFE800F011040608ED
:1033F0000A0C0E1080230AE0402308E0C02306E0F8
:10340000202304E0602302E0A02300E0E023362034
:1034100045F21056B14200D10002A1F51342413AE3
:1034200003D0A1F5EE42893A01D143F008031946D1
:1034300000F030FAA288AA420AD098062088618853
:1034400002D5884202D303E0884201D921806080FE
:103450006089B24240D100F007FA002000F0F8F98C
:103460006089401C80B200F0FFF9002000F0F0F904
:103470006089801C80B200F0F7F92088401EC0F3FC
:103480000F2000F0E5F96089C01C80B200F0ECF973
:103490002078401EC0B200F0DBF9A08900F0E4F90A
:1034A000002000F0D5F9A089401C80B200F0DCF9C2
:1034B000002000F0CDF9A089801C80B200F0D4F982
:1034C0006088401EC0F30F2000F0C2F9A089C01C24
:1034D00080B200F0C9F921E000F0C6F9002000F048
:1034E000B7F9002000F0B4F92088401EC0F30F2087
:1034F00000F0AEF92078401EC0B200F0A9F9A08912
:1035000000F0B2F9002000F0A3F9002000F0A0F9CB
:103510006088401EC0F30F2000F09AF9A078BDE843
:103520007040401EC0B200F093B900009404002027
:10353000F0B53A4D0C460246060AA9882846270AE5
:103540004089A1F5C853633B16D0A1F5AA43103BAF
:103550004BD000F089F9304600F07AF9D0B200F093
:1035600077F9A88900F080F9384600F071F9E0B2E7
:10357000BDE8F04000F06CB9A97929B300F074F906
:10358000304600F065F9D0B200F062F92888401E9C
:10359000C0F30F2000F05CF92878401EC0B200F0A4
:1035A00057F9A88900F060F9384600F051F9E0B207
:1035B00000F04EF96888401EC0F30F2000F048F973
:1035C000A878401EC0B2D3E72988891A491E8AB25A
:1035D00000F04AF9002000F03BF9002000F038F933
:1035E000100A00F035F9D0B2D9E700F03DF93046C5
:1035F00000F02EF96889401C80B200F035F9D0B295
:1036000000F026F9A88900F02FF9384600F020F9DB
:10361000A889401C80B200F027F9A8E79404002094
:103620002DE9F84F824698460C468B46580700D045
:10363000012000EBD8014FEA580011FB00F0C0B2A6
:10364000203A0090D0B24146B8F10C0F0AD01029B0
:103650000CD0182910D0B8F1200F41D1214901EB2D
:10366000801006E000EB40001F4908E01F4901EB15
:1036700000108146002730E01D4900EBC00001EB3F
:103680008000F6E719F807600025300601D50B9A8F
:1036900003E00A9828B91748026821465046FFF708
:1036A000DFFD7006060E1448641CA4B24088A042D8
:1036B00016D9A4EB0B01414509D10AF101001FFA0B
:1036C00080FA0D485C460188514509D903E06D1C1C
:1036D000EDB2082DD9D37F1CFFB200988742D1D319
:1036E000BDE8F88F74650008B44D00082852000842
:1036F000185800081C000020940400202DE9FF4FFA
:1037000083B080460027DDE910091D4693463C46FC
:10371000BA46460827E0281B401EC1B20A20FFF720
:10372000EFFDBBFBF0F00A21B0FBF1F201FB120050
:1037300027B9691E8C4201DA48B101273030C2B284
:10374000CDE900A906FB048080B2109B06E0CDE91C
:1037500000A906FB0480109B80B220220499FFF789
:103760005FFF641CE4B2AC42D5D307B0BDE8F08F74
:103770002DE9FC4F044600F0FF0910190D46DDE964
:103780000B761FFA80F858191FFA80FADDF834B06A
:1037900012E0444502D3E8194C4685B2554510D293
:1037A0000021CDE9001B3B4629462046FFF738FFA4
:1037B00004EB570084B2761C3278A2F120005E2818
:1037C000E7D9BDE8FC8F2DE9FF4F83B08046DDE9E6
:1037D00011B910984FF0000A1F4654460BF001052E
:1037E00046082EE0381B401EC1B20A20FFF788FDB4
:1037F0000599B1FBF0F00A21B0FBF1F201FB1200D8
:10380000BAF1000F05D1791E8C4202DA50B14FF0A7
:10381000010A3030C2B2CDE9005906FB048080B203
:10382000109B09E0CDE900595FEA0B6006FB0480BC
:10383000109B80B20AD530220499FFF7F1FE641C78
:10384000E4B2BC42CED307B0BDE8F08F2022F3E74C
:1038500001B5BDF80000ADF80000BDF800004FF064
:10386000D841A1F8800008BD01B5BDF80000ADF851
:103870000000BDF800004FF0D841A1F87E0008BD5F
:1038800003484FF0D8410089A1F87E00704700003E
:10389000940400204FF0D84222F87E0F51807047E8
:1038A000FEF7D0F80723022208214FF4A87000F099
:1038B00087F8A820FFF7B4FA4FF4E13000F014F9CC
:1038C0001448416854208847FFF7ECFAFEF75CFF84
:1038D0003C211148FEF71CFDFDF72AF90F48FFF7C0
:1038E000EDF94FF49670FFF7A9F90DA0FCF77EFDF6
:1038F0004FF47A742046FFF79DFA2046FDF760FFEB
:1039000000F0B6F8FFF7EEFA084800F021F80320BF
:10391000F4E70000EC000020FC0300201805002064
:10392000737461727421200D0A00000000020020EF
:10393000006870471CB500210091019192218DF81B
:1039400000100822694600F5A070FFF749FA1CBD77
:103950002DE9FC41054600244FF4907604EBD47029
:1039600006EB600705EB84000822016800914068BF
:10397000019069463846FFF733FA28B1394606A068
:10398000FCF734FDBDE8FC810120FDF719FFA41C04
:103990000A2CE3DBF6E700004661696C656420747D
:1039A0006F2073656E642043414E206D65737361B3
:1039B000676520776974682049442025780A0000EB
:1039C0002DE9F04393B00E468046994615463021C6
:1039D0006846FCF7C5FE14210CA8FCF7C1FE21487F
:1039E0000024016841F080510160006800F08050BF
:1039F00011901D48016841F4804101600068022770
:103A000000F480401190012000900004069701907E
:103A100007A9800181E84101CDE90A596846FEF70E
:103A200071F968B90F20CDE90C074FF4A050CDE92A
:103A30000E40F802109005210CA8FEF779F818B195
:103A4000012013B0BDE8F083FDF7E8FF41F201016A
:103A5000884204D10548016841F48071016000206A
:103A6000EFE700004038024000700040003C024098
:103A7000F0B4194C207801282CD1184B0021DFED2F
:103A8000180A9FED181A3225A3F1180600221046D5
:103A900000EB400701EB4707401C33F81770322852
:103AA0003A44F5DB92FBF5F000EE100A06EB8100DC
:103AB000491CB8EEC00A062920EE200A20EE010AB1
:103AC00080ED000AE2DB00202070F0BC4FF496701D
:103AD000FFF7B4B8F0BC70474C0000201805002078
:103AE000000080390000B4430B4910B5094AC1E910
:103AF000002000208860C860086188610C2048614F
:103B00000846FEF75DFDBDE810400122034902486A
:103B1000FEF7D0BD00100140B803002008000020CF
:103B200070B594B0064613AB11AA694600F0DCF9F3
:103B3000002824D18DF840001D4C042514E0206895
:103B400005EBC10113AB405812AA08A900F0CCF94B
:103B5000002814D1694608A800F0DBFB88B19DF865
:103B60004000401C8DF84000207D9DF840108842A8
:103B7000E5D8207D9DF8401088420ED1042014B075
:103B800070BD9DF848009DF84410884201D902207C
:103B9000F5E79DF84000A075EBE710A9304600F06E
:103BA00057FA0028EBD19DF8400060750020E6E749
:103BB000EC0000202DE9F0417E4E9AB0B57D307DBD
:103BC000A8427CD90421306801EBC50119AB4058EB
:103BD00018AA10A900F088F910A977A0FCF706FC34
:103BE00000240DF1180832E0308B0121A140084279
:103BF00017D0222172A0FCF7F9FB204600F0A0FAB2
:103C0000811970A02431FCF7F1FB22216CA0FCF794
:103C1000EDFB204600F094FA3044243048F82400AC
:103C20000BE0204600F08CFA3044416A48F824103A
:103C3000F07D00B364A0FCF7D9FB9DF86000401E46
:103C4000844202D062A0FCF7D1FB641CE4B29DF870
:103C500060008442C8D35FA0FCF7C8FB00F0F8FE08
:103C6000707D0B2814D2DFE800F0080D3138404891
:103C7000525E6B78890058A0DDE7306850F8350057
:103C8000804704E0306850F83510069888470746AA
:103C900000F09EFE9DF8640001286ED04FA0FCF756
:103CA000A5FB96F8EC0000280DD0D6F8F0000A210C
:103CB000B0FBF1F201FB1202B0FBF1F100E002E017
:103CC00047A0FCF793FB1AB0BDE8F081306850F8CC
:103CD0003520DDE906019047D9E7306806AC50F899
:103CE000353094E807009847D1E7306806AF50F8C0
:103CF000354097E80F00A047C9E70A980090306860
:103D000006AF50F8354097E80F00A047BFE7DDE960
:103D10000A01CDE90001306806AF50F8354097E858
:103D20000F00A047B3E70AAB06AF93E807008DE8A2
:103D30000700306850F8354097E80F00A047A6E725
:103D40000AAC06AF94E80F008DE80F00306850F819
:103D5000354097E80F00A04799E70BAC06AF94E811
:103D60000F0001AC84E80F000A980090306850F80A
:103D7000354097E80F00A04789E711E00CAC06AF8B
:103D800094E80F0002AC84E80F00DDE90A01CDE9F8
:103D90000001306850F8354097E80F00A04776E7FB
:103DA000F07D394618B116A0FCF720FB79E717A083
:103DB000FAE70000EC0000200D0A2573280000003F
:103DC00025630000257300003058255800000000CE
:103DD0002C00000029000000256C64003B0D0A0047
:103DE00046756E6374696F6E2052756E2054696DEE
:103DF000653A25642E2531646D730D0A00000000BC
:103E00003D305825583B0D0A000000003D256C75DB
:103E10003B0D0A00F0B500252E462F462C460378B0
:103E20002C2B03D0292B04D01BB103E014B901269D
:103E300000E00CB317B1222B2AD02AE0A3F1300CFA
:103E4000BCF1090F19D92D2B17D02B2B15D0A3F1AD
:103E5000610CBCF1050F10D9A3F1410CBCF1050FA9
:103E60000BD9582B09D0782B07D0222B0CD0202B24
:103E70001ED02C2B1CD0FF270CE05EB9612B00D389
:103E8000203B01F8013B13E026B901273C460FE037
:103E9000002426B10020087017702846F0BD3CB100
:103EA0005C2B02D16D1CEDB2401C037801F8013B84
:103EB0006D1CEDB2401CB2E730B5002515700AE06C
:103EC00001F8014B1478401C641CE4B214709C424D
:103ED00001D3012030BD0478202C01D0002CEFD17B
:103EE0000D70002030BD00002DE9FF4F002482B08E
:103EF00089469846A2462746012526462246EB4695
:103F0000029915E0202810D002F07F03052B0CD277
:103F100002B9802202F07F03042B01D12A280AD1A2
:103F2000521C0BF80300D2B201E0852A04D0491CD0
:103F300008780028E6D16AB102F07F0200200BF871
:103F4000020041A1584600F0E4F938B1012188F897
:103F5000001000224FF00008029B15E0002088F8B6
:103F60000000F6E708F1010000F0FF0813F8010F68
:103F7000202801D02A2807D1184600F057F9282810
:103F800002D02A2800D0C2461878282801D000285C
:103F9000E8D10299BAF1000F01D05144491C4FF009
:103FA00000084346087888B1282804D0292806D07C
:103FB000222810D011E083B9641CE4B20DE063B98B
:103FC00024B1641E14F0FF0402D00DE04FF001088C
:103FD000012F27D02FE04BB100234CB12C280CD05F
:103FE000202816D0282814D05AB110E00123F4E775
:103FF000202815D009F8010B12E00125521CD2B27D
:1040000007E0052E03D20BF80600761CF6B26D1CF5
:10401000EDB2012C04D1022D02D103257F1CFFB289
:10402000491CBFE700200BF8060007A1684600F016
:1040300070F900B9002704980770002089F8000083
:1040400006B04046BDE8F08F766F6964000000005E
:104050002DE9F04300248946304DB5B02146224673
:104060006B18491CC9B29A760A29F9D302E010F8F4
:10407000011F99B101782829F9D1461C4FF0010898
:1040800033AA69463046FFF7C5FE06449DF8CC00CA
:1040900040B1012824D0FF2836D10BE0012035B0F3
:1040A000BDE8F0839DF8000070B334A9684600F0C5
:1040B000C5F808B10220F2E7204600F041F8284494
:1040C00034994162298B08FA04F081432983042042
:1040D00029198876641CE4B20A2C15D90320DEE77E
:1040E000684600F02BF9471C204600F029F84119DA
:1040F0006846243100F019F9298B08FA04F00143CD
:10410000281929838776E5E73078292801D0002807
:10411000B6D189F800400020C1E70000EC00002083
:10412000054A002011880B0405D5044BC8B20021B4
:1041300019541846118070470A00002028020020F8
:10414000024610B500200146054B05E05C18491CED
:10415000A47EC9B22044C0B29142F7D310BD000082
:10416000EC00002000EBC00101EB00104FF0FF312C
:1041700001EB800010B581B24FF47A7000F040FC82
:1041800001490120C87510BDEC0000200346012044
:1041900000E05843491EC9B2FBD2704770B5FFF723
:1041A000BFFF050022D0124EB1688847040013D02B
:1041B000284600F0CDF8012801D0040016D0012CCB
:1041C0000ED0022C0ED0032C0ED0042C0ED109A040
:1041D000BDE87040FCF70AB9F068BDE870400047E0
:1041E00009A0F5E70BA0F3E70DA0F1E770BD000013
:1041F000EC000020CEB4D5D2B5BDC6A5C5E4B5C48B
:10420000BAAFCAFD210D0A00BAAFCAFDB4EDCEF3B4
:10421000210D0A00B2CECAFDB4EDCEF3210D0A0085
:10422000B2CECAFDCCABB6E0210D0A0010F8011FDA
:10423000202901D10028F9D1C8B270472DE9F043F7
:104240000E4600244FF00A082546014634600A78DD
:10425000A2F13003092B14D903782D2B01D02B2B7D
:1042600000D174B1A2F14103052B0AD9582A05D017
:1042700012F0FF0F17D00120BDE8F083012C02D00F
:10428000F9E7412A01D34FF0100802782D2A04D013
:104290002B2A04D0641CE4B203E0022500E00125CF
:1042A000401C491CD3E70746B8F1100F01D084B178
:1042B00012E0032C01D20220DEE73878302802D148
:1042C0007878582801D00320D6E7A41EE4B2BF1C9A
:1042D00001E00420D0E70CB1641EE4B23878014656
:1042E0003038092801D8814601E0A1F1370921467B
:1042F0004046FFF74BFF326809FB0020306017F89B
:10430000011F0029E7D1022D01D140423060002079
:10431000B2E702780B789A4201D00120704712B1BF
:10432000401C491CF5E70020704702780A700278AB
:10433000002A02D0401C491CF7E770470021027890
:104340001AB1491CC9B2401CF9E708467047000081
:10435000F0B58DB004461E2308AA6946FFF7ACFDF0
:104360000990002872D19DF82000271800253E4CA6
:104370008DF820509DF8200054F820106846FFF773
:10438000C8FF38B19DF82000401CC0B28DF8200055
:104390000728EFD39DF820000426344C072855D277
:1043A000DFE800F00404395A605F5E0030A0FCF7DB
:1043B0001DF830A0FCF71AF83EA0FCF717F84DA046
:1043C000FCF714F85BA0FCF711F86AA0FCF70EF8F4
:1043D00078A0FCF70BF886A0FCF708F88BA0FCF798
:1043E00005F893A0FCF702F897A0FBF7FFFF9CA04D
:1043F000FBF7FCFFA1A0FBF7F9FFA7A0FBF7F6FF77
:10440000B3A0FBF7F3FFC0A0FBF7F0FFCBA0FBF7D7
:10441000EDFFD7A01BE016A0FBF7E8FFE4A0FBF739
:10442000E5FF8DF820500BE0216806EBC00009582D
:10443000EFA0FBF7DBFF9DF82000401C8DF820006B
:10444000217D9DF820008142EED856E257E2FBF72D
:10445000CDFF00200DB0F0BD05A0FBF7C7FFCBE1FD
:104460002CE20CE2EBE1000050000020EC00002008
:104470000D0A00002D2D2D2D2D2D2D2D2D2D2D2D09
:104480002D2D2D2D2D2D2D2D2D2D2D2D55534D41DA
:1044900052542056332E352D2D2D2D2D2D2D2D2DD5
:1044A0002D2D2D2D2D2D2D2D2D2D2D2D2D2D2D2049
:1044B0000D0A00002020202055534D415254CAC7F8
:1044C000D3C9414C49454E54454BBFAAB7A2B5C4C8
:1044D000D2BBB8F6C1E9C7C9B5C4B4AEBFDAB5F747
:1044E000CAD4BBA5BDBBD7E9BCFE2CCDA8B9FD2065
:1044F0000D0A0000CBFC2CC4E3BFC9D2D4CDA8B9AF
:10450000FDB4AEBFDAD6FACAD6B5F7D3C3B3CCD0B2
:10451000F2C0EFC3E6B5C4C8CEBACEBAAFCAFD2C5E
:10452000B2A2D6B4D0D02ED2F2B4CB2CC4E3BFC941
:104530000D0A0000D2D4CBE6D2E2B8FCB8C4BAAFC0
:10454000CAFDB5C4CAE4C8EBB2CECAFD28D6A7B32B
:10455000D6CAFDD7D62831302F3136BDF8D6C62C75
:10456000D6A7B3D6B8BACAFD29A1A2D7D6B7FBB48D
:10457000AE0D0A00A1A2BAAFCAFDC8EBBFDAB5D82A
:10458000D6B7B5C8D7F7CEAAB2CECAFD292CB5A5E5
:10459000B8F6BAAFCAFDD7EEB6E0D6A7B3D631307B
:1045A000B8F6CAE4C8EBB2CECAFD2CB2A2D6A7B305
:1045B000D60D0A00BAAFCAFDB7B5BBD8D6B5CFD4B1
:1045C000CABE2ED6A7B3D6B2CECAFDCFD4CABEBD00
:1045D000F8D6C6C9E8D6C3B9A6C4DC2CD6A7B3D6CC
:1045E000BDF8D6C6D7AABBBBB9A6C4DC2E0D0A003F
:1045F000BCBCCAF5D6A7B3D63A7777772E6F70656D
:104600006E6564762E636F6D0D0A000055534D4143
:104610005254D3D037B8F6CFB5CDB3C3FCC1EE28D2
:10462000B1D8D0EBD0A1D0B4293A0D0A00000000D7
:104630003F3A202020202020BBF1C8A1B0EFD6FABD
:10464000D0C5CFA20D0A000068656C703A2020200A
:10465000BBF1C8A1B0EFD6FAD0C5CFA20D0A0000B9
:104660006C6973743A202020BFC9D3C3B5C4BAAFF4
:10467000CAFDC1D0B1ED0D0A0A00000069643A20FC
:1046800020202020BFC9D3C3BAAFCAFDB5C4494456
:10469000C1D0B1ED0D0A0A006865783A20202020CB
:1046A000B2CECAFD3136BDF8D6C6CFD4CABE2CBAFA
:1046B000F3B8FABFD5B8F12BCAFDD7D6BCB4D6B47F
:1046C000D0D0BDF8D6C6D7AABBBB0D0A0A000000E1
:1046D0006465633A20202020B2CECAFD3130BDF897
:1046E000D6C6CFD4CABE2CBAF3B8FABFD5B8F12B10
:1046F000CAFDD7D6BCB4D6B4D0D0BDF8D6C6D7AADA
:10470000BBBB0D0A0A00000072756E74696D653AD4
:10471000312CBFAAC6F4BAAFCAFDD4CBD0D0BCC628
:10472000CAB13B302CB9D8B1D5BAAFCAFDD4CBD0C1
:10473000D0BCC6CAB13B0D0A0A000000C7EBB0B43A
:10474000D5D5B3CCD0F2B1E0D0B4B8F1CABDCAE48B
:10475000C8EBBAAFCAFDC3FBBCB0B2CECAFDB2A2B1
:10476000D2D4BBD8B3B5BCFCBDE1CAF82E0D0A004B
:104770002D2D2D2D2D2D2D2D2D2D2D2D2D2D2D2D69
:104780002D2D2D2D2D2D2D2D2D2DD5FDB5E3D4AD7C
:10479000D7D32D2D2D2D2D2D2D2D2D2D2D2D2D2DF9
:1047A0002D2D2D2D2D2D2D2D2D2D2D200D0A0000E3
:1047B0002D2D2D2D2D2D2D2D2D2D2D2D2D2D2D2D29
:1047C0002D2D2D2D2D2D2D2D2DBAAFCAFDC7E5B5C3
:1047D000A52D2D2D2D2D2D2D2D2D2D2D2D2D2D2D91
:1047E0002D2D2D2D2D2D2D2D2D2D2D2D200D0A0076
:1047F00025730D0A0000000042A0FBF7F7FD8DF8BD
:10480000205016E0216806EBC0000BAB08580AAA3E
:104810006946FFF769FB9DF82010206850F83120A9
:10482000694648A0FBF7E2FD9DF82000401C8DF88A
:104830002000217D9DF820008142E3D85DE0AFF2A9
:10484000D030FBF7D3FD08AA69463846FFF7E2FAF5
:104850009DF82000002843D109A96846FFF7EEFC27
:104860008DF8200010B104283AD102E03AA009994D
:104870001CE03CA0FBF7BAFD0120E0753DE038A04C
:10488000FBF7B4FD08AA69463846FFF7C3FA9DF85E
:10489000200028BB09A96846FFF7D0FC8DF820004E
:1048A00010B104281CD104E033A00999FBF79EFD48
:1048B00023E034A0FBF79AFDE5751EE028A0FBF786
:1048C00095FD08AA69463846FFF7A4FA9DF820002E
:1048D00030B909A96846FFF7B1FC8DF8200008B18E
:1048E0000220B7E5099810F0FF0084F8EC0001D031
:1048F00029A000E02FA0FBF779FD19A0A7E5012072
:10490000A8E500002D2D2D2D2D2D2D2D2D2D2D2DFE
:104910002D2D2D2D2D2D2D2D2D2D2D2D2DBAAFCA1B
:10492000FD204944202D2D2D2D2D2D2D2D2D2D2DCE
:104930002D2D2D2D2D2D2D2D2D2D2D2D2D2D2D2DA7
:10494000200D0A0025732069642069733A0D0A302E
:1049500058253038580D0A004845583A30582558DF
:104960000D0A00003136BDF8D6C6B2CECAFDCFD48E
:10497000CABE210D0A0000004445433A256C750D5E
:104980000A0000003130BDF8D6C6B2CECAFDCFD481
:10499000CABE210D0A00000052756E2054696D6573
:1049A0002043616C63756C6174696F6E204F4E0DAE
:1049B0000A00000052756E2054696D652043616CD9
:1049C00063756C6174696F6E204F46460D0A000076
:1049D000094800680169C943CA070849D1F8F020AD
:1049E00004D14FF6FF731A44C1F8F020406A104416
:1049F000C1F8F0007047000060080020EC000020C3
:104A000038B5104A0023146844F004041460126896
:104A10000D4C02F0040200920C4AC2E9023013610C
:104A2000C2E900411046FDF781FB0848FDF7ACFBE9
:104A3000032211461E20FDF749F8BDE838401E202C
:104A4000FDF737B8403802400008004060080020F9
:104A500007486FF00101026811610268090CD16218
:104A6000C1600068002141620248C0F8F010704740
:104A700060080020EC0000200160704721F0004237
:104A8000A2F16052B2F5801F01F0004328BFD2F1BD
:104A90007F6C0BD95FEA001C43EAC20242EB507004
:104AA00018BF704728BF20F001007047B2F5801F83
:104AB000BCBF184670474FEA410C1CF5001F02D2DC
:104AC000084600F062B970B500F006F900000089F0
:104AD000FFF7F6BF4FF00040A0F5800070470000E0
:104AE0007FEAE17202D1101A62EB0101B1FA81F39F
:104AF0000B3B24D3994012D1B0FA80F310FA03F1A2
:104B000008BF7047C3F11D0303F5406303EBC223E5
:104B10004FEAD1224FEA415002EB03517047C3F1F3
:104B2000200C20FA0CFC9840C3F1320303F54063DB
:104B300003EBC22341EA0C0101EB0351704710B5AE
:104B4000C3F1320CC3F10004C4F1200E0CF5406C2B
:104B50000CEBC22201FA0EFC21FA04F100FA0EF36A
:104B6000E040BDE8104040EA0C0001EB025138BFC4
:104B70007047401C41F100015B0008BF20F00100BC
:104B800070470000DFF848C170B51CEA111E1EBF57
:104B90001CEA13159EEA0C0F95EA0C0F00F06F80CB
:104BA00081EA030423EA4C134EEAD47E21EA4C1135
:104BB00041F4801143F48013AE44A1FB024CA0FBEE
:104BC0000365AEF17F7E361955EB0C05A1FB034C56
:104BD0004CF10003A0FB021C16EB0C06654153F1DF
:104BE0000003094218BF46F0010613F4007F0BD101
:104BF0004FEA03314FEA0530340341EA155140EAE8
:104C000016506FF003020AE04FEAC3214FEAC520B5
:104C1000F40241EA555140EA56506FF0020202EBAD
:104C20002E4201EB025585EACE710AD05FEA440CB0
:104C300018BF24F0004450F1000041F1000120EAC7
:104C4000D47040F2FE7C624500D270BDA84214BF11
:104C50004FF080444FF04044002E08BF0024BEF1C6
:104C6000806FA8BFA1F1C041BDE8704080F2828092
:104C70004FF0000001F1C04101F0004170479EEA91
:104C80000C0F0CEA131518BF95EA0C0F06D04FF065
:104C9000000081EA030E0EF0004170BD00F01CF828
:104CA0008900013E00F007B800F009B84FEA430C54
:104CB0005FEA5C5C08D081EA030100F05BB84FEA70
:104CC000410C5FEA5C5CF6D14FF00000014970478F
:104CD0000000FF070000F87F0EF1020E2EF0030E19
:104CE0005EF8046B364205D4012A43EB030515F543
:104CF000001F12D8012841EB010C1CF5001F0CD835
:104D00000ED14FEAD17C15F5001F0CEB4C0C0CF1C9
:104D1000020C08BF4CEBD37C04E04FF0080C01E020
:104D20004FEAD37C0CEB4C0526FA05F606F0070695
:104D3000B6F1040C06D20EEB860CBDE870404CF0C8
:104D4000010C6047DFE80CF0090B02024FF0004154
:104D50004FF00000A1F5002170BD19461046012852
:104D600051EB010418BFD4F5001484BF002001F0FA
:104D7000004170BD0808A0F500114FEA31017047ED
:104D80004FF04070E1EE100A7047FF2141EAD05029
:104D9000C00570470000000000000000010203048D
:104DA00006070809000000000102030400061016AF
:104DB00000061016000000000000000000000000C7
:104DC000000000003F400000000000000000300034
:104DD000400030004000000009000BC03D000BC047
:104DE0003D00090018C024407FE0224031800000CF
:104DF000180024C01B000D803240018003801C403D
:104E000027401C80074000401000600000000000A8
:104E1000000000000000000000001F802040402033
:104E20000000402020401F80000000000900060014
:104E30001F80060009000000040004003F800400F9
:104E400004000000001000600000000000000000EE
:104E500004000400040004000400000000000040FE
:104E60000000000000000000002001C00600380023
:104E7000400000001F802040204020401F80000094
:104E8000000010403FC000400000000018C021405A
:104E9000224024401840000010802040244024403C
:104EA0001B80000002000D0011003FC00140000007
:104EB0003C80244024402440238000001F80244064
:104EC00024403440038000003000200027C0380018
:104ED000200000001B802440244024401B80000050
:104EE0001C0022C0224022401F8000000000000061
:104EF0000840000000000000000000000460000006
:104F000000000000000004000A0011002080404062
:104F100009000900090009000900000000004040E4
:104F2000208011000A000400180020002340240003
:104F3000180000001F802040274029401F4000002B
:104F4000004007C039000F0001C0004020403FC0B2
:104F5000244024401B8000001F802040204020402F
:104F60003080000020403FC0204020401F800000D3
:104F700020403FC024402E4030C0000020403FC0B1
:104F800024402E00300000000F00108020402240FE
:104F90003380020020403FC0040004003FC0204096
:104FA000204020403FC020402040000000602020E2
:104FB00020203FC02000200020403FC024400B00A4
:104FC00030C0204020403FC020400040004000C092
:104FD0003FC03C0003C03C003FC0000020403FC039
:104FE0000C4023003FC020001F8020402040204074
:104FF0001F80000020403FC0244024001800000013
:105000001F802140214020E01FA0000020403FC021
:105010002440260019C0004018C0244024402240EB
:1050200031800000300020403FC0204030000000B0
:1050300020003F80004000403F80200020003E00D4
:1050400001C0070038002000380007C03C0007C03E
:1050500038000000204039C0060039C02040000060
:105060002000384007C0384020000000304021C0F8
:105070002640384020C00000000000007FE04020B3
:1050800040200000000070000C0003800040000081
:105090000000402040207FE00000000000002000D1
:1050A0004000200000000000001000100010001060
:1050B0000010001000000000400000000000000090
:1050C000000002800540054003C0004020003FC0B2
:1050D00004400440038000000000038004400440BA
:1050E0000640000000000380044024403FC0004010
:1050F000000003800540054003400000000004401C
:105100001FC0244024402000000002E0055005504C
:105110000650042020403FC00440040003C000406B
:105120000000044027C000400000000000100010F4
:10513000041027E00000000020403FC001400700AD
:1051400004C00440204020403FC000400040000018
:1051500007C0040007C0040003C00000044007C0EB
:105160000440040003C000400000038004400440E9
:1051700003800000041007F0045004400380000086
:10518000000003800440045007F00010044007C0F2
:1051900002400400040000000000064005400540F5
:1051A00004C00000000004001F8004400040000014
:1051B000040007800040044007C0004004000700CE
:1051C00004C0018006000400060001C0070001C001
:1051D00006000000044006C0010006C004400000B4
:1051E0000410071004E001800600040000000440E1
:1051F00005C00640044000000000000004007BE001
:1052000040200000000000000000FFF0000000004F
:10521000000040207BE0040000000000400080000F
:1052200040002000200040000000000000000000BE
:1052300000000000000000000000000000001FCC83
:10524000000C0000000000000000080030006000BA
:105250000800300060000000022003FC1E20022035
:1052600003FC1E200220000000000E1811043FFF66
:1052700010840C78000000000F0010840F3800C06C
:10528000077818840078000000780F8410C4112477
:105290000E9800E400840008080068007000000018
:1052A000000000000000000000000000000007E017
:1052B00018182004400200000000400220041818C2
:1052C00007E00000000000000240024001800FF0F3
:1052D00001800240024000000080008000800FF842
:1052E00000800080008000000001000D000E000022
:1052F000000000000000000000000080008000802E
:1053000000800080008000800000000C000C000085
:10531000000000000000000000000006001800600F
:105320000180060018002000000007F008081004A3
:105330001004080807F000000000080408041FFC1F
:10534000000400040000000000000E0C10141024E3
:10535000104411840E0C000000000C1810041104FD
:10536000110412880C700000000000E003200424E7
:1053700008241FFC0024000000001F981084110462
:105380001104108810700000000007F00888110454
:10539000110418880070000000001C00100010FCB0
:1053A00013001C001000000000000E38114410848F
:1053B000108411440E38000000000700088C1044CF
:1053C0001044088807F00000000000000000030CF3
:1053D000030C0000000000000000000000010106B6
:1053E00000000000000000000000008001400220DA
:1053F00004100808100400000220022002200220ED
:1054000002200220022000000000100408080410FE
:10541000022001400080000000000E001200100C6D
:10542000106C10800F00000003E00C1813E414242B
:1054300017C4082807D000000004003C03C41C4027
:10544000074000E4001C000410041FFC11041104B8
:1054500011040E880070000003E00C181004100402
:10546000100410081C10000010041FFC100410048D
:105470001004080807F0000010041FFC11041104B8
:1054800017C410040818000010041FFC11041100B8
:1054900017C010000800000003E00C1810041004EE
:1054A00010441C780040000010041FFC1084008091
:1054B000008010841FFC10040000100410041FFC66
:1054C000100410040000000000030001100110018E
:1054D0001FFE10001000000010041FFC11040380C8
:1054E0001464181C1004000010041FFC10040004B5
:1054F00000040004000C000010041FFC1F0000FC4E
:105500001F001FFC1004000010041FFC0C0403000B
:1055100000E010181FFC100007F008081004100429
:105520001004080807F0000010041FFC108410800D
:10553000108010800F00000007F0081810241024BD
:10554000101C080A07F2000010041FFC11041100CF
:1055500011C011300E0C000400000E1C1104108448
:10556000108410441C3800001800100010041FFCA8
:10557000100410001800000010001FF810040004B0
:10558000000410041FF8100010001E0011E0001CA1
:10559000007013801C0010001FC0103C00E01F00B2
:1055A00000E0103C1FC000001004180C163401C0AD
:1055B00001C01634180C100410001C00130400FC69
:1055C00013041C00100000000804101C1064108458
:1055D00013041C04101800000000000000007FFEEF
:1055E0004002400240020000000030000C00038036
:1055F0000060001C00030000000040024002400266
:105600007FFE0000000000000000000020004000BD
:1056100040004000200000000001000100010001E6
:1056200000010001000100010000400040002000D6
:105630000000000000000000000000980124014468
:105640000144014400FC000410001FFC0088010418
:105650000104008800700000000000700088010450
:1056600001040104008800000000007000880104AB
:10567000010411081FFC0004000000F8014401446B
:105680000144014400C800000000010401040FFCB3
:105690001104110411001800000000D6012901298D
:1056A000012901C90106000010041FFC008401004B
:1056B0000100010400FC000400000104190419FCAD
:1056C00000040004000000000000000300010101CC
:1056D000190119FE0000000010041FFC0024004006
:1056E00001B4010C010400000000100410041FFCB0
:1056F0000004000400000000010401FC010401009A
:1057000001FC0104010000FC010401FC0084010013
:105710000100010400FC0004000000F80104010481
:105720000104010400F80000010101FF00850104EB
:10573000010400880070000000000070008801046F
:105740000104010501FF00010104010401FC0084C2
:105750000104010001800000000000CC01240124AC
:10576000012401240198000000000100010007F855
:105770000104010400000000010001F8000400041D
:105780000004010801FC0004010001800170000C0C
:10579000001001600180010001F0010C003001C027
:1057A0000030010C01F0010000000104018C0074C4
:1057B0000170018C01040000010101810171000EE2
:1057C000001801600180010000000184010C013417
:1057D00001440184010C00000000000000000000F2
:1057E00001003EFC400240020000000000000000FA
:1057F000FFFF0000000000000000400240023EFCED
:105800000100000000000000000060008000800037
:1058100040004000200020000000000000000000C8
:105820000000000000000000000000000000000078
:105830000000000000000000000000000000000068
:1058400000000000000000000000000F80380FFE84
:10585000380F803800000000000000000000000049
:105860000000000000000100000600000C000038ED
:1058700000003100000600000C000038000030007D
:10588000000000000000000061800067F807F98058
:105890000061800061800061800061800067F8071E
:1058A000F98000618000000000000000000001C0DD
:1058B000E003E0F00630080418081FFFFE040E089D
:1058C0000787F00381E000000000000001F00006FF
:1058D0000C00040408060C7001F9C0000E00003B27
:1058E000E000EC18070808040C180003E0000000B2
:1058F0000001E00007F003F818041C08041708076B
:10590000E1D003C0E00023B0003C08002008000004
:105910001000000000000001000031000032000013
:105920001C0000000000000000000000000000005B
:105930000000000000000000000000000000000067
:1059400000000000000000007F0001FFC00780F0A1
:105950000C001810000420000200000000000020CD
:1059600000021000040C00180780F001FFC0007F47
:105970000000000000000000000000000000000027
:10598000000000004200006600006600003C0000CD
:10599000180003FFC0001800003C0000660000660D
:1059A000000042000000000008000008000008009D
:1059B00000080000080001FFC00008000008000007
:1059C00008000008000008000000000000010000BE
:1059D0003100003200001C00000000000000000048
:1059E00000000000000000000000000000000000B7
:1059F0000800000800000800000800000800000877
:105A00000000080000080000080000080000000076
:105A100000000000000000003800003800003800DE
:105A20000000000000000000000000000000000076
:105A30000000000000000000000600001C000070D4
:105A4000000180000E0000380000C0000700001CAC
:105A50000000300000000000000000007F8001FF17
:105A6000E00380700600180400080400080600180F
:105A700003807001FFE0007F800000000000000054
:105A8000000001000801000801000803FFF807FFFB
:105A9000F8000008000008000008000000000000F6
:105AA00000000001C03802C0580400980401180426
:105AB0000218040418061C1803F81801E0F8000086
:105AC0000000000000000001C0E003C0F004000876
:105AD00004080804080806180803F41801E7F00091
